{
	"data": {
		"bytecode": {
			"linkReferences": {},
			"object": "60806040526305f5e100600055631dcd6500600155633b9aca006002556019600355603760045560416005556298968060065561044c6012553480156200004557600080fd5b50d380156200005357600080fd5b50d280156200006157600080fd5b5033600760006101000a81548173ffffffffffffffffffffffffffffffffffffffff021916908373ffffffffffffffffffffffffffffffffffffffff160217905550600a6018600060018152602001908152602001600020819055506014601860006002815260200190815260200160002081905550601e60186000600381526020019081526020016000208190555060016019600080815260200190815260200160002081905550600260196000600181526020019081526020016000208190555060036019600060028152602001908152602001600020819055506004601960006003815260200190815260200160002081905550615e8e80620001686000396000f3fe608060405260043610620002c65760003560e01c80638e8e0cd7116200017b578063d5309ca311620000d3578063ee37d5151162000085578063ee37d5151462000f4e578063ee588f3c1462000fae578063f5eb49561462000ffa578063f84a77001462001046578063f851a44014620010a6578063fa03e68014620010f257620002c6565b8063d5309ca31462000db6578063d7df24a01462000e02578063d855dd131462000e62578063e1c2da871462000ec2578063e4d728d41462000ef8578063ec8ae6c71462000f2e57620002c6565b8063a65fee3d116200012d578063a65fee3d1462000bbd578063b64886371462000c1d578063b856ca071462000c88578063cc0d50e61462000cd4578063ccf22dff1462000d34578063d21177951462000d8057620002c6565b80638e8e0cd714620009a55780638f32e1ac14620009f15780638f7a91b31462000a51578063a05814531462000a9d578063a2e21e291462000afd578063a58704cd1462000b5d57620002c6565b8063547246e2116200022f57806375fb552611620001e157806375fb5526146200080b5780637bc1ba14146200086b5780637cf773ee146200088b57806382c6df4514620008d7578063894ac2d914620009235780638cfd0dd6146200096f57620002c6565b8063547246e2146200066f578063556f020a14620006bb578063560aa84414620007075780635b7fdfad146200073d578063633b137014620007895780636af1c2b814620007d557620002c6565b80632e83290111620002895780632e832901146200048357806338ad5e4f14620004cd5780633f10e476146200052f5780634b10f9f7146200058f5780634bdf3a5314620005ef578063534e4eb3146200064f57620002c6565b806302dbe43f14620002cb5780630ec7335f14620003175780631656e08714620003775780631a54a0d214620003d7578063212d006a1462000437575b600080fd5b348015620002d857600080fd5b50d38015620002e657600080fd5b50d28015620002f457600080fd5b50620002ff6200113e565b6040516200030e919062004a93565b60405180910390f35b3480156200032457600080fd5b50d380156200033257600080fd5b50d280156200034057600080fd5b506200035f600480360381019062000359919062003e2c565b62001144565b6040516200036e919062004a93565b60405180910390f35b3480156200038457600080fd5b50d380156200039257600080fd5b50d28015620003a057600080fd5b50620003bf6004803603810190620003b9919062003e2c565b62001169565b604051620003ce919062004a93565b60405180910390f35b348015620003e457600080fd5b50d38015620003f257600080fd5b50d280156200040057600080fd5b506200041f600480360381019062000419919062003c49565b6200118e565b6040516200042e919062004a93565b60405180910390f35b3480156200044457600080fd5b50d380156200045257600080fd5b50d280156200046057600080fd5b506200046b620011a6565b6040516200047a919062004a93565b60405180910390f35b3480156200049057600080fd5b50d380156200049e57600080fd5b50d28015620004ac57600080fd5b50620004cb6004803603810190620004c5919062003d91565b620011ac565b005b348015620004da57600080fd5b50d38015620004e857600080fd5b50d28015620004f657600080fd5b506200051560048036038101906200050f919062003e2c565b62001639565b604051620005269392919062004c53565b60405180910390f35b3480156200053c57600080fd5b50d380156200054a57600080fd5b50d280156200055857600080fd5b5062000577600480360381019062000571919062003c49565b62001694565b60405162000586919062004859565b60405180910390f35b3480156200059c57600080fd5b50d38015620005aa57600080fd5b50d28015620005b857600080fd5b50620005d76004803603810190620005d1919062003e2c565b620016b4565b604051620005e6919062004876565b60405180910390f35b348015620005fc57600080fd5b50d380156200060a57600080fd5b50d280156200061857600080fd5b5062000637600480360381019062000631919062003c49565b620016d4565b60405162000646919062004893565b60405180910390f35b6200066d600480360381019062000667919062003ce2565b6200177c565b005b3480156200067c57600080fd5b50d380156200068a57600080fd5b50d280156200069857600080fd5b50620006a362001dc7565b604051620006b2919062004a93565b60405180910390f35b348015620006c857600080fd5b50d38015620006d657600080fd5b50d28015620006e457600080fd5b50620006ef62001dcd565b604051620006fe919062004835565b60405180910390f35b3480156200071457600080fd5b50d380156200072257600080fd5b50d280156200073057600080fd5b506200073b62001e27565b005b3480156200074a57600080fd5b50d380156200075857600080fd5b50d280156200076657600080fd5b506200077162001fd0565b60405162000780919062004835565b60405180910390f35b3480156200079657600080fd5b50d38015620007a457600080fd5b50d28015620007b257600080fd5b50620007bd6200202a565b604051620007cc919062004835565b60405180910390f35b348015620007e257600080fd5b50d38015620007f057600080fd5b50d28015620007fe57600080fd5b506200080962002084565b005b3480156200081857600080fd5b50d380156200082657600080fd5b50d280156200083457600080fd5b506200085360048036038101906200084d919062003e2c565b62002433565b60405162000862919062004893565b60405180910390f35b62000889600480360381019062000883919062003de7565b620024e8565b005b3480156200089857600080fd5b50d38015620008a657600080fd5b50d28015620008b457600080fd5b50620008bf6200275b565b604051620008ce919062004a93565b60405180910390f35b348015620008e457600080fd5b50d38015620008f257600080fd5b50d280156200090057600080fd5b506200090b62002761565b6040516200091a919062004a93565b60405180910390f35b3480156200093057600080fd5b50d380156200093e57600080fd5b50d280156200094c57600080fd5b506200095762002767565b60405162000966919062004835565b60405180910390f35b3480156200097c57600080fd5b50d380156200098a57600080fd5b50d280156200099857600080fd5b50620009a3620027c1565b005b348015620009b257600080fd5b50d38015620009c057600080fd5b50d28015620009ce57600080fd5b50620009d962002b36565b604051620009e8919062004a93565b60405180910390f35b348015620009fe57600080fd5b50d3801562000a0c57600080fd5b50d2801562000a1a57600080fd5b5062000a39600480360381019062000a33919062003ca1565b62002b3c565b60405162000a48919062004859565b60405180910390f35b34801562000a5e57600080fd5b50d3801562000a6c57600080fd5b50d2801562000a7a57600080fd5b5062000a8562002c03565b60405162000a94919062004a93565b60405180910390f35b34801562000aaa57600080fd5b50d3801562000ab857600080fd5b50d2801562000ac657600080fd5b5062000ae5600480360381019062000adf919062003e2c565b62002c09565b60405162000af4919062004a93565b60405180910390f35b34801562000b0a57600080fd5b50d3801562000b1857600080fd5b50d2801562000b2657600080fd5b5062000b45600480360381019062000b3f919062003e2c565b62002c21565b60405162000b5491906200470e565b60405180910390f35b34801562000b6a57600080fd5b50d3801562000b7857600080fd5b50d2801562000b8657600080fd5b5062000ba5600480360381019062000b9f919062003e2c565b62002c61565b60405162000bb4919062004a93565b60405180910390f35b34801562000bca57600080fd5b50d3801562000bd857600080fd5b50d2801562000be657600080fd5b5062000c05600480360381019062000bff919062003e2c565b62002c79565b60405162000c14919062004a93565b60405180910390f35b34801562000c2a57600080fd5b50d3801562000c3857600080fd5b50d2801562000c4657600080fd5b5062000c65600480360381019062000c5f919062003e2c565b62002c9e565b60405162000c7f9c9b9a9998979695949392919062004ab0565b60405180910390f35b34801562000c9557600080fd5b50d3801562000ca357600080fd5b50d2801562000cb157600080fd5b5062000cbc62002ddb565b60405162000ccb919062004811565b60405180910390f35b34801562000ce157600080fd5b50d3801562000cef57600080fd5b50d2801562000cfd57600080fd5b5062000d1c600480360381019062000d16919062003c49565b62002ea6565b60405162000d2b919062004859565b60405180910390f35b34801562000d4157600080fd5b50d3801562000d4f57600080fd5b50d2801562000d5d57600080fd5b5062000d6862002ec6565b60405162000d77919062004835565b60405180910390f35b34801562000d8d57600080fd5b50d3801562000d9b57600080fd5b50d2801562000da957600080fd5b5062000db462002f20565b005b34801562000dc357600080fd5b50d3801562000dd157600080fd5b50d2801562000ddf57600080fd5b5062000dea620031b0565b60405162000df9919062004a93565b60405180910390f35b34801562000e0f57600080fd5b50d3801562000e1d57600080fd5b50d2801562000e2b57600080fd5b5062000e4a600480360381019062000e44919062003e2c565b620031b6565b60405162000e59919062004a93565b60405180910390f35b34801562000e6f57600080fd5b50d3801562000e7d57600080fd5b50d2801562000e8b57600080fd5b5062000eaa600480360381019062000ea4919062003e2c565b620031db565b60405162000eb9919062004a93565b60405180910390f35b34801562000ecf57600080fd5b50d3801562000edd57600080fd5b50d2801562000eeb57600080fd5b5062000ef662003200565b005b34801562000f0557600080fd5b50d3801562000f1357600080fd5b50d2801562000f2157600080fd5b5062000f2c620032df565b005b62000f4c600480360381019062000f46919062003e99565b62003488565b005b34801562000f5b57600080fd5b50d3801562000f6957600080fd5b50d2801562000f7757600080fd5b5062000f96600480360381019062000f90919062003e58565b620038bd565b60405162000fa5919062004859565b60405180910390f35b34801562000fbb57600080fd5b50d3801562000fc957600080fd5b50d2801562000fd757600080fd5b5062000fe2620038ec565b60405162000ff1919062004a93565b60405180910390f35b3480156200100757600080fd5b50d380156200101557600080fd5b50d280156200102357600080fd5b506200102e620038f2565b6040516200103d9190620047c9565b60405180910390f35b3480156200105357600080fd5b50d380156200106157600080fd5b50d280156200106f57600080fd5b506200108e600480360381019062001088919062003c49565b62003982565b6040516200109d919062004a93565b60405180910390f35b348015620010b357600080fd5b50d38015620010c157600080fd5b50d28015620010cf57600080fd5b50620010da6200399a565b604051620010e991906200470e565b60405180910390f35b348015620010ff57600080fd5b50d380156200110d57600080fd5b50d280156200111b57600080fd5b5062001126620039c0565b604051620011359190620047ed565b60405180910390f35b60125481565b600d81815481106200115557600080fd5b906000526020600020016000915090505481565b600a81815481106200117a57600080fd5b906000526020600020016000915090505481565b60116020528060005260406000206000915090505481565b60065481565b60008110158015620011bf575060648111155b62001201576040517f08c379a0000000000000000000000000000000000000000000000000000000008152600401620011f89062004983565b60405180910390fd5b60008390508073ffffffffffffffffffffffffffffffffffffffff1663f851a4406040518163ffffffff1660e01b815260040160206040518083038186803b1580156200124d57600080fd5b505afa15801562001262573d6000803e3d6000fd5b505050506040513d601f19601f8201168201806040525081019062001288919062003c75565b73ffffffffffffffffffffffffffffffffffffffff163373ffffffffffffffffffffffffffffffffffffffff1614620012f8576040517f08c379a0000000000000000000000000000000000000000000000000000000008152600401620012ef9062004a4f565b60405180910390fd5b6000600f600085815260200190815260200160002060405180610180016040529081600082015481526020016001820160009054906101000a900473ffffffffffffffffffffffffffffffffffffffff1673ffffffffffffffffffffffffffffffffffffffff1673ffffffffffffffffffffffffffffffffffffffff1681526020016002820160009054906101000a900473ffffffffffffffffffffffffffffffffffffffff1673ffffffffffffffffffffffffffffffffffffffff1673ffffffffffffffffffffffffffffffffffffffff16815260200160038201548152602001600482018054620013eb9062005012565b80601f0160208091040260200160405190810160405280929190818152602001828054620014199062005012565b80156200146a5780601f106200143e576101008083540402835291602001916200146a565b820191906000526020600020905b8154815290600101906020018083116200144c57829003601f168201915b505050505081526020016005820154815260200160068201548152602001600782015481526020016008820154815260200160098201548152602001600a8201548152602001600b820160009054906101000a900460ff16151515158152505090508473ffffffffffffffffffffffffffffffffffffffff16816040015173ffffffffffffffffffffffffffffffffffffffff161462001541576040517f08c379a000000000000000000000000000000000000000000000000000000000815260040162001538906200493f565b60405180910390fd5b8060e0015143116200158a576040517f08c379a000000000000000000000000000000000000000000000000000000000815260040162001581906200491d565b60405180910390fd5b600081602001519050600284601160008473ffffffffffffffffffffffffffffffffffffffff1673ffffffffffffffffffffffffffffffffffffffff16815260200190815260200160002054620015e2919062004e08565b620015ee919062004e65565b601160008373ffffffffffffffffffffffffffffffffffffffff1673ffffffffffffffffffffffffffffffffffffffff16815260200190815260200160002081905550505050505050565b601a81815481106200164a57600080fd5b90600052602060002090600302016000915090508060000154908060010154908060020160009054906101000a900473ffffffffffffffffffffffffffffffffffffffff16905083565b60106020528060005260406000206000915054906101000a900460ff1681565b600e6020528060005260406000206000915054906101000a900460ff1681565b60166020528060005260406000206000915090508054620016f59062005012565b80601f0160208091040260200160405190810160405280929190818152602001828054620017239062005012565b8015620017745780601f10620017485761010080835404028352916020019162001774565b820191906000526020600020905b8154815290600101906020018083116200175657829003601f168201915b505050505081565b600654341015620017c4576040517f08c379a0000000000000000000000000000000000000000000000000000000008152600401620017bb90620049a5565b60405180910390fd5b601060003373ffffffffffffffffffffffffffffffffffffffff1673ffffffffffffffffffffffffffffffffffffffff16815260200190815260200160002060009054906101000a900460ff16620018b4576001601060003373ffffffffffffffffffffffffffffffffffffffff1673ffffffffffffffffffffffffffffffffffffffff16815260200190815260200160002060006101000a81548160ff0219169083151502179055506019601160003373ffffffffffffffffffffffffffffffffffffffff1673ffffffffffffffffffffffffffffffffffffffff168152602001908152602001600020819055505b620018c0338662002b3c565b62001902576040517f08c379a0000000000000000000000000000000000000000000000000000000008152600401620018f990620049c7565b60405180910390fd5b601560008773ffffffffffffffffffffffffffffffffffffffff1673ffffffffffffffffffffffffffffffffffffffff16815260200190815260200160002060009054906101000a900460ff1662001991576040517f08c379a00000000000000000000000000000000000000000000000000000000081526004016200198890620048b7565b60405180910390fd5b60125485620019a1919062004e08565b8673ffffffffffffffffffffffffffffffffffffffff16311015620019fd576040517f08c379a0000000000000000000000000000000000000000000000000000000008152600401620019f49062004a71565b60405180910390fd5b621a5e0083111562001a46576040517f08c379a000000000000000000000000000000000000000000000000000000000815260040162001a3d9062004961565b60405180910390fd5b600a821015801562001a5b57506229a0408211155b62001a9d576040517f08c379a000000000000000000000000000000000000000000000000000000000815260040162001a949062004a0b565b60405180910390fd5b6000834362001aad919062004e08565b9050600060405180610180016040528060085481526020013373ffffffffffffffffffffffffffffffffffffffff1681526020018973ffffffffffffffffffffffffffffffffffffffff168152602001888152602001878152602001838152602001858462001b1d919062004e08565b815260200184868562001b31919062004e08565b62001b3d919062004e08565b81526020016000815260200160008152602001600081526020016000151581525090506009600854908060018154018082558091505060019003906000526020600020016000909190919091505580600f600060085481526020019081526020016000206000820151816000015560208201518160010160006101000a81548173ffffffffffffffffffffffffffffffffffffffff021916908373ffffffffffffffffffffffffffffffffffffffff16021790555060408201518160020160006101000a81548173ffffffffffffffffffffffffffffffffffffffff021916908373ffffffffffffffffffffffffffffffffffffffff16021790555060608201518160030155608082015181600401908051906020019062001c6192919062003aa3565b5060a0820151816005015560c0820151816006015560e082015181600701556101008201518160080155610120820151816009015561014082015181600a015561016082015181600b0160006101000a81548160ff0219169083151502179055509050506000600e6000600854815260200190815260200160002060006101000a81548160ff0219169083600281111562001d25577f4e487b7100000000000000000000000000000000000000000000000000000000600052602160045260246000fd5b0217905550600a8290806001815401808255809150506001900390600052602060002001600090919091909150557fedf728bb853655ade0c9bdb065c2e14d929b58e14a4a495c23bb9749c1c982c86008543389884362001d87919062004e08565b8c60405162001d9b95949392919062004b89565b60405180910390a16008600081548092919062001db89062005048565b91905055505050505050505050565b60055481565b6060600980548060200260200160405190810160405280929190818152602001828054801562001e1d57602002820191906000526020600020905b81548152602001906001019080831162001e08575b5050505050905090565b60005b600a8054905081101562001fcd576000600a828154811062001e75577f4e487b7100000000000000000000000000000000000000000000000000000000600052603260045260246000fd5b906000526020600020015490508043111562001fb5576001600a8054905062001e9f919062004efe565b82101562001f4f57600a6001600a8054905062001ebd919062004efe565b8154811062001ef5577f4e487b7100000000000000000000000000000000000000000000000000000000600052603260045260246000fd5b9060005260206000200154600a838154811062001f3b577f4e487b7100000000000000000000000000000000000000000000000000000000600052603260045260246000fd5b906000526020600020018190555062001f60565b818062001f5c9062005048565b9250505b600a80548062001f99577f4e487b7100000000000000000000000000000000000000000000000000000000600052603160045260246000fd5b6001900381819060005260206000200160009055905562001fc6565b818062001fc29062005048565b9250505b5062001e2a565b50565b6060600c8054806020026020016040519081016040528092919081815260200182805480156200202057602002820191906000526020600020905b8154815260200190600101908083116200200b575b5050505050905090565b6060600b8054806020026020016040519081016040528092919081815260200182805480156200207a57602002820191906000526020600020905b81548152602001906001019080831162002065575b5050505050905090565b60005b600b8054905081101562002430576000600b8281548110620020d2577f4e487b7100000000000000000000000000000000000000000000000000000000600052603260045260246000fd5b90600052602060002001549050600f60008281526020019081526020016000206006015443111562002418576001600b8054905062002112919062004efe565b821015620021c257600b6001600b8054905062002130919062004efe565b8154811062002168577f4e487b7100000000000000000000000000000000000000000000000000000000600052603260045260246000fd5b9060005260206000200154600b8381548110620021ae577f4e487b7100000000000000000000000000000000000000000000000000000000600052603260045260246000fd5b9060005260206000200181905550620021d3565b8180620021cf9062005048565b9250505b600b8054806200220c577f4e487b7100000000000000000000000000000000000000000000000000000000600052603160045260246000fd5b60019003818190600052602060002001600090559055600d8190806001815401808255809150506001900390600052602060002001600090919091909150556002600e600083815260200190815260200160002060006101000a81548160ff02191690836002811115620022a9577f4e487b7100000000000000000000000000000000000000000000000000000000600052602160045260246000fd5b0217905550600f600082815260200190815260200160002060090154600f600083815260200190815260200160002060080154111562002412576000600f600083815260200190815260200160002060020160009054906101000a900473ffffffffffffffffffffffffffffffffffffffff16905060008190508073ffffffffffffffffffffffffffffffffffffffff16639e0994a1600f600086815260200190815260200160002060010160009054906101000a900473ffffffffffffffffffffffffffffffffffffffff16600f6000878152602001908152602001600020600301546040518363ffffffff1660e01b8152600401620023ac9291906200479c565b600060405180830381600087803b158015620023c757600080fd5b505af1158015620023dc573d6000803e3d6000fd5b505050506001600f6000858152602001908152602001600020600b0160006101000a81548160ff02191690831515021790555050505b62002429565b8180620024259062005048565b9250505b5062002087565b50565b601481815481106200244457600080fd5b906000526020600020016000915090508054620024619062005012565b80601f01602080910402602001604051908101604052809291908181526020018280546200248f9062005012565b8015620024e05780601f10620024b457610100808354040283529160200191620024e0565b820191906000526020600020905b815481529060010190602001808311620024c257829003601f168201915b505050505081565b60125434101562002530576040517f08c379a00000000000000000000000000000000000000000000000000000000081526004016200252790620049e9565b60405180910390fd5b60003382604051620025429062003b34565b6200254f92919062004768565b604051809103906000f0801580156200256c573d6000803e3d6000fd5b50905060008190508073ffffffffffffffffffffffffffffffffffffffff166108fc6064346200259d919062004efe565b9081150290604051600060405180830381858888f19350505050158015620025c9573d6000803e3d6000fd5b506001601560008373ffffffffffffffffffffffffffffffffffffffff1673ffffffffffffffffffffffffffffffffffffffff16815260200190815260200160002060006101000a81548160ff0219169083151502179055506013819080600181540180825580915050600190039060005260206000200160009091909190916101000a81548173ffffffffffffffffffffffffffffffffffffffff021916908373ffffffffffffffffffffffffffffffffffffffff160217905550601483908060018154018082558091505060019003906000526020600020016000909190919091509080519060200190620026c292919062003aa3565b5082601660008373ffffffffffffffffffffffffffffffffffffffff1673ffffffffffffffffffffffffffffffffffffffff16815260200190815260200160002090805190602001906200271892919062003aa3565b507fbbcc7c94f9d30976d4bbf1d2b4aab69df1668576635c1cafcdbed60de50b42523382346040516200274e939291906200472b565b60405180910390a1505050565b60025481565b60005481565b6060600a805480602002602001604051908101604052809291908181526020018280548015620027b757602002820191906000526020600020905b815481526020019060010190808311620027a2575b5050505050905090565b60005b601a8054905081101562002b3357601a81815481106200280d577f4e487b7100000000000000000000000000000000000000000000000000000000600052603260045260246000fd5b90600052602060002090600302016000015443111562002b1c57601a818154811062002862577f4e487b7100000000000000000000000000000000000000000000000000000000600052603260045260246000fd5b906000526020600020906003020160010154601b6000601a8481548110620028b3577f4e487b7100000000000000000000000000000000000000000000000000000000600052603260045260246000fd5b906000526020600020906003020160020160009054906101000a900473ffffffffffffffffffffffffffffffffffffffff1673ffffffffffffffffffffffffffffffffffffffff1673ffffffffffffffffffffffffffffffffffffffff168152602001908152602001600020600082825462002930919062004e08565b925050819055506001601a805490506200294b919062004efe565b81101562002a7c57601a6001601a8054905062002969919062004efe565b81548110620029a1577f4e487b7100000000000000000000000000000000000000000000000000000000600052603260045260246000fd5b9060005260206000209060030201601a8281548110620029ea577f4e487b7100000000000000000000000000000000000000000000000000000000600052603260045260246000fd5b906000526020600020906003020160008201548160000155600182015481600101556002820160009054906101000a900473ffffffffffffffffffffffffffffffffffffffff168160020160006101000a81548173ffffffffffffffffffffffffffffffffffffffff021916908373ffffffffffffffffffffffffffffffffffffffff16021790555090505062002a8d565b808062002a899062005048565b9150505b601a80548062002ac6577f4e487b7100000000000000000000000000000000000000000000000000000000600052603160045260246000fd5b600190038181906000526020600020906003020160008082016000905560018201600090556002820160006101000a81549073ffffffffffffffffffffffffffffffffffffffff02191690555050905562002b2d565b808062002b299062005048565b9150505b620027c4565b50565b60045481565b6000806000601160008673ffffffffffffffffffffffffffffffffffffffff1673ffffffffffffffffffffffffffffffffffffffff168152602001908152602001600020549050600254841062002bab5760055481101562002ba057600062002ba3565b60015b915062002bf8565b600154841062002bd35760045481101562002bc857600062002bcb565b60015b915062002bf7565b600054841062002bf65760035481101562002bf057600062002bf3565b60015b91505b5b5b819250505092915050565b60015481565b60196020528060005260406000206000915090505481565b6013818154811062002c3257600080fd5b906000526020600020016000915054906101000a900473ffffffffffffffffffffffffffffffffffffffff1681565b60186020528060005260406000206000915090505481565b600c818154811062002c8a57600080fd5b906000526020600020016000915090505481565b600f6020528060005260406000206000915090508060000154908060010160009054906101000a900473ffffffffffffffffffffffffffffffffffffffff16908060020160009054906101000a900473ffffffffffffffffffffffffffffffffffffffff169080600301549080600401805462002d1b9062005012565b80601f016020809104026020016040519081016040528092919081815260200182805462002d499062005012565b801562002d9a5780601f1062002d6e5761010080835404028352916020019162002d9a565b820191906000526020600020905b81548152906001019060200180831162002d7c57829003601f168201915b50505050509080600501549080600601549080600701549080600801549080600901549080600a01549080600b0160009054906101000a900460ff1690508c565b6060601a805480602002602001604051908101604052809291908181526020016000905b8282101562002e9d578382906000526020600020906003020160405180606001604052908160008201548152602001600182015481526020016002820160009054906101000a900473ffffffffffffffffffffffffffffffffffffffff1673ffffffffffffffffffffffffffffffffffffffff1673ffffffffffffffffffffffffffffffffffffffff16815250508152602001906001019062002dff565b50505050905090565b60156020528060005260406000206000915054906101000a900460ff1681565b6060600d80548060200260200160405190810160405280929190818152602001828054801562002f1657602002820191906000526020600020905b81548152602001906001019080831162002f01575b5050505050905090565b60005b600980549050811015620031ad5760006009828154811062002f6e577f4e487b7100000000000000000000000000000000000000000000000000000000600052603260045260246000fd5b90600052602060002001549050600f6000828152602001908152602001600020600501544311156200319557600160098054905062002fae919062004efe565b8210156200305e576009600160098054905062002fcc919062004efe565b8154811062003004577f4e487b7100000000000000000000000000000000000000000000000000000000600052603260045260246000fd5b9060005260206000200154600983815481106200304a577f4e487b7100000000000000000000000000000000000000000000000000000000600052603260045260246000fd5b90600052602060002001819055506200306f565b81806200306b9062005048565b9250505b6009805480620030a8577f4e487b7100000000000000000000000000000000000000000000000000000000600052603160045260246000fd5b60019003818190600052602060002001600090559055600b8190806001815401808255809150506001900390600052602060002001600090919091909150556001600e600083815260200190815260200160002060006101000a81548160ff0219169083600281111562003145577f4e487b7100000000000000000000000000000000000000000000000000000000600052602160045260246000fd5b02179055506000600f6000838152602001908152602001600020600601549050600c81908060018154018082558091505060019003906000526020600020016000909190919091505550620031a6565b8180620031a29062005048565b9250505b5062002f23565b50565b60085481565b60098181548110620031c757600080fd5b906000526020600020016000915090505481565b600b8181548110620031ec57600080fd5b906000526020600020016000915090505481565b6000601b60003373ffffffffffffffffffffffffffffffffffffffff1673ffffffffffffffffffffffffffffffffffffffff1681526020019081526020016000205490506000811115620032dc576000601b60003373ffffffffffffffffffffffffffffffffffffffff1673ffffffffffffffffffffffffffffffffffffffff168152602001908152602001600020819055503373ffffffffffffffffffffffffffffffffffffffff166108fc829081150290604051600060405180830381858888f19350505050158015620032da573d6000803e3d6000fd5b505b50565b60005b600c8054905081101562003485576000600c82815481106200332d577f4e487b7100000000000000000000000000000000000000000000000000000000600052603260045260246000fd5b90600052602060002001549050804311156200346d576001600c8054905062003357919062004efe565b8210156200340757600c6001600c8054905062003375919062004efe565b81548110620033ad577f4e487b7100000000000000000000000000000000000000000000000000000000600052603260045260246000fd5b9060005260206000200154600c8381548110620033f3577f4e487b7100000000000000000000000000000000000000000000000000000000600052603260045260246000fd5b906000526020600020018190555062003418565b8180620034149062005048565b9250505b600c80548062003451577f4e487b7100000000000000000000000000000000000000000000000000000000600052603160045260246000fd5b600190038181906000526020600020016000905590556200347e565b81806200347a9062005048565b9250505b50620032e2565b50565b60016002811115620034c3577f4e487b7100000000000000000000000000000000000000000000000000000000600052602160045260246000fd5b600e600085815260200190815260200160002060009054906101000a900460ff1660028111156200351d577f4e487b7100000000000000000000000000000000000000000000000000000000600052602160045260246000fd5b1462003560576040517f08c379a00000000000000000000000000000000000000000000000000000000081526004016200355790620048fb565b60405180910390fd5b6017600084815260200190815260200160002060003373ffffffffffffffffffffffffffffffffffffffff1673ffffffffffffffffffffffffffffffffffffffff16815260200190815260200160002060009054906101000a900460ff161562003601576040517f08c379a0000000000000000000000000000000000000000000000000000000008152600401620035f89062004a2d565b60405180910390fd5b60008110158015620036135750600481105b62003655576040517f08c379a00000000000000000000000000000000000000000000000000000000081526004016200364c90620048d9565b60405180910390fd5b600060196000838152602001908152602001600020543462003678919062004e9d565b90508215620036b65780600f60008681526020019081526020016000206008016000828254620036a9919062004e08565b92505081905550620036e6565b80600f60008681526020019081526020016000206009016000828254620036de919062004e08565b925050819055505b60016017600086815260200190815260200160002060003373ffffffffffffffffffffffffffffffffffffffff1673ffffffffffffffffffffffffffffffffffffffff16815260200190815260200160002060006101000a81548160ff0219169083151502179055506001600f6000868152602001908152602001600020600a01600082825462003778919062004e08565b92505081905550600060405180606001604052806018600086815260200190815260200160002054600f600089815260200190815260200160002060060154620037c3919062004e08565b81526020013481526020013373ffffffffffffffffffffffffffffffffffffffff168152509050601a819080600181540180825580915050600190039060005260206000209060030201600090919091909150600082015181600001556020820151816001015560408201518160020160006101000a81548173ffffffffffffffffffffffffffffffffffffffff021916908373ffffffffffffffffffffffffffffffffffffffff16021790555050507f7471237a4e1cc8f43c5cbf54b29859c965be218917f4e37e236c6d970de4003a853334858888604051620038ae9695949392919062004be6565b60405180910390a15050505050565b60176020528160005260406000206020528060005260406000206000915091509054906101000a900460ff1681565b60035481565b606060138054806020026020016040519081016040528092919081815260200182805480156200397857602002820191906000526020600020905b8160009054906101000a900473ffffffffffffffffffffffffffffffffffffffff1673ffffffffffffffffffffffffffffffffffffffff16815260200190600101908083116200392d575b5050505050905090565b601b6020528060005260406000206000915090505481565b600760009054906101000a900473ffffffffffffffffffffffffffffffffffffffff1681565b60606014805480602002602001604051908101604052809291908181526020016000905b8282101562003a9a57838290600052602060002001805462003a069062005012565b80601f016020809104026020016040519081016040528092919081815260200182805462003a349062005012565b801562003a855780601f1062003a595761010080835404028352916020019162003a85565b820191906000526020600020905b81548152906001019060200180831162003a6757829003601f168201915b505050505081526020019060010190620039e4565b50505050905090565b82805462003ab19062005012565b90600052602060002090601f01602090048101928262003ad5576000855562003b21565b82601f1062003af057805160ff191683800117855562003b21565b8280016001018555821562003b21579182015b8281111562003b2057825182559160200191906001019062003b03565b5b50905062003b30919062003b42565b5090565b610c6180620051f883390190565b5b8082111562003b5d57600081600090555060010162003b43565b5090565b600062003b7862003b728462004cc4565b62004c90565b90508281526020810184848401111562003b9157600080fd5b62003b9e84828562004fcd565b509392505050565b60008135905062003bb781620051a9565b62003bc28162004f39565b905092915050565b60008151905062003bdb81620051a9565b62003be68162004f39565b905092915050565b60008135905062003bff81620051c3565b92915050565b600082601f83011262003c1757600080fd5b813562003c2984826020860162003b61565b91505092915050565b60008135905062003c4381620051dd565b92915050565b60006020828403121562003c5c57600080fd5b600062003c6c8482850162003ba6565b91505092915050565b60006020828403121562003c8857600080fd5b600062003c988482850162003bca565b91505092915050565b6000806040838503121562003cb557600080fd5b600062003cc58582860162003ba6565b925050602062003cd88582860162003c32565b9150509250929050565b60008060008060008060c0878903121562003cfc57600080fd5b600062003d0c89828a0162003ba6565b965050602062003d1f89828a0162003c32565b955050604087013567ffffffffffffffff81111562003d3d57600080fd5b62003d4b89828a0162003c05565b945050606062003d5e89828a0162003c32565b935050608062003d7189828a0162003c32565b92505060a062003d8489828a0162003c32565b9150509295509295509295565b60008060006060848603121562003da757600080fd5b600062003db78682870162003ba6565b935050602062003dca8682870162003c32565b925050604062003ddd8682870162003c32565b9150509250925092565b60006020828403121562003dfa57600080fd5b600082013567ffffffffffffffff81111562003e1557600080fd5b62003e238482850162003c05565b91505092915050565b60006020828403121562003e3f57600080fd5b600062003e4f8482850162003c32565b91505092915050565b6000806040838503121562003e6c57600080fd5b600062003e7c8582860162003c32565b925050602062003e8f8582860162003ba6565b9150509250929050565b60008060006060848603121562003eaf57600080fd5b600062003ebf8682870162003c32565b935050602062003ed28682870162003bee565b925050604062003ee58682870162003c32565b9150509250925092565b600062003efd838362003f53565b60208301905092915050565b600062003f17838362004156565b905092915050565b600062003f2d8383620046a4565b60608301905092915050565b600062003f478383620046ec565b60208301905092915050565b62003f5e8162004f39565b82525050565b62003f6f8162004f39565b82525050565b600062003f828262004d37565b62003f8e818562004da2565b935062003f9b8362004cf7565b8060005b8381101562003fd257815162003fb6888262003eef565b975062003fc38362004d6e565b92505060018101905062003f9f565b5085935050505092915050565b600062003fec8262004d42565b62003ff8818562004db3565b9350836020820285016200400c8562004d07565b8060005b858110156200404e57848403895281516200402c858262003f09565b9450620040398362004d7b565b925060208a0199505060018101905062004010565b50829750879550505050505092915050565b60006200406d8262004d4d565b62004079818562004dc4565b9350620040868362004d17565b8060005b83811015620040bd578151620040a1888262003f1f565b9750620040ae8362004d88565b9250506001810190506200408a565b5085935050505092915050565b6000620040d78262004d58565b620040e3818562004dd5565b9350620040f08362004d27565b8060005b83811015620041275781516200410b888262003f39565b9750620041188362004d95565b925050600181019050620040f4565b5085935050505092915050565b6200413f8162004f4d565b82525050565b620041508162004fb9565b82525050565b6000620041638262004d63565b6200416f818562004de6565b93506200418181856020860162004fdc565b6200418c8162005181565b840191505092915050565b6000620041a48262004d63565b620041b0818562004df7565b9350620041c281856020860162004fdc565b620041cd8162005181565b840191505092915050565b6000620041e7602a8362004df7565b91507f7472656173757279206164647265737320706173736564206973206e6f74206160008301527f20747265617375726572000000000000000000000000000000000000000000006020830152604082019050919050565b60006200424f60178362004df7565b91507f636f6e76696374696f6e206f7574206f662072616e67650000000000000000006000830152602082019050919050565b60006200429160188362004df7565b91507f726566657265646e756d206973206e6f742061637469766500000000000000006000830152602082019050919050565b6000620042d360178362004df7565b91507f73636f72696e67206e6f7420616c6c6f776564207965740000000000000000006000830152602082019050919050565b60006200431560208362004df7565b91507f6e6f7420747265617375726572206f66207265666572656e64756d496e6465786000830152602082019050919050565b600062004357602a8362004df7565b91507f7374617274496e4e756d426c6f636b73206d757374206265206c65737320746860008301527f616e2031373238303030000000000000000000000000000000000000000000006020830152604082019050919050565b6000620043bf60178362004df7565b91507f73636f72652072616e6765206973203020746f203130300000000000000000006000830152602082019050919050565b600062004401603c8362004df7565b91507f6e65656420746f20706179206174206c656173742072656672656e64756d466560008301527f6520746f206372656174652061206e6577207265666572656e64756d000000006020830152604082019050919050565b60006200446960298362004df7565b91507f62656e65666963696172792073636f726520746f6f206c6f7720666f7220746860008301527f697320616d6f756e7400000000000000000000000000000000000000000000006020830152604082019050919050565b6000620044d1601f8362004df7565b91507f6c61756e6368696e6720747265617375727920726571756972657320545258006000830152602082019050919050565b60006200451360218362004df7565b91507f6475726174696f6e206d757374206265203c3d32373238303030206e203e3d3160008301527f30000000000000000000000000000000000000000000000000000000000000006020830152604082019050919050565b60006200457b60298362004df7565b91507f6164647265737320616c726561647920766f74656420666f722074686973207260008301527f65666572656e64756d00000000000000000000000000000000000000000000006020830152604082019050919050565b6000620045e360268362004df7565b91507f6d7573742062652061646d696e206f662074686520747265617375727920746f60008301527f2073636f726500000000000000000000000000000000000000000000000000006020830152604082019050919050565b60006200464b60248362004df7565b91507f74726561737572657220646f6573206e6f74206861766520656e6f756768206660008301527f756e6473000000000000000000000000000000000000000000000000000000006020830152604082019050919050565b606082016000820151620046bc6000850182620046ec565b506020820151620046d16020850182620046ec565b506040820151620046e6604085018262003f53565b50505050565b620046f78162004faf565b82525050565b620047088162004faf565b82525050565b600060208201905062004725600083018462003f64565b92915050565b600060608201905062004742600083018662003f64565b62004751602083018562003f64565b620047606040830184620046fd565b949350505050565b60006040820190506200477f600083018562003f64565b818103602083015262004793818462004197565b90509392505050565b6000604082019050620047b3600083018562003f64565b620047c26020830184620046fd565b9392505050565b60006020820190508181036000830152620047e5818462003f75565b905092915050565b6000602082019050818103600083015262004809818462003fdf565b905092915050565b600060208201905081810360008301526200482d818462004060565b905092915050565b60006020820190508181036000830152620048518184620040ca565b905092915050565b600060208201905062004870600083018462004134565b92915050565b60006020820190506200488d600083018462004145565b92915050565b60006020820190508181036000830152620048af818462004197565b905092915050565b60006020820190508181036000830152620048d281620041d8565b9050919050565b60006020820190508181036000830152620048f48162004240565b9050919050565b60006020820190508181036000830152620049168162004282565b9050919050565b600060208201905081810360008301526200493881620042c4565b9050919050565b600060208201905081810360008301526200495a8162004306565b9050919050565b600060208201905081810360008301526200497c8162004348565b9050919050565b600060208201905081810360008301526200499e81620043b0565b9050919050565b60006020820190508181036000830152620049c081620043f2565b9050919050565b60006020820190508181036000830152620049e2816200445a565b9050919050565b6000602082019050818103600083015262004a0481620044c2565b9050919050565b6000602082019050818103600083015262004a268162004504565b9050919050565b6000602082019050818103600083015262004a48816200456c565b9050919050565b6000602082019050818103600083015262004a6a81620045d4565b9050919050565b6000602082019050818103600083015262004a8c816200463c565b9050919050565b600060208201905062004aaa6000830184620046fd565b92915050565b60006101808201905062004ac8600083018f620046fd565b62004ad7602083018e62003f64565b62004ae6604083018d62003f64565b62004af5606083018c620046fd565b818103608083015262004b09818b62004197565b905062004b1a60a083018a620046fd565b62004b2960c0830189620046fd565b62004b3860e0830188620046fd565b62004b48610100830187620046fd565b62004b58610120830186620046fd565b62004b68610140830185620046fd565b62004b7861016083018462004134565b9d9c50505050505050505050505050565b600060a08201905062004ba06000830188620046fd565b62004baf602083018762003f64565b62004bbe6040830186620046fd565b62004bcd6060830185620046fd565b62004bdc608083018462003f64565b9695505050505050565b600060c08201905062004bfd6000830189620046fd565b62004c0c602083018862003f64565b62004c1b6040830187620046fd565b62004c2a6060830186620046fd565b62004c39608083018562004134565b62004c4860a0830184620046fd565b979650505050505050565b600060608201905062004c6a6000830186620046fd565b62004c796020830185620046fd565b62004c88604083018462003f64565b949350505050565b6000604051905081810181811067ffffffffffffffff8211171562004cba5762004cb962005152565b5b8060405250919050565b600067ffffffffffffffff82111562004ce25762004ce162005152565b5b601f19601f8301169050602081019050919050565b6000819050602082019050919050565b6000819050602082019050919050565b6000819050602082019050919050565b6000819050602082019050919050565b600081519050919050565b600081519050919050565b600081519050919050565b600081519050919050565b600081519050919050565b6000602082019050919050565b6000602082019050919050565b6000602082019050919050565b6000602082019050919050565b600082825260208201905092915050565b600082825260208201905092915050565b600082825260208201905092915050565b600082825260208201905092915050565b600082825260208201905092915050565b600082825260208201905092915050565b600062004e158262004faf565b915062004e228362004faf565b9250827fffffffffffffffffffffffffffffffffffffffffffffffffffffffffffffffff0382111562004e5a5762004e5962005096565b5b828201905092915050565b600062004e728262004faf565b915062004e7f8362004faf565b92508262004e925762004e91620050c5565b5b828204905092915050565b600062004eaa8262004faf565b915062004eb78362004faf565b9250817fffffffffffffffffffffffffffffffffffffffffffffffffffffffffffffffff048311821515161562004ef35762004ef262005096565b5b828202905092915050565b600062004f0b8262004faf565b915062004f188362004faf565b92508282101562004f2e5762004f2d62005096565b5b828203905092915050565b600062004f468262004f6e565b9050919050565b60008115159050919050565b600081905062004f698262005192565b919050565b600073ffffffffffffffffffffffffffffffffffffffff82169050919050565b600074ffffffffffffffffffffffffffffffffffffffffff82169050919050565b6000819050919050565b600062004fc68262004f59565b9050919050565b82818337600083830152505050565b60005b8381101562004ffc57808201518184015260208101905062004fdf565b838111156200500c576000848401525b50505050565b600060028204905060018216806200502b57607f821691505b6020821081141562005042576200504162005123565b5b50919050565b6000620050558262004faf565b91507fffffffffffffffffffffffffffffffffffffffffffffffffffffffffffffffff8214156200508b576200508a62005096565b5b600182019050919050565b7f4e487b7100000000000000000000000000000000000000000000000000000000600052601160045260246000fd5b7f4e487b7100000000000000000000000000000000000000000000000000000000600052601260045260246000fd5b7f4e487b7100000000000000000000000000000000000000000000000000000000600052602160045260246000fd5b7f4e487b7100000000000000000000000000000000000000000000000000000000600052602260045260246000fd5b7f4e487b7100000000000000000000000000000000000000000000000000000000600052604160045260246000fd5b6000601f19601f8301169050919050565b60038110620051a657620051a5620050f4565b5b50565b620051b48162004f8e565b8114620051c057600080fd5b50565b620051ce8162004f4d565b8114620051da57600080fd5b50565b620051e88162004faf565b8114620051f457600080fd5b5056fe60806040523480156200001157600080fd5b50d380156200001f57600080fd5b50d280156200002d57600080fd5b5060405162000c6138038062000c6183398181016040528101906200005391906200023b565b816000806101000a81548173ffffffffffffffffffffffffffffffffffffffff021916908373ffffffffffffffffffffffffffffffffffffffff16021790555033600160006101000a81548173ffffffffffffffffffffffffffffffffffffffff021916908373ffffffffffffffffffffffffffffffffffffffff1602179055508060029080519060200190620000ec929190620000f5565b50505062000435565b828054620001039062000387565b90600052602060002090601f01602090048101928262000127576000855562000173565b82601f106200014257805160ff191683800117855562000173565b8280016001018555821562000173579182015b828111156200017257825182559160200191906001019062000155565b5b50905062000182919062000186565b5090565b5b80821115620001a157600081600090555060010162000187565b5090565b6000620001bc620001b684620002c9565b62000295565b905082815260208101848484011115620001d557600080fd5b620001e284828562000351565b509392505050565b600081519050620001fb816200041b565b6200020681620002fc565b905092915050565b600082601f8301126200022057600080fd5b815162000232848260208601620001a5565b91505092915050565b600080604083850312156200024f57600080fd5b60006200025f85828601620001ea565b925050602083015167ffffffffffffffff8111156200027d57600080fd5b6200028b858286016200020e565b9150509250929050565b6000604051905081810181811067ffffffffffffffff82111715620002bf57620002be620003ec565b5b8060405250919050565b600067ffffffffffffffff821115620002e757620002e6620003ec565b5b601f19601f8301169050602081019050919050565b6000620003098262000310565b9050919050565b600073ffffffffffffffffffffffffffffffffffffffff82169050919050565b600074ffffffffffffffffffffffffffffffffffffffffff82169050919050565b60005b838110156200037157808201518184015260208101905062000354565b8381111562000381576000848401525b50505050565b60006002820490506001821680620003a057607f821691505b60208210811415620003b757620003b6620003bd565b5b50919050565b7f4e487b7100000000000000000000000000000000000000000000000000000000600052602260045260246000fd5b7f4e487b7100000000000000000000000000000000000000000000000000000000600052604160045260246000fd5b620004268162000330565b81146200043257600080fd5b50565b61081c80620004456000396000f3fe6080604052600436106100595760003560e01c806306fdde031461009e5780639e0994a1146100e3578063a1b8693f146100ff578063b32c935614610144578063c1e1eb2714610189578063f851a440146101ba57610099565b36610099577f88a5966d370b9919b20f3e2c13ff65706f196a4e32cc2c12bf57088f88525874333460405161008f9291906105f4565b60405180910390a1005b600080fd5b3480156100aa57600080fd5b50d380156100b757600080fd5b50d280156100c457600080fd5b506100cd6101ff565b6040516100da919061061d565b60405180910390f35b6100fd60048036038101906100f891906104c6565b61028d565b005b34801561010b57600080fd5b50d3801561011857600080fd5b50d2801561012557600080fd5b5061012e610368565b60405161013b91906105d9565b60405180910390f35b34801561015057600080fd5b50d3801561015d57600080fd5b50d2801561016a57600080fd5b5061017361038e565b604051610180919061067f565b60405180910390f35b34801561019557600080fd5b50d380156101a257600080fd5b50d280156101af57600080fd5b506101b8610396565b005b3480156101c657600080fd5b50d380156101d357600080fd5b50d280156101e057600080fd5b506101e961046d565b6040516101f691906105d9565b60405180910390f35b6002805461020c90610746565b80601f016020809104026020016040519081016040528092919081815260200182805461023890610746565b80156102855780601f1061025a57610100808354040283529160200191610285565b820191906000526020600020905b81548152906001019060200180831161026857829003601f168201915b505050505081565b600160009054906101000a900473ffffffffffffffffffffffffffffffffffffffff1673ffffffffffffffffffffffffffffffffffffffff163373ffffffffffffffffffffffffffffffffffffffff161461031d576040517f08c379a00000000000000000000000000000000000000000000000000000000081526004016103149061063f565b60405180910390fd5b8173ffffffffffffffffffffffffffffffffffffffff166108fc829081150290604051600060405180830381858888f19350505050158015610363573d6000803e3d6000fd5b505050565b600160009054906101000a900473ffffffffffffffffffffffffffffffffffffffff1681565b600047905090565b60008054906101000a900473ffffffffffffffffffffffffffffffffffffffff1673ffffffffffffffffffffffffffffffffffffffff163373ffffffffffffffffffffffffffffffffffffffff1614610424576040517f08c379a000000000000000000000000000000000000000000000000000000000815260040161041b9061065f565b60405180910390fd5b3373ffffffffffffffffffffffffffffffffffffffff166108fc479081150290604051600060405180830381858888f1935050505015801561046a573d6000803e3d6000fd5b50565b60008054906101000a900473ffffffffffffffffffffffffffffffffffffffff1681565b6000813590506104a0816107b8565b6104a9816106b6565b905092915050565b6000813590506104c0816107cf565b92915050565b600080604083850312156104d957600080fd5b60006104e785828601610491565b92505060206104f8858286016104b1565b9150509250929050565b61050b816106b6565b82525050565b600061051c8261069a565b61052681856106a5565b9350610536818560208601610713565b61053f816107a7565b840191505092915050565b60006105576018836106a5565b91507f616374696f6e206f6e6c7920666f7220676f7641646d696e00000000000000006000830152602082019050919050565b60006105976015836106a5565b91507f616374696f6e206f6e6c7920666f722061646d696e00000000000000000000006000830152602082019050919050565b6105d381610709565b82525050565b60006020820190506105ee6000830184610502565b92915050565b60006040820190506106096000830185610502565b61061660208301846105ca565b9392505050565b600060208201905081810360008301526106378184610511565b905092915050565b600060208201905081810360008301526106588161054a565b9050919050565b600060208201905081810360008301526106788161058a565b9050919050565b600060208201905061069460008301846105ca565b92915050565b600081519050919050565b600082825260208201905092915050565b60006106c1826106c8565b9050919050565b600073ffffffffffffffffffffffffffffffffffffffff82169050919050565b600074ffffffffffffffffffffffffffffffffffffffffff82169050919050565b6000819050919050565b60005b83811015610731578082015181840152602081019050610716565b83811115610740576000848401525b50505050565b6000600282049050600182168061075e57607f821691505b6020821081141561077257610771610778565b5b50919050565b7f4e487b7100000000000000000000000000000000000000000000000000000000600052602260045260246000fd5b6000601f19601f8301169050919050565b6107c1816106e8565b81146107cc57600080fd5b50565b6107d881610709565b81146107e357600080fd5b5056fea26469706673582212205ec49233a25e3a98796a8f291bf1c80b3ea85e4c7315a1a27770298c1935a1b064736f6c63430008000033a26469706673582212200c6658445210c56622f8758303764214e90193c75f7fc2bb50a2262a158f4b3964736f6c63430008000033",
			"opcodes": "PUSH1 0x80 PUSH1 0x40 MSTORE PUSH4 0x5F5E100 PUSH1 0x0 SSTORE PUSH4 0x1DCD6500 PUSH1 0x1 SSTORE PUSH4 0x3B9ACA00 PUSH1 0x2 SSTORE PUSH1 0x19 PUSH1 0x3 SSTORE PUSH1 0x37 PUSH1 0x4 SSTORE PUSH1 0x41 PUSH1 0x5 SSTORE PUSH3 0x989680 PUSH1 0x6 SSTORE PUSH2 0x44C PUSH1 0x12 SSTORE CALLVALUE DUP1 ISZERO PUSH3 0x45 JUMPI PUSH1 0x0 DUP1 REVERT JUMPDEST POP CALLTOKENID DUP1 ISZERO PUSH3 0x53 JUMPI PUSH1 0x0 DUP1 REVERT JUMPDEST POP CALLTOKENVALUE DUP1 ISZERO PUSH3 0x61 JUMPI PUSH1 0x0 DUP1 REVERT JUMPDEST POP CALLER PUSH1 0x7 PUSH1 0x0 PUSH2 0x100 EXP DUP2 SLOAD DUP2 PUSH20 0xFFFFFFFFFFFFFFFFFFFFFFFFFFFFFFFFFFFFFFFF MUL NOT AND SWAP1 DUP4 PUSH20 0xFFFFFFFFFFFFFFFFFFFFFFFFFFFFFFFFFFFFFFFF AND MUL OR SWAP1 SSTORE POP PUSH1 0xA PUSH1 0x18 PUSH1 0x0 PUSH1 0x1 DUP2 MSTORE PUSH1 0x20 ADD SWAP1 DUP2 MSTORE PUSH1 0x20 ADD PUSH1 0x0 KECCAK256 DUP2 SWAP1 SSTORE POP PUSH1 0x14 PUSH1 0x18 PUSH1 0x0 PUSH1 0x2 DUP2 MSTORE PUSH1 0x20 ADD SWAP1 DUP2 MSTORE PUSH1 0x20 ADD PUSH1 0x0 KECCAK256 DUP2 SWAP1 SSTORE POP PUSH1 0x1E PUSH1 0x18 PUSH1 0x0 PUSH1 0x3 DUP2 MSTORE PUSH1 0x20 ADD SWAP1 DUP2 MSTORE PUSH1 0x20 ADD PUSH1 0x0 KECCAK256 DUP2 SWAP1 SSTORE POP PUSH1 0x1 PUSH1 0x19 PUSH1 0x0 DUP1 DUP2 MSTORE PUSH1 0x20 ADD SWAP1 DUP2 MSTORE PUSH1 0x20 ADD PUSH1 0x0 KECCAK256 DUP2 SWAP1 SSTORE POP PUSH1 0x2 PUSH1 0x19 PUSH1 0x0 PUSH1 0x1 DUP2 MSTORE PUSH1 0x20 ADD SWAP1 DUP2 MSTORE PUSH1 0x20 ADD PUSH1 0x0 KECCAK256 DUP2 SWAP1 SSTORE POP PUSH1 0x3 PUSH1 0x19 PUSH1 0x0 PUSH1 0x2 DUP2 MSTORE PUSH1 0x20 ADD SWAP1 DUP2 MSTORE PUSH1 0x20 ADD PUSH1 0x0 KECCAK256 DUP2 SWAP1 SSTORE POP PUSH1 0x4 PUSH1 0x19 PUSH1 0x0 PUSH1 0x3 DUP2 MSTORE PUSH1 0x20 ADD SWAP1 DUP2 MSTORE PUSH1 0x20 ADD PUSH1 0x0 KECCAK256 DUP2 SWAP1 SSTORE POP PUSH2 0x5E8E DUP1 PUSH3 0x168 PUSH1 0x0 CODECOPY PUSH1 0x0 RETURN INVALID PUSH1 0x80 PUSH1 0x40 MSTORE PUSH1 0x4 CALLDATASIZE LT PUSH3 0x2C6 JUMPI PUSH1 0x0 CALLDATALOAD PUSH1 0xE0 SHR DUP1 PUSH4 0x8E8E0CD7 GT PUSH3 0x17B JUMPI DUP1 PUSH4 0xD5309CA3 GT PUSH3 0xD3 JUMPI DUP1 PUSH4 0xEE37D515 GT PUSH3 0x85 JUMPI DUP1 PUSH4 0xEE37D515 EQ PUSH3 0xF4E JUMPI DUP1 PUSH4 0xEE588F3C EQ PUSH3 0xFAE JUMPI DUP1 PUSH4 0xF5EB4956 EQ PUSH3 0xFFA JUMPI DUP1 PUSH4 0xF84A7700 EQ PUSH3 0x1046 JUMPI DUP1 PUSH4 0xF851A440 EQ PUSH3 0x10A6 JUMPI DUP1 PUSH4 0xFA03E680 EQ PUSH3 0x10F2 JUMPI PUSH3 0x2C6 JUMP JUMPDEST DUP1 PUSH4 0xD5309CA3 EQ PUSH3 0xDB6 JUMPI DUP1 PUSH4 0xD7DF24A0 EQ PUSH3 0xE02 JUMPI DUP1 PUSH4 0xD855DD13 EQ PUSH3 0xE62 JUMPI DUP1 PUSH4 0xE1C2DA87 EQ PUSH3 0xEC2 JUMPI DUP1 PUSH4 0xE4D728D4 EQ PUSH3 0xEF8 JUMPI DUP1 PUSH4 0xEC8AE6C7 EQ PUSH3 0xF2E JUMPI PUSH3 0x2C6 JUMP JUMPDEST DUP1 PUSH4 0xA65FEE3D GT PUSH3 0x12D JUMPI DUP1 PUSH4 0xA65FEE3D EQ PUSH3 0xBBD JUMPI DUP1 PUSH4 0xB6488637 EQ PUSH3 0xC1D JUMPI DUP1 PUSH4 0xB856CA07 EQ PUSH3 0xC88 JUMPI DUP1 PUSH4 0xCC0D50E6 EQ PUSH3 0xCD4 JUMPI DUP1 PUSH4 0xCCF22DFF EQ PUSH3 0xD34 JUMPI DUP1 PUSH4 0xD2117795 EQ PUSH3 0xD80 JUMPI PUSH3 0x2C6 JUMP JUMPDEST DUP1 PUSH4 0x8E8E0CD7 EQ PUSH3 0x9A5 JUMPI DUP1 PUSH4 0x8F32E1AC EQ PUSH3 0x9F1 JUMPI DUP1 PUSH4 0x8F7A91B3 EQ PUSH3 0xA51 JUMPI DUP1 PUSH4 0xA0581453 EQ PUSH3 0xA9D JUMPI DUP1 PUSH4 0xA2E21E29 EQ PUSH3 0xAFD JUMPI DUP1 PUSH4 0xA58704CD EQ PUSH3 0xB5D JUMPI PUSH3 0x2C6 JUMP JUMPDEST DUP1 PUSH4 0x547246E2 GT PUSH3 0x22F JUMPI DUP1 PUSH4 0x75FB5526 GT PUSH3 0x1E1 JUMPI DUP1 PUSH4 0x75FB5526 EQ PUSH3 0x80B JUMPI DUP1 PUSH4 0x7BC1BA14 EQ PUSH3 0x86B JUMPI DUP1 PUSH4 0x7CF773EE EQ PUSH3 0x88B JUMPI DUP1 PUSH4 0x82C6DF45 EQ PUSH3 0x8D7 JUMPI DUP1 PUSH4 0x894AC2D9 EQ PUSH3 0x923 JUMPI DUP1 PUSH4 0x8CFD0DD6 EQ PUSH3 0x96F JUMPI PUSH3 0x2C6 JUMP JUMPDEST DUP1 PUSH4 0x547246E2 EQ PUSH3 0x66F JUMPI DUP1 PUSH4 0x556F020A EQ PUSH3 0x6BB JUMPI DUP1 PUSH4 0x560AA844 EQ PUSH3 0x707 JUMPI DUP1 PUSH4 0x5B7FDFAD EQ PUSH3 0x73D JUMPI DUP1 PUSH4 0x633B1370 EQ PUSH3 0x789 JUMPI DUP1 PUSH4 0x6AF1C2B8 EQ PUSH3 0x7D5 JUMPI PUSH3 0x2C6 JUMP JUMPDEST DUP1 PUSH4 0x2E832901 GT PUSH3 0x289 JUMPI DUP1 PUSH4 0x2E832901 EQ PUSH3 0x483 JUMPI DUP1 PUSH4 0x38AD5E4F EQ PUSH3 0x4CD JUMPI DUP1 PUSH4 0x3F10E476 EQ PUSH3 0x52F JUMPI DUP1 PUSH4 0x4B10F9F7 EQ PUSH3 0x58F JUMPI DUP1 PUSH4 0x4BDF3A53 EQ PUSH3 0x5EF JUMPI DUP1 PUSH4 0x534E4EB3 EQ PUSH3 0x64F JUMPI PUSH3 0x2C6 JUMP JUMPDEST DUP1 PUSH4 0x2DBE43F EQ PUSH3 0x2CB JUMPI DUP1 PUSH4 0xEC7335F EQ PUSH3 0x317 JUMPI DUP1 PUSH4 0x1656E087 EQ PUSH3 0x377 JUMPI DUP1 PUSH4 0x1A54A0D2 EQ PUSH3 0x3D7 JUMPI DUP1 PUSH4 0x212D006A EQ PUSH3 0x437 JUMPI JUMPDEST PUSH1 0x0 DUP1 REVERT JUMPDEST CALLVALUE DUP1 ISZERO PUSH3 0x2D8 JUMPI PUSH1 0x0 DUP1 REVERT JUMPDEST POP CALLTOKENID DUP1 ISZERO PUSH3 0x2E6 JUMPI PUSH1 0x0 DUP1 REVERT JUMPDEST POP CALLTOKENVALUE DUP1 ISZERO PUSH3 0x2F4 JUMPI PUSH1 0x0 DUP1 REVERT JUMPDEST POP PUSH3 0x2FF PUSH3 0x113E JUMP JUMPDEST PUSH1 0x40 MLOAD PUSH3 0x30E SWAP2 SWAP1 PUSH3 0x4A93 JUMP JUMPDEST PUSH1 0x40 MLOAD DUP1 SWAP2 SUB SWAP1 RETURN JUMPDEST CALLVALUE DUP1 ISZERO PUSH3 0x324 JUMPI PUSH1 0x0 DUP1 REVERT JUMPDEST POP CALLTOKENID DUP1 ISZERO PUSH3 0x332 JUMPI PUSH1 0x0 DUP1 REVERT JUMPDEST POP CALLTOKENVALUE DUP1 ISZERO PUSH3 0x340 JUMPI PUSH1 0x0 DUP1 REVERT JUMPDEST POP PUSH3 0x35F PUSH1 0x4 DUP1 CALLDATASIZE SUB DUP2 ADD SWAP1 PUSH3 0x359 SWAP2 SWAP1 PUSH3 0x3E2C JUMP JUMPDEST PUSH3 0x1144 JUMP JUMPDEST PUSH1 0x40 MLOAD PUSH3 0x36E SWAP2 SWAP1 PUSH3 0x4A93 JUMP JUMPDEST PUSH1 0x40 MLOAD DUP1 SWAP2 SUB SWAP1 RETURN JUMPDEST CALLVALUE DUP1 ISZERO PUSH3 0x384 JUMPI PUSH1 0x0 DUP1 REVERT JUMPDEST POP CALLTOKENID DUP1 ISZERO PUSH3 0x392 JUMPI PUSH1 0x0 DUP1 REVERT JUMPDEST POP CALLTOKENVALUE DUP1 ISZERO PUSH3 0x3A0 JUMPI PUSH1 0x0 DUP1 REVERT JUMPDEST POP PUSH3 0x3BF PUSH1 0x4 DUP1 CALLDATASIZE SUB DUP2 ADD SWAP1 PUSH3 0x3B9 SWAP2 SWAP1 PUSH3 0x3E2C JUMP JUMPDEST PUSH3 0x1169 JUMP JUMPDEST PUSH1 0x40 MLOAD PUSH3 0x3CE SWAP2 SWAP1 PUSH3 0x4A93 JUMP JUMPDEST PUSH1 0x40 MLOAD DUP1 SWAP2 SUB SWAP1 RETURN JUMPDEST CALLVALUE DUP1 ISZERO PUSH3 0x3E4 JUMPI PUSH1 0x0 DUP1 REVERT JUMPDEST POP CALLTOKENID DUP1 ISZERO PUSH3 0x3F2 JUMPI PUSH1 0x0 DUP1 REVERT JUMPDEST POP CALLTOKENVALUE DUP1 ISZERO PUSH3 0x400 JUMPI PUSH1 0x0 DUP1 REVERT JUMPDEST POP PUSH3 0x41F PUSH1 0x4 DUP1 CALLDATASIZE SUB DUP2 ADD SWAP1 PUSH3 0x419 SWAP2 SWAP1 PUSH3 0x3C49 JUMP JUMPDEST PUSH3 0x118E JUMP JUMPDEST PUSH1 0x40 MLOAD PUSH3 0x42E SWAP2 SWAP1 PUSH3 0x4A93 JUMP JUMPDEST PUSH1 0x40 MLOAD DUP1 SWAP2 SUB SWAP1 RETURN JUMPDEST CALLVALUE DUP1 ISZERO PUSH3 0x444 JUMPI PUSH1 0x0 DUP1 REVERT JUMPDEST POP CALLTOKENID DUP1 ISZERO PUSH3 0x452 JUMPI PUSH1 0x0 DUP1 REVERT JUMPDEST POP CALLTOKENVALUE DUP1 ISZERO PUSH3 0x460 JUMPI PUSH1 0x0 DUP1 REVERT JUMPDEST POP PUSH3 0x46B PUSH3 0x11A6 JUMP JUMPDEST PUSH1 0x40 MLOAD PUSH3 0x47A SWAP2 SWAP1 PUSH3 0x4A93 JUMP JUMPDEST PUSH1 0x40 MLOAD DUP1 SWAP2 SUB SWAP1 RETURN JUMPDEST CALLVALUE DUP1 ISZERO PUSH3 0x490 JUMPI PUSH1 0x0 DUP1 REVERT JUMPDEST POP CALLTOKENID DUP1 ISZERO PUSH3 0x49E JUMPI PUSH1 0x0 DUP1 REVERT JUMPDEST POP CALLTOKENVALUE DUP1 ISZERO PUSH3 0x4AC JUMPI PUSH1 0x0 DUP1 REVERT JUMPDEST POP PUSH3 0x4CB PUSH1 0x4 DUP1 CALLDATASIZE SUB DUP2 ADD SWAP1 PUSH3 0x4C5 SWAP2 SWAP1 PUSH3 0x3D91 JUMP JUMPDEST PUSH3 0x11AC JUMP JUMPDEST STOP JUMPDEST CALLVALUE DUP1 ISZERO PUSH3 0x4DA JUMPI PUSH1 0x0 DUP1 REVERT JUMPDEST POP CALLTOKENID DUP1 ISZERO PUSH3 0x4E8 JUMPI PUSH1 0x0 DUP1 REVERT JUMPDEST POP CALLTOKENVALUE DUP1 ISZERO PUSH3 0x4F6 JUMPI PUSH1 0x0 DUP1 REVERT JUMPDEST POP PUSH3 0x515 PUSH1 0x4 DUP1 CALLDATASIZE SUB DUP2 ADD SWAP1 PUSH3 0x50F SWAP2 SWAP1 PUSH3 0x3E2C JUMP JUMPDEST PUSH3 0x1639 JUMP JUMPDEST PUSH1 0x40 MLOAD PUSH3 0x526 SWAP4 SWAP3 SWAP2 SWAP1 PUSH3 0x4C53 JUMP JUMPDEST PUSH1 0x40 MLOAD DUP1 SWAP2 SUB SWAP1 RETURN JUMPDEST CALLVALUE DUP1 ISZERO PUSH3 0x53C JUMPI PUSH1 0x0 DUP1 REVERT JUMPDEST POP CALLTOKENID DUP1 ISZERO PUSH3 0x54A JUMPI PUSH1 0x0 DUP1 REVERT JUMPDEST POP CALLTOKENVALUE DUP1 ISZERO PUSH3 0x558 JUMPI PUSH1 0x0 DUP1 REVERT JUMPDEST POP PUSH3 0x577 PUSH1 0x4 DUP1 CALLDATASIZE SUB DUP2 ADD SWAP1 PUSH3 0x571 SWAP2 SWAP1 PUSH3 0x3C49 JUMP JUMPDEST PUSH3 0x1694 JUMP JUMPDEST PUSH1 0x40 MLOAD PUSH3 0x586 SWAP2 SWAP1 PUSH3 0x4859 JUMP JUMPDEST PUSH1 0x40 MLOAD DUP1 SWAP2 SUB SWAP1 RETURN JUMPDEST CALLVALUE DUP1 ISZERO PUSH3 0x59C JUMPI PUSH1 0x0 DUP1 REVERT JUMPDEST POP CALLTOKENID DUP1 ISZERO PUSH3 0x5AA JUMPI PUSH1 0x0 DUP1 REVERT JUMPDEST POP CALLTOKENVALUE DUP1 ISZERO PUSH3 0x5B8 JUMPI PUSH1 0x0 DUP1 REVERT JUMPDEST POP PUSH3 0x5D7 PUSH1 0x4 DUP1 CALLDATASIZE SUB DUP2 ADD SWAP1 PUSH3 0x5D1 SWAP2 SWAP1 PUSH3 0x3E2C JUMP JUMPDEST PUSH3 0x16B4 JUMP JUMPDEST PUSH1 0x40 MLOAD PUSH3 0x5E6 SWAP2 SWAP1 PUSH3 0x4876 JUMP JUMPDEST PUSH1 0x40 MLOAD DUP1 SWAP2 SUB SWAP1 RETURN JUMPDEST CALLVALUE DUP1 ISZERO PUSH3 0x5FC JUMPI PUSH1 0x0 DUP1 REVERT JUMPDEST POP CALLTOKENID DUP1 ISZERO PUSH3 0x60A JUMPI PUSH1 0x0 DUP1 REVERT JUMPDEST POP CALLTOKENVALUE DUP1 ISZERO PUSH3 0x618 JUMPI PUSH1 0x0 DUP1 REVERT JUMPDEST POP PUSH3 0x637 PUSH1 0x4 DUP1 CALLDATASIZE SUB DUP2 ADD SWAP1 PUSH3 0x631 SWAP2 SWAP1 PUSH3 0x3C49 JUMP JUMPDEST PUSH3 0x16D4 JUMP JUMPDEST PUSH1 0x40 MLOAD PUSH3 0x646 SWAP2 SWAP1 PUSH3 0x4893 JUMP JUMPDEST PUSH1 0x40 MLOAD DUP1 SWAP2 SUB SWAP1 RETURN JUMPDEST PUSH3 0x66D PUSH1 0x4 DUP1 CALLDATASIZE SUB DUP2 ADD SWAP1 PUSH3 0x667 SWAP2 SWAP1 PUSH3 0x3CE2 JUMP JUMPDEST PUSH3 0x177C JUMP JUMPDEST STOP JUMPDEST CALLVALUE DUP1 ISZERO PUSH3 0x67C JUMPI PUSH1 0x0 DUP1 REVERT JUMPDEST POP CALLTOKENID DUP1 ISZERO PUSH3 0x68A JUMPI PUSH1 0x0 DUP1 REVERT JUMPDEST POP CALLTOKENVALUE DUP1 ISZERO PUSH3 0x698 JUMPI PUSH1 0x0 DUP1 REVERT JUMPDEST POP PUSH3 0x6A3 PUSH3 0x1DC7 JUMP JUMPDEST PUSH1 0x40 MLOAD PUSH3 0x6B2 SWAP2 SWAP1 PUSH3 0x4A93 JUMP JUMPDEST PUSH1 0x40 MLOAD DUP1 SWAP2 SUB SWAP1 RETURN JUMPDEST CALLVALUE DUP1 ISZERO PUSH3 0x6C8 JUMPI PUSH1 0x0 DUP1 REVERT JUMPDEST POP CALLTOKENID DUP1 ISZERO PUSH3 0x6D6 JUMPI PUSH1 0x0 DUP1 REVERT JUMPDEST POP CALLTOKENVALUE DUP1 ISZERO PUSH3 0x6E4 JUMPI PUSH1 0x0 DUP1 REVERT JUMPDEST POP PUSH3 0x6EF PUSH3 0x1DCD JUMP JUMPDEST PUSH1 0x40 MLOAD PUSH3 0x6FE SWAP2 SWAP1 PUSH3 0x4835 JUMP JUMPDEST PUSH1 0x40 MLOAD DUP1 SWAP2 SUB SWAP1 RETURN JUMPDEST CALLVALUE DUP1 ISZERO PUSH3 0x714 JUMPI PUSH1 0x0 DUP1 REVERT JUMPDEST POP CALLTOKENID DUP1 ISZERO PUSH3 0x722 JUMPI PUSH1 0x0 DUP1 REVERT JUMPDEST POP CALLTOKENVALUE DUP1 ISZERO PUSH3 0x730 JUMPI PUSH1 0x0 DUP1 REVERT JUMPDEST POP PUSH3 0x73B PUSH3 0x1E27 JUMP JUMPDEST STOP JUMPDEST CALLVALUE DUP1 ISZERO PUSH3 0x74A JUMPI PUSH1 0x0 DUP1 REVERT JUMPDEST POP CALLTOKENID DUP1 ISZERO PUSH3 0x758 JUMPI PUSH1 0x0 DUP1 REVERT JUMPDEST POP CALLTOKENVALUE DUP1 ISZERO PUSH3 0x766 JUMPI PUSH1 0x0 DUP1 REVERT JUMPDEST POP PUSH3 0x771 PUSH3 0x1FD0 JUMP JUMPDEST PUSH1 0x40 MLOAD PUSH3 0x780 SWAP2 SWAP1 PUSH3 0x4835 JUMP JUMPDEST PUSH1 0x40 MLOAD DUP1 SWAP2 SUB SWAP1 RETURN JUMPDEST CALLVALUE DUP1 ISZERO PUSH3 0x796 JUMPI PUSH1 0x0 DUP1 REVERT JUMPDEST POP CALLTOKENID DUP1 ISZERO PUSH3 0x7A4 JUMPI PUSH1 0x0 DUP1 REVERT JUMPDEST POP CALLTOKENVALUE DUP1 ISZERO PUSH3 0x7B2 JUMPI PUSH1 0x0 DUP1 REVERT JUMPDEST POP PUSH3 0x7BD PUSH3 0x202A JUMP JUMPDEST PUSH1 0x40 MLOAD PUSH3 0x7CC SWAP2 SWAP1 PUSH3 0x4835 JUMP JUMPDEST PUSH1 0x40 MLOAD DUP1 SWAP2 SUB SWAP1 RETURN JUMPDEST CALLVALUE DUP1 ISZERO PUSH3 0x7E2 JUMPI PUSH1 0x0 DUP1 REVERT JUMPDEST POP CALLTOKENID DUP1 ISZERO PUSH3 0x7F0 JUMPI PUSH1 0x0 DUP1 REVERT JUMPDEST POP CALLTOKENVALUE DUP1 ISZERO PUSH3 0x7FE JUMPI PUSH1 0x0 DUP1 REVERT JUMPDEST POP PUSH3 0x809 PUSH3 0x2084 JUMP JUMPDEST STOP JUMPDEST CALLVALUE DUP1 ISZERO PUSH3 0x818 JUMPI PUSH1 0x0 DUP1 REVERT JUMPDEST POP CALLTOKENID DUP1 ISZERO PUSH3 0x826 JUMPI PUSH1 0x0 DUP1 REVERT JUMPDEST POP CALLTOKENVALUE DUP1 ISZERO PUSH3 0x834 JUMPI PUSH1 0x0 DUP1 REVERT JUMPDEST POP PUSH3 0x853 PUSH1 0x4 DUP1 CALLDATASIZE SUB DUP2 ADD SWAP1 PUSH3 0x84D SWAP2 SWAP1 PUSH3 0x3E2C JUMP JUMPDEST PUSH3 0x2433 JUMP JUMPDEST PUSH1 0x40 MLOAD PUSH3 0x862 SWAP2 SWAP1 PUSH3 0x4893 JUMP JUMPDEST PUSH1 0x40 MLOAD DUP1 SWAP2 SUB SWAP1 RETURN JUMPDEST PUSH3 0x889 PUSH1 0x4 DUP1 CALLDATASIZE SUB DUP2 ADD SWAP1 PUSH3 0x883 SWAP2 SWAP1 PUSH3 0x3DE7 JUMP JUMPDEST PUSH3 0x24E8 JUMP JUMPDEST STOP JUMPDEST CALLVALUE DUP1 ISZERO PUSH3 0x898 JUMPI PUSH1 0x0 DUP1 REVERT JUMPDEST POP CALLTOKENID DUP1 ISZERO PUSH3 0x8A6 JUMPI PUSH1 0x0 DUP1 REVERT JUMPDEST POP CALLTOKENVALUE DUP1 ISZERO PUSH3 0x8B4 JUMPI PUSH1 0x0 DUP1 REVERT JUMPDEST POP PUSH3 0x8BF PUSH3 0x275B JUMP JUMPDEST PUSH1 0x40 MLOAD PUSH3 0x8CE SWAP2 SWAP1 PUSH3 0x4A93 JUMP JUMPDEST PUSH1 0x40 MLOAD DUP1 SWAP2 SUB SWAP1 RETURN JUMPDEST CALLVALUE DUP1 ISZERO PUSH3 0x8E4 JUMPI PUSH1 0x0 DUP1 REVERT JUMPDEST POP CALLTOKENID DUP1 ISZERO PUSH3 0x8F2 JUMPI PUSH1 0x0 DUP1 REVERT JUMPDEST POP CALLTOKENVALUE DUP1 ISZERO PUSH3 0x900 JUMPI PUSH1 0x0 DUP1 REVERT JUMPDEST POP PUSH3 0x90B PUSH3 0x2761 JUMP JUMPDEST PUSH1 0x40 MLOAD PUSH3 0x91A SWAP2 SWAP1 PUSH3 0x4A93 JUMP JUMPDEST PUSH1 0x40 MLOAD DUP1 SWAP2 SUB SWAP1 RETURN JUMPDEST CALLVALUE DUP1 ISZERO PUSH3 0x930 JUMPI PUSH1 0x0 DUP1 REVERT JUMPDEST POP CALLTOKENID DUP1 ISZERO PUSH3 0x93E JUMPI PUSH1 0x0 DUP1 REVERT JUMPDEST POP CALLTOKENVALUE DUP1 ISZERO PUSH3 0x94C JUMPI PUSH1 0x0 DUP1 REVERT JUMPDEST POP PUSH3 0x957 PUSH3 0x2767 JUMP JUMPDEST PUSH1 0x40 MLOAD PUSH3 0x966 SWAP2 SWAP1 PUSH3 0x4835 JUMP JUMPDEST PUSH1 0x40 MLOAD DUP1 SWAP2 SUB SWAP1 RETURN JUMPDEST CALLVALUE DUP1 ISZERO PUSH3 0x97C JUMPI PUSH1 0x0 DUP1 REVERT JUMPDEST POP CALLTOKENID DUP1 ISZERO PUSH3 0x98A JUMPI PUSH1 0x0 DUP1 REVERT JUMPDEST POP CALLTOKENVALUE DUP1 ISZERO PUSH3 0x998 JUMPI PUSH1 0x0 DUP1 REVERT JUMPDEST POP PUSH3 0x9A3 PUSH3 0x27C1 JUMP JUMPDEST STOP JUMPDEST CALLVALUE DUP1 ISZERO PUSH3 0x9B2 JUMPI PUSH1 0x0 DUP1 REVERT JUMPDEST POP CALLTOKENID DUP1 ISZERO PUSH3 0x9C0 JUMPI PUSH1 0x0 DUP1 REVERT JUMPDEST POP CALLTOKENVALUE DUP1 ISZERO PUSH3 0x9CE JUMPI PUSH1 0x0 DUP1 REVERT JUMPDEST POP PUSH3 0x9D9 PUSH3 0x2B36 JUMP JUMPDEST PUSH1 0x40 MLOAD PUSH3 0x9E8 SWAP2 SWAP1 PUSH3 0x4A93 JUMP JUMPDEST PUSH1 0x40 MLOAD DUP1 SWAP2 SUB SWAP1 RETURN JUMPDEST CALLVALUE DUP1 ISZERO PUSH3 0x9FE JUMPI PUSH1 0x0 DUP1 REVERT JUMPDEST POP CALLTOKENID DUP1 ISZERO PUSH3 0xA0C JUMPI PUSH1 0x0 DUP1 REVERT JUMPDEST POP CALLTOKENVALUE DUP1 ISZERO PUSH3 0xA1A JUMPI PUSH1 0x0 DUP1 REVERT JUMPDEST POP PUSH3 0xA39 PUSH1 0x4 DUP1 CALLDATASIZE SUB DUP2 ADD SWAP1 PUSH3 0xA33 SWAP2 SWAP1 PUSH3 0x3CA1 JUMP JUMPDEST PUSH3 0x2B3C JUMP JUMPDEST PUSH1 0x40 MLOAD PUSH3 0xA48 SWAP2 SWAP1 PUSH3 0x4859 JUMP JUMPDEST PUSH1 0x40 MLOAD DUP1 SWAP2 SUB SWAP1 RETURN JUMPDEST CALLVALUE DUP1 ISZERO PUSH3 0xA5E JUMPI PUSH1 0x0 DUP1 REVERT JUMPDEST POP CALLTOKENID DUP1 ISZERO PUSH3 0xA6C JUMPI PUSH1 0x0 DUP1 REVERT JUMPDEST POP CALLTOKENVALUE DUP1 ISZERO PUSH3 0xA7A JUMPI PUSH1 0x0 DUP1 REVERT JUMPDEST POP PUSH3 0xA85 PUSH3 0x2C03 JUMP JUMPDEST PUSH1 0x40 MLOAD PUSH3 0xA94 SWAP2 SWAP1 PUSH3 0x4A93 JUMP JUMPDEST PUSH1 0x40 MLOAD DUP1 SWAP2 SUB SWAP1 RETURN JUMPDEST CALLVALUE DUP1 ISZERO PUSH3 0xAAA JUMPI PUSH1 0x0 DUP1 REVERT JUMPDEST POP CALLTOKENID DUP1 ISZERO PUSH3 0xAB8 JUMPI PUSH1 0x0 DUP1 REVERT JUMPDEST POP CALLTOKENVALUE DUP1 ISZERO PUSH3 0xAC6 JUMPI PUSH1 0x0 DUP1 REVERT JUMPDEST POP PUSH3 0xAE5 PUSH1 0x4 DUP1 CALLDATASIZE SUB DUP2 ADD SWAP1 PUSH3 0xADF SWAP2 SWAP1 PUSH3 0x3E2C JUMP JUMPDEST PUSH3 0x2C09 JUMP JUMPDEST PUSH1 0x40 MLOAD PUSH3 0xAF4 SWAP2 SWAP1 PUSH3 0x4A93 JUMP JUMPDEST PUSH1 0x40 MLOAD DUP1 SWAP2 SUB SWAP1 RETURN JUMPDEST CALLVALUE DUP1 ISZERO PUSH3 0xB0A JUMPI PUSH1 0x0 DUP1 REVERT JUMPDEST POP CALLTOKENID DUP1 ISZERO PUSH3 0xB18 JUMPI PUSH1 0x0 DUP1 REVERT JUMPDEST POP CALLTOKENVALUE DUP1 ISZERO PUSH3 0xB26 JUMPI PUSH1 0x0 DUP1 REVERT JUMPDEST POP PUSH3 0xB45 PUSH1 0x4 DUP1 CALLDATASIZE SUB DUP2 ADD SWAP1 PUSH3 0xB3F SWAP2 SWAP1 PUSH3 0x3E2C JUMP JUMPDEST PUSH3 0x2C21 JUMP JUMPDEST PUSH1 0x40 MLOAD PUSH3 0xB54 SWAP2 SWAP1 PUSH3 0x470E JUMP JUMPDEST PUSH1 0x40 MLOAD DUP1 SWAP2 SUB SWAP1 RETURN JUMPDEST CALLVALUE DUP1 ISZERO PUSH3 0xB6A JUMPI PUSH1 0x0 DUP1 REVERT JUMPDEST POP CALLTOKENID DUP1 ISZERO PUSH3 0xB78 JUMPI PUSH1 0x0 DUP1 REVERT JUMPDEST POP CALLTOKENVALUE DUP1 ISZERO PUSH3 0xB86 JUMPI PUSH1 0x0 DUP1 REVERT JUMPDEST POP PUSH3 0xBA5 PUSH1 0x4 DUP1 CALLDATASIZE SUB DUP2 ADD SWAP1 PUSH3 0xB9F SWAP2 SWAP1 PUSH3 0x3E2C JUMP JUMPDEST PUSH3 0x2C61 JUMP JUMPDEST PUSH1 0x40 MLOAD PUSH3 0xBB4 SWAP2 SWAP1 PUSH3 0x4A93 JUMP JUMPDEST PUSH1 0x40 MLOAD DUP1 SWAP2 SUB SWAP1 RETURN JUMPDEST CALLVALUE DUP1 ISZERO PUSH3 0xBCA JUMPI PUSH1 0x0 DUP1 REVERT JUMPDEST POP CALLTOKENID DUP1 ISZERO PUSH3 0xBD8 JUMPI PUSH1 0x0 DUP1 REVERT JUMPDEST POP CALLTOKENVALUE DUP1 ISZERO PUSH3 0xBE6 JUMPI PUSH1 0x0 DUP1 REVERT JUMPDEST POP PUSH3 0xC05 PUSH1 0x4 DUP1 CALLDATASIZE SUB DUP2 ADD SWAP1 PUSH3 0xBFF SWAP2 SWAP1 PUSH3 0x3E2C JUMP JUMPDEST PUSH3 0x2C79 JUMP JUMPDEST PUSH1 0x40 MLOAD PUSH3 0xC14 SWAP2 SWAP1 PUSH3 0x4A93 JUMP JUMPDEST PUSH1 0x40 MLOAD DUP1 SWAP2 SUB SWAP1 RETURN JUMPDEST CALLVALUE DUP1 ISZERO PUSH3 0xC2A JUMPI PUSH1 0x0 DUP1 REVERT JUMPDEST POP CALLTOKENID DUP1 ISZERO PUSH3 0xC38 JUMPI PUSH1 0x0 DUP1 REVERT JUMPDEST POP CALLTOKENVALUE DUP1 ISZERO PUSH3 0xC46 JUMPI PUSH1 0x0 DUP1 REVERT JUMPDEST POP PUSH3 0xC65 PUSH1 0x4 DUP1 CALLDATASIZE SUB DUP2 ADD SWAP1 PUSH3 0xC5F SWAP2 SWAP1 PUSH3 0x3E2C JUMP JUMPDEST PUSH3 0x2C9E JUMP JUMPDEST PUSH1 0x40 MLOAD PUSH3 0xC7F SWAP13 SWAP12 SWAP11 SWAP10 SWAP9 SWAP8 SWAP7 SWAP6 SWAP5 SWAP4 SWAP3 SWAP2 SWAP1 PUSH3 0x4AB0 JUMP JUMPDEST PUSH1 0x40 MLOAD DUP1 SWAP2 SUB SWAP1 RETURN JUMPDEST CALLVALUE DUP1 ISZERO PUSH3 0xC95 JUMPI PUSH1 0x0 DUP1 REVERT JUMPDEST POP CALLTOKENID DUP1 ISZERO PUSH3 0xCA3 JUMPI PUSH1 0x0 DUP1 REVERT JUMPDEST POP CALLTOKENVALUE DUP1 ISZERO PUSH3 0xCB1 JUMPI PUSH1 0x0 DUP1 REVERT JUMPDEST POP PUSH3 0xCBC PUSH3 0x2DDB JUMP JUMPDEST PUSH1 0x40 MLOAD PUSH3 0xCCB SWAP2 SWAP1 PUSH3 0x4811 JUMP JUMPDEST PUSH1 0x40 MLOAD DUP1 SWAP2 SUB SWAP1 RETURN JUMPDEST CALLVALUE DUP1 ISZERO PUSH3 0xCE1 JUMPI PUSH1 0x0 DUP1 REVERT JUMPDEST POP CALLTOKENID DUP1 ISZERO PUSH3 0xCEF JUMPI PUSH1 0x0 DUP1 REVERT JUMPDEST POP CALLTOKENVALUE DUP1 ISZERO PUSH3 0xCFD JUMPI PUSH1 0x0 DUP1 REVERT JUMPDEST POP PUSH3 0xD1C PUSH1 0x4 DUP1 CALLDATASIZE SUB DUP2 ADD SWAP1 PUSH3 0xD16 SWAP2 SWAP1 PUSH3 0x3C49 JUMP JUMPDEST PUSH3 0x2EA6 JUMP JUMPDEST PUSH1 0x40 MLOAD PUSH3 0xD2B SWAP2 SWAP1 PUSH3 0x4859 JUMP JUMPDEST PUSH1 0x40 MLOAD DUP1 SWAP2 SUB SWAP1 RETURN JUMPDEST CALLVALUE DUP1 ISZERO PUSH3 0xD41 JUMPI PUSH1 0x0 DUP1 REVERT JUMPDEST POP CALLTOKENID DUP1 ISZERO PUSH3 0xD4F JUMPI PUSH1 0x0 DUP1 REVERT JUMPDEST POP CALLTOKENVALUE DUP1 ISZERO PUSH3 0xD5D JUMPI PUSH1 0x0 DUP1 REVERT JUMPDEST POP PUSH3 0xD68 PUSH3 0x2EC6 JUMP JUMPDEST PUSH1 0x40 MLOAD PUSH3 0xD77 SWAP2 SWAP1 PUSH3 0x4835 JUMP JUMPDEST PUSH1 0x40 MLOAD DUP1 SWAP2 SUB SWAP1 RETURN JUMPDEST CALLVALUE DUP1 ISZERO PUSH3 0xD8D JUMPI PUSH1 0x0 DUP1 REVERT JUMPDEST POP CALLTOKENID DUP1 ISZERO PUSH3 0xD9B JUMPI PUSH1 0x0 DUP1 REVERT JUMPDEST POP CALLTOKENVALUE DUP1 ISZERO PUSH3 0xDA9 JUMPI PUSH1 0x0 DUP1 REVERT JUMPDEST POP PUSH3 0xDB4 PUSH3 0x2F20 JUMP JUMPDEST STOP JUMPDEST CALLVALUE DUP1 ISZERO PUSH3 0xDC3 JUMPI PUSH1 0x0 DUP1 REVERT JUMPDEST POP CALLTOKENID DUP1 ISZERO PUSH3 0xDD1 JUMPI PUSH1 0x0 DUP1 REVERT JUMPDEST POP CALLTOKENVALUE DUP1 ISZERO PUSH3 0xDDF JUMPI PUSH1 0x0 DUP1 REVERT JUMPDEST POP PUSH3 0xDEA PUSH3 0x31B0 JUMP JUMPDEST PUSH1 0x40 MLOAD PUSH3 0xDF9 SWAP2 SWAP1 PUSH3 0x4A93 JUMP JUMPDEST PUSH1 0x40 MLOAD DUP1 SWAP2 SUB SWAP1 RETURN JUMPDEST CALLVALUE DUP1 ISZERO PUSH3 0xE0F JUMPI PUSH1 0x0 DUP1 REVERT JUMPDEST POP CALLTOKENID DUP1 ISZERO PUSH3 0xE1D JUMPI PUSH1 0x0 DUP1 REVERT JUMPDEST POP CALLTOKENVALUE DUP1 ISZERO PUSH3 0xE2B JUMPI PUSH1 0x0 DUP1 REVERT JUMPDEST POP PUSH3 0xE4A PUSH1 0x4 DUP1 CALLDATASIZE SUB DUP2 ADD SWAP1 PUSH3 0xE44 SWAP2 SWAP1 PUSH3 0x3E2C JUMP JUMPDEST PUSH3 0x31B6 JUMP JUMPDEST PUSH1 0x40 MLOAD PUSH3 0xE59 SWAP2 SWAP1 PUSH3 0x4A93 JUMP JUMPDEST PUSH1 0x40 MLOAD DUP1 SWAP2 SUB SWAP1 RETURN JUMPDEST CALLVALUE DUP1 ISZERO PUSH3 0xE6F JUMPI PUSH1 0x0 DUP1 REVERT JUMPDEST POP CALLTOKENID DUP1 ISZERO PUSH3 0xE7D JUMPI PUSH1 0x0 DUP1 REVERT JUMPDEST POP CALLTOKENVALUE DUP1 ISZERO PUSH3 0xE8B JUMPI PUSH1 0x0 DUP1 REVERT JUMPDEST POP PUSH3 0xEAA PUSH1 0x4 DUP1 CALLDATASIZE SUB DUP2 ADD SWAP1 PUSH3 0xEA4 SWAP2 SWAP1 PUSH3 0x3E2C JUMP JUMPDEST PUSH3 0x31DB JUMP JUMPDEST PUSH1 0x40 MLOAD PUSH3 0xEB9 SWAP2 SWAP1 PUSH3 0x4A93 JUMP JUMPDEST PUSH1 0x40 MLOAD DUP1 SWAP2 SUB SWAP1 RETURN JUMPDEST CALLVALUE DUP1 ISZERO PUSH3 0xECF JUMPI PUSH1 0x0 DUP1 REVERT JUMPDEST POP CALLTOKENID DUP1 ISZERO PUSH3 0xEDD JUMPI PUSH1 0x0 DUP1 REVERT JUMPDEST POP CALLTOKENVALUE DUP1 ISZERO PUSH3 0xEEB JUMPI PUSH1 0x0 DUP1 REVERT JUMPDEST POP PUSH3 0xEF6 PUSH3 0x3200 JUMP JUMPDEST STOP JUMPDEST CALLVALUE DUP1 ISZERO PUSH3 0xF05 JUMPI PUSH1 0x0 DUP1 REVERT JUMPDEST POP CALLTOKENID DUP1 ISZERO PUSH3 0xF13 JUMPI PUSH1 0x0 DUP1 REVERT JUMPDEST POP CALLTOKENVALUE DUP1 ISZERO PUSH3 0xF21 JUMPI PUSH1 0x0 DUP1 REVERT JUMPDEST POP PUSH3 0xF2C PUSH3 0x32DF JUMP JUMPDEST STOP JUMPDEST PUSH3 0xF4C PUSH1 0x4 DUP1 CALLDATASIZE SUB DUP2 ADD SWAP1 PUSH3 0xF46 SWAP2 SWAP1 PUSH3 0x3E99 JUMP JUMPDEST PUSH3 0x3488 JUMP JUMPDEST STOP JUMPDEST CALLVALUE DUP1 ISZERO PUSH3 0xF5B JUMPI PUSH1 0x0 DUP1 REVERT JUMPDEST POP CALLTOKENID DUP1 ISZERO PUSH3 0xF69 JUMPI PUSH1 0x0 DUP1 REVERT JUMPDEST POP CALLTOKENVALUE DUP1 ISZERO PUSH3 0xF77 JUMPI PUSH1 0x0 DUP1 REVERT JUMPDEST POP PUSH3 0xF96 PUSH1 0x4 DUP1 CALLDATASIZE SUB DUP2 ADD SWAP1 PUSH3 0xF90 SWAP2 SWAP1 PUSH3 0x3E58 JUMP JUMPDEST PUSH3 0x38BD JUMP JUMPDEST PUSH1 0x40 MLOAD PUSH3 0xFA5 SWAP2 SWAP1 PUSH3 0x4859 JUMP JUMPDEST PUSH1 0x40 MLOAD DUP1 SWAP2 SUB SWAP1 RETURN JUMPDEST CALLVALUE DUP1 ISZERO PUSH3 0xFBB JUMPI PUSH1 0x0 DUP1 REVERT JUMPDEST POP CALLTOKENID DUP1 ISZERO PUSH3 0xFC9 JUMPI PUSH1 0x0 DUP1 REVERT JUMPDEST POP CALLTOKENVALUE DUP1 ISZERO PUSH3 0xFD7 JUMPI PUSH1 0x0 DUP1 REVERT JUMPDEST POP PUSH3 0xFE2 PUSH3 0x38EC JUMP JUMPDEST PUSH1 0x40 MLOAD PUSH3 0xFF1 SWAP2 SWAP1 PUSH3 0x4A93 JUMP JUMPDEST PUSH1 0x40 MLOAD DUP1 SWAP2 SUB SWAP1 RETURN JUMPDEST CALLVALUE DUP1 ISZERO PUSH3 0x1007 JUMPI PUSH1 0x0 DUP1 REVERT JUMPDEST POP CALLTOKENID DUP1 ISZERO PUSH3 0x1015 JUMPI PUSH1 0x0 DUP1 REVERT JUMPDEST POP CALLTOKENVALUE DUP1 ISZERO PUSH3 0x1023 JUMPI PUSH1 0x0 DUP1 REVERT JUMPDEST POP PUSH3 0x102E PUSH3 0x38F2 JUMP JUMPDEST PUSH1 0x40 MLOAD PUSH3 0x103D SWAP2 SWAP1 PUSH3 0x47C9 JUMP JUMPDEST PUSH1 0x40 MLOAD DUP1 SWAP2 SUB SWAP1 RETURN JUMPDEST CALLVALUE DUP1 ISZERO PUSH3 0x1053 JUMPI PUSH1 0x0 DUP1 REVERT JUMPDEST POP CALLTOKENID DUP1 ISZERO PUSH3 0x1061 JUMPI PUSH1 0x0 DUP1 REVERT JUMPDEST POP CALLTOKENVALUE DUP1 ISZERO PUSH3 0x106F JUMPI PUSH1 0x0 DUP1 REVERT JUMPDEST POP PUSH3 0x108E PUSH1 0x4 DUP1 CALLDATASIZE SUB DUP2 ADD SWAP1 PUSH3 0x1088 SWAP2 SWAP1 PUSH3 0x3C49 JUMP JUMPDEST PUSH3 0x3982 JUMP JUMPDEST PUSH1 0x40 MLOAD PUSH3 0x109D SWAP2 SWAP1 PUSH3 0x4A93 JUMP JUMPDEST PUSH1 0x40 MLOAD DUP1 SWAP2 SUB SWAP1 RETURN JUMPDEST CALLVALUE DUP1 ISZERO PUSH3 0x10B3 JUMPI PUSH1 0x0 DUP1 REVERT JUMPDEST POP CALLTOKENID DUP1 ISZERO PUSH3 0x10C1 JUMPI PUSH1 0x0 DUP1 REVERT JUMPDEST POP CALLTOKENVALUE DUP1 ISZERO PUSH3 0x10CF JUMPI PUSH1 0x0 DUP1 REVERT JUMPDEST POP PUSH3 0x10DA PUSH3 0x399A JUMP JUMPDEST PUSH1 0x40 MLOAD PUSH3 0x10E9 SWAP2 SWAP1 PUSH3 0x470E JUMP JUMPDEST PUSH1 0x40 MLOAD DUP1 SWAP2 SUB SWAP1 RETURN JUMPDEST CALLVALUE DUP1 ISZERO PUSH3 0x10FF JUMPI PUSH1 0x0 DUP1 REVERT JUMPDEST POP CALLTOKENID DUP1 ISZERO PUSH3 0x110D JUMPI PUSH1 0x0 DUP1 REVERT JUMPDEST POP CALLTOKENVALUE DUP1 ISZERO PUSH3 0x111B JUMPI PUSH1 0x0 DUP1 REVERT JUMPDEST POP PUSH3 0x1126 PUSH3 0x39C0 JUMP JUMPDEST PUSH1 0x40 MLOAD PUSH3 0x1135 SWAP2 SWAP1 PUSH3 0x47ED JUMP JUMPDEST PUSH1 0x40 MLOAD DUP1 SWAP2 SUB SWAP1 RETURN JUMPDEST PUSH1 0x12 SLOAD DUP2 JUMP JUMPDEST PUSH1 0xD DUP2 DUP2 SLOAD DUP2 LT PUSH3 0x1155 JUMPI PUSH1 0x0 DUP1 REVERT JUMPDEST SWAP1 PUSH1 0x0 MSTORE PUSH1 0x20 PUSH1 0x0 KECCAK256 ADD PUSH1 0x0 SWAP2 POP SWAP1 POP SLOAD DUP2 JUMP JUMPDEST PUSH1 0xA DUP2 DUP2 SLOAD DUP2 LT PUSH3 0x117A JUMPI PUSH1 0x0 DUP1 REVERT JUMPDEST SWAP1 PUSH1 0x0 MSTORE PUSH1 0x20 PUSH1 0x0 KECCAK256 ADD PUSH1 0x0 SWAP2 POP SWAP1 POP SLOAD DUP2 JUMP JUMPDEST PUSH1 0x11 PUSH1 0x20 MSTORE DUP1 PUSH1 0x0 MSTORE PUSH1 0x40 PUSH1 0x0 KECCAK256 PUSH1 0x0 SWAP2 POP SWAP1 POP SLOAD DUP2 JUMP JUMPDEST PUSH1 0x6 SLOAD DUP2 JUMP JUMPDEST PUSH1 0x0 DUP2 LT ISZERO DUP1 ISZERO PUSH3 0x11BF JUMPI POP PUSH1 0x64 DUP2 GT ISZERO JUMPDEST PUSH3 0x1201 JUMPI PUSH1 0x40 MLOAD PUSH32 0x8C379A000000000000000000000000000000000000000000000000000000000 DUP2 MSTORE PUSH1 0x4 ADD PUSH3 0x11F8 SWAP1 PUSH3 0x4983 JUMP JUMPDEST PUSH1 0x40 MLOAD DUP1 SWAP2 SUB SWAP1 REVERT JUMPDEST PUSH1 0x0 DUP4 SWAP1 POP DUP1 PUSH20 0xFFFFFFFFFFFFFFFFFFFFFFFFFFFFFFFFFFFFFFFF AND PUSH4 0xF851A440 PUSH1 0x40 MLOAD DUP2 PUSH4 0xFFFFFFFF AND PUSH1 0xE0 SHL DUP2 MSTORE PUSH1 0x4 ADD PUSH1 0x20 PUSH1 0x40 MLOAD DUP1 DUP4 SUB DUP2 DUP7 DUP1 EXTCODESIZE ISZERO DUP1 ISZERO PUSH3 0x124D JUMPI PUSH1 0x0 DUP1 REVERT JUMPDEST POP GAS STATICCALL ISZERO DUP1 ISZERO PUSH3 0x1262 JUMPI RETURNDATASIZE PUSH1 0x0 DUP1 RETURNDATACOPY RETURNDATASIZE PUSH1 0x0 REVERT JUMPDEST POP POP POP POP PUSH1 0x40 MLOAD RETURNDATASIZE PUSH1 0x1F NOT PUSH1 0x1F DUP3 ADD AND DUP3 ADD DUP1 PUSH1 0x40 MSTORE POP DUP2 ADD SWAP1 PUSH3 0x1288 SWAP2 SWAP1 PUSH3 0x3C75 JUMP JUMPDEST PUSH20 0xFFFFFFFFFFFFFFFFFFFFFFFFFFFFFFFFFFFFFFFF AND CALLER PUSH20 0xFFFFFFFFFFFFFFFFFFFFFFFFFFFFFFFFFFFFFFFF AND EQ PUSH3 0x12F8 JUMPI PUSH1 0x40 MLOAD PUSH32 0x8C379A000000000000000000000000000000000000000000000000000000000 DUP2 MSTORE PUSH1 0x4 ADD PUSH3 0x12EF SWAP1 PUSH3 0x4A4F JUMP JUMPDEST PUSH1 0x40 MLOAD DUP1 SWAP2 SUB SWAP1 REVERT JUMPDEST PUSH1 0x0 PUSH1 0xF PUSH1 0x0 DUP6 DUP2 MSTORE PUSH1 0x20 ADD SWAP1 DUP2 MSTORE PUSH1 0x20 ADD PUSH1 0x0 KECCAK256 PUSH1 0x40 MLOAD DUP1 PUSH2 0x180 ADD PUSH1 0x40 MSTORE SWAP1 DUP2 PUSH1 0x0 DUP3 ADD SLOAD DUP2 MSTORE PUSH1 0x20 ADD PUSH1 0x1 DUP3 ADD PUSH1 0x0 SWAP1 SLOAD SWAP1 PUSH2 0x100 EXP SWAP1 DIV PUSH20 0xFFFFFFFFFFFFFFFFFFFFFFFFFFFFFFFFFFFFFFFF AND PUSH20 0xFFFFFFFFFFFFFFFFFFFFFFFFFFFFFFFFFFFFFFFF AND PUSH20 0xFFFFFFFFFFFFFFFFFFFFFFFFFFFFFFFFFFFFFFFF AND DUP2 MSTORE PUSH1 0x20 ADD PUSH1 0x2 DUP3 ADD PUSH1 0x0 SWAP1 SLOAD SWAP1 PUSH2 0x100 EXP SWAP1 DIV PUSH20 0xFFFFFFFFFFFFFFFFFFFFFFFFFFFFFFFFFFFFFFFF AND PUSH20 0xFFFFFFFFFFFFFFFFFFFFFFFFFFFFFFFFFFFFFFFF AND PUSH20 0xFFFFFFFFFFFFFFFFFFFFFFFFFFFFFFFFFFFFFFFF AND DUP2 MSTORE PUSH1 0x20 ADD PUSH1 0x3 DUP3 ADD SLOAD DUP2 MSTORE PUSH1 0x20 ADD PUSH1 0x4 DUP3 ADD DUP1 SLOAD PUSH3 0x13EB SWAP1 PUSH3 0x5012 JUMP JUMPDEST DUP1 PUSH1 0x1F ADD PUSH1 0x20 DUP1 SWAP2 DIV MUL PUSH1 0x20 ADD PUSH1 0x40 MLOAD SWAP1 DUP2 ADD PUSH1 0x40 MSTORE DUP1 SWAP3 SWAP2 SWAP1 DUP2 DUP2 MSTORE PUSH1 0x20 ADD DUP3 DUP1 SLOAD PUSH3 0x1419 SWAP1 PUSH3 0x5012 JUMP JUMPDEST DUP1 ISZERO PUSH3 0x146A JUMPI DUP1 PUSH1 0x1F LT PUSH3 0x143E JUMPI PUSH2 0x100 DUP1 DUP4 SLOAD DIV MUL DUP4 MSTORE SWAP2 PUSH1 0x20 ADD SWAP2 PUSH3 0x146A JUMP JUMPDEST DUP3 ADD SWAP2 SWAP1 PUSH1 0x0 MSTORE PUSH1 0x20 PUSH1 0x0 KECCAK256 SWAP1 JUMPDEST DUP2 SLOAD DUP2 MSTORE SWAP1 PUSH1 0x1 ADD SWAP1 PUSH1 0x20 ADD DUP1 DUP4 GT PUSH3 0x144C JUMPI DUP3 SWAP1 SUB PUSH1 0x1F AND DUP3 ADD SWAP2 JUMPDEST POP POP POP POP POP DUP2 MSTORE PUSH1 0x20 ADD PUSH1 0x5 DUP3 ADD SLOAD DUP2 MSTORE PUSH1 0x20 ADD PUSH1 0x6 DUP3 ADD SLOAD DUP2 MSTORE PUSH1 0x20 ADD PUSH1 0x7 DUP3 ADD SLOAD DUP2 MSTORE PUSH1 0x20 ADD PUSH1 0x8 DUP3 ADD SLOAD DUP2 MSTORE PUSH1 0x20 ADD PUSH1 0x9 DUP3 ADD SLOAD DUP2 MSTORE PUSH1 0x20 ADD PUSH1 0xA DUP3 ADD SLOAD DUP2 MSTORE PUSH1 0x20 ADD PUSH1 0xB DUP3 ADD PUSH1 0x0 SWAP1 SLOAD SWAP1 PUSH2 0x100 EXP SWAP1 DIV PUSH1 0xFF AND ISZERO ISZERO ISZERO ISZERO DUP2 MSTORE POP POP SWAP1 POP DUP5 PUSH20 0xFFFFFFFFFFFFFFFFFFFFFFFFFFFFFFFFFFFFFFFF AND DUP2 PUSH1 0x40 ADD MLOAD PUSH20 0xFFFFFFFFFFFFFFFFFFFFFFFFFFFFFFFFFFFFFFFF AND EQ PUSH3 0x1541 JUMPI PUSH1 0x40 MLOAD PUSH32 0x8C379A000000000000000000000000000000000000000000000000000000000 DUP2 MSTORE PUSH1 0x4 ADD PUSH3 0x1538 SWAP1 PUSH3 0x493F JUMP JUMPDEST PUSH1 0x40 MLOAD DUP1 SWAP2 SUB SWAP1 REVERT JUMPDEST DUP1 PUSH1 0xE0 ADD MLOAD NUMBER GT PUSH3 0x158A JUMPI PUSH1 0x40 MLOAD PUSH32 0x8C379A000000000000000000000000000000000000000000000000000000000 DUP2 MSTORE PUSH1 0x4 ADD PUSH3 0x1581 SWAP1 PUSH3 0x491D JUMP JUMPDEST PUSH1 0x40 MLOAD DUP1 SWAP2 SUB SWAP1 REVERT JUMPDEST PUSH1 0x0 DUP2 PUSH1 0x20 ADD MLOAD SWAP1 POP PUSH1 0x2 DUP5 PUSH1 0x11 PUSH1 0x0 DUP5 PUSH20 0xFFFFFFFFFFFFFFFFFFFFFFFFFFFFFFFFFFFFFFFF AND PUSH20 0xFFFFFFFFFFFFFFFFFFFFFFFFFFFFFFFFFFFFFFFF AND DUP2 MSTORE PUSH1 0x20 ADD SWAP1 DUP2 MSTORE PUSH1 0x20 ADD PUSH1 0x0 KECCAK256 SLOAD PUSH3 0x15E2 SWAP2 SWAP1 PUSH3 0x4E08 JUMP JUMPDEST PUSH3 0x15EE SWAP2 SWAP1 PUSH3 0x4E65 JUMP JUMPDEST PUSH1 0x11 PUSH1 0x0 DUP4 PUSH20 0xFFFFFFFFFFFFFFFFFFFFFFFFFFFFFFFFFFFFFFFF AND PUSH20 0xFFFFFFFFFFFFFFFFFFFFFFFFFFFFFFFFFFFFFFFF AND DUP2 MSTORE PUSH1 0x20 ADD SWAP1 DUP2 MSTORE PUSH1 0x20 ADD PUSH1 0x0 KECCAK256 DUP2 SWAP1 SSTORE POP POP POP POP POP POP POP JUMP JUMPDEST PUSH1 0x1A DUP2 DUP2 SLOAD DUP2 LT PUSH3 0x164A JUMPI PUSH1 0x0 DUP1 REVERT JUMPDEST SWAP1 PUSH1 0x0 MSTORE PUSH1 0x20 PUSH1 0x0 KECCAK256 SWAP1 PUSH1 0x3 MUL ADD PUSH1 0x0 SWAP2 POP SWAP1 POP DUP1 PUSH1 0x0 ADD SLOAD SWAP1 DUP1 PUSH1 0x1 ADD SLOAD SWAP1 DUP1 PUSH1 0x2 ADD PUSH1 0x0 SWAP1 SLOAD SWAP1 PUSH2 0x100 EXP SWAP1 DIV PUSH20 0xFFFFFFFFFFFFFFFFFFFFFFFFFFFFFFFFFFFFFFFF AND SWAP1 POP DUP4 JUMP JUMPDEST PUSH1 0x10 PUSH1 0x20 MSTORE DUP1 PUSH1 0x0 MSTORE PUSH1 0x40 PUSH1 0x0 KECCAK256 PUSH1 0x0 SWAP2 POP SLOAD SWAP1 PUSH2 0x100 EXP SWAP1 DIV PUSH1 0xFF AND DUP2 JUMP JUMPDEST PUSH1 0xE PUSH1 0x20 MSTORE DUP1 PUSH1 0x0 MSTORE PUSH1 0x40 PUSH1 0x0 KECCAK256 PUSH1 0x0 SWAP2 POP SLOAD SWAP1 PUSH2 0x100 EXP SWAP1 DIV PUSH1 0xFF AND DUP2 JUMP JUMPDEST PUSH1 0x16 PUSH1 0x20 MSTORE DUP1 PUSH1 0x0 MSTORE PUSH1 0x40 PUSH1 0x0 KECCAK256 PUSH1 0x0 SWAP2 POP SWAP1 POP DUP1 SLOAD PUSH3 0x16F5 SWAP1 PUSH3 0x5012 JUMP JUMPDEST DUP1 PUSH1 0x1F ADD PUSH1 0x20 DUP1 SWAP2 DIV MUL PUSH1 0x20 ADD PUSH1 0x40 MLOAD SWAP1 DUP2 ADD PUSH1 0x40 MSTORE DUP1 SWAP3 SWAP2 SWAP1 DUP2 DUP2 MSTORE PUSH1 0x20 ADD DUP3 DUP1 SLOAD PUSH3 0x1723 SWAP1 PUSH3 0x5012 JUMP JUMPDEST DUP1 ISZERO PUSH3 0x1774 JUMPI DUP1 PUSH1 0x1F LT PUSH3 0x1748 JUMPI PUSH2 0x100 DUP1 DUP4 SLOAD DIV MUL DUP4 MSTORE SWAP2 PUSH1 0x20 ADD SWAP2 PUSH3 0x1774 JUMP JUMPDEST DUP3 ADD SWAP2 SWAP1 PUSH1 0x0 MSTORE PUSH1 0x20 PUSH1 0x0 KECCAK256 SWAP1 JUMPDEST DUP2 SLOAD DUP2 MSTORE SWAP1 PUSH1 0x1 ADD SWAP1 PUSH1 0x20 ADD DUP1 DUP4 GT PUSH3 0x1756 JUMPI DUP3 SWAP1 SUB PUSH1 0x1F AND DUP3 ADD SWAP2 JUMPDEST POP POP POP POP POP DUP2 JUMP JUMPDEST PUSH1 0x6 SLOAD CALLVALUE LT ISZERO PUSH3 0x17C4 JUMPI PUSH1 0x40 MLOAD PUSH32 0x8C379A000000000000000000000000000000000000000000000000000000000 DUP2 MSTORE PUSH1 0x4 ADD PUSH3 0x17BB SWAP1 PUSH3 0x49A5 JUMP JUMPDEST PUSH1 0x40 MLOAD DUP1 SWAP2 SUB SWAP1 REVERT JUMPDEST PUSH1 0x10 PUSH1 0x0 CALLER PUSH20 0xFFFFFFFFFFFFFFFFFFFFFFFFFFFFFFFFFFFFFFFF AND PUSH20 0xFFFFFFFFFFFFFFFFFFFFFFFFFFFFFFFFFFFFFFFF AND DUP2 MSTORE PUSH1 0x20 ADD SWAP1 DUP2 MSTORE PUSH1 0x20 ADD PUSH1 0x0 KECCAK256 PUSH1 0x0 SWAP1 SLOAD SWAP1 PUSH2 0x100 EXP SWAP1 DIV PUSH1 0xFF AND PUSH3 0x18B4 JUMPI PUSH1 0x1 PUSH1 0x10 PUSH1 0x0 CALLER PUSH20 0xFFFFFFFFFFFFFFFFFFFFFFFFFFFFFFFFFFFFFFFF AND PUSH20 0xFFFFFFFFFFFFFFFFFFFFFFFFFFFFFFFFFFFFFFFF AND DUP2 MSTORE PUSH1 0x20 ADD SWAP1 DUP2 MSTORE PUSH1 0x20 ADD PUSH1 0x0 KECCAK256 PUSH1 0x0 PUSH2 0x100 EXP DUP2 SLOAD DUP2 PUSH1 0xFF MUL NOT AND SWAP1 DUP4 ISZERO ISZERO MUL OR SWAP1 SSTORE POP PUSH1 0x19 PUSH1 0x11 PUSH1 0x0 CALLER PUSH20 0xFFFFFFFFFFFFFFFFFFFFFFFFFFFFFFFFFFFFFFFF AND PUSH20 0xFFFFFFFFFFFFFFFFFFFFFFFFFFFFFFFFFFFFFFFF AND DUP2 MSTORE PUSH1 0x20 ADD SWAP1 DUP2 MSTORE PUSH1 0x20 ADD PUSH1 0x0 KECCAK256 DUP2 SWAP1 SSTORE POP JUMPDEST PUSH3 0x18C0 CALLER DUP7 PUSH3 0x2B3C JUMP JUMPDEST PUSH3 0x1902 JUMPI PUSH1 0x40 MLOAD PUSH32 0x8C379A000000000000000000000000000000000000000000000000000000000 DUP2 MSTORE PUSH1 0x4 ADD PUSH3 0x18F9 SWAP1 PUSH3 0x49C7 JUMP JUMPDEST PUSH1 0x40 MLOAD DUP1 SWAP2 SUB SWAP1 REVERT JUMPDEST PUSH1 0x15 PUSH1 0x0 DUP8 PUSH20 0xFFFFFFFFFFFFFFFFFFFFFFFFFFFFFFFFFFFFFFFF AND PUSH20 0xFFFFFFFFFFFFFFFFFFFFFFFFFFFFFFFFFFFFFFFF AND DUP2 MSTORE PUSH1 0x20 ADD SWAP1 DUP2 MSTORE PUSH1 0x20 ADD PUSH1 0x0 KECCAK256 PUSH1 0x0 SWAP1 SLOAD SWAP1 PUSH2 0x100 EXP SWAP1 DIV PUSH1 0xFF AND PUSH3 0x1991 JUMPI PUSH1 0x40 MLOAD PUSH32 0x8C379A000000000000000000000000000000000000000000000000000000000 DUP2 MSTORE PUSH1 0x4 ADD PUSH3 0x1988 SWAP1 PUSH3 0x48B7 JUMP JUMPDEST PUSH1 0x40 MLOAD DUP1 SWAP2 SUB SWAP1 REVERT JUMPDEST PUSH1 0x12 SLOAD DUP6 PUSH3 0x19A1 SWAP2 SWAP1 PUSH3 0x4E08 JUMP JUMPDEST DUP7 PUSH20 0xFFFFFFFFFFFFFFFFFFFFFFFFFFFFFFFFFFFFFFFF AND BALANCE LT ISZERO PUSH3 0x19FD JUMPI PUSH1 0x40 MLOAD PUSH32 0x8C379A000000000000000000000000000000000000000000000000000000000 DUP2 MSTORE PUSH1 0x4 ADD PUSH3 0x19F4 SWAP1 PUSH3 0x4A71 JUMP JUMPDEST PUSH1 0x40 MLOAD DUP1 SWAP2 SUB SWAP1 REVERT JUMPDEST PUSH3 0x1A5E00 DUP4 GT ISZERO PUSH3 0x1A46 JUMPI PUSH1 0x40 MLOAD PUSH32 0x8C379A000000000000000000000000000000000000000000000000000000000 DUP2 MSTORE PUSH1 0x4 ADD PUSH3 0x1A3D SWAP1 PUSH3 0x4961 JUMP JUMPDEST PUSH1 0x40 MLOAD DUP1 SWAP2 SUB SWAP1 REVERT JUMPDEST PUSH1 0xA DUP3 LT ISZERO DUP1 ISZERO PUSH3 0x1A5B JUMPI POP PUSH3 0x29A040 DUP3 GT ISZERO JUMPDEST PUSH3 0x1A9D JUMPI PUSH1 0x40 MLOAD PUSH32 0x8C379A000000000000000000000000000000000000000000000000000000000 DUP2 MSTORE PUSH1 0x4 ADD PUSH3 0x1A94 SWAP1 PUSH3 0x4A0B JUMP JUMPDEST PUSH1 0x40 MLOAD DUP1 SWAP2 SUB SWAP1 REVERT JUMPDEST PUSH1 0x0 DUP4 NUMBER PUSH3 0x1AAD SWAP2 SWAP1 PUSH3 0x4E08 JUMP JUMPDEST SWAP1 POP PUSH1 0x0 PUSH1 0x40 MLOAD DUP1 PUSH2 0x180 ADD PUSH1 0x40 MSTORE DUP1 PUSH1 0x8 SLOAD DUP2 MSTORE PUSH1 0x20 ADD CALLER PUSH20 0xFFFFFFFFFFFFFFFFFFFFFFFFFFFFFFFFFFFFFFFF AND DUP2 MSTORE PUSH1 0x20 ADD DUP10 PUSH20 0xFFFFFFFFFFFFFFFFFFFFFFFFFFFFFFFFFFFFFFFF AND DUP2 MSTORE PUSH1 0x20 ADD DUP9 DUP2 MSTORE PUSH1 0x20 ADD DUP8 DUP2 MSTORE PUSH1 0x20 ADD DUP4 DUP2 MSTORE PUSH1 0x20 ADD DUP6 DUP5 PUSH3 0x1B1D SWAP2 SWAP1 PUSH3 0x4E08 JUMP JUMPDEST DUP2 MSTORE PUSH1 0x20 ADD DUP5 DUP7 DUP6 PUSH3 0x1B31 SWAP2 SWAP1 PUSH3 0x4E08 JUMP JUMPDEST PUSH3 0x1B3D SWAP2 SWAP1 PUSH3 0x4E08 JUMP JUMPDEST DUP2 MSTORE PUSH1 0x20 ADD PUSH1 0x0 DUP2 MSTORE PUSH1 0x20 ADD PUSH1 0x0 DUP2 MSTORE PUSH1 0x20 ADD PUSH1 0x0 DUP2 MSTORE PUSH1 0x20 ADD PUSH1 0x0 ISZERO ISZERO DUP2 MSTORE POP SWAP1 POP PUSH1 0x9 PUSH1 0x8 SLOAD SWAP1 DUP1 PUSH1 0x1 DUP2 SLOAD ADD DUP1 DUP3 SSTORE DUP1 SWAP2 POP POP PUSH1 0x1 SWAP1 SUB SWAP1 PUSH1 0x0 MSTORE PUSH1 0x20 PUSH1 0x0 KECCAK256 ADD PUSH1 0x0 SWAP1 SWAP2 SWAP1 SWAP2 SWAP1 SWAP2 POP SSTORE DUP1 PUSH1 0xF PUSH1 0x0 PUSH1 0x8 SLOAD DUP2 MSTORE PUSH1 0x20 ADD SWAP1 DUP2 MSTORE PUSH1 0x20 ADD PUSH1 0x0 KECCAK256 PUSH1 0x0 DUP3 ADD MLOAD DUP2 PUSH1 0x0 ADD SSTORE PUSH1 0x20 DUP3 ADD MLOAD DUP2 PUSH1 0x1 ADD PUSH1 0x0 PUSH2 0x100 EXP DUP2 SLOAD DUP2 PUSH20 0xFFFFFFFFFFFFFFFFFFFFFFFFFFFFFFFFFFFFFFFF MUL NOT AND SWAP1 DUP4 PUSH20 0xFFFFFFFFFFFFFFFFFFFFFFFFFFFFFFFFFFFFFFFF AND MUL OR SWAP1 SSTORE POP PUSH1 0x40 DUP3 ADD MLOAD DUP2 PUSH1 0x2 ADD PUSH1 0x0 PUSH2 0x100 EXP DUP2 SLOAD DUP2 PUSH20 0xFFFFFFFFFFFFFFFFFFFFFFFFFFFFFFFFFFFFFFFF MUL NOT AND SWAP1 DUP4 PUSH20 0xFFFFFFFFFFFFFFFFFFFFFFFFFFFFFFFFFFFFFFFF AND MUL OR SWAP1 SSTORE POP PUSH1 0x60 DUP3 ADD MLOAD DUP2 PUSH1 0x3 ADD SSTORE PUSH1 0x80 DUP3 ADD MLOAD DUP2 PUSH1 0x4 ADD SWAP1 DUP1 MLOAD SWAP1 PUSH1 0x20 ADD SWAP1 PUSH3 0x1C61 SWAP3 SWAP2 SWAP1 PUSH3 0x3AA3 JUMP JUMPDEST POP PUSH1 0xA0 DUP3 ADD MLOAD DUP2 PUSH1 0x5 ADD SSTORE PUSH1 0xC0 DUP3 ADD MLOAD DUP2 PUSH1 0x6 ADD SSTORE PUSH1 0xE0 DUP3 ADD MLOAD DUP2 PUSH1 0x7 ADD SSTORE PUSH2 0x100 DUP3 ADD MLOAD DUP2 PUSH1 0x8 ADD SSTORE PUSH2 0x120 DUP3 ADD MLOAD DUP2 PUSH1 0x9 ADD SSTORE PUSH2 0x140 DUP3 ADD MLOAD DUP2 PUSH1 0xA ADD SSTORE PUSH2 0x160 DUP3 ADD MLOAD DUP2 PUSH1 0xB ADD PUSH1 0x0 PUSH2 0x100 EXP DUP2 SLOAD DUP2 PUSH1 0xFF MUL NOT AND SWAP1 DUP4 ISZERO ISZERO MUL OR SWAP1 SSTORE POP SWAP1 POP POP PUSH1 0x0 PUSH1 0xE PUSH1 0x0 PUSH1 0x8 SLOAD DUP2 MSTORE PUSH1 0x20 ADD SWAP1 DUP2 MSTORE PUSH1 0x20 ADD PUSH1 0x0 KECCAK256 PUSH1 0x0 PUSH2 0x100 EXP DUP2 SLOAD DUP2 PUSH1 0xFF MUL NOT AND SWAP1 DUP4 PUSH1 0x2 DUP2 GT ISZERO PUSH3 0x1D25 JUMPI PUSH32 0x4E487B7100000000000000000000000000000000000000000000000000000000 PUSH1 0x0 MSTORE PUSH1 0x21 PUSH1 0x4 MSTORE PUSH1 0x24 PUSH1 0x0 REVERT JUMPDEST MUL OR SWAP1 SSTORE POP PUSH1 0xA DUP3 SWAP1 DUP1 PUSH1 0x1 DUP2 SLOAD ADD DUP1 DUP3 SSTORE DUP1 SWAP2 POP POP PUSH1 0x1 SWAP1 SUB SWAP1 PUSH1 0x0 MSTORE PUSH1 0x20 PUSH1 0x0 KECCAK256 ADD PUSH1 0x0 SWAP1 SWAP2 SWAP1 SWAP2 SWAP1 SWAP2 POP SSTORE PUSH32 0xEDF728BB853655ADE0C9BDB065C2E14D929B58E14A4A495C23BB9749C1C982C8 PUSH1 0x8 SLOAD CALLER DUP10 DUP9 NUMBER PUSH3 0x1D87 SWAP2 SWAP1 PUSH3 0x4E08 JUMP JUMPDEST DUP13 PUSH1 0x40 MLOAD PUSH3 0x1D9B SWAP6 SWAP5 SWAP4 SWAP3 SWAP2 SWAP1 PUSH3 0x4B89 JUMP JUMPDEST PUSH1 0x40 MLOAD DUP1 SWAP2 SUB SWAP1 LOG1 PUSH1 0x8 PUSH1 0x0 DUP2 SLOAD DUP1 SWAP3 SWAP2 SWAP1 PUSH3 0x1DB8 SWAP1 PUSH3 0x5048 JUMP JUMPDEST SWAP2 SWAP1 POP SSTORE POP POP POP POP POP POP POP POP POP JUMP JUMPDEST PUSH1 0x5 SLOAD DUP2 JUMP JUMPDEST PUSH1 0x60 PUSH1 0x9 DUP1 SLOAD DUP1 PUSH1 0x20 MUL PUSH1 0x20 ADD PUSH1 0x40 MLOAD SWAP1 DUP2 ADD PUSH1 0x40 MSTORE DUP1 SWAP3 SWAP2 SWAP1 DUP2 DUP2 MSTORE PUSH1 0x20 ADD DUP3 DUP1 SLOAD DUP1 ISZERO PUSH3 0x1E1D JUMPI PUSH1 0x20 MUL DUP3 ADD SWAP2 SWAP1 PUSH1 0x0 MSTORE PUSH1 0x20 PUSH1 0x0 KECCAK256 SWAP1 JUMPDEST DUP2 SLOAD DUP2 MSTORE PUSH1 0x20 ADD SWAP1 PUSH1 0x1 ADD SWAP1 DUP1 DUP4 GT PUSH3 0x1E08 JUMPI JUMPDEST POP POP POP POP POP SWAP1 POP SWAP1 JUMP JUMPDEST PUSH1 0x0 JUMPDEST PUSH1 0xA DUP1 SLOAD SWAP1 POP DUP2 LT ISZERO PUSH3 0x1FCD JUMPI PUSH1 0x0 PUSH1 0xA DUP3 DUP2 SLOAD DUP2 LT PUSH3 0x1E75 JUMPI PUSH32 0x4E487B7100000000000000000000000000000000000000000000000000000000 PUSH1 0x0 MSTORE PUSH1 0x32 PUSH1 0x4 MSTORE PUSH1 0x24 PUSH1 0x0 REVERT JUMPDEST SWAP1 PUSH1 0x0 MSTORE PUSH1 0x20 PUSH1 0x0 KECCAK256 ADD SLOAD SWAP1 POP DUP1 NUMBER GT ISZERO PUSH3 0x1FB5 JUMPI PUSH1 0x1 PUSH1 0xA DUP1 SLOAD SWAP1 POP PUSH3 0x1E9F SWAP2 SWAP1 PUSH3 0x4EFE JUMP JUMPDEST DUP3 LT ISZERO PUSH3 0x1F4F JUMPI PUSH1 0xA PUSH1 0x1 PUSH1 0xA DUP1 SLOAD SWAP1 POP PUSH3 0x1EBD SWAP2 SWAP1 PUSH3 0x4EFE JUMP JUMPDEST DUP2 SLOAD DUP2 LT PUSH3 0x1EF5 JUMPI PUSH32 0x4E487B7100000000000000000000000000000000000000000000000000000000 PUSH1 0x0 MSTORE PUSH1 0x32 PUSH1 0x4 MSTORE PUSH1 0x24 PUSH1 0x0 REVERT JUMPDEST SWAP1 PUSH1 0x0 MSTORE PUSH1 0x20 PUSH1 0x0 KECCAK256 ADD SLOAD PUSH1 0xA DUP4 DUP2 SLOAD DUP2 LT PUSH3 0x1F3B JUMPI PUSH32 0x4E487B7100000000000000000000000000000000000000000000000000000000 PUSH1 0x0 MSTORE PUSH1 0x32 PUSH1 0x4 MSTORE PUSH1 0x24 PUSH1 0x0 REVERT JUMPDEST SWAP1 PUSH1 0x0 MSTORE PUSH1 0x20 PUSH1 0x0 KECCAK256 ADD DUP2 SWAP1 SSTORE POP PUSH3 0x1F60 JUMP JUMPDEST DUP2 DUP1 PUSH3 0x1F5C SWAP1 PUSH3 0x5048 JUMP JUMPDEST SWAP3 POP POP JUMPDEST PUSH1 0xA DUP1 SLOAD DUP1 PUSH3 0x1F99 JUMPI PUSH32 0x4E487B7100000000000000000000000000000000000000000000000000000000 PUSH1 0x0 MSTORE PUSH1 0x31 PUSH1 0x4 MSTORE PUSH1 0x24 PUSH1 0x0 REVERT JUMPDEST PUSH1 0x1 SWAP1 SUB DUP2 DUP2 SWAP1 PUSH1 0x0 MSTORE PUSH1 0x20 PUSH1 0x0 KECCAK256 ADD PUSH1 0x0 SWAP1 SSTORE SWAP1 SSTORE PUSH3 0x1FC6 JUMP JUMPDEST DUP2 DUP1 PUSH3 0x1FC2 SWAP1 PUSH3 0x5048 JUMP JUMPDEST SWAP3 POP POP JUMPDEST POP PUSH3 0x1E2A JUMP JUMPDEST POP JUMP JUMPDEST PUSH1 0x60 PUSH1 0xC DUP1 SLOAD DUP1 PUSH1 0x20 MUL PUSH1 0x20 ADD PUSH1 0x40 MLOAD SWAP1 DUP2 ADD PUSH1 0x40 MSTORE DUP1 SWAP3 SWAP2 SWAP1 DUP2 DUP2 MSTORE PUSH1 0x20 ADD DUP3 DUP1 SLOAD DUP1 ISZERO PUSH3 0x2020 JUMPI PUSH1 0x20 MUL DUP3 ADD SWAP2 SWAP1 PUSH1 0x0 MSTORE PUSH1 0x20 PUSH1 0x0 KECCAK256 SWAP1 JUMPDEST DUP2 SLOAD DUP2 MSTORE PUSH1 0x20 ADD SWAP1 PUSH1 0x1 ADD SWAP1 DUP1 DUP4 GT PUSH3 0x200B JUMPI JUMPDEST POP POP POP POP POP SWAP1 POP SWAP1 JUMP JUMPDEST PUSH1 0x60 PUSH1 0xB DUP1 SLOAD DUP1 PUSH1 0x20 MUL PUSH1 0x20 ADD PUSH1 0x40 MLOAD SWAP1 DUP2 ADD PUSH1 0x40 MSTORE DUP1 SWAP3 SWAP2 SWAP1 DUP2 DUP2 MSTORE PUSH1 0x20 ADD DUP3 DUP1 SLOAD DUP1 ISZERO PUSH3 0x207A JUMPI PUSH1 0x20 MUL DUP3 ADD SWAP2 SWAP1 PUSH1 0x0 MSTORE PUSH1 0x20 PUSH1 0x0 KECCAK256 SWAP1 JUMPDEST DUP2 SLOAD DUP2 MSTORE PUSH1 0x20 ADD SWAP1 PUSH1 0x1 ADD SWAP1 DUP1 DUP4 GT PUSH3 0x2065 JUMPI JUMPDEST POP POP POP POP POP SWAP1 POP SWAP1 JUMP JUMPDEST PUSH1 0x0 JUMPDEST PUSH1 0xB DUP1 SLOAD SWAP1 POP DUP2 LT ISZERO PUSH3 0x2430 JUMPI PUSH1 0x0 PUSH1 0xB DUP3 DUP2 SLOAD DUP2 LT PUSH3 0x20D2 JUMPI PUSH32 0x4E487B7100000000000000000000000000000000000000000000000000000000 PUSH1 0x0 MSTORE PUSH1 0x32 PUSH1 0x4 MSTORE PUSH1 0x24 PUSH1 0x0 REVERT JUMPDEST SWAP1 PUSH1 0x0 MSTORE PUSH1 0x20 PUSH1 0x0 KECCAK256 ADD SLOAD SWAP1 POP PUSH1 0xF PUSH1 0x0 DUP3 DUP2 MSTORE PUSH1 0x20 ADD SWAP1 DUP2 MSTORE PUSH1 0x20 ADD PUSH1 0x0 KECCAK256 PUSH1 0x6 ADD SLOAD NUMBER GT ISZERO PUSH3 0x2418 JUMPI PUSH1 0x1 PUSH1 0xB DUP1 SLOAD SWAP1 POP PUSH3 0x2112 SWAP2 SWAP1 PUSH3 0x4EFE JUMP JUMPDEST DUP3 LT ISZERO PUSH3 0x21C2 JUMPI PUSH1 0xB PUSH1 0x1 PUSH1 0xB DUP1 SLOAD SWAP1 POP PUSH3 0x2130 SWAP2 SWAP1 PUSH3 0x4EFE JUMP JUMPDEST DUP2 SLOAD DUP2 LT PUSH3 0x2168 JUMPI PUSH32 0x4E487B7100000000000000000000000000000000000000000000000000000000 PUSH1 0x0 MSTORE PUSH1 0x32 PUSH1 0x4 MSTORE PUSH1 0x24 PUSH1 0x0 REVERT JUMPDEST SWAP1 PUSH1 0x0 MSTORE PUSH1 0x20 PUSH1 0x0 KECCAK256 ADD SLOAD PUSH1 0xB DUP4 DUP2 SLOAD DUP2 LT PUSH3 0x21AE JUMPI PUSH32 0x4E487B7100000000000000000000000000000000000000000000000000000000 PUSH1 0x0 MSTORE PUSH1 0x32 PUSH1 0x4 MSTORE PUSH1 0x24 PUSH1 0x0 REVERT JUMPDEST SWAP1 PUSH1 0x0 MSTORE PUSH1 0x20 PUSH1 0x0 KECCAK256 ADD DUP2 SWAP1 SSTORE POP PUSH3 0x21D3 JUMP JUMPDEST DUP2 DUP1 PUSH3 0x21CF SWAP1 PUSH3 0x5048 JUMP JUMPDEST SWAP3 POP POP JUMPDEST PUSH1 0xB DUP1 SLOAD DUP1 PUSH3 0x220C JUMPI PUSH32 0x4E487B7100000000000000000000000000000000000000000000000000000000 PUSH1 0x0 MSTORE PUSH1 0x31 PUSH1 0x4 MSTORE PUSH1 0x24 PUSH1 0x0 REVERT JUMPDEST PUSH1 0x1 SWAP1 SUB DUP2 DUP2 SWAP1 PUSH1 0x0 MSTORE PUSH1 0x20 PUSH1 0x0 KECCAK256 ADD PUSH1 0x0 SWAP1 SSTORE SWAP1 SSTORE PUSH1 0xD DUP2 SWAP1 DUP1 PUSH1 0x1 DUP2 SLOAD ADD DUP1 DUP3 SSTORE DUP1 SWAP2 POP POP PUSH1 0x1 SWAP1 SUB SWAP1 PUSH1 0x0 MSTORE PUSH1 0x20 PUSH1 0x0 KECCAK256 ADD PUSH1 0x0 SWAP1 SWAP2 SWAP1 SWAP2 SWAP1 SWAP2 POP SSTORE PUSH1 0x2 PUSH1 0xE PUSH1 0x0 DUP4 DUP2 MSTORE PUSH1 0x20 ADD SWAP1 DUP2 MSTORE PUSH1 0x20 ADD PUSH1 0x0 KECCAK256 PUSH1 0x0 PUSH2 0x100 EXP DUP2 SLOAD DUP2 PUSH1 0xFF MUL NOT AND SWAP1 DUP4 PUSH1 0x2 DUP2 GT ISZERO PUSH3 0x22A9 JUMPI PUSH32 0x4E487B7100000000000000000000000000000000000000000000000000000000 PUSH1 0x0 MSTORE PUSH1 0x21 PUSH1 0x4 MSTORE PUSH1 0x24 PUSH1 0x0 REVERT JUMPDEST MUL OR SWAP1 SSTORE POP PUSH1 0xF PUSH1 0x0 DUP3 DUP2 MSTORE PUSH1 0x20 ADD SWAP1 DUP2 MSTORE PUSH1 0x20 ADD PUSH1 0x0 KECCAK256 PUSH1 0x9 ADD SLOAD PUSH1 0xF PUSH1 0x0 DUP4 DUP2 MSTORE PUSH1 0x20 ADD SWAP1 DUP2 MSTORE PUSH1 0x20 ADD PUSH1 0x0 KECCAK256 PUSH1 0x8 ADD SLOAD GT ISZERO PUSH3 0x2412 JUMPI PUSH1 0x0 PUSH1 0xF PUSH1 0x0 DUP4 DUP2 MSTORE PUSH1 0x20 ADD SWAP1 DUP2 MSTORE PUSH1 0x20 ADD PUSH1 0x0 KECCAK256 PUSH1 0x2 ADD PUSH1 0x0 SWAP1 SLOAD SWAP1 PUSH2 0x100 EXP SWAP1 DIV PUSH20 0xFFFFFFFFFFFFFFFFFFFFFFFFFFFFFFFFFFFFFFFF AND SWAP1 POP PUSH1 0x0 DUP2 SWAP1 POP DUP1 PUSH20 0xFFFFFFFFFFFFFFFFFFFFFFFFFFFFFFFFFFFFFFFF AND PUSH4 0x9E0994A1 PUSH1 0xF PUSH1 0x0 DUP7 DUP2 MSTORE PUSH1 0x20 ADD SWAP1 DUP2 MSTORE PUSH1 0x20 ADD PUSH1 0x0 KECCAK256 PUSH1 0x1 ADD PUSH1 0x0 SWAP1 SLOAD SWAP1 PUSH2 0x100 EXP SWAP1 DIV PUSH20 0xFFFFFFFFFFFFFFFFFFFFFFFFFFFFFFFFFFFFFFFF AND PUSH1 0xF PUSH1 0x0 DUP8 DUP2 MSTORE PUSH1 0x20 ADD SWAP1 DUP2 MSTORE PUSH1 0x20 ADD PUSH1 0x0 KECCAK256 PUSH1 0x3 ADD SLOAD PUSH1 0x40 MLOAD DUP4 PUSH4 0xFFFFFFFF AND PUSH1 0xE0 SHL DUP2 MSTORE PUSH1 0x4 ADD PUSH3 0x23AC SWAP3 SWAP2 SWAP1 PUSH3 0x479C JUMP JUMPDEST PUSH1 0x0 PUSH1 0x40 MLOAD DUP1 DUP4 SUB DUP2 PUSH1 0x0 DUP8 DUP1 EXTCODESIZE ISZERO DUP1 ISZERO PUSH3 0x23C7 JUMPI PUSH1 0x0 DUP1 REVERT JUMPDEST POP GAS CALL ISZERO DUP1 ISZERO PUSH3 0x23DC JUMPI RETURNDATASIZE PUSH1 0x0 DUP1 RETURNDATACOPY RETURNDATASIZE PUSH1 0x0 REVERT JUMPDEST POP POP POP POP PUSH1 0x1 PUSH1 0xF PUSH1 0x0 DUP6 DUP2 MSTORE PUSH1 0x20 ADD SWAP1 DUP2 MSTORE PUSH1 0x20 ADD PUSH1 0x0 KECCAK256 PUSH1 0xB ADD PUSH1 0x0 PUSH2 0x100 EXP DUP2 SLOAD DUP2 PUSH1 0xFF MUL NOT AND SWAP1 DUP4 ISZERO ISZERO MUL OR SWAP1 SSTORE POP POP POP JUMPDEST PUSH3 0x2429 JUMP JUMPDEST DUP2 DUP1 PUSH3 0x2425 SWAP1 PUSH3 0x5048 JUMP JUMPDEST SWAP3 POP POP JUMPDEST POP PUSH3 0x2087 JUMP JUMPDEST POP JUMP JUMPDEST PUSH1 0x14 DUP2 DUP2 SLOAD DUP2 LT PUSH3 0x2444 JUMPI PUSH1 0x0 DUP1 REVERT JUMPDEST SWAP1 PUSH1 0x0 MSTORE PUSH1 0x20 PUSH1 0x0 KECCAK256 ADD PUSH1 0x0 SWAP2 POP SWAP1 POP DUP1 SLOAD PUSH3 0x2461 SWAP1 PUSH3 0x5012 JUMP JUMPDEST DUP1 PUSH1 0x1F ADD PUSH1 0x20 DUP1 SWAP2 DIV MUL PUSH1 0x20 ADD PUSH1 0x40 MLOAD SWAP1 DUP2 ADD PUSH1 0x40 MSTORE DUP1 SWAP3 SWAP2 SWAP1 DUP2 DUP2 MSTORE PUSH1 0x20 ADD DUP3 DUP1 SLOAD PUSH3 0x248F SWAP1 PUSH3 0x5012 JUMP JUMPDEST DUP1 ISZERO PUSH3 0x24E0 JUMPI DUP1 PUSH1 0x1F LT PUSH3 0x24B4 JUMPI PUSH2 0x100 DUP1 DUP4 SLOAD DIV MUL DUP4 MSTORE SWAP2 PUSH1 0x20 ADD SWAP2 PUSH3 0x24E0 JUMP JUMPDEST DUP3 ADD SWAP2 SWAP1 PUSH1 0x0 MSTORE PUSH1 0x20 PUSH1 0x0 KECCAK256 SWAP1 JUMPDEST DUP2 SLOAD DUP2 MSTORE SWAP1 PUSH1 0x1 ADD SWAP1 PUSH1 0x20 ADD DUP1 DUP4 GT PUSH3 0x24C2 JUMPI DUP3 SWAP1 SUB PUSH1 0x1F AND DUP3 ADD SWAP2 JUMPDEST POP POP POP POP POP DUP2 JUMP JUMPDEST PUSH1 0x12 SLOAD CALLVALUE LT ISZERO PUSH3 0x2530 JUMPI PUSH1 0x40 MLOAD PUSH32 0x8C379A000000000000000000000000000000000000000000000000000000000 DUP2 MSTORE PUSH1 0x4 ADD PUSH3 0x2527 SWAP1 PUSH3 0x49E9 JUMP JUMPDEST PUSH1 0x40 MLOAD DUP1 SWAP2 SUB SWAP1 REVERT JUMPDEST PUSH1 0x0 CALLER DUP3 PUSH1 0x40 MLOAD PUSH3 0x2542 SWAP1 PUSH3 0x3B34 JUMP JUMPDEST PUSH3 0x254F SWAP3 SWAP2 SWAP1 PUSH3 0x4768 JUMP JUMPDEST PUSH1 0x40 MLOAD DUP1 SWAP2 SUB SWAP1 PUSH1 0x0 CREATE DUP1 ISZERO DUP1 ISZERO PUSH3 0x256C JUMPI RETURNDATASIZE PUSH1 0x0 DUP1 RETURNDATACOPY RETURNDATASIZE PUSH1 0x0 REVERT JUMPDEST POP SWAP1 POP PUSH1 0x0 DUP2 SWAP1 POP DUP1 PUSH20 0xFFFFFFFFFFFFFFFFFFFFFFFFFFFFFFFFFFFFFFFF AND PUSH2 0x8FC PUSH1 0x64 CALLVALUE PUSH3 0x259D SWAP2 SWAP1 PUSH3 0x4EFE JUMP JUMPDEST SWAP1 DUP2 ISZERO MUL SWAP1 PUSH1 0x40 MLOAD PUSH1 0x0 PUSH1 0x40 MLOAD DUP1 DUP4 SUB DUP2 DUP6 DUP9 DUP9 CALL SWAP4 POP POP POP POP ISZERO DUP1 ISZERO PUSH3 0x25C9 JUMPI RETURNDATASIZE PUSH1 0x0 DUP1 RETURNDATACOPY RETURNDATASIZE PUSH1 0x0 REVERT JUMPDEST POP PUSH1 0x1 PUSH1 0x15 PUSH1 0x0 DUP4 PUSH20 0xFFFFFFFFFFFFFFFFFFFFFFFFFFFFFFFFFFFFFFFF AND PUSH20 0xFFFFFFFFFFFFFFFFFFFFFFFFFFFFFFFFFFFFFFFF AND DUP2 MSTORE PUSH1 0x20 ADD SWAP1 DUP2 MSTORE PUSH1 0x20 ADD PUSH1 0x0 KECCAK256 PUSH1 0x0 PUSH2 0x100 EXP DUP2 SLOAD DUP2 PUSH1 0xFF MUL NOT AND SWAP1 DUP4 ISZERO ISZERO MUL OR SWAP1 SSTORE POP PUSH1 0x13 DUP2 SWAP1 DUP1 PUSH1 0x1 DUP2 SLOAD ADD DUP1 DUP3 SSTORE DUP1 SWAP2 POP POP PUSH1 0x1 SWAP1 SUB SWAP1 PUSH1 0x0 MSTORE PUSH1 0x20 PUSH1 0x0 KECCAK256 ADD PUSH1 0x0 SWAP1 SWAP2 SWAP1 SWAP2 SWAP1 SWAP2 PUSH2 0x100 EXP DUP2 SLOAD DUP2 PUSH20 0xFFFFFFFFFFFFFFFFFFFFFFFFFFFFFFFFFFFFFFFF MUL NOT AND SWAP1 DUP4 PUSH20 0xFFFFFFFFFFFFFFFFFFFFFFFFFFFFFFFFFFFFFFFF AND MUL OR SWAP1 SSTORE POP PUSH1 0x14 DUP4 SWAP1 DUP1 PUSH1 0x1 DUP2 SLOAD ADD DUP1 DUP3 SSTORE DUP1 SWAP2 POP POP PUSH1 0x1 SWAP1 SUB SWAP1 PUSH1 0x0 MSTORE PUSH1 0x20 PUSH1 0x0 KECCAK256 ADD PUSH1 0x0 SWAP1 SWAP2 SWAP1 SWAP2 SWAP1 SWAP2 POP SWAP1 DUP1 MLOAD SWAP1 PUSH1 0x20 ADD SWAP1 PUSH3 0x26C2 SWAP3 SWAP2 SWAP1 PUSH3 0x3AA3 JUMP JUMPDEST POP DUP3 PUSH1 0x16 PUSH1 0x0 DUP4 PUSH20 0xFFFFFFFFFFFFFFFFFFFFFFFFFFFFFFFFFFFFFFFF AND PUSH20 0xFFFFFFFFFFFFFFFFFFFFFFFFFFFFFFFFFFFFFFFF AND DUP2 MSTORE PUSH1 0x20 ADD SWAP1 DUP2 MSTORE PUSH1 0x20 ADD PUSH1 0x0 KECCAK256 SWAP1 DUP1 MLOAD SWAP1 PUSH1 0x20 ADD SWAP1 PUSH3 0x2718 SWAP3 SWAP2 SWAP1 PUSH3 0x3AA3 JUMP JUMPDEST POP PUSH32 0xBBCC7C94F9D30976D4BBF1D2B4AAB69DF1668576635C1CAFCDBED60DE50B4252 CALLER DUP3 CALLVALUE PUSH1 0x40 MLOAD PUSH3 0x274E SWAP4 SWAP3 SWAP2 SWAP1 PUSH3 0x472B JUMP JUMPDEST PUSH1 0x40 MLOAD DUP1 SWAP2 SUB SWAP1 LOG1 POP POP POP JUMP JUMPDEST PUSH1 0x2 SLOAD DUP2 JUMP JUMPDEST PUSH1 0x0 SLOAD DUP2 JUMP JUMPDEST PUSH1 0x60 PUSH1 0xA DUP1 SLOAD DUP1 PUSH1 0x20 MUL PUSH1 0x20 ADD PUSH1 0x40 MLOAD SWAP1 DUP2 ADD PUSH1 0x40 MSTORE DUP1 SWAP3 SWAP2 SWAP1 DUP2 DUP2 MSTORE PUSH1 0x20 ADD DUP3 DUP1 SLOAD DUP1 ISZERO PUSH3 0x27B7 JUMPI PUSH1 0x20 MUL DUP3 ADD SWAP2 SWAP1 PUSH1 0x0 MSTORE PUSH1 0x20 PUSH1 0x0 KECCAK256 SWAP1 JUMPDEST DUP2 SLOAD DUP2 MSTORE PUSH1 0x20 ADD SWAP1 PUSH1 0x1 ADD SWAP1 DUP1 DUP4 GT PUSH3 0x27A2 JUMPI JUMPDEST POP POP POP POP POP SWAP1 POP SWAP1 JUMP JUMPDEST PUSH1 0x0 JUMPDEST PUSH1 0x1A DUP1 SLOAD SWAP1 POP DUP2 LT ISZERO PUSH3 0x2B33 JUMPI PUSH1 0x1A DUP2 DUP2 SLOAD DUP2 LT PUSH3 0x280D JUMPI PUSH32 0x4E487B7100000000000000000000000000000000000000000000000000000000 PUSH1 0x0 MSTORE PUSH1 0x32 PUSH1 0x4 MSTORE PUSH1 0x24 PUSH1 0x0 REVERT JUMPDEST SWAP1 PUSH1 0x0 MSTORE PUSH1 0x20 PUSH1 0x0 KECCAK256 SWAP1 PUSH1 0x3 MUL ADD PUSH1 0x0 ADD SLOAD NUMBER GT ISZERO PUSH3 0x2B1C JUMPI PUSH1 0x1A DUP2 DUP2 SLOAD DUP2 LT PUSH3 0x2862 JUMPI PUSH32 0x4E487B7100000000000000000000000000000000000000000000000000000000 PUSH1 0x0 MSTORE PUSH1 0x32 PUSH1 0x4 MSTORE PUSH1 0x24 PUSH1 0x0 REVERT JUMPDEST SWAP1 PUSH1 0x0 MSTORE PUSH1 0x20 PUSH1 0x0 KECCAK256 SWAP1 PUSH1 0x3 MUL ADD PUSH1 0x1 ADD SLOAD PUSH1 0x1B PUSH1 0x0 PUSH1 0x1A DUP5 DUP2 SLOAD DUP2 LT PUSH3 0x28B3 JUMPI PUSH32 0x4E487B7100000000000000000000000000000000000000000000000000000000 PUSH1 0x0 MSTORE PUSH1 0x32 PUSH1 0x4 MSTORE PUSH1 0x24 PUSH1 0x0 REVERT JUMPDEST SWAP1 PUSH1 0x0 MSTORE PUSH1 0x20 PUSH1 0x0 KECCAK256 SWAP1 PUSH1 0x3 MUL ADD PUSH1 0x2 ADD PUSH1 0x0 SWAP1 SLOAD SWAP1 PUSH2 0x100 EXP SWAP1 DIV PUSH20 0xFFFFFFFFFFFFFFFFFFFFFFFFFFFFFFFFFFFFFFFF AND PUSH20 0xFFFFFFFFFFFFFFFFFFFFFFFFFFFFFFFFFFFFFFFF AND PUSH20 0xFFFFFFFFFFFFFFFFFFFFFFFFFFFFFFFFFFFFFFFF AND DUP2 MSTORE PUSH1 0x20 ADD SWAP1 DUP2 MSTORE PUSH1 0x20 ADD PUSH1 0x0 KECCAK256 PUSH1 0x0 DUP3 DUP3 SLOAD PUSH3 0x2930 SWAP2 SWAP1 PUSH3 0x4E08 JUMP JUMPDEST SWAP3 POP POP DUP2 SWAP1 SSTORE POP PUSH1 0x1 PUSH1 0x1A DUP1 SLOAD SWAP1 POP PUSH3 0x294B SWAP2 SWAP1 PUSH3 0x4EFE JUMP JUMPDEST DUP2 LT ISZERO PUSH3 0x2A7C JUMPI PUSH1 0x1A PUSH1 0x1 PUSH1 0x1A DUP1 SLOAD SWAP1 POP PUSH3 0x2969 SWAP2 SWAP1 PUSH3 0x4EFE JUMP JUMPDEST DUP2 SLOAD DUP2 LT PUSH3 0x29A1 JUMPI PUSH32 0x4E487B7100000000000000000000000000000000000000000000000000000000 PUSH1 0x0 MSTORE PUSH1 0x32 PUSH1 0x4 MSTORE PUSH1 0x24 PUSH1 0x0 REVERT JUMPDEST SWAP1 PUSH1 0x0 MSTORE PUSH1 0x20 PUSH1 0x0 KECCAK256 SWAP1 PUSH1 0x3 MUL ADD PUSH1 0x1A DUP3 DUP2 SLOAD DUP2 LT PUSH3 0x29EA JUMPI PUSH32 0x4E487B7100000000000000000000000000000000000000000000000000000000 PUSH1 0x0 MSTORE PUSH1 0x32 PUSH1 0x4 MSTORE PUSH1 0x24 PUSH1 0x0 REVERT JUMPDEST SWAP1 PUSH1 0x0 MSTORE PUSH1 0x20 PUSH1 0x0 KECCAK256 SWAP1 PUSH1 0x3 MUL ADD PUSH1 0x0 DUP3 ADD SLOAD DUP2 PUSH1 0x0 ADD SSTORE PUSH1 0x1 DUP3 ADD SLOAD DUP2 PUSH1 0x1 ADD SSTORE PUSH1 0x2 DUP3 ADD PUSH1 0x0 SWAP1 SLOAD SWAP1 PUSH2 0x100 EXP SWAP1 DIV PUSH20 0xFFFFFFFFFFFFFFFFFFFFFFFFFFFFFFFFFFFFFFFF AND DUP2 PUSH1 0x2 ADD PUSH1 0x0 PUSH2 0x100 EXP DUP2 SLOAD DUP2 PUSH20 0xFFFFFFFFFFFFFFFFFFFFFFFFFFFFFFFFFFFFFFFF MUL NOT AND SWAP1 DUP4 PUSH20 0xFFFFFFFFFFFFFFFFFFFFFFFFFFFFFFFFFFFFFFFF AND MUL OR SWAP1 SSTORE POP SWAP1 POP POP PUSH3 0x2A8D JUMP JUMPDEST DUP1 DUP1 PUSH3 0x2A89 SWAP1 PUSH3 0x5048 JUMP JUMPDEST SWAP2 POP POP JUMPDEST PUSH1 0x1A DUP1 SLOAD DUP1 PUSH3 0x2AC6 JUMPI PUSH32 0x4E487B7100000000000000000000000000000000000000000000000000000000 PUSH1 0x0 MSTORE PUSH1 0x31 PUSH1 0x4 MSTORE PUSH1 0x24 PUSH1 0x0 REVERT JUMPDEST PUSH1 0x1 SWAP1 SUB DUP2 DUP2 SWAP1 PUSH1 0x0 MSTORE PUSH1 0x20 PUSH1 0x0 KECCAK256 SWAP1 PUSH1 0x3 MUL ADD PUSH1 0x0 DUP1 DUP3 ADD PUSH1 0x0 SWAP1 SSTORE PUSH1 0x1 DUP3 ADD PUSH1 0x0 SWAP1 SSTORE PUSH1 0x2 DUP3 ADD PUSH1 0x0 PUSH2 0x100 EXP DUP2 SLOAD SWAP1 PUSH20 0xFFFFFFFFFFFFFFFFFFFFFFFFFFFFFFFFFFFFFFFF MUL NOT AND SWAP1 SSTORE POP POP SWAP1 SSTORE PUSH3 0x2B2D JUMP JUMPDEST DUP1 DUP1 PUSH3 0x2B29 SWAP1 PUSH3 0x5048 JUMP JUMPDEST SWAP2 POP POP JUMPDEST PUSH3 0x27C4 JUMP JUMPDEST POP JUMP JUMPDEST PUSH1 0x4 SLOAD DUP2 JUMP JUMPDEST PUSH1 0x0 DUP1 PUSH1 0x0 PUSH1 0x11 PUSH1 0x0 DUP7 PUSH20 0xFFFFFFFFFFFFFFFFFFFFFFFFFFFFFFFFFFFFFFFF AND PUSH20 0xFFFFFFFFFFFFFFFFFFFFFFFFFFFFFFFFFFFFFFFF AND DUP2 MSTORE PUSH1 0x20 ADD SWAP1 DUP2 MSTORE PUSH1 0x20 ADD PUSH1 0x0 KECCAK256 SLOAD SWAP1 POP PUSH1 0x2 SLOAD DUP5 LT PUSH3 0x2BAB JUMPI PUSH1 0x5 SLOAD DUP2 LT ISZERO PUSH3 0x2BA0 JUMPI PUSH1 0x0 PUSH3 0x2BA3 JUMP JUMPDEST PUSH1 0x1 JUMPDEST SWAP2 POP PUSH3 0x2BF8 JUMP JUMPDEST PUSH1 0x1 SLOAD DUP5 LT PUSH3 0x2BD3 JUMPI PUSH1 0x4 SLOAD DUP2 LT ISZERO PUSH3 0x2BC8 JUMPI PUSH1 0x0 PUSH3 0x2BCB JUMP JUMPDEST PUSH1 0x1 JUMPDEST SWAP2 POP PUSH3 0x2BF7 JUMP JUMPDEST PUSH1 0x0 SLOAD DUP5 LT PUSH3 0x2BF6 JUMPI PUSH1 0x3 SLOAD DUP2 LT ISZERO PUSH3 0x2BF0 JUMPI PUSH1 0x0 PUSH3 0x2BF3 JUMP JUMPDEST PUSH1 0x1 JUMPDEST SWAP2 POP JUMPDEST JUMPDEST JUMPDEST DUP2 SWAP3 POP POP POP SWAP3 SWAP2 POP POP JUMP JUMPDEST PUSH1 0x1 SLOAD DUP2 JUMP JUMPDEST PUSH1 0x19 PUSH1 0x20 MSTORE DUP1 PUSH1 0x0 MSTORE PUSH1 0x40 PUSH1 0x0 KECCAK256 PUSH1 0x0 SWAP2 POP SWAP1 POP SLOAD DUP2 JUMP JUMPDEST PUSH1 0x13 DUP2 DUP2 SLOAD DUP2 LT PUSH3 0x2C32 JUMPI PUSH1 0x0 DUP1 REVERT JUMPDEST SWAP1 PUSH1 0x0 MSTORE PUSH1 0x20 PUSH1 0x0 KECCAK256 ADD PUSH1 0x0 SWAP2 POP SLOAD SWAP1 PUSH2 0x100 EXP SWAP1 DIV PUSH20 0xFFFFFFFFFFFFFFFFFFFFFFFFFFFFFFFFFFFFFFFF AND DUP2 JUMP JUMPDEST PUSH1 0x18 PUSH1 0x20 MSTORE DUP1 PUSH1 0x0 MSTORE PUSH1 0x40 PUSH1 0x0 KECCAK256 PUSH1 0x0 SWAP2 POP SWAP1 POP SLOAD DUP2 JUMP JUMPDEST PUSH1 0xC DUP2 DUP2 SLOAD DUP2 LT PUSH3 0x2C8A JUMPI PUSH1 0x0 DUP1 REVERT JUMPDEST SWAP1 PUSH1 0x0 MSTORE PUSH1 0x20 PUSH1 0x0 KECCAK256 ADD PUSH1 0x0 SWAP2 POP SWAP1 POP SLOAD DUP2 JUMP JUMPDEST PUSH1 0xF PUSH1 0x20 MSTORE DUP1 PUSH1 0x0 MSTORE PUSH1 0x40 PUSH1 0x0 KECCAK256 PUSH1 0x0 SWAP2 POP SWAP1 POP DUP1 PUSH1 0x0 ADD SLOAD SWAP1 DUP1 PUSH1 0x1 ADD PUSH1 0x0 SWAP1 SLOAD SWAP1 PUSH2 0x100 EXP SWAP1 DIV PUSH20 0xFFFFFFFFFFFFFFFFFFFFFFFFFFFFFFFFFFFFFFFF AND SWAP1 DUP1 PUSH1 0x2 ADD PUSH1 0x0 SWAP1 SLOAD SWAP1 PUSH2 0x100 EXP SWAP1 DIV PUSH20 0xFFFFFFFFFFFFFFFFFFFFFFFFFFFFFFFFFFFFFFFF AND SWAP1 DUP1 PUSH1 0x3 ADD SLOAD SWAP1 DUP1 PUSH1 0x4 ADD DUP1 SLOAD PUSH3 0x2D1B SWAP1 PUSH3 0x5012 JUMP JUMPDEST DUP1 PUSH1 0x1F ADD PUSH1 0x20 DUP1 SWAP2 DIV MUL PUSH1 0x20 ADD PUSH1 0x40 MLOAD SWAP1 DUP2 ADD PUSH1 0x40 MSTORE DUP1 SWAP3 SWAP2 SWAP1 DUP2 DUP2 MSTORE PUSH1 0x20 ADD DUP3 DUP1 SLOAD PUSH3 0x2D49 SWAP1 PUSH3 0x5012 JUMP JUMPDEST DUP1 ISZERO PUSH3 0x2D9A JUMPI DUP1 PUSH1 0x1F LT PUSH3 0x2D6E JUMPI PUSH2 0x100 DUP1 DUP4 SLOAD DIV MUL DUP4 MSTORE SWAP2 PUSH1 0x20 ADD SWAP2 PUSH3 0x2D9A JUMP JUMPDEST DUP3 ADD SWAP2 SWAP1 PUSH1 0x0 MSTORE PUSH1 0x20 PUSH1 0x0 KECCAK256 SWAP1 JUMPDEST DUP2 SLOAD DUP2 MSTORE SWAP1 PUSH1 0x1 ADD SWAP1 PUSH1 0x20 ADD DUP1 DUP4 GT PUSH3 0x2D7C JUMPI DUP3 SWAP1 SUB PUSH1 0x1F AND DUP3 ADD SWAP2 JUMPDEST POP POP POP POP POP SWAP1 DUP1 PUSH1 0x5 ADD SLOAD SWAP1 DUP1 PUSH1 0x6 ADD SLOAD SWAP1 DUP1 PUSH1 0x7 ADD SLOAD SWAP1 DUP1 PUSH1 0x8 ADD SLOAD SWAP1 DUP1 PUSH1 0x9 ADD SLOAD SWAP1 DUP1 PUSH1 0xA ADD SLOAD SWAP1 DUP1 PUSH1 0xB ADD PUSH1 0x0 SWAP1 SLOAD SWAP1 PUSH2 0x100 EXP SWAP1 DIV PUSH1 0xFF AND SWAP1 POP DUP13 JUMP JUMPDEST PUSH1 0x60 PUSH1 0x1A DUP1 SLOAD DUP1 PUSH1 0x20 MUL PUSH1 0x20 ADD PUSH1 0x40 MLOAD SWAP1 DUP2 ADD PUSH1 0x40 MSTORE DUP1 SWAP3 SWAP2 SWAP1 DUP2 DUP2 MSTORE PUSH1 0x20 ADD PUSH1 0x0 SWAP1 JUMPDEST DUP3 DUP3 LT ISZERO PUSH3 0x2E9D JUMPI DUP4 DUP3 SWAP1 PUSH1 0x0 MSTORE PUSH1 0x20 PUSH1 0x0 KECCAK256 SWAP1 PUSH1 0x3 MUL ADD PUSH1 0x40 MLOAD DUP1 PUSH1 0x60 ADD PUSH1 0x40 MSTORE SWAP1 DUP2 PUSH1 0x0 DUP3 ADD SLOAD DUP2 MSTORE PUSH1 0x20 ADD PUSH1 0x1 DUP3 ADD SLOAD DUP2 MSTORE PUSH1 0x20 ADD PUSH1 0x2 DUP3 ADD PUSH1 0x0 SWAP1 SLOAD SWAP1 PUSH2 0x100 EXP SWAP1 DIV PUSH20 0xFFFFFFFFFFFFFFFFFFFFFFFFFFFFFFFFFFFFFFFF AND PUSH20 0xFFFFFFFFFFFFFFFFFFFFFFFFFFFFFFFFFFFFFFFF AND PUSH20 0xFFFFFFFFFFFFFFFFFFFFFFFFFFFFFFFFFFFFFFFF AND DUP2 MSTORE POP POP DUP2 MSTORE PUSH1 0x20 ADD SWAP1 PUSH1 0x1 ADD SWAP1 PUSH3 0x2DFF JUMP JUMPDEST POP POP POP POP SWAP1 POP SWAP1 JUMP JUMPDEST PUSH1 0x15 PUSH1 0x20 MSTORE DUP1 PUSH1 0x0 MSTORE PUSH1 0x40 PUSH1 0x0 KECCAK256 PUSH1 0x0 SWAP2 POP SLOAD SWAP1 PUSH2 0x100 EXP SWAP1 DIV PUSH1 0xFF AND DUP2 JUMP JUMPDEST PUSH1 0x60 PUSH1 0xD DUP1 SLOAD DUP1 PUSH1 0x20 MUL PUSH1 0x20 ADD PUSH1 0x40 MLOAD SWAP1 DUP2 ADD PUSH1 0x40 MSTORE DUP1 SWAP3 SWAP2 SWAP1 DUP2 DUP2 MSTORE PUSH1 0x20 ADD DUP3 DUP1 SLOAD DUP1 ISZERO PUSH3 0x2F16 JUMPI PUSH1 0x20 MUL DUP3 ADD SWAP2 SWAP1 PUSH1 0x0 MSTORE PUSH1 0x20 PUSH1 0x0 KECCAK256 SWAP1 JUMPDEST DUP2 SLOAD DUP2 MSTORE PUSH1 0x20 ADD SWAP1 PUSH1 0x1 ADD SWAP1 DUP1 DUP4 GT PUSH3 0x2F01 JUMPI JUMPDEST POP POP POP POP POP SWAP1 POP SWAP1 JUMP JUMPDEST PUSH1 0x0 JUMPDEST PUSH1 0x9 DUP1 SLOAD SWAP1 POP DUP2 LT ISZERO PUSH3 0x31AD JUMPI PUSH1 0x0 PUSH1 0x9 DUP3 DUP2 SLOAD DUP2 LT PUSH3 0x2F6E JUMPI PUSH32 0x4E487B7100000000000000000000000000000000000000000000000000000000 PUSH1 0x0 MSTORE PUSH1 0x32 PUSH1 0x4 MSTORE PUSH1 0x24 PUSH1 0x0 REVERT JUMPDEST SWAP1 PUSH1 0x0 MSTORE PUSH1 0x20 PUSH1 0x0 KECCAK256 ADD SLOAD SWAP1 POP PUSH1 0xF PUSH1 0x0 DUP3 DUP2 MSTORE PUSH1 0x20 ADD SWAP1 DUP2 MSTORE PUSH1 0x20 ADD PUSH1 0x0 KECCAK256 PUSH1 0x5 ADD SLOAD NUMBER GT ISZERO PUSH3 0x3195 JUMPI PUSH1 0x1 PUSH1 0x9 DUP1 SLOAD SWAP1 POP PUSH3 0x2FAE SWAP2 SWAP1 PUSH3 0x4EFE JUMP JUMPDEST DUP3 LT ISZERO PUSH3 0x305E JUMPI PUSH1 0x9 PUSH1 0x1 PUSH1 0x9 DUP1 SLOAD SWAP1 POP PUSH3 0x2FCC SWAP2 SWAP1 PUSH3 0x4EFE JUMP JUMPDEST DUP2 SLOAD DUP2 LT PUSH3 0x3004 JUMPI PUSH32 0x4E487B7100000000000000000000000000000000000000000000000000000000 PUSH1 0x0 MSTORE PUSH1 0x32 PUSH1 0x4 MSTORE PUSH1 0x24 PUSH1 0x0 REVERT JUMPDEST SWAP1 PUSH1 0x0 MSTORE PUSH1 0x20 PUSH1 0x0 KECCAK256 ADD SLOAD PUSH1 0x9 DUP4 DUP2 SLOAD DUP2 LT PUSH3 0x304A JUMPI PUSH32 0x4E487B7100000000000000000000000000000000000000000000000000000000 PUSH1 0x0 MSTORE PUSH1 0x32 PUSH1 0x4 MSTORE PUSH1 0x24 PUSH1 0x0 REVERT JUMPDEST SWAP1 PUSH1 0x0 MSTORE PUSH1 0x20 PUSH1 0x0 KECCAK256 ADD DUP2 SWAP1 SSTORE POP PUSH3 0x306F JUMP JUMPDEST DUP2 DUP1 PUSH3 0x306B SWAP1 PUSH3 0x5048 JUMP JUMPDEST SWAP3 POP POP JUMPDEST PUSH1 0x9 DUP1 SLOAD DUP1 PUSH3 0x30A8 JUMPI PUSH32 0x4E487B7100000000000000000000000000000000000000000000000000000000 PUSH1 0x0 MSTORE PUSH1 0x31 PUSH1 0x4 MSTORE PUSH1 0x24 PUSH1 0x0 REVERT JUMPDEST PUSH1 0x1 SWAP1 SUB DUP2 DUP2 SWAP1 PUSH1 0x0 MSTORE PUSH1 0x20 PUSH1 0x0 KECCAK256 ADD PUSH1 0x0 SWAP1 SSTORE SWAP1 SSTORE PUSH1 0xB DUP2 SWAP1 DUP1 PUSH1 0x1 DUP2 SLOAD ADD DUP1 DUP3 SSTORE DUP1 SWAP2 POP POP PUSH1 0x1 SWAP1 SUB SWAP1 PUSH1 0x0 MSTORE PUSH1 0x20 PUSH1 0x0 KECCAK256 ADD PUSH1 0x0 SWAP1 SWAP2 SWAP1 SWAP2 SWAP1 SWAP2 POP SSTORE PUSH1 0x1 PUSH1 0xE PUSH1 0x0 DUP4 DUP2 MSTORE PUSH1 0x20 ADD SWAP1 DUP2 MSTORE PUSH1 0x20 ADD PUSH1 0x0 KECCAK256 PUSH1 0x0 PUSH2 0x100 EXP DUP2 SLOAD DUP2 PUSH1 0xFF MUL NOT AND SWAP1 DUP4 PUSH1 0x2 DUP2 GT ISZERO PUSH3 0x3145 JUMPI PUSH32 0x4E487B7100000000000000000000000000000000000000000000000000000000 PUSH1 0x0 MSTORE PUSH1 0x21 PUSH1 0x4 MSTORE PUSH1 0x24 PUSH1 0x0 REVERT JUMPDEST MUL OR SWAP1 SSTORE POP PUSH1 0x0 PUSH1 0xF PUSH1 0x0 DUP4 DUP2 MSTORE PUSH1 0x20 ADD SWAP1 DUP2 MSTORE PUSH1 0x20 ADD PUSH1 0x0 KECCAK256 PUSH1 0x6 ADD SLOAD SWAP1 POP PUSH1 0xC DUP2 SWAP1 DUP1 PUSH1 0x1 DUP2 SLOAD ADD DUP1 DUP3 SSTORE DUP1 SWAP2 POP POP PUSH1 0x1 SWAP1 SUB SWAP1 PUSH1 0x0 MSTORE PUSH1 0x20 PUSH1 0x0 KECCAK256 ADD PUSH1 0x0 SWAP1 SWAP2 SWAP1 SWAP2 SWAP1 SWAP2 POP SSTORE POP PUSH3 0x31A6 JUMP JUMPDEST DUP2 DUP1 PUSH3 0x31A2 SWAP1 PUSH3 0x5048 JUMP JUMPDEST SWAP3 POP POP JUMPDEST POP PUSH3 0x2F23 JUMP JUMPDEST POP JUMP JUMPDEST PUSH1 0x8 SLOAD DUP2 JUMP JUMPDEST PUSH1 0x9 DUP2 DUP2 SLOAD DUP2 LT PUSH3 0x31C7 JUMPI PUSH1 0x0 DUP1 REVERT JUMPDEST SWAP1 PUSH1 0x0 MSTORE PUSH1 0x20 PUSH1 0x0 KECCAK256 ADD PUSH1 0x0 SWAP2 POP SWAP1 POP SLOAD DUP2 JUMP JUMPDEST PUSH1 0xB DUP2 DUP2 SLOAD DUP2 LT PUSH3 0x31EC JUMPI PUSH1 0x0 DUP1 REVERT JUMPDEST SWAP1 PUSH1 0x0 MSTORE PUSH1 0x20 PUSH1 0x0 KECCAK256 ADD PUSH1 0x0 SWAP2 POP SWAP1 POP SLOAD DUP2 JUMP JUMPDEST PUSH1 0x0 PUSH1 0x1B PUSH1 0x0 CALLER PUSH20 0xFFFFFFFFFFFFFFFFFFFFFFFFFFFFFFFFFFFFFFFF AND PUSH20 0xFFFFFFFFFFFFFFFFFFFFFFFFFFFFFFFFFFFFFFFF AND DUP2 MSTORE PUSH1 0x20 ADD SWAP1 DUP2 MSTORE PUSH1 0x20 ADD PUSH1 0x0 KECCAK256 SLOAD SWAP1 POP PUSH1 0x0 DUP2 GT ISZERO PUSH3 0x32DC JUMPI PUSH1 0x0 PUSH1 0x1B PUSH1 0x0 CALLER PUSH20 0xFFFFFFFFFFFFFFFFFFFFFFFFFFFFFFFFFFFFFFFF AND PUSH20 0xFFFFFFFFFFFFFFFFFFFFFFFFFFFFFFFFFFFFFFFF AND DUP2 MSTORE PUSH1 0x20 ADD SWAP1 DUP2 MSTORE PUSH1 0x20 ADD PUSH1 0x0 KECCAK256 DUP2 SWAP1 SSTORE POP CALLER PUSH20 0xFFFFFFFFFFFFFFFFFFFFFFFFFFFFFFFFFFFFFFFF AND PUSH2 0x8FC DUP3 SWAP1 DUP2 ISZERO MUL SWAP1 PUSH1 0x40 MLOAD PUSH1 0x0 PUSH1 0x40 MLOAD DUP1 DUP4 SUB DUP2 DUP6 DUP9 DUP9 CALL SWAP4 POP POP POP POP ISZERO DUP1 ISZERO PUSH3 0x32DA JUMPI RETURNDATASIZE PUSH1 0x0 DUP1 RETURNDATACOPY RETURNDATASIZE PUSH1 0x0 REVERT JUMPDEST POP JUMPDEST POP JUMP JUMPDEST PUSH1 0x0 JUMPDEST PUSH1 0xC DUP1 SLOAD SWAP1 POP DUP2 LT ISZERO PUSH3 0x3485 JUMPI PUSH1 0x0 PUSH1 0xC DUP3 DUP2 SLOAD DUP2 LT PUSH3 0x332D JUMPI PUSH32 0x4E487B7100000000000000000000000000000000000000000000000000000000 PUSH1 0x0 MSTORE PUSH1 0x32 PUSH1 0x4 MSTORE PUSH1 0x24 PUSH1 0x0 REVERT JUMPDEST SWAP1 PUSH1 0x0 MSTORE PUSH1 0x20 PUSH1 0x0 KECCAK256 ADD SLOAD SWAP1 POP DUP1 NUMBER GT ISZERO PUSH3 0x346D JUMPI PUSH1 0x1 PUSH1 0xC DUP1 SLOAD SWAP1 POP PUSH3 0x3357 SWAP2 SWAP1 PUSH3 0x4EFE JUMP JUMPDEST DUP3 LT ISZERO PUSH3 0x3407 JUMPI PUSH1 0xC PUSH1 0x1 PUSH1 0xC DUP1 SLOAD SWAP1 POP PUSH3 0x3375 SWAP2 SWAP1 PUSH3 0x4EFE JUMP JUMPDEST DUP2 SLOAD DUP2 LT PUSH3 0x33AD JUMPI PUSH32 0x4E487B7100000000000000000000000000000000000000000000000000000000 PUSH1 0x0 MSTORE PUSH1 0x32 PUSH1 0x4 MSTORE PUSH1 0x24 PUSH1 0x0 REVERT JUMPDEST SWAP1 PUSH1 0x0 MSTORE PUSH1 0x20 PUSH1 0x0 KECCAK256 ADD SLOAD PUSH1 0xC DUP4 DUP2 SLOAD DUP2 LT PUSH3 0x33F3 JUMPI PUSH32 0x4E487B7100000000000000000000000000000000000000000000000000000000 PUSH1 0x0 MSTORE PUSH1 0x32 PUSH1 0x4 MSTORE PUSH1 0x24 PUSH1 0x0 REVERT JUMPDEST SWAP1 PUSH1 0x0 MSTORE PUSH1 0x20 PUSH1 0x0 KECCAK256 ADD DUP2 SWAP1 SSTORE POP PUSH3 0x3418 JUMP JUMPDEST DUP2 DUP1 PUSH3 0x3414 SWAP1 PUSH3 0x5048 JUMP JUMPDEST SWAP3 POP POP JUMPDEST PUSH1 0xC DUP1 SLOAD DUP1 PUSH3 0x3451 JUMPI PUSH32 0x4E487B7100000000000000000000000000000000000000000000000000000000 PUSH1 0x0 MSTORE PUSH1 0x31 PUSH1 0x4 MSTORE PUSH1 0x24 PUSH1 0x0 REVERT JUMPDEST PUSH1 0x1 SWAP1 SUB DUP2 DUP2 SWAP1 PUSH1 0x0 MSTORE PUSH1 0x20 PUSH1 0x0 KECCAK256 ADD PUSH1 0x0 SWAP1 SSTORE SWAP1 SSTORE PUSH3 0x347E JUMP JUMPDEST DUP2 DUP1 PUSH3 0x347A SWAP1 PUSH3 0x5048 JUMP JUMPDEST SWAP3 POP POP JUMPDEST POP PUSH3 0x32E2 JUMP JUMPDEST POP JUMP JUMPDEST PUSH1 0x1 PUSH1 0x2 DUP2 GT ISZERO PUSH3 0x34C3 JUMPI PUSH32 0x4E487B7100000000000000000000000000000000000000000000000000000000 PUSH1 0x0 MSTORE PUSH1 0x21 PUSH1 0x4 MSTORE PUSH1 0x24 PUSH1 0x0 REVERT JUMPDEST PUSH1 0xE PUSH1 0x0 DUP6 DUP2 MSTORE PUSH1 0x20 ADD SWAP1 DUP2 MSTORE PUSH1 0x20 ADD PUSH1 0x0 KECCAK256 PUSH1 0x0 SWAP1 SLOAD SWAP1 PUSH2 0x100 EXP SWAP1 DIV PUSH1 0xFF AND PUSH1 0x2 DUP2 GT ISZERO PUSH3 0x351D JUMPI PUSH32 0x4E487B7100000000000000000000000000000000000000000000000000000000 PUSH1 0x0 MSTORE PUSH1 0x21 PUSH1 0x4 MSTORE PUSH1 0x24 PUSH1 0x0 REVERT JUMPDEST EQ PUSH3 0x3560 JUMPI PUSH1 0x40 MLOAD PUSH32 0x8C379A000000000000000000000000000000000000000000000000000000000 DUP2 MSTORE PUSH1 0x4 ADD PUSH3 0x3557 SWAP1 PUSH3 0x48FB JUMP JUMPDEST PUSH1 0x40 MLOAD DUP1 SWAP2 SUB SWAP1 REVERT JUMPDEST PUSH1 0x17 PUSH1 0x0 DUP5 DUP2 MSTORE PUSH1 0x20 ADD SWAP1 DUP2 MSTORE PUSH1 0x20 ADD PUSH1 0x0 KECCAK256 PUSH1 0x0 CALLER PUSH20 0xFFFFFFFFFFFFFFFFFFFFFFFFFFFFFFFFFFFFFFFF AND PUSH20 0xFFFFFFFFFFFFFFFFFFFFFFFFFFFFFFFFFFFFFFFF AND DUP2 MSTORE PUSH1 0x20 ADD SWAP1 DUP2 MSTORE PUSH1 0x20 ADD PUSH1 0x0 KECCAK256 PUSH1 0x0 SWAP1 SLOAD SWAP1 PUSH2 0x100 EXP SWAP1 DIV PUSH1 0xFF AND ISZERO PUSH3 0x3601 JUMPI PUSH1 0x40 MLOAD PUSH32 0x8C379A000000000000000000000000000000000000000000000000000000000 DUP2 MSTORE PUSH1 0x4 ADD PUSH3 0x35F8 SWAP1 PUSH3 0x4A2D JUMP JUMPDEST PUSH1 0x40 MLOAD DUP1 SWAP2 SUB SWAP1 REVERT JUMPDEST PUSH1 0x0 DUP2 LT ISZERO DUP1 ISZERO PUSH3 0x3613 JUMPI POP PUSH1 0x4 DUP2 LT JUMPDEST PUSH3 0x3655 JUMPI PUSH1 0x40 MLOAD PUSH32 0x8C379A000000000000000000000000000000000000000000000000000000000 DUP2 MSTORE PUSH1 0x4 ADD PUSH3 0x364C SWAP1 PUSH3 0x48D9 JUMP JUMPDEST PUSH1 0x40 MLOAD DUP1 SWAP2 SUB SWAP1 REVERT JUMPDEST PUSH1 0x0 PUSH1 0x19 PUSH1 0x0 DUP4 DUP2 MSTORE PUSH1 0x20 ADD SWAP1 DUP2 MSTORE PUSH1 0x20 ADD PUSH1 0x0 KECCAK256 SLOAD CALLVALUE PUSH3 0x3678 SWAP2 SWAP1 PUSH3 0x4E9D JUMP JUMPDEST SWAP1 POP DUP3 ISZERO PUSH3 0x36B6 JUMPI DUP1 PUSH1 0xF PUSH1 0x0 DUP7 DUP2 MSTORE PUSH1 0x20 ADD SWAP1 DUP2 MSTORE PUSH1 0x20 ADD PUSH1 0x0 KECCAK256 PUSH1 0x8 ADD PUSH1 0x0 DUP3 DUP3 SLOAD PUSH3 0x36A9 SWAP2 SWAP1 PUSH3 0x4E08 JUMP JUMPDEST SWAP3 POP POP DUP2 SWAP1 SSTORE POP PUSH3 0x36E6 JUMP JUMPDEST DUP1 PUSH1 0xF PUSH1 0x0 DUP7 DUP2 MSTORE PUSH1 0x20 ADD SWAP1 DUP2 MSTORE PUSH1 0x20 ADD PUSH1 0x0 KECCAK256 PUSH1 0x9 ADD PUSH1 0x0 DUP3 DUP3 SLOAD PUSH3 0x36DE SWAP2 SWAP1 PUSH3 0x4E08 JUMP JUMPDEST SWAP3 POP POP DUP2 SWAP1 SSTORE POP JUMPDEST PUSH1 0x1 PUSH1 0x17 PUSH1 0x0 DUP7 DUP2 MSTORE PUSH1 0x20 ADD SWAP1 DUP2 MSTORE PUSH1 0x20 ADD PUSH1 0x0 KECCAK256 PUSH1 0x0 CALLER PUSH20 0xFFFFFFFFFFFFFFFFFFFFFFFFFFFFFFFFFFFFFFFF AND PUSH20 0xFFFFFFFFFFFFFFFFFFFFFFFFFFFFFFFFFFFFFFFF AND DUP2 MSTORE PUSH1 0x20 ADD SWAP1 DUP2 MSTORE PUSH1 0x20 ADD PUSH1 0x0 KECCAK256 PUSH1 0x0 PUSH2 0x100 EXP DUP2 SLOAD DUP2 PUSH1 0xFF MUL NOT AND SWAP1 DUP4 ISZERO ISZERO MUL OR SWAP1 SSTORE POP PUSH1 0x1 PUSH1 0xF PUSH1 0x0 DUP7 DUP2 MSTORE PUSH1 0x20 ADD SWAP1 DUP2 MSTORE PUSH1 0x20 ADD PUSH1 0x0 KECCAK256 PUSH1 0xA ADD PUSH1 0x0 DUP3 DUP3 SLOAD PUSH3 0x3778 SWAP2 SWAP1 PUSH3 0x4E08 JUMP JUMPDEST SWAP3 POP POP DUP2 SWAP1 SSTORE POP PUSH1 0x0 PUSH1 0x40 MLOAD DUP1 PUSH1 0x60 ADD PUSH1 0x40 MSTORE DUP1 PUSH1 0x18 PUSH1 0x0 DUP7 DUP2 MSTORE PUSH1 0x20 ADD SWAP1 DUP2 MSTORE PUSH1 0x20 ADD PUSH1 0x0 KECCAK256 SLOAD PUSH1 0xF PUSH1 0x0 DUP10 DUP2 MSTORE PUSH1 0x20 ADD SWAP1 DUP2 MSTORE PUSH1 0x20 ADD PUSH1 0x0 KECCAK256 PUSH1 0x6 ADD SLOAD PUSH3 0x37C3 SWAP2 SWAP1 PUSH3 0x4E08 JUMP JUMPDEST DUP2 MSTORE PUSH1 0x20 ADD CALLVALUE DUP2 MSTORE PUSH1 0x20 ADD CALLER PUSH20 0xFFFFFFFFFFFFFFFFFFFFFFFFFFFFFFFFFFFFFFFF AND DUP2 MSTORE POP SWAP1 POP PUSH1 0x1A DUP2 SWAP1 DUP1 PUSH1 0x1 DUP2 SLOAD ADD DUP1 DUP3 SSTORE DUP1 SWAP2 POP POP PUSH1 0x1 SWAP1 SUB SWAP1 PUSH1 0x0 MSTORE PUSH1 0x20 PUSH1 0x0 KECCAK256 SWAP1 PUSH1 0x3 MUL ADD PUSH1 0x0 SWAP1 SWAP2 SWAP1 SWAP2 SWAP1 SWAP2 POP PUSH1 0x0 DUP3 ADD MLOAD DUP2 PUSH1 0x0 ADD SSTORE PUSH1 0x20 DUP3 ADD MLOAD DUP2 PUSH1 0x1 ADD SSTORE PUSH1 0x40 DUP3 ADD MLOAD DUP2 PUSH1 0x2 ADD PUSH1 0x0 PUSH2 0x100 EXP DUP2 SLOAD DUP2 PUSH20 0xFFFFFFFFFFFFFFFFFFFFFFFFFFFFFFFFFFFFFFFF MUL NOT AND SWAP1 DUP4 PUSH20 0xFFFFFFFFFFFFFFFFFFFFFFFFFFFFFFFFFFFFFFFF AND MUL OR SWAP1 SSTORE POP POP POP PUSH32 0x7471237A4E1CC8F43C5CBF54B29859C965BE218917F4E37E236C6D970DE4003A DUP6 CALLER CALLVALUE DUP6 DUP9 DUP9 PUSH1 0x40 MLOAD PUSH3 0x38AE SWAP7 SWAP6 SWAP5 SWAP4 SWAP3 SWAP2 SWAP1 PUSH3 0x4BE6 JUMP JUMPDEST PUSH1 0x40 MLOAD DUP1 SWAP2 SUB SWAP1 LOG1 POP POP POP POP POP JUMP JUMPDEST PUSH1 0x17 PUSH1 0x20 MSTORE DUP2 PUSH1 0x0 MSTORE PUSH1 0x40 PUSH1 0x0 KECCAK256 PUSH1 0x20 MSTORE DUP1 PUSH1 0x0 MSTORE PUSH1 0x40 PUSH1 0x0 KECCAK256 PUSH1 0x0 SWAP2 POP SWAP2 POP SWAP1 SLOAD SWAP1 PUSH2 0x100 EXP SWAP1 DIV PUSH1 0xFF AND DUP2 JUMP JUMPDEST PUSH1 0x3 SLOAD DUP2 JUMP JUMPDEST PUSH1 0x60 PUSH1 0x13 DUP1 SLOAD DUP1 PUSH1 0x20 MUL PUSH1 0x20 ADD PUSH1 0x40 MLOAD SWAP1 DUP2 ADD PUSH1 0x40 MSTORE DUP1 SWAP3 SWAP2 SWAP1 DUP2 DUP2 MSTORE PUSH1 0x20 ADD DUP3 DUP1 SLOAD DUP1 ISZERO PUSH3 0x3978 JUMPI PUSH1 0x20 MUL DUP3 ADD SWAP2 SWAP1 PUSH1 0x0 MSTORE PUSH1 0x20 PUSH1 0x0 KECCAK256 SWAP1 JUMPDEST DUP2 PUSH1 0x0 SWAP1 SLOAD SWAP1 PUSH2 0x100 EXP SWAP1 DIV PUSH20 0xFFFFFFFFFFFFFFFFFFFFFFFFFFFFFFFFFFFFFFFF AND PUSH20 0xFFFFFFFFFFFFFFFFFFFFFFFFFFFFFFFFFFFFFFFF AND DUP2 MSTORE PUSH1 0x20 ADD SWAP1 PUSH1 0x1 ADD SWAP1 DUP1 DUP4 GT PUSH3 0x392D JUMPI JUMPDEST POP POP POP POP POP SWAP1 POP SWAP1 JUMP JUMPDEST PUSH1 0x1B PUSH1 0x20 MSTORE DUP1 PUSH1 0x0 MSTORE PUSH1 0x40 PUSH1 0x0 KECCAK256 PUSH1 0x0 SWAP2 POP SWAP1 POP SLOAD DUP2 JUMP JUMPDEST PUSH1 0x7 PUSH1 0x0 SWAP1 SLOAD SWAP1 PUSH2 0x100 EXP SWAP1 DIV PUSH20 0xFFFFFFFFFFFFFFFFFFFFFFFFFFFFFFFFFFFFFFFF AND DUP2 JUMP JUMPDEST PUSH1 0x60 PUSH1 0x14 DUP1 SLOAD DUP1 PUSH1 0x20 MUL PUSH1 0x20 ADD PUSH1 0x40 MLOAD SWAP1 DUP2 ADD PUSH1 0x40 MSTORE DUP1 SWAP3 SWAP2 SWAP1 DUP2 DUP2 MSTORE PUSH1 0x20 ADD PUSH1 0x0 SWAP1 JUMPDEST DUP3 DUP3 LT ISZERO PUSH3 0x3A9A JUMPI DUP4 DUP3 SWAP1 PUSH1 0x0 MSTORE PUSH1 0x20 PUSH1 0x0 KECCAK256 ADD DUP1 SLOAD PUSH3 0x3A06 SWAP1 PUSH3 0x5012 JUMP JUMPDEST DUP1 PUSH1 0x1F ADD PUSH1 0x20 DUP1 SWAP2 DIV MUL PUSH1 0x20 ADD PUSH1 0x40 MLOAD SWAP1 DUP2 ADD PUSH1 0x40 MSTORE DUP1 SWAP3 SWAP2 SWAP1 DUP2 DUP2 MSTORE PUSH1 0x20 ADD DUP3 DUP1 SLOAD PUSH3 0x3A34 SWAP1 PUSH3 0x5012 JUMP JUMPDEST DUP1 ISZERO PUSH3 0x3A85 JUMPI DUP1 PUSH1 0x1F LT PUSH3 0x3A59 JUMPI PUSH2 0x100 DUP1 DUP4 SLOAD DIV MUL DUP4 MSTORE SWAP2 PUSH1 0x20 ADD SWAP2 PUSH3 0x3A85 JUMP JUMPDEST DUP3 ADD SWAP2 SWAP1 PUSH1 0x0 MSTORE PUSH1 0x20 PUSH1 0x0 KECCAK256 SWAP1 JUMPDEST DUP2 SLOAD DUP2 MSTORE SWAP1 PUSH1 0x1 ADD SWAP1 PUSH1 0x20 ADD DUP1 DUP4 GT PUSH3 0x3A67 JUMPI DUP3 SWAP1 SUB PUSH1 0x1F AND DUP3 ADD SWAP2 JUMPDEST POP POP POP POP POP DUP2 MSTORE PUSH1 0x20 ADD SWAP1 PUSH1 0x1 ADD SWAP1 PUSH3 0x39E4 JUMP JUMPDEST POP POP POP POP SWAP1 POP SWAP1 JUMP JUMPDEST DUP3 DUP1 SLOAD PUSH3 0x3AB1 SWAP1 PUSH3 0x5012 JUMP JUMPDEST SWAP1 PUSH1 0x0 MSTORE PUSH1 0x20 PUSH1 0x0 KECCAK256 SWAP1 PUSH1 0x1F ADD PUSH1 0x20 SWAP1 DIV DUP2 ADD SWAP3 DUP3 PUSH3 0x3AD5 JUMPI PUSH1 0x0 DUP6 SSTORE PUSH3 0x3B21 JUMP JUMPDEST DUP3 PUSH1 0x1F LT PUSH3 0x3AF0 JUMPI DUP1 MLOAD PUSH1 0xFF NOT AND DUP4 DUP1 ADD OR DUP6 SSTORE PUSH3 0x3B21 JUMP JUMPDEST DUP3 DUP1 ADD PUSH1 0x1 ADD DUP6 SSTORE DUP3 ISZERO PUSH3 0x3B21 JUMPI SWAP2 DUP3 ADD JUMPDEST DUP3 DUP2 GT ISZERO PUSH3 0x3B20 JUMPI DUP3 MLOAD DUP3 SSTORE SWAP2 PUSH1 0x20 ADD SWAP2 SWAP1 PUSH1 0x1 ADD SWAP1 PUSH3 0x3B03 JUMP JUMPDEST JUMPDEST POP SWAP1 POP PUSH3 0x3B30 SWAP2 SWAP1 PUSH3 0x3B42 JUMP JUMPDEST POP SWAP1 JUMP JUMPDEST PUSH2 0xC61 DUP1 PUSH3 0x51F8 DUP4 CODECOPY ADD SWAP1 JUMP JUMPDEST JUMPDEST DUP1 DUP3 GT ISZERO PUSH3 0x3B5D JUMPI PUSH1 0x0 DUP2 PUSH1 0x0 SWAP1 SSTORE POP PUSH1 0x1 ADD PUSH3 0x3B43 JUMP JUMPDEST POP SWAP1 JUMP JUMPDEST PUSH1 0x0 PUSH3 0x3B78 PUSH3 0x3B72 DUP5 PUSH3 0x4CC4 JUMP JUMPDEST PUSH3 0x4C90 JUMP JUMPDEST SWAP1 POP DUP3 DUP2 MSTORE PUSH1 0x20 DUP2 ADD DUP5 DUP5 DUP5 ADD GT ISZERO PUSH3 0x3B91 JUMPI PUSH1 0x0 DUP1 REVERT JUMPDEST PUSH3 0x3B9E DUP5 DUP3 DUP6 PUSH3 0x4FCD JUMP JUMPDEST POP SWAP4 SWAP3 POP POP POP JUMP JUMPDEST PUSH1 0x0 DUP2 CALLDATALOAD SWAP1 POP PUSH3 0x3BB7 DUP2 PUSH3 0x51A9 JUMP JUMPDEST PUSH3 0x3BC2 DUP2 PUSH3 0x4F39 JUMP JUMPDEST SWAP1 POP SWAP3 SWAP2 POP POP JUMP JUMPDEST PUSH1 0x0 DUP2 MLOAD SWAP1 POP PUSH3 0x3BDB DUP2 PUSH3 0x51A9 JUMP JUMPDEST PUSH3 0x3BE6 DUP2 PUSH3 0x4F39 JUMP JUMPDEST SWAP1 POP SWAP3 SWAP2 POP POP JUMP JUMPDEST PUSH1 0x0 DUP2 CALLDATALOAD SWAP1 POP PUSH3 0x3BFF DUP2 PUSH3 0x51C3 JUMP JUMPDEST SWAP3 SWAP2 POP POP JUMP JUMPDEST PUSH1 0x0 DUP3 PUSH1 0x1F DUP4 ADD SLT PUSH3 0x3C17 JUMPI PUSH1 0x0 DUP1 REVERT JUMPDEST DUP2 CALLDATALOAD PUSH3 0x3C29 DUP5 DUP3 PUSH1 0x20 DUP7 ADD PUSH3 0x3B61 JUMP JUMPDEST SWAP2 POP POP SWAP3 SWAP2 POP POP JUMP JUMPDEST PUSH1 0x0 DUP2 CALLDATALOAD SWAP1 POP PUSH3 0x3C43 DUP2 PUSH3 0x51DD JUMP JUMPDEST SWAP3 SWAP2 POP POP JUMP JUMPDEST PUSH1 0x0 PUSH1 0x20 DUP3 DUP5 SUB SLT ISZERO PUSH3 0x3C5C JUMPI PUSH1 0x0 DUP1 REVERT JUMPDEST PUSH1 0x0 PUSH3 0x3C6C DUP5 DUP3 DUP6 ADD PUSH3 0x3BA6 JUMP JUMPDEST SWAP2 POP POP SWAP3 SWAP2 POP POP JUMP JUMPDEST PUSH1 0x0 PUSH1 0x20 DUP3 DUP5 SUB SLT ISZERO PUSH3 0x3C88 JUMPI PUSH1 0x0 DUP1 REVERT JUMPDEST PUSH1 0x0 PUSH3 0x3C98 DUP5 DUP3 DUP6 ADD PUSH3 0x3BCA JUMP JUMPDEST SWAP2 POP POP SWAP3 SWAP2 POP POP JUMP JUMPDEST PUSH1 0x0 DUP1 PUSH1 0x40 DUP4 DUP6 SUB SLT ISZERO PUSH3 0x3CB5 JUMPI PUSH1 0x0 DUP1 REVERT JUMPDEST PUSH1 0x0 PUSH3 0x3CC5 DUP6 DUP3 DUP7 ADD PUSH3 0x3BA6 JUMP JUMPDEST SWAP3 POP POP PUSH1 0x20 PUSH3 0x3CD8 DUP6 DUP3 DUP7 ADD PUSH3 0x3C32 JUMP JUMPDEST SWAP2 POP POP SWAP3 POP SWAP3 SWAP1 POP JUMP JUMPDEST PUSH1 0x0 DUP1 PUSH1 0x0 DUP1 PUSH1 0x0 DUP1 PUSH1 0xC0 DUP8 DUP10 SUB SLT ISZERO PUSH3 0x3CFC JUMPI PUSH1 0x0 DUP1 REVERT JUMPDEST PUSH1 0x0 PUSH3 0x3D0C DUP10 DUP3 DUP11 ADD PUSH3 0x3BA6 JUMP JUMPDEST SWAP7 POP POP PUSH1 0x20 PUSH3 0x3D1F DUP10 DUP3 DUP11 ADD PUSH3 0x3C32 JUMP JUMPDEST SWAP6 POP POP PUSH1 0x40 DUP8 ADD CALLDATALOAD PUSH8 0xFFFFFFFFFFFFFFFF DUP2 GT ISZERO PUSH3 0x3D3D JUMPI PUSH1 0x0 DUP1 REVERT JUMPDEST PUSH3 0x3D4B DUP10 DUP3 DUP11 ADD PUSH3 0x3C05 JUMP JUMPDEST SWAP5 POP POP PUSH1 0x60 PUSH3 0x3D5E DUP10 DUP3 DUP11 ADD PUSH3 0x3C32 JUMP JUMPDEST SWAP4 POP POP PUSH1 0x80 PUSH3 0x3D71 DUP10 DUP3 DUP11 ADD PUSH3 0x3C32 JUMP JUMPDEST SWAP3 POP POP PUSH1 0xA0 PUSH3 0x3D84 DUP10 DUP3 DUP11 ADD PUSH3 0x3C32 JUMP JUMPDEST SWAP2 POP POP SWAP3 SWAP6 POP SWAP3 SWAP6 POP SWAP3 SWAP6 JUMP JUMPDEST PUSH1 0x0 DUP1 PUSH1 0x0 PUSH1 0x60 DUP5 DUP7 SUB SLT ISZERO PUSH3 0x3DA7 JUMPI PUSH1 0x0 DUP1 REVERT JUMPDEST PUSH1 0x0 PUSH3 0x3DB7 DUP7 DUP3 DUP8 ADD PUSH3 0x3BA6 JUMP JUMPDEST SWAP4 POP POP PUSH1 0x20 PUSH3 0x3DCA DUP7 DUP3 DUP8 ADD PUSH3 0x3C32 JUMP JUMPDEST SWAP3 POP POP PUSH1 0x40 PUSH3 0x3DDD DUP7 DUP3 DUP8 ADD PUSH3 0x3C32 JUMP JUMPDEST SWAP2 POP POP SWAP3 POP SWAP3 POP SWAP3 JUMP JUMPDEST PUSH1 0x0 PUSH1 0x20 DUP3 DUP5 SUB SLT ISZERO PUSH3 0x3DFA JUMPI PUSH1 0x0 DUP1 REVERT JUMPDEST PUSH1 0x0 DUP3 ADD CALLDATALOAD PUSH8 0xFFFFFFFFFFFFFFFF DUP2 GT ISZERO PUSH3 0x3E15 JUMPI PUSH1 0x0 DUP1 REVERT JUMPDEST PUSH3 0x3E23 DUP5 DUP3 DUP6 ADD PUSH3 0x3C05 JUMP JUMPDEST SWAP2 POP POP SWAP3 SWAP2 POP POP JUMP JUMPDEST PUSH1 0x0 PUSH1 0x20 DUP3 DUP5 SUB SLT ISZERO PUSH3 0x3E3F JUMPI PUSH1 0x0 DUP1 REVERT JUMPDEST PUSH1 0x0 PUSH3 0x3E4F DUP5 DUP3 DUP6 ADD PUSH3 0x3C32 JUMP JUMPDEST SWAP2 POP POP SWAP3 SWAP2 POP POP JUMP JUMPDEST PUSH1 0x0 DUP1 PUSH1 0x40 DUP4 DUP6 SUB SLT ISZERO PUSH3 0x3E6C JUMPI PUSH1 0x0 DUP1 REVERT JUMPDEST PUSH1 0x0 PUSH3 0x3E7C DUP6 DUP3 DUP7 ADD PUSH3 0x3C32 JUMP JUMPDEST SWAP3 POP POP PUSH1 0x20 PUSH3 0x3E8F DUP6 DUP3 DUP7 ADD PUSH3 0x3BA6 JUMP JUMPDEST SWAP2 POP POP SWAP3 POP SWAP3 SWAP1 POP JUMP JUMPDEST PUSH1 0x0 DUP1 PUSH1 0x0 PUSH1 0x60 DUP5 DUP7 SUB SLT ISZERO PUSH3 0x3EAF JUMPI PUSH1 0x0 DUP1 REVERT JUMPDEST PUSH1 0x0 PUSH3 0x3EBF DUP7 DUP3 DUP8 ADD PUSH3 0x3C32 JUMP JUMPDEST SWAP4 POP POP PUSH1 0x20 PUSH3 0x3ED2 DUP7 DUP3 DUP8 ADD PUSH3 0x3BEE JUMP JUMPDEST SWAP3 POP POP PUSH1 0x40 PUSH3 0x3EE5 DUP7 DUP3 DUP8 ADD PUSH3 0x3C32 JUMP JUMPDEST SWAP2 POP POP SWAP3 POP SWAP3 POP SWAP3 JUMP JUMPDEST PUSH1 0x0 PUSH3 0x3EFD DUP4 DUP4 PUSH3 0x3F53 JUMP JUMPDEST PUSH1 0x20 DUP4 ADD SWAP1 POP SWAP3 SWAP2 POP POP JUMP JUMPDEST PUSH1 0x0 PUSH3 0x3F17 DUP4 DUP4 PUSH3 0x4156 JUMP JUMPDEST SWAP1 POP SWAP3 SWAP2 POP POP JUMP JUMPDEST PUSH1 0x0 PUSH3 0x3F2D DUP4 DUP4 PUSH3 0x46A4 JUMP JUMPDEST PUSH1 0x60 DUP4 ADD SWAP1 POP SWAP3 SWAP2 POP POP JUMP JUMPDEST PUSH1 0x0 PUSH3 0x3F47 DUP4 DUP4 PUSH3 0x46EC JUMP JUMPDEST PUSH1 0x20 DUP4 ADD SWAP1 POP SWAP3 SWAP2 POP POP JUMP JUMPDEST PUSH3 0x3F5E DUP2 PUSH3 0x4F39 JUMP JUMPDEST DUP3 MSTORE POP POP JUMP JUMPDEST PUSH3 0x3F6F DUP2 PUSH3 0x4F39 JUMP JUMPDEST DUP3 MSTORE POP POP JUMP JUMPDEST PUSH1 0x0 PUSH3 0x3F82 DUP3 PUSH3 0x4D37 JUMP JUMPDEST PUSH3 0x3F8E DUP2 DUP6 PUSH3 0x4DA2 JUMP JUMPDEST SWAP4 POP PUSH3 0x3F9B DUP4 PUSH3 0x4CF7 JUMP JUMPDEST DUP1 PUSH1 0x0 JUMPDEST DUP4 DUP2 LT ISZERO PUSH3 0x3FD2 JUMPI DUP2 MLOAD PUSH3 0x3FB6 DUP9 DUP3 PUSH3 0x3EEF JUMP JUMPDEST SWAP8 POP PUSH3 0x3FC3 DUP4 PUSH3 0x4D6E JUMP JUMPDEST SWAP3 POP POP PUSH1 0x1 DUP2 ADD SWAP1 POP PUSH3 0x3F9F JUMP JUMPDEST POP DUP6 SWAP4 POP POP POP POP SWAP3 SWAP2 POP POP JUMP JUMPDEST PUSH1 0x0 PUSH3 0x3FEC DUP3 PUSH3 0x4D42 JUMP JUMPDEST PUSH3 0x3FF8 DUP2 DUP6 PUSH3 0x4DB3 JUMP JUMPDEST SWAP4 POP DUP4 PUSH1 0x20 DUP3 MUL DUP6 ADD PUSH3 0x400C DUP6 PUSH3 0x4D07 JUMP JUMPDEST DUP1 PUSH1 0x0 JUMPDEST DUP6 DUP2 LT ISZERO PUSH3 0x404E JUMPI DUP5 DUP5 SUB DUP10 MSTORE DUP2 MLOAD PUSH3 0x402C DUP6 DUP3 PUSH3 0x3F09 JUMP JUMPDEST SWAP5 POP PUSH3 0x4039 DUP4 PUSH3 0x4D7B JUMP JUMPDEST SWAP3 POP PUSH1 0x20 DUP11 ADD SWAP10 POP POP PUSH1 0x1 DUP2 ADD SWAP1 POP PUSH3 0x4010 JUMP JUMPDEST POP DUP3 SWAP8 POP DUP8 SWAP6 POP POP POP POP POP POP SWAP3 SWAP2 POP POP JUMP JUMPDEST PUSH1 0x0 PUSH3 0x406D DUP3 PUSH3 0x4D4D JUMP JUMPDEST PUSH3 0x4079 DUP2 DUP6 PUSH3 0x4DC4 JUMP JUMPDEST SWAP4 POP PUSH3 0x4086 DUP4 PUSH3 0x4D17 JUMP JUMPDEST DUP1 PUSH1 0x0 JUMPDEST DUP4 DUP2 LT ISZERO PUSH3 0x40BD JUMPI DUP2 MLOAD PUSH3 0x40A1 DUP9 DUP3 PUSH3 0x3F1F JUMP JUMPDEST SWAP8 POP PUSH3 0x40AE DUP4 PUSH3 0x4D88 JUMP JUMPDEST SWAP3 POP POP PUSH1 0x1 DUP2 ADD SWAP1 POP PUSH3 0x408A JUMP JUMPDEST POP DUP6 SWAP4 POP POP POP POP SWAP3 SWAP2 POP POP JUMP JUMPDEST PUSH1 0x0 PUSH3 0x40D7 DUP3 PUSH3 0x4D58 JUMP JUMPDEST PUSH3 0x40E3 DUP2 DUP6 PUSH3 0x4DD5 JUMP JUMPDEST SWAP4 POP PUSH3 0x40F0 DUP4 PUSH3 0x4D27 JUMP JUMPDEST DUP1 PUSH1 0x0 JUMPDEST DUP4 DUP2 LT ISZERO PUSH3 0x4127 JUMPI DUP2 MLOAD PUSH3 0x410B DUP9 DUP3 PUSH3 0x3F39 JUMP JUMPDEST SWAP8 POP PUSH3 0x4118 DUP4 PUSH3 0x4D95 JUMP JUMPDEST SWAP3 POP POP PUSH1 0x1 DUP2 ADD SWAP1 POP PUSH3 0x40F4 JUMP JUMPDEST POP DUP6 SWAP4 POP POP POP POP SWAP3 SWAP2 POP POP JUMP JUMPDEST PUSH3 0x413F DUP2 PUSH3 0x4F4D JUMP JUMPDEST DUP3 MSTORE POP POP JUMP JUMPDEST PUSH3 0x4150 DUP2 PUSH3 0x4FB9 JUMP JUMPDEST DUP3 MSTORE POP POP JUMP JUMPDEST PUSH1 0x0 PUSH3 0x4163 DUP3 PUSH3 0x4D63 JUMP JUMPDEST PUSH3 0x416F DUP2 DUP6 PUSH3 0x4DE6 JUMP JUMPDEST SWAP4 POP PUSH3 0x4181 DUP2 DUP6 PUSH1 0x20 DUP7 ADD PUSH3 0x4FDC JUMP JUMPDEST PUSH3 0x418C DUP2 PUSH3 0x5181 JUMP JUMPDEST DUP5 ADD SWAP2 POP POP SWAP3 SWAP2 POP POP JUMP JUMPDEST PUSH1 0x0 PUSH3 0x41A4 DUP3 PUSH3 0x4D63 JUMP JUMPDEST PUSH3 0x41B0 DUP2 DUP6 PUSH3 0x4DF7 JUMP JUMPDEST SWAP4 POP PUSH3 0x41C2 DUP2 DUP6 PUSH1 0x20 DUP7 ADD PUSH3 0x4FDC JUMP JUMPDEST PUSH3 0x41CD DUP2 PUSH3 0x5181 JUMP JUMPDEST DUP5 ADD SWAP2 POP POP SWAP3 SWAP2 POP POP JUMP JUMPDEST PUSH1 0x0 PUSH3 0x41E7 PUSH1 0x2A DUP4 PUSH3 0x4DF7 JUMP JUMPDEST SWAP2 POP PUSH32 0x7472656173757279206164647265737320706173736564206973206E6F742061 PUSH1 0x0 DUP4 ADD MSTORE PUSH32 0x2074726561737572657200000000000000000000000000000000000000000000 PUSH1 0x20 DUP4 ADD MSTORE PUSH1 0x40 DUP3 ADD SWAP1 POP SWAP2 SWAP1 POP JUMP JUMPDEST PUSH1 0x0 PUSH3 0x424F PUSH1 0x17 DUP4 PUSH3 0x4DF7 JUMP JUMPDEST SWAP2 POP PUSH32 0x636F6E76696374696F6E206F7574206F662072616E6765000000000000000000 PUSH1 0x0 DUP4 ADD MSTORE PUSH1 0x20 DUP3 ADD SWAP1 POP SWAP2 SWAP1 POP JUMP JUMPDEST PUSH1 0x0 PUSH3 0x4291 PUSH1 0x18 DUP4 PUSH3 0x4DF7 JUMP JUMPDEST SWAP2 POP PUSH32 0x726566657265646E756D206973206E6F74206163746976650000000000000000 PUSH1 0x0 DUP4 ADD MSTORE PUSH1 0x20 DUP3 ADD SWAP1 POP SWAP2 SWAP1 POP JUMP JUMPDEST PUSH1 0x0 PUSH3 0x42D3 PUSH1 0x17 DUP4 PUSH3 0x4DF7 JUMP JUMPDEST SWAP2 POP PUSH32 0x73636F72696E67206E6F7420616C6C6F77656420796574000000000000000000 PUSH1 0x0 DUP4 ADD MSTORE PUSH1 0x20 DUP3 ADD SWAP1 POP SWAP2 SWAP1 POP JUMP JUMPDEST PUSH1 0x0 PUSH3 0x4315 PUSH1 0x20 DUP4 PUSH3 0x4DF7 JUMP JUMPDEST SWAP2 POP PUSH32 0x6E6F7420747265617375726572206F66207265666572656E64756D496E646578 PUSH1 0x0 DUP4 ADD MSTORE PUSH1 0x20 DUP3 ADD SWAP1 POP SWAP2 SWAP1 POP JUMP JUMPDEST PUSH1 0x0 PUSH3 0x4357 PUSH1 0x2A DUP4 PUSH3 0x4DF7 JUMP JUMPDEST SWAP2 POP PUSH32 0x7374617274496E4E756D426C6F636B73206D757374206265206C657373207468 PUSH1 0x0 DUP4 ADD MSTORE PUSH32 0x616E203137323830303000000000000000000000000000000000000000000000 PUSH1 0x20 DUP4 ADD MSTORE PUSH1 0x40 DUP3 ADD SWAP1 POP SWAP2 SWAP1 POP JUMP JUMPDEST PUSH1 0x0 PUSH3 0x43BF PUSH1 0x17 DUP4 PUSH3 0x4DF7 JUMP JUMPDEST SWAP2 POP PUSH32 0x73636F72652072616E6765206973203020746F20313030000000000000000000 PUSH1 0x0 DUP4 ADD MSTORE PUSH1 0x20 DUP3 ADD SWAP1 POP SWAP2 SWAP1 POP JUMP JUMPDEST PUSH1 0x0 PUSH3 0x4401 PUSH1 0x3C DUP4 PUSH3 0x4DF7 JUMP JUMPDEST SWAP2 POP PUSH32 0x6E65656420746F20706179206174206C656173742072656672656E64756D4665 PUSH1 0x0 DUP4 ADD MSTORE PUSH32 0x6520746F206372656174652061206E6577207265666572656E64756D00000000 PUSH1 0x20 DUP4 ADD MSTORE PUSH1 0x40 DUP3 ADD SWAP1 POP SWAP2 SWAP1 POP JUMP JUMPDEST PUSH1 0x0 PUSH3 0x4469 PUSH1 0x29 DUP4 PUSH3 0x4DF7 JUMP JUMPDEST SWAP2 POP PUSH32 0x62656E65666963696172792073636F726520746F6F206C6F7720666F72207468 PUSH1 0x0 DUP4 ADD MSTORE PUSH32 0x697320616D6F756E740000000000000000000000000000000000000000000000 PUSH1 0x20 DUP4 ADD MSTORE PUSH1 0x40 DUP3 ADD SWAP1 POP SWAP2 SWAP1 POP JUMP JUMPDEST PUSH1 0x0 PUSH3 0x44D1 PUSH1 0x1F DUP4 PUSH3 0x4DF7 JUMP JUMPDEST SWAP2 POP PUSH32 0x6C61756E6368696E672074726561737572792072657175697265732054525800 PUSH1 0x0 DUP4 ADD MSTORE PUSH1 0x20 DUP3 ADD SWAP1 POP SWAP2 SWAP1 POP JUMP JUMPDEST PUSH1 0x0 PUSH3 0x4513 PUSH1 0x21 DUP4 PUSH3 0x4DF7 JUMP JUMPDEST SWAP2 POP PUSH32 0x6475726174696F6E206D757374206265203C3D32373238303030206E203E3D31 PUSH1 0x0 DUP4 ADD MSTORE PUSH32 0x3000000000000000000000000000000000000000000000000000000000000000 PUSH1 0x20 DUP4 ADD MSTORE PUSH1 0x40 DUP3 ADD SWAP1 POP SWAP2 SWAP1 POP JUMP JUMPDEST PUSH1 0x0 PUSH3 0x457B PUSH1 0x29 DUP4 PUSH3 0x4DF7 JUMP JUMPDEST SWAP2 POP PUSH32 0x6164647265737320616C726561647920766F74656420666F7220746869732072 PUSH1 0x0 DUP4 ADD MSTORE PUSH32 0x65666572656E64756D0000000000000000000000000000000000000000000000 PUSH1 0x20 DUP4 ADD MSTORE PUSH1 0x40 DUP3 ADD SWAP1 POP SWAP2 SWAP1 POP JUMP JUMPDEST PUSH1 0x0 PUSH3 0x45E3 PUSH1 0x26 DUP4 PUSH3 0x4DF7 JUMP JUMPDEST SWAP2 POP PUSH32 0x6D7573742062652061646D696E206F662074686520747265617375727920746F PUSH1 0x0 DUP4 ADD MSTORE PUSH32 0x2073636F72650000000000000000000000000000000000000000000000000000 PUSH1 0x20 DUP4 ADD MSTORE PUSH1 0x40 DUP3 ADD SWAP1 POP SWAP2 SWAP1 POP JUMP JUMPDEST PUSH1 0x0 PUSH3 0x464B PUSH1 0x24 DUP4 PUSH3 0x4DF7 JUMP JUMPDEST SWAP2 POP PUSH32 0x74726561737572657220646F6573206E6F74206861766520656E6F7567682066 PUSH1 0x0 DUP4 ADD MSTORE PUSH32 0x756E647300000000000000000000000000000000000000000000000000000000 PUSH1 0x20 DUP4 ADD MSTORE PUSH1 0x40 DUP3 ADD SWAP1 POP SWAP2 SWAP1 POP JUMP JUMPDEST PUSH1 0x60 DUP3 ADD PUSH1 0x0 DUP3 ADD MLOAD PUSH3 0x46BC PUSH1 0x0 DUP6 ADD DUP3 PUSH3 0x46EC JUMP JUMPDEST POP PUSH1 0x20 DUP3 ADD MLOAD PUSH3 0x46D1 PUSH1 0x20 DUP6 ADD DUP3 PUSH3 0x46EC JUMP JUMPDEST POP PUSH1 0x40 DUP3 ADD MLOAD PUSH3 0x46E6 PUSH1 0x40 DUP6 ADD DUP3 PUSH3 0x3F53 JUMP JUMPDEST POP POP POP POP JUMP JUMPDEST PUSH3 0x46F7 DUP2 PUSH3 0x4FAF JUMP JUMPDEST DUP3 MSTORE POP POP JUMP JUMPDEST PUSH3 0x4708 DUP2 PUSH3 0x4FAF JUMP JUMPDEST DUP3 MSTORE POP POP JUMP JUMPDEST PUSH1 0x0 PUSH1 0x20 DUP3 ADD SWAP1 POP PUSH3 0x4725 PUSH1 0x0 DUP4 ADD DUP5 PUSH3 0x3F64 JUMP JUMPDEST SWAP3 SWAP2 POP POP JUMP JUMPDEST PUSH1 0x0 PUSH1 0x60 DUP3 ADD SWAP1 POP PUSH3 0x4742 PUSH1 0x0 DUP4 ADD DUP7 PUSH3 0x3F64 JUMP JUMPDEST PUSH3 0x4751 PUSH1 0x20 DUP4 ADD DUP6 PUSH3 0x3F64 JUMP JUMPDEST PUSH3 0x4760 PUSH1 0x40 DUP4 ADD DUP5 PUSH3 0x46FD JUMP JUMPDEST SWAP5 SWAP4 POP POP POP POP JUMP JUMPDEST PUSH1 0x0 PUSH1 0x40 DUP3 ADD SWAP1 POP PUSH3 0x477F PUSH1 0x0 DUP4 ADD DUP6 PUSH3 0x3F64 JUMP JUMPDEST DUP2 DUP2 SUB PUSH1 0x20 DUP4 ADD MSTORE PUSH3 0x4793 DUP2 DUP5 PUSH3 0x4197 JUMP JUMPDEST SWAP1 POP SWAP4 SWAP3 POP POP POP JUMP JUMPDEST PUSH1 0x0 PUSH1 0x40 DUP3 ADD SWAP1 POP PUSH3 0x47B3 PUSH1 0x0 DUP4 ADD DUP6 PUSH3 0x3F64 JUMP JUMPDEST PUSH3 0x47C2 PUSH1 0x20 DUP4 ADD DUP5 PUSH3 0x46FD JUMP JUMPDEST SWAP4 SWAP3 POP POP POP JUMP JUMPDEST PUSH1 0x0 PUSH1 0x20 DUP3 ADD SWAP1 POP DUP2 DUP2 SUB PUSH1 0x0 DUP4 ADD MSTORE PUSH3 0x47E5 DUP2 DUP5 PUSH3 0x3F75 JUMP JUMPDEST SWAP1 POP SWAP3 SWAP2 POP POP JUMP JUMPDEST PUSH1 0x0 PUSH1 0x20 DUP3 ADD SWAP1 POP DUP2 DUP2 SUB PUSH1 0x0 DUP4 ADD MSTORE PUSH3 0x4809 DUP2 DUP5 PUSH3 0x3FDF JUMP JUMPDEST SWAP1 POP SWAP3 SWAP2 POP POP JUMP JUMPDEST PUSH1 0x0 PUSH1 0x20 DUP3 ADD SWAP1 POP DUP2 DUP2 SUB PUSH1 0x0 DUP4 ADD MSTORE PUSH3 0x482D DUP2 DUP5 PUSH3 0x4060 JUMP JUMPDEST SWAP1 POP SWAP3 SWAP2 POP POP JUMP JUMPDEST PUSH1 0x0 PUSH1 0x20 DUP3 ADD SWAP1 POP DUP2 DUP2 SUB PUSH1 0x0 DUP4 ADD MSTORE PUSH3 0x4851 DUP2 DUP5 PUSH3 0x40CA JUMP JUMPDEST SWAP1 POP SWAP3 SWAP2 POP POP JUMP JUMPDEST PUSH1 0x0 PUSH1 0x20 DUP3 ADD SWAP1 POP PUSH3 0x4870 PUSH1 0x0 DUP4 ADD DUP5 PUSH3 0x4134 JUMP JUMPDEST SWAP3 SWAP2 POP POP JUMP JUMPDEST PUSH1 0x0 PUSH1 0x20 DUP3 ADD SWAP1 POP PUSH3 0x488D PUSH1 0x0 DUP4 ADD DUP5 PUSH3 0x4145 JUMP JUMPDEST SWAP3 SWAP2 POP POP JUMP JUMPDEST PUSH1 0x0 PUSH1 0x20 DUP3 ADD SWAP1 POP DUP2 DUP2 SUB PUSH1 0x0 DUP4 ADD MSTORE PUSH3 0x48AF DUP2 DUP5 PUSH3 0x4197 JUMP JUMPDEST SWAP1 POP SWAP3 SWAP2 POP POP JUMP JUMPDEST PUSH1 0x0 PUSH1 0x20 DUP3 ADD SWAP1 POP DUP2 DUP2 SUB PUSH1 0x0 DUP4 ADD MSTORE PUSH3 0x48D2 DUP2 PUSH3 0x41D8 JUMP JUMPDEST SWAP1 POP SWAP2 SWAP1 POP JUMP JUMPDEST PUSH1 0x0 PUSH1 0x20 DUP3 ADD SWAP1 POP DUP2 DUP2 SUB PUSH1 0x0 DUP4 ADD MSTORE PUSH3 0x48F4 DUP2 PUSH3 0x4240 JUMP JUMPDEST SWAP1 POP SWAP2 SWAP1 POP JUMP JUMPDEST PUSH1 0x0 PUSH1 0x20 DUP3 ADD SWAP1 POP DUP2 DUP2 SUB PUSH1 0x0 DUP4 ADD MSTORE PUSH3 0x4916 DUP2 PUSH3 0x4282 JUMP JUMPDEST SWAP1 POP SWAP2 SWAP1 POP JUMP JUMPDEST PUSH1 0x0 PUSH1 0x20 DUP3 ADD SWAP1 POP DUP2 DUP2 SUB PUSH1 0x0 DUP4 ADD MSTORE PUSH3 0x4938 DUP2 PUSH3 0x42C4 JUMP JUMPDEST SWAP1 POP SWAP2 SWAP1 POP JUMP JUMPDEST PUSH1 0x0 PUSH1 0x20 DUP3 ADD SWAP1 POP DUP2 DUP2 SUB PUSH1 0x0 DUP4 ADD MSTORE PUSH3 0x495A DUP2 PUSH3 0x4306 JUMP JUMPDEST SWAP1 POP SWAP2 SWAP1 POP JUMP JUMPDEST PUSH1 0x0 PUSH1 0x20 DUP3 ADD SWAP1 POP DUP2 DUP2 SUB PUSH1 0x0 DUP4 ADD MSTORE PUSH3 0x497C DUP2 PUSH3 0x4348 JUMP JUMPDEST SWAP1 POP SWAP2 SWAP1 POP JUMP JUMPDEST PUSH1 0x0 PUSH1 0x20 DUP3 ADD SWAP1 POP DUP2 DUP2 SUB PUSH1 0x0 DUP4 ADD MSTORE PUSH3 0x499E DUP2 PUSH3 0x43B0 JUMP JUMPDEST SWAP1 POP SWAP2 SWAP1 POP JUMP JUMPDEST PUSH1 0x0 PUSH1 0x20 DUP3 ADD SWAP1 POP DUP2 DUP2 SUB PUSH1 0x0 DUP4 ADD MSTORE PUSH3 0x49C0 DUP2 PUSH3 0x43F2 JUMP JUMPDEST SWAP1 POP SWAP2 SWAP1 POP JUMP JUMPDEST PUSH1 0x0 PUSH1 0x20 DUP3 ADD SWAP1 POP DUP2 DUP2 SUB PUSH1 0x0 DUP4 ADD MSTORE PUSH3 0x49E2 DUP2 PUSH3 0x445A JUMP JUMPDEST SWAP1 POP SWAP2 SWAP1 POP JUMP JUMPDEST PUSH1 0x0 PUSH1 0x20 DUP3 ADD SWAP1 POP DUP2 DUP2 SUB PUSH1 0x0 DUP4 ADD MSTORE PUSH3 0x4A04 DUP2 PUSH3 0x44C2 JUMP JUMPDEST SWAP1 POP SWAP2 SWAP1 POP JUMP JUMPDEST PUSH1 0x0 PUSH1 0x20 DUP3 ADD SWAP1 POP DUP2 DUP2 SUB PUSH1 0x0 DUP4 ADD MSTORE PUSH3 0x4A26 DUP2 PUSH3 0x4504 JUMP JUMPDEST SWAP1 POP SWAP2 SWAP1 POP JUMP JUMPDEST PUSH1 0x0 PUSH1 0x20 DUP3 ADD SWAP1 POP DUP2 DUP2 SUB PUSH1 0x0 DUP4 ADD MSTORE PUSH3 0x4A48 DUP2 PUSH3 0x456C JUMP JUMPDEST SWAP1 POP SWAP2 SWAP1 POP JUMP JUMPDEST PUSH1 0x0 PUSH1 0x20 DUP3 ADD SWAP1 POP DUP2 DUP2 SUB PUSH1 0x0 DUP4 ADD MSTORE PUSH3 0x4A6A DUP2 PUSH3 0x45D4 JUMP JUMPDEST SWAP1 POP SWAP2 SWAP1 POP JUMP JUMPDEST PUSH1 0x0 PUSH1 0x20 DUP3 ADD SWAP1 POP DUP2 DUP2 SUB PUSH1 0x0 DUP4 ADD MSTORE PUSH3 0x4A8C DUP2 PUSH3 0x463C JUMP JUMPDEST SWAP1 POP SWAP2 SWAP1 POP JUMP JUMPDEST PUSH1 0x0 PUSH1 0x20 DUP3 ADD SWAP1 POP PUSH3 0x4AAA PUSH1 0x0 DUP4 ADD DUP5 PUSH3 0x46FD JUMP JUMPDEST SWAP3 SWAP2 POP POP JUMP JUMPDEST PUSH1 0x0 PUSH2 0x180 DUP3 ADD SWAP1 POP PUSH3 0x4AC8 PUSH1 0x0 DUP4 ADD DUP16 PUSH3 0x46FD JUMP JUMPDEST PUSH3 0x4AD7 PUSH1 0x20 DUP4 ADD DUP15 PUSH3 0x3F64 JUMP JUMPDEST PUSH3 0x4AE6 PUSH1 0x40 DUP4 ADD DUP14 PUSH3 0x3F64 JUMP JUMPDEST PUSH3 0x4AF5 PUSH1 0x60 DUP4 ADD DUP13 PUSH3 0x46FD JUMP JUMPDEST DUP2 DUP2 SUB PUSH1 0x80 DUP4 ADD MSTORE PUSH3 0x4B09 DUP2 DUP12 PUSH3 0x4197 JUMP JUMPDEST SWAP1 POP PUSH3 0x4B1A PUSH1 0xA0 DUP4 ADD DUP11 PUSH3 0x46FD JUMP JUMPDEST PUSH3 0x4B29 PUSH1 0xC0 DUP4 ADD DUP10 PUSH3 0x46FD JUMP JUMPDEST PUSH3 0x4B38 PUSH1 0xE0 DUP4 ADD DUP9 PUSH3 0x46FD JUMP JUMPDEST PUSH3 0x4B48 PUSH2 0x100 DUP4 ADD DUP8 PUSH3 0x46FD JUMP JUMPDEST PUSH3 0x4B58 PUSH2 0x120 DUP4 ADD DUP7 PUSH3 0x46FD JUMP JUMPDEST PUSH3 0x4B68 PUSH2 0x140 DUP4 ADD DUP6 PUSH3 0x46FD JUMP JUMPDEST PUSH3 0x4B78 PUSH2 0x160 DUP4 ADD DUP5 PUSH3 0x4134 JUMP JUMPDEST SWAP14 SWAP13 POP POP POP POP POP POP POP POP POP POP POP POP POP JUMP JUMPDEST PUSH1 0x0 PUSH1 0xA0 DUP3 ADD SWAP1 POP PUSH3 0x4BA0 PUSH1 0x0 DUP4 ADD DUP9 PUSH3 0x46FD JUMP JUMPDEST PUSH3 0x4BAF PUSH1 0x20 DUP4 ADD DUP8 PUSH3 0x3F64 JUMP JUMPDEST PUSH3 0x4BBE PUSH1 0x40 DUP4 ADD DUP7 PUSH3 0x46FD JUMP JUMPDEST PUSH3 0x4BCD PUSH1 0x60 DUP4 ADD DUP6 PUSH3 0x46FD JUMP JUMPDEST PUSH3 0x4BDC PUSH1 0x80 DUP4 ADD DUP5 PUSH3 0x3F64 JUMP JUMPDEST SWAP7 SWAP6 POP POP POP POP POP POP JUMP JUMPDEST PUSH1 0x0 PUSH1 0xC0 DUP3 ADD SWAP1 POP PUSH3 0x4BFD PUSH1 0x0 DUP4 ADD DUP10 PUSH3 0x46FD JUMP JUMPDEST PUSH3 0x4C0C PUSH1 0x20 DUP4 ADD DUP9 PUSH3 0x3F64 JUMP JUMPDEST PUSH3 0x4C1B PUSH1 0x40 DUP4 ADD DUP8 PUSH3 0x46FD JUMP JUMPDEST PUSH3 0x4C2A PUSH1 0x60 DUP4 ADD DUP7 PUSH3 0x46FD JUMP JUMPDEST PUSH3 0x4C39 PUSH1 0x80 DUP4 ADD DUP6 PUSH3 0x4134 JUMP JUMPDEST PUSH3 0x4C48 PUSH1 0xA0 DUP4 ADD DUP5 PUSH3 0x46FD JUMP JUMPDEST SWAP8 SWAP7 POP POP POP POP POP POP POP JUMP JUMPDEST PUSH1 0x0 PUSH1 0x60 DUP3 ADD SWAP1 POP PUSH3 0x4C6A PUSH1 0x0 DUP4 ADD DUP7 PUSH3 0x46FD JUMP JUMPDEST PUSH3 0x4C79 PUSH1 0x20 DUP4 ADD DUP6 PUSH3 0x46FD JUMP JUMPDEST PUSH3 0x4C88 PUSH1 0x40 DUP4 ADD DUP5 PUSH3 0x3F64 JUMP JUMPDEST SWAP5 SWAP4 POP POP POP POP JUMP JUMPDEST PUSH1 0x0 PUSH1 0x40 MLOAD SWAP1 POP DUP2 DUP2 ADD DUP2 DUP2 LT PUSH8 0xFFFFFFFFFFFFFFFF DUP3 GT OR ISZERO PUSH3 0x4CBA JUMPI PUSH3 0x4CB9 PUSH3 0x5152 JUMP JUMPDEST JUMPDEST DUP1 PUSH1 0x40 MSTORE POP SWAP2 SWAP1 POP JUMP JUMPDEST PUSH1 0x0 PUSH8 0xFFFFFFFFFFFFFFFF DUP3 GT ISZERO PUSH3 0x4CE2 JUMPI PUSH3 0x4CE1 PUSH3 0x5152 JUMP JUMPDEST JUMPDEST PUSH1 0x1F NOT PUSH1 0x1F DUP4 ADD AND SWAP1 POP PUSH1 0x20 DUP2 ADD SWAP1 POP SWAP2 SWAP1 POP JUMP JUMPDEST PUSH1 0x0 DUP2 SWAP1 POP PUSH1 0x20 DUP3 ADD SWAP1 POP SWAP2 SWAP1 POP JUMP JUMPDEST PUSH1 0x0 DUP2 SWAP1 POP PUSH1 0x20 DUP3 ADD SWAP1 POP SWAP2 SWAP1 POP JUMP JUMPDEST PUSH1 0x0 DUP2 SWAP1 POP PUSH1 0x20 DUP3 ADD SWAP1 POP SWAP2 SWAP1 POP JUMP JUMPDEST PUSH1 0x0 DUP2 SWAP1 POP PUSH1 0x20 DUP3 ADD SWAP1 POP SWAP2 SWAP1 POP JUMP JUMPDEST PUSH1 0x0 DUP2 MLOAD SWAP1 POP SWAP2 SWAP1 POP JUMP JUMPDEST PUSH1 0x0 DUP2 MLOAD SWAP1 POP SWAP2 SWAP1 POP JUMP JUMPDEST PUSH1 0x0 DUP2 MLOAD SWAP1 POP SWAP2 SWAP1 POP JUMP JUMPDEST PUSH1 0x0 DUP2 MLOAD SWAP1 POP SWAP2 SWAP1 POP JUMP JUMPDEST PUSH1 0x0 DUP2 MLOAD SWAP1 POP SWAP2 SWAP1 POP JUMP JUMPDEST PUSH1 0x0 PUSH1 0x20 DUP3 ADD SWAP1 POP SWAP2 SWAP1 POP JUMP JUMPDEST PUSH1 0x0 PUSH1 0x20 DUP3 ADD SWAP1 POP SWAP2 SWAP1 POP JUMP JUMPDEST PUSH1 0x0 PUSH1 0x20 DUP3 ADD SWAP1 POP SWAP2 SWAP1 POP JUMP JUMPDEST PUSH1 0x0 PUSH1 0x20 DUP3 ADD SWAP1 POP SWAP2 SWAP1 POP JUMP JUMPDEST PUSH1 0x0 DUP3 DUP3 MSTORE PUSH1 0x20 DUP3 ADD SWAP1 POP SWAP3 SWAP2 POP POP JUMP JUMPDEST PUSH1 0x0 DUP3 DUP3 MSTORE PUSH1 0x20 DUP3 ADD SWAP1 POP SWAP3 SWAP2 POP POP JUMP JUMPDEST PUSH1 0x0 DUP3 DUP3 MSTORE PUSH1 0x20 DUP3 ADD SWAP1 POP SWAP3 SWAP2 POP POP JUMP JUMPDEST PUSH1 0x0 DUP3 DUP3 MSTORE PUSH1 0x20 DUP3 ADD SWAP1 POP SWAP3 SWAP2 POP POP JUMP JUMPDEST PUSH1 0x0 DUP3 DUP3 MSTORE PUSH1 0x20 DUP3 ADD SWAP1 POP SWAP3 SWAP2 POP POP JUMP JUMPDEST PUSH1 0x0 DUP3 DUP3 MSTORE PUSH1 0x20 DUP3 ADD SWAP1 POP SWAP3 SWAP2 POP POP JUMP JUMPDEST PUSH1 0x0 PUSH3 0x4E15 DUP3 PUSH3 0x4FAF JUMP JUMPDEST SWAP2 POP PUSH3 0x4E22 DUP4 PUSH3 0x4FAF JUMP JUMPDEST SWAP3 POP DUP3 PUSH32 0xFFFFFFFFFFFFFFFFFFFFFFFFFFFFFFFFFFFFFFFFFFFFFFFFFFFFFFFFFFFFFFFF SUB DUP3 GT ISZERO PUSH3 0x4E5A JUMPI PUSH3 0x4E59 PUSH3 0x5096 JUMP JUMPDEST JUMPDEST DUP3 DUP3 ADD SWAP1 POP SWAP3 SWAP2 POP POP JUMP JUMPDEST PUSH1 0x0 PUSH3 0x4E72 DUP3 PUSH3 0x4FAF JUMP JUMPDEST SWAP2 POP PUSH3 0x4E7F DUP4 PUSH3 0x4FAF JUMP JUMPDEST SWAP3 POP DUP3 PUSH3 0x4E92 JUMPI PUSH3 0x4E91 PUSH3 0x50C5 JUMP JUMPDEST JUMPDEST DUP3 DUP3 DIV SWAP1 POP SWAP3 SWAP2 POP POP JUMP JUMPDEST PUSH1 0x0 PUSH3 0x4EAA DUP3 PUSH3 0x4FAF JUMP JUMPDEST SWAP2 POP PUSH3 0x4EB7 DUP4 PUSH3 0x4FAF JUMP JUMPDEST SWAP3 POP DUP2 PUSH32 0xFFFFFFFFFFFFFFFFFFFFFFFFFFFFFFFFFFFFFFFFFFFFFFFFFFFFFFFFFFFFFFFF DIV DUP4 GT DUP3 ISZERO ISZERO AND ISZERO PUSH3 0x4EF3 JUMPI PUSH3 0x4EF2 PUSH3 0x5096 JUMP JUMPDEST JUMPDEST DUP3 DUP3 MUL SWAP1 POP SWAP3 SWAP2 POP POP JUMP JUMPDEST PUSH1 0x0 PUSH3 0x4F0B DUP3 PUSH3 0x4FAF JUMP JUMPDEST SWAP2 POP PUSH3 0x4F18 DUP4 PUSH3 0x4FAF JUMP JUMPDEST SWAP3 POP DUP3 DUP3 LT ISZERO PUSH3 0x4F2E JUMPI PUSH3 0x4F2D PUSH3 0x5096 JUMP JUMPDEST JUMPDEST DUP3 DUP3 SUB SWAP1 POP SWAP3 SWAP2 POP POP JUMP JUMPDEST PUSH1 0x0 PUSH3 0x4F46 DUP3 PUSH3 0x4F6E JUMP JUMPDEST SWAP1 POP SWAP2 SWAP1 POP JUMP JUMPDEST PUSH1 0x0 DUP2 ISZERO ISZERO SWAP1 POP SWAP2 SWAP1 POP JUMP JUMPDEST PUSH1 0x0 DUP2 SWAP1 POP PUSH3 0x4F69 DUP3 PUSH3 0x5192 JUMP JUMPDEST SWAP2 SWAP1 POP JUMP JUMPDEST PUSH1 0x0 PUSH20 0xFFFFFFFFFFFFFFFFFFFFFFFFFFFFFFFFFFFFFFFF DUP3 AND SWAP1 POP SWAP2 SWAP1 POP JUMP JUMPDEST PUSH1 0x0 PUSH21 0xFFFFFFFFFFFFFFFFFFFFFFFFFFFFFFFFFFFFFFFFFF DUP3 AND SWAP1 POP SWAP2 SWAP1 POP JUMP JUMPDEST PUSH1 0x0 DUP2 SWAP1 POP SWAP2 SWAP1 POP JUMP JUMPDEST PUSH1 0x0 PUSH3 0x4FC6 DUP3 PUSH3 0x4F59 JUMP JUMPDEST SWAP1 POP SWAP2 SWAP1 POP JUMP JUMPDEST DUP3 DUP2 DUP4 CALLDATACOPY PUSH1 0x0 DUP4 DUP4 ADD MSTORE POP POP POP JUMP JUMPDEST PUSH1 0x0 JUMPDEST DUP4 DUP2 LT ISZERO PUSH3 0x4FFC JUMPI DUP1 DUP3 ADD MLOAD DUP2 DUP5 ADD MSTORE PUSH1 0x20 DUP2 ADD SWAP1 POP PUSH3 0x4FDF JUMP JUMPDEST DUP4 DUP2 GT ISZERO PUSH3 0x500C JUMPI PUSH1 0x0 DUP5 DUP5 ADD MSTORE JUMPDEST POP POP POP POP JUMP JUMPDEST PUSH1 0x0 PUSH1 0x2 DUP3 DIV SWAP1 POP PUSH1 0x1 DUP3 AND DUP1 PUSH3 0x502B JUMPI PUSH1 0x7F DUP3 AND SWAP2 POP JUMPDEST PUSH1 0x20 DUP3 LT DUP2 EQ ISZERO PUSH3 0x5042 JUMPI PUSH3 0x5041 PUSH3 0x5123 JUMP JUMPDEST JUMPDEST POP SWAP2 SWAP1 POP JUMP JUMPDEST PUSH1 0x0 PUSH3 0x5055 DUP3 PUSH3 0x4FAF JUMP JUMPDEST SWAP2 POP PUSH32 0xFFFFFFFFFFFFFFFFFFFFFFFFFFFFFFFFFFFFFFFFFFFFFFFFFFFFFFFFFFFFFFFF DUP3 EQ ISZERO PUSH3 0x508B JUMPI PUSH3 0x508A PUSH3 0x5096 JUMP JUMPDEST JUMPDEST PUSH1 0x1 DUP3 ADD SWAP1 POP SWAP2 SWAP1 POP JUMP JUMPDEST PUSH32 0x4E487B7100000000000000000000000000000000000000000000000000000000 PUSH1 0x0 MSTORE PUSH1 0x11 PUSH1 0x4 MSTORE PUSH1 0x24 PUSH1 0x0 REVERT JUMPDEST PUSH32 0x4E487B7100000000000000000000000000000000000000000000000000000000 PUSH1 0x0 MSTORE PUSH1 0x12 PUSH1 0x4 MSTORE PUSH1 0x24 PUSH1 0x0 REVERT JUMPDEST PUSH32 0x4E487B7100000000000000000000000000000000000000000000000000000000 PUSH1 0x0 MSTORE PUSH1 0x21 PUSH1 0x4 MSTORE PUSH1 0x24 PUSH1 0x0 REVERT JUMPDEST PUSH32 0x4E487B7100000000000000000000000000000000000000000000000000000000 PUSH1 0x0 MSTORE PUSH1 0x22 PUSH1 0x4 MSTORE PUSH1 0x24 PUSH1 0x0 REVERT JUMPDEST PUSH32 0x4E487B7100000000000000000000000000000000000000000000000000000000 PUSH1 0x0 MSTORE PUSH1 0x41 PUSH1 0x4 MSTORE PUSH1 0x24 PUSH1 0x0 REVERT JUMPDEST PUSH1 0x0 PUSH1 0x1F NOT PUSH1 0x1F DUP4 ADD AND SWAP1 POP SWAP2 SWAP1 POP JUMP JUMPDEST PUSH1 0x3 DUP2 LT PUSH3 0x51A6 JUMPI PUSH3 0x51A5 PUSH3 0x50F4 JUMP JUMPDEST JUMPDEST POP JUMP JUMPDEST PUSH3 0x51B4 DUP2 PUSH3 0x4F8E JUMP JUMPDEST DUP2 EQ PUSH3 0x51C0 JUMPI PUSH1 0x0 DUP1 REVERT JUMPDEST POP JUMP JUMPDEST PUSH3 0x51CE DUP2 PUSH3 0x4F4D JUMP JUMPDEST DUP2 EQ PUSH3 0x51DA JUMPI PUSH1 0x0 DUP1 REVERT JUMPDEST POP JUMP JUMPDEST PUSH3 0x51E8 DUP2 PUSH3 0x4FAF JUMP JUMPDEST DUP2 EQ PUSH3 0x51F4 JUMPI PUSH1 0x0 DUP1 REVERT JUMPDEST POP JUMP INVALID PUSH1 0x80 PUSH1 0x40 MSTORE CALLVALUE DUP1 ISZERO PUSH3 0x11 JUMPI PUSH1 0x0 DUP1 REVERT JUMPDEST POP CALLTOKENID DUP1 ISZERO PUSH3 0x1F JUMPI PUSH1 0x0 DUP1 REVERT JUMPDEST POP CALLTOKENVALUE DUP1 ISZERO PUSH3 0x2D JUMPI PUSH1 0x0 DUP1 REVERT JUMPDEST POP PUSH1 0x40 MLOAD PUSH3 0xC61 CODESIZE SUB DUP1 PUSH3 0xC61 DUP4 CODECOPY DUP2 DUP2 ADD PUSH1 0x40 MSTORE DUP2 ADD SWAP1 PUSH3 0x53 SWAP2 SWAP1 PUSH3 0x23B JUMP JUMPDEST DUP2 PUSH1 0x0 DUP1 PUSH2 0x100 EXP DUP2 SLOAD DUP2 PUSH20 0xFFFFFFFFFFFFFFFFFFFFFFFFFFFFFFFFFFFFFFFF MUL NOT AND SWAP1 DUP4 PUSH20 0xFFFFFFFFFFFFFFFFFFFFFFFFFFFFFFFFFFFFFFFF AND MUL OR SWAP1 SSTORE POP CALLER PUSH1 0x1 PUSH1 0x0 PUSH2 0x100 EXP DUP2 SLOAD DUP2 PUSH20 0xFFFFFFFFFFFFFFFFFFFFFFFFFFFFFFFFFFFFFFFF MUL NOT AND SWAP1 DUP4 PUSH20 0xFFFFFFFFFFFFFFFFFFFFFFFFFFFFFFFFFFFFFFFF AND MUL OR SWAP1 SSTORE POP DUP1 PUSH1 0x2 SWAP1 DUP1 MLOAD SWAP1 PUSH1 0x20 ADD SWAP1 PUSH3 0xEC SWAP3 SWAP2 SWAP1 PUSH3 0xF5 JUMP JUMPDEST POP POP POP PUSH3 0x435 JUMP JUMPDEST DUP3 DUP1 SLOAD PUSH3 0x103 SWAP1 PUSH3 0x387 JUMP JUMPDEST SWAP1 PUSH1 0x0 MSTORE PUSH1 0x20 PUSH1 0x0 KECCAK256 SWAP1 PUSH1 0x1F ADD PUSH1 0x20 SWAP1 DIV DUP2 ADD SWAP3 DUP3 PUSH3 0x127 JUMPI PUSH1 0x0 DUP6 SSTORE PUSH3 0x173 JUMP JUMPDEST DUP3 PUSH1 0x1F LT PUSH3 0x142 JUMPI DUP1 MLOAD PUSH1 0xFF NOT AND DUP4 DUP1 ADD OR DUP6 SSTORE PUSH3 0x173 JUMP JUMPDEST DUP3 DUP1 ADD PUSH1 0x1 ADD DUP6 SSTORE DUP3 ISZERO PUSH3 0x173 JUMPI SWAP2 DUP3 ADD JUMPDEST DUP3 DUP2 GT ISZERO PUSH3 0x172 JUMPI DUP3 MLOAD DUP3 SSTORE SWAP2 PUSH1 0x20 ADD SWAP2 SWAP1 PUSH1 0x1 ADD SWAP1 PUSH3 0x155 JUMP JUMPDEST JUMPDEST POP SWAP1 POP PUSH3 0x182 SWAP2 SWAP1 PUSH3 0x186 JUMP JUMPDEST POP SWAP1 JUMP JUMPDEST JUMPDEST DUP1 DUP3 GT ISZERO PUSH3 0x1A1 JUMPI PUSH1 0x0 DUP2 PUSH1 0x0 SWAP1 SSTORE POP PUSH1 0x1 ADD PUSH3 0x187 JUMP JUMPDEST POP SWAP1 JUMP JUMPDEST PUSH1 0x0 PUSH3 0x1BC PUSH3 0x1B6 DUP5 PUSH3 0x2C9 JUMP JUMPDEST PUSH3 0x295 JUMP JUMPDEST SWAP1 POP DUP3 DUP2 MSTORE PUSH1 0x20 DUP2 ADD DUP5 DUP5 DUP5 ADD GT ISZERO PUSH3 0x1D5 JUMPI PUSH1 0x0 DUP1 REVERT JUMPDEST PUSH3 0x1E2 DUP5 DUP3 DUP6 PUSH3 0x351 JUMP JUMPDEST POP SWAP4 SWAP3 POP POP POP JUMP JUMPDEST PUSH1 0x0 DUP2 MLOAD SWAP1 POP PUSH3 0x1FB DUP2 PUSH3 0x41B JUMP JUMPDEST PUSH3 0x206 DUP2 PUSH3 0x2FC JUMP JUMPDEST SWAP1 POP SWAP3 SWAP2 POP POP JUMP JUMPDEST PUSH1 0x0 DUP3 PUSH1 0x1F DUP4 ADD SLT PUSH3 0x220 JUMPI PUSH1 0x0 DUP1 REVERT JUMPDEST DUP2 MLOAD PUSH3 0x232 DUP5 DUP3 PUSH1 0x20 DUP7 ADD PUSH3 0x1A5 JUMP JUMPDEST SWAP2 POP POP SWAP3 SWAP2 POP POP JUMP JUMPDEST PUSH1 0x0 DUP1 PUSH1 0x40 DUP4 DUP6 SUB SLT ISZERO PUSH3 0x24F JUMPI PUSH1 0x0 DUP1 REVERT JUMPDEST PUSH1 0x0 PUSH3 0x25F DUP6 DUP3 DUP7 ADD PUSH3 0x1EA JUMP JUMPDEST SWAP3 POP POP PUSH1 0x20 DUP4 ADD MLOAD PUSH8 0xFFFFFFFFFFFFFFFF DUP2 GT ISZERO PUSH3 0x27D JUMPI PUSH1 0x0 DUP1 REVERT JUMPDEST PUSH3 0x28B DUP6 DUP3 DUP7 ADD PUSH3 0x20E JUMP JUMPDEST SWAP2 POP POP SWAP3 POP SWAP3 SWAP1 POP JUMP JUMPDEST PUSH1 0x0 PUSH1 0x40 MLOAD SWAP1 POP DUP2 DUP2 ADD DUP2 DUP2 LT PUSH8 0xFFFFFFFFFFFFFFFF DUP3 GT OR ISZERO PUSH3 0x2BF JUMPI PUSH3 0x2BE PUSH3 0x3EC JUMP JUMPDEST JUMPDEST DUP1 PUSH1 0x40 MSTORE POP SWAP2 SWAP1 POP JUMP JUMPDEST PUSH1 0x0 PUSH8 0xFFFFFFFFFFFFFFFF DUP3 GT ISZERO PUSH3 0x2E7 JUMPI PUSH3 0x2E6 PUSH3 0x3EC JUMP JUMPDEST JUMPDEST PUSH1 0x1F NOT PUSH1 0x1F DUP4 ADD AND SWAP1 POP PUSH1 0x20 DUP2 ADD SWAP1 POP SWAP2 SWAP1 POP JUMP JUMPDEST PUSH1 0x0 PUSH3 0x309 DUP3 PUSH3 0x310 JUMP JUMPDEST SWAP1 POP SWAP2 SWAP1 POP JUMP JUMPDEST PUSH1 0x0 PUSH20 0xFFFFFFFFFFFFFFFFFFFFFFFFFFFFFFFFFFFFFFFF DUP3 AND SWAP1 POP SWAP2 SWAP1 POP JUMP JUMPDEST PUSH1 0x0 PUSH21 0xFFFFFFFFFFFFFFFFFFFFFFFFFFFFFFFFFFFFFFFFFF DUP3 AND SWAP1 POP SWAP2 SWAP1 POP JUMP JUMPDEST PUSH1 0x0 JUMPDEST DUP4 DUP2 LT ISZERO PUSH3 0x371 JUMPI DUP1 DUP3 ADD MLOAD DUP2 DUP5 ADD MSTORE PUSH1 0x20 DUP2 ADD SWAP1 POP PUSH3 0x354 JUMP JUMPDEST DUP4 DUP2 GT ISZERO PUSH3 0x381 JUMPI PUSH1 0x0 DUP5 DUP5 ADD MSTORE JUMPDEST POP POP POP POP JUMP JUMPDEST PUSH1 0x0 PUSH1 0x2 DUP3 DIV SWAP1 POP PUSH1 0x1 DUP3 AND DUP1 PUSH3 0x3A0 JUMPI PUSH1 0x7F DUP3 AND SWAP2 POP JUMPDEST PUSH1 0x20 DUP3 LT DUP2 EQ ISZERO PUSH3 0x3B7 JUMPI PUSH3 0x3B6 PUSH3 0x3BD JUMP JUMPDEST JUMPDEST POP SWAP2 SWAP1 POP JUMP JUMPDEST PUSH32 0x4E487B7100000000000000000000000000000000000000000000000000000000 PUSH1 0x0 MSTORE PUSH1 0x22 PUSH1 0x4 MSTORE PUSH1 0x24 PUSH1 0x0 REVERT JUMPDEST PUSH32 0x4E487B7100000000000000000000000000000000000000000000000000000000 PUSH1 0x0 MSTORE PUSH1 0x41 PUSH1 0x4 MSTORE PUSH1 0x24 PUSH1 0x0 REVERT JUMPDEST PUSH3 0x426 DUP2 PUSH3 0x330 JUMP JUMPDEST DUP2 EQ PUSH3 0x432 JUMPI PUSH1 0x0 DUP1 REVERT JUMPDEST POP JUMP JUMPDEST PUSH2 0x81C DUP1 PUSH3 0x445 PUSH1 0x0 CODECOPY PUSH1 0x0 RETURN INVALID PUSH1 0x80 PUSH1 0x40 MSTORE PUSH1 0x4 CALLDATASIZE LT PUSH2 0x59 JUMPI PUSH1 0x0 CALLDATALOAD PUSH1 0xE0 SHR DUP1 PUSH4 0x6FDDE03 EQ PUSH2 0x9E JUMPI DUP1 PUSH4 0x9E0994A1 EQ PUSH2 0xE3 JUMPI DUP1 PUSH4 0xA1B8693F EQ PUSH2 0xFF JUMPI DUP1 PUSH4 0xB32C9356 EQ PUSH2 0x144 JUMPI DUP1 PUSH4 0xC1E1EB27 EQ PUSH2 0x189 JUMPI DUP1 PUSH4 0xF851A440 EQ PUSH2 0x1BA JUMPI PUSH2 0x99 JUMP JUMPDEST CALLDATASIZE PUSH2 0x99 JUMPI PUSH32 0x88A5966D370B9919B20F3E2C13FF65706F196A4E32CC2C12BF57088F88525874 CALLER CALLVALUE PUSH1 0x40 MLOAD PUSH2 0x8F SWAP3 SWAP2 SWAP1 PUSH2 0x5F4 JUMP JUMPDEST PUSH1 0x40 MLOAD DUP1 SWAP2 SUB SWAP1 LOG1 STOP JUMPDEST PUSH1 0x0 DUP1 REVERT JUMPDEST CALLVALUE DUP1 ISZERO PUSH2 0xAA JUMPI PUSH1 0x0 DUP1 REVERT JUMPDEST POP CALLTOKENID DUP1 ISZERO PUSH2 0xB7 JUMPI PUSH1 0x0 DUP1 REVERT JUMPDEST POP CALLTOKENVALUE DUP1 ISZERO PUSH2 0xC4 JUMPI PUSH1 0x0 DUP1 REVERT JUMPDEST POP PUSH2 0xCD PUSH2 0x1FF JUMP JUMPDEST PUSH1 0x40 MLOAD PUSH2 0xDA SWAP2 SWAP1 PUSH2 0x61D JUMP JUMPDEST PUSH1 0x40 MLOAD DUP1 SWAP2 SUB SWAP1 RETURN JUMPDEST PUSH2 0xFD PUSH1 0x4 DUP1 CALLDATASIZE SUB DUP2 ADD SWAP1 PUSH2 0xF8 SWAP2 SWAP1 PUSH2 0x4C6 JUMP JUMPDEST PUSH2 0x28D JUMP JUMPDEST STOP JUMPDEST CALLVALUE DUP1 ISZERO PUSH2 0x10B JUMPI PUSH1 0x0 DUP1 REVERT JUMPDEST POP CALLTOKENID DUP1 ISZERO PUSH2 0x118 JUMPI PUSH1 0x0 DUP1 REVERT JUMPDEST POP CALLTOKENVALUE DUP1 ISZERO PUSH2 0x125 JUMPI PUSH1 0x0 DUP1 REVERT JUMPDEST POP PUSH2 0x12E PUSH2 0x368 JUMP JUMPDEST PUSH1 0x40 MLOAD PUSH2 0x13B SWAP2 SWAP1 PUSH2 0x5D9 JUMP JUMPDEST PUSH1 0x40 MLOAD DUP1 SWAP2 SUB SWAP1 RETURN JUMPDEST CALLVALUE DUP1 ISZERO PUSH2 0x150 JUMPI PUSH1 0x0 DUP1 REVERT JUMPDEST POP CALLTOKENID DUP1 ISZERO PUSH2 0x15D JUMPI PUSH1 0x0 DUP1 REVERT JUMPDEST POP CALLTOKENVALUE DUP1 ISZERO PUSH2 0x16A JUMPI PUSH1 0x0 DUP1 REVERT JUMPDEST POP PUSH2 0x173 PUSH2 0x38E JUMP JUMPDEST PUSH1 0x40 MLOAD PUSH2 0x180 SWAP2 SWAP1 PUSH2 0x67F JUMP JUMPDEST PUSH1 0x40 MLOAD DUP1 SWAP2 SUB SWAP1 RETURN JUMPDEST CALLVALUE DUP1 ISZERO PUSH2 0x195 JUMPI PUSH1 0x0 DUP1 REVERT JUMPDEST POP CALLTOKENID DUP1 ISZERO PUSH2 0x1A2 JUMPI PUSH1 0x0 DUP1 REVERT JUMPDEST POP CALLTOKENVALUE DUP1 ISZERO PUSH2 0x1AF JUMPI PUSH1 0x0 DUP1 REVERT JUMPDEST POP PUSH2 0x1B8 PUSH2 0x396 JUMP JUMPDEST STOP JUMPDEST CALLVALUE DUP1 ISZERO PUSH2 0x1C6 JUMPI PUSH1 0x0 DUP1 REVERT JUMPDEST POP CALLTOKENID DUP1 ISZERO PUSH2 0x1D3 JUMPI PUSH1 0x0 DUP1 REVERT JUMPDEST POP CALLTOKENVALUE DUP1 ISZERO PUSH2 0x1E0 JUMPI PUSH1 0x0 DUP1 REVERT JUMPDEST POP PUSH2 0x1E9 PUSH2 0x46D JUMP JUMPDEST PUSH1 0x40 MLOAD PUSH2 0x1F6 SWAP2 SWAP1 PUSH2 0x5D9 JUMP JUMPDEST PUSH1 0x40 MLOAD DUP1 SWAP2 SUB SWAP1 RETURN JUMPDEST PUSH1 0x2 DUP1 SLOAD PUSH2 0x20C SWAP1 PUSH2 0x746 JUMP JUMPDEST DUP1 PUSH1 0x1F ADD PUSH1 0x20 DUP1 SWAP2 DIV MUL PUSH1 0x20 ADD PUSH1 0x40 MLOAD SWAP1 DUP2 ADD PUSH1 0x40 MSTORE DUP1 SWAP3 SWAP2 SWAP1 DUP2 DUP2 MSTORE PUSH1 0x20 ADD DUP3 DUP1 SLOAD PUSH2 0x238 SWAP1 PUSH2 0x746 JUMP JUMPDEST DUP1 ISZERO PUSH2 0x285 JUMPI DUP1 PUSH1 0x1F LT PUSH2 0x25A JUMPI PUSH2 0x100 DUP1 DUP4 SLOAD DIV MUL DUP4 MSTORE SWAP2 PUSH1 0x20 ADD SWAP2 PUSH2 0x285 JUMP JUMPDEST DUP3 ADD SWAP2 SWAP1 PUSH1 0x0 MSTORE PUSH1 0x20 PUSH1 0x0 KECCAK256 SWAP1 JUMPDEST DUP2 SLOAD DUP2 MSTORE SWAP1 PUSH1 0x1 ADD SWAP1 PUSH1 0x20 ADD DUP1 DUP4 GT PUSH2 0x268 JUMPI DUP3 SWAP1 SUB PUSH1 0x1F AND DUP3 ADD SWAP2 JUMPDEST POP POP POP POP POP DUP2 JUMP JUMPDEST PUSH1 0x1 PUSH1 0x0 SWAP1 SLOAD SWAP1 PUSH2 0x100 EXP SWAP1 DIV PUSH20 0xFFFFFFFFFFFFFFFFFFFFFFFFFFFFFFFFFFFFFFFF AND PUSH20 0xFFFFFFFFFFFFFFFFFFFFFFFFFFFFFFFFFFFFFFFF AND CALLER PUSH20 0xFFFFFFFFFFFFFFFFFFFFFFFFFFFFFFFFFFFFFFFF AND EQ PUSH2 0x31D JUMPI PUSH1 0x40 MLOAD PUSH32 0x8C379A000000000000000000000000000000000000000000000000000000000 DUP2 MSTORE PUSH1 0x4 ADD PUSH2 0x314 SWAP1 PUSH2 0x63F JUMP JUMPDEST PUSH1 0x40 MLOAD DUP1 SWAP2 SUB SWAP1 REVERT JUMPDEST DUP2 PUSH20 0xFFFFFFFFFFFFFFFFFFFFFFFFFFFFFFFFFFFFFFFF AND PUSH2 0x8FC DUP3 SWAP1 DUP2 ISZERO MUL SWAP1 PUSH1 0x40 MLOAD PUSH1 0x0 PUSH1 0x40 MLOAD DUP1 DUP4 SUB DUP2 DUP6 DUP9 DUP9 CALL SWAP4 POP POP POP POP ISZERO DUP1 ISZERO PUSH2 0x363 JUMPI RETURNDATASIZE PUSH1 0x0 DUP1 RETURNDATACOPY RETURNDATASIZE PUSH1 0x0 REVERT JUMPDEST POP POP POP JUMP JUMPDEST PUSH1 0x1 PUSH1 0x0 SWAP1 SLOAD SWAP1 PUSH2 0x100 EXP SWAP1 DIV PUSH20 0xFFFFFFFFFFFFFFFFFFFFFFFFFFFFFFFFFFFFFFFF AND DUP2 JUMP JUMPDEST PUSH1 0x0 SELFBALANCE SWAP1 POP SWAP1 JUMP JUMPDEST PUSH1 0x0 DUP1 SLOAD SWAP1 PUSH2 0x100 EXP SWAP1 DIV PUSH20 0xFFFFFFFFFFFFFFFFFFFFFFFFFFFFFFFFFFFFFFFF AND PUSH20 0xFFFFFFFFFFFFFFFFFFFFFFFFFFFFFFFFFFFFFFFF AND CALLER PUSH20 0xFFFFFFFFFFFFFFFFFFFFFFFFFFFFFFFFFFFFFFFF AND EQ PUSH2 0x424 JUMPI PUSH1 0x40 MLOAD PUSH32 0x8C379A000000000000000000000000000000000000000000000000000000000 DUP2 MSTORE PUSH1 0x4 ADD PUSH2 0x41B SWAP1 PUSH2 0x65F JUMP JUMPDEST PUSH1 0x40 MLOAD DUP1 SWAP2 SUB SWAP1 REVERT JUMPDEST CALLER PUSH20 0xFFFFFFFFFFFFFFFFFFFFFFFFFFFFFFFFFFFFFFFF AND PUSH2 0x8FC SELFBALANCE SWAP1 DUP2 ISZERO MUL SWAP1 PUSH1 0x40 MLOAD PUSH1 0x0 PUSH1 0x40 MLOAD DUP1 DUP4 SUB DUP2 DUP6 DUP9 DUP9 CALL SWAP4 POP POP POP POP ISZERO DUP1 ISZERO PUSH2 0x46A JUMPI RETURNDATASIZE PUSH1 0x0 DUP1 RETURNDATACOPY RETURNDATASIZE PUSH1 0x0 REVERT JUMPDEST POP JUMP JUMPDEST PUSH1 0x0 DUP1 SLOAD SWAP1 PUSH2 0x100 EXP SWAP1 DIV PUSH20 0xFFFFFFFFFFFFFFFFFFFFFFFFFFFFFFFFFFFFFFFF AND DUP2 JUMP JUMPDEST PUSH1 0x0 DUP2 CALLDATALOAD SWAP1 POP PUSH2 0x4A0 DUP2 PUSH2 0x7B8 JUMP JUMPDEST PUSH2 0x4A9 DUP2 PUSH2 0x6B6 JUMP JUMPDEST SWAP1 POP SWAP3 SWAP2 POP POP JUMP JUMPDEST PUSH1 0x0 DUP2 CALLDATALOAD SWAP1 POP PUSH2 0x4C0 DUP2 PUSH2 0x7CF JUMP JUMPDEST SWAP3 SWAP2 POP POP JUMP JUMPDEST PUSH1 0x0 DUP1 PUSH1 0x40 DUP4 DUP6 SUB SLT ISZERO PUSH2 0x4D9 JUMPI PUSH1 0x0 DUP1 REVERT JUMPDEST PUSH1 0x0 PUSH2 0x4E7 DUP6 DUP3 DUP7 ADD PUSH2 0x491 JUMP JUMPDEST SWAP3 POP POP PUSH1 0x20 PUSH2 0x4F8 DUP6 DUP3 DUP7 ADD PUSH2 0x4B1 JUMP JUMPDEST SWAP2 POP POP SWAP3 POP SWAP3 SWAP1 POP JUMP JUMPDEST PUSH2 0x50B DUP2 PUSH2 0x6B6 JUMP JUMPDEST DUP3 MSTORE POP POP JUMP JUMPDEST PUSH1 0x0 PUSH2 0x51C DUP3 PUSH2 0x69A JUMP JUMPDEST PUSH2 0x526 DUP2 DUP6 PUSH2 0x6A5 JUMP JUMPDEST SWAP4 POP PUSH2 0x536 DUP2 DUP6 PUSH1 0x20 DUP7 ADD PUSH2 0x713 JUMP JUMPDEST PUSH2 0x53F DUP2 PUSH2 0x7A7 JUMP JUMPDEST DUP5 ADD SWAP2 POP POP SWAP3 SWAP2 POP POP JUMP JUMPDEST PUSH1 0x0 PUSH2 0x557 PUSH1 0x18 DUP4 PUSH2 0x6A5 JUMP JUMPDEST SWAP2 POP PUSH32 0x616374696F6E206F6E6C7920666F7220676F7641646D696E0000000000000000 PUSH1 0x0 DUP4 ADD MSTORE PUSH1 0x20 DUP3 ADD SWAP1 POP SWAP2 SWAP1 POP JUMP JUMPDEST PUSH1 0x0 PUSH2 0x597 PUSH1 0x15 DUP4 PUSH2 0x6A5 JUMP JUMPDEST SWAP2 POP PUSH32 0x616374696F6E206F6E6C7920666F722061646D696E0000000000000000000000 PUSH1 0x0 DUP4 ADD MSTORE PUSH1 0x20 DUP3 ADD SWAP1 POP SWAP2 SWAP1 POP JUMP JUMPDEST PUSH2 0x5D3 DUP2 PUSH2 0x709 JUMP JUMPDEST DUP3 MSTORE POP POP JUMP JUMPDEST PUSH1 0x0 PUSH1 0x20 DUP3 ADD SWAP1 POP PUSH2 0x5EE PUSH1 0x0 DUP4 ADD DUP5 PUSH2 0x502 JUMP JUMPDEST SWAP3 SWAP2 POP POP JUMP JUMPDEST PUSH1 0x0 PUSH1 0x40 DUP3 ADD SWAP1 POP PUSH2 0x609 PUSH1 0x0 DUP4 ADD DUP6 PUSH2 0x502 JUMP JUMPDEST PUSH2 0x616 PUSH1 0x20 DUP4 ADD DUP5 PUSH2 0x5CA JUMP JUMPDEST SWAP4 SWAP3 POP POP POP JUMP JUMPDEST PUSH1 0x0 PUSH1 0x20 DUP3 ADD SWAP1 POP DUP2 DUP2 SUB PUSH1 0x0 DUP4 ADD MSTORE PUSH2 0x637 DUP2 DUP5 PUSH2 0x511 JUMP JUMPDEST SWAP1 POP SWAP3 SWAP2 POP POP JUMP JUMPDEST PUSH1 0x0 PUSH1 0x20 DUP3 ADD SWAP1 POP DUP2 DUP2 SUB PUSH1 0x0 DUP4 ADD MSTORE PUSH2 0x658 DUP2 PUSH2 0x54A JUMP JUMPDEST SWAP1 POP SWAP2 SWAP1 POP JUMP JUMPDEST PUSH1 0x0 PUSH1 0x20 DUP3 ADD SWAP1 POP DUP2 DUP2 SUB PUSH1 0x0 DUP4 ADD MSTORE PUSH2 0x678 DUP2 PUSH2 0x58A JUMP JUMPDEST SWAP1 POP SWAP2 SWAP1 POP JUMP JUMPDEST PUSH1 0x0 PUSH1 0x20 DUP3 ADD SWAP1 POP PUSH2 0x694 PUSH1 0x0 DUP4 ADD DUP5 PUSH2 0x5CA JUMP JUMPDEST SWAP3 SWAP2 POP POP JUMP JUMPDEST PUSH1 0x0 DUP2 MLOAD SWAP1 POP SWAP2 SWAP1 POP JUMP JUMPDEST PUSH1 0x0 DUP3 DUP3 MSTORE PUSH1 0x20 DUP3 ADD SWAP1 POP SWAP3 SWAP2 POP POP JUMP JUMPDEST PUSH1 0x0 PUSH2 0x6C1 DUP3 PUSH2 0x6C8 JUMP JUMPDEST SWAP1 POP SWAP2 SWAP1 POP JUMP JUMPDEST PUSH1 0x0 PUSH20 0xFFFFFFFFFFFFFFFFFFFFFFFFFFFFFFFFFFFFFFFF DUP3 AND SWAP1 POP SWAP2 SWAP1 POP JUMP JUMPDEST PUSH1 0x0 PUSH21 0xFFFFFFFFFFFFFFFFFFFFFFFFFFFFFFFFFFFFFFFFFF DUP3 AND SWAP1 POP SWAP2 SWAP1 POP JUMP JUMPDEST PUSH1 0x0 DUP2 SWAP1 POP SWAP2 SWAP1 POP JUMP JUMPDEST PUSH1 0x0 JUMPDEST DUP4 DUP2 LT ISZERO PUSH2 0x731 JUMPI DUP1 DUP3 ADD MLOAD DUP2 DUP5 ADD MSTORE PUSH1 0x20 DUP2 ADD SWAP1 POP PUSH2 0x716 JUMP JUMPDEST DUP4 DUP2 GT ISZERO PUSH2 0x740 JUMPI PUSH1 0x0 DUP5 DUP5 ADD MSTORE JUMPDEST POP POP POP POP JUMP JUMPDEST PUSH1 0x0 PUSH1 0x2 DUP3 DIV SWAP1 POP PUSH1 0x1 DUP3 AND DUP1 PUSH2 0x75E JUMPI PUSH1 0x7F DUP3 AND SWAP2 POP JUMPDEST PUSH1 0x20 DUP3 LT DUP2 EQ ISZERO PUSH2 0x772 JUMPI PUSH2 0x771 PUSH2 0x778 JUMP JUMPDEST JUMPDEST POP SWAP2 SWAP1 POP JUMP JUMPDEST PUSH32 0x4E487B7100000000000000000000000000000000000000000000000000000000 PUSH1 0x0 MSTORE PUSH1 0x22 PUSH1 0x4 MSTORE PUSH1 0x24 PUSH1 0x0 REVERT JUMPDEST PUSH1 0x0 PUSH1 0x1F NOT PUSH1 0x1F DUP4 ADD AND SWAP1 POP SWAP2 SWAP1 POP JUMP JUMPDEST PUSH2 0x7C1 DUP2 PUSH2 0x6E8 JUMP JUMPDEST DUP2 EQ PUSH2 0x7CC JUMPI PUSH1 0x0 DUP1 REVERT JUMPDEST POP JUMP JUMPDEST PUSH2 0x7D8 DUP2 PUSH2 0x709 JUMP JUMPDEST DUP2 EQ PUSH2 0x7E3 JUMPI PUSH1 0x0 DUP1 REVERT JUMPDEST POP JUMP INVALID LOG2 PUSH5 0x6970667358 0x22 SLT KECCAK256 0x5E 0xC4 SWAP3 CALLER LOG2 0x5E GASPRICE SWAP9 PUSH26 0x6A8F291BF1C80B3EA85E4C7315A1A27770298C1935A1B064736F PUSH13 0x63430008000033A26469706673 PC 0x22 SLT KECCAK256 0xC PUSH7 0x58445210C56622 0xF8 PUSH22 0x8303764214E90193C75F7FC2BB50A2262A158F4B3964 PUSH20 0x6F6C634300080000330000000000000000000000 "
		},
		"gasEstimates": {
			"creation": {
				"codeDepositCost": "4841200",
				"executionCost": "327318",
				"totalCost": "5168518"
			},
			"external": {
				"activeReferenda(uint256)": "infinite",
				"activeVoteTokens(uint256)": "infinite",
				"admin()": "1394",
				"band1()": "1288",
				"band1_ScoreThreshold()": "1243",
				"band2()": "1267",
				"band2_ScoreThreshold()": "1223",
				"band3()": "1266",
				"band3_ScoreThreshold()": "1223",
				"beneficiaryScore(address)": "1732",
				"convictionLockedBlocks(uint256)": "infinite",
				"convictionMultiplier(uint256)": "infinite",
				"createNewReferendum(address,uint256,string,uint256,uint256,uint256)": "infinite",
				"expiredReferenda(uint256)": "infinite",
				"getActiveReferenda()": "infinite",
				"getActiveVoteTokens()": "infinite",
				"getExpiredReferenda()": "infinite",
				"getPreparedReferenda()": "infinite",
				"getQueueActiveRefBlocks()": "infinite",
				"getQueuePreparRefBlocks()": "infinite",
				"getTreasurers()": "infinite",
				"getTreasurersNames()": "infinite",
				"isTreasurer(address)": "1761",
				"isVoterOfReferendum(uint256,address)": "1936",
				"launchNewTreasury(string)": "infinite",
				"preparedReferenda(uint256)": "infinite",
				"queueActiveRefBlocks(uint256)": "infinite",
				"queuePreparRefBlocks(uint256)": "infinite",
				"referendumBeneficiary(address)": "1740",
				"referendumBeneficiaryIsEntitled(address,uint256)": "5227",
				"referendumDetails(uint256)": "infinite",
				"referendumIndex()": "1222",
				"referendumIsActive(uint256)": "1745",
				"refrendumFee()": "1312",
				"scoreBeneficiary(address,uint256,uint256)": "infinite",
				"treasurerBalanceThreshold()": "1224",
				"treasurerName(address)": "infinite",
				"treasurers(uint256)": "2538",
				"treasurersNames(uint256)": "infinite",
				"unlockVoteTokens()": "infinite",
				"updateActiveReferenda()": "infinite",
				"updatePreparedReferenda()": "infinite",
				"updateQueueActiveRefBlocks()": "infinite",
				"updateQueuePreparRefBlocks()": "infinite",
				"voteReferendum(uint256,bool,uint256)": "infinite",
				"voterClaimableAmount(address)": "1729",
				"withdrawVoteTokens()": "infinite"
			}
		},
		"methodIdentifiers": {
			"activeReferenda(uint256)": "d855dd13",
			"activeVoteTokens(uint256)": "38ad5e4f",
			"admin()": "f851a440",
			"band1()": "82c6df45",
			"band1_ScoreThreshold()": "ee588f3c",
			"band2()": "8f7a91b3",
			"band2_ScoreThreshold()": "8e8e0cd7",
			"band3()": "7cf773ee",
			"band3_ScoreThreshold()": "547246e2",
			"beneficiaryScore(address)": "1a54a0d2",
			"convictionLockedBlocks(uint256)": "a58704cd",
			"convictionMultiplier(uint256)": "a0581453",
			"createNewReferendum(address,uint256,string,uint256,uint256,uint256)": "534e4eb3",
			"expiredReferenda(uint256)": "0ec7335f",
			"getActiveReferenda()": "633b1370",
			"getActiveVoteTokens()": "b856ca07",
			"getExpiredReferenda()": "ccf22dff",
			"getPreparedReferenda()": "556f020a",
			"getQueueActiveRefBlocks()": "5b7fdfad",
			"getQueuePreparRefBlocks()": "894ac2d9",
			"getTreasurers()": "f5eb4956",
			"getTreasurersNames()": "fa03e680",
			"isTreasurer(address)": "cc0d50e6",
			"isVoterOfReferendum(uint256,address)": "ee37d515",
			"launchNewTreasury(string)": "7bc1ba14",
			"preparedReferenda(uint256)": "d7df24a0",
			"queueActiveRefBlocks(uint256)": "a65fee3d",
			"queuePreparRefBlocks(uint256)": "1656e087",
			"referendumBeneficiary(address)": "3f10e476",
			"referendumBeneficiaryIsEntitled(address,uint256)": "8f32e1ac",
			"referendumDetails(uint256)": "b6488637",
			"referendumIndex()": "d5309ca3",
			"referendumIsActive(uint256)": "4b10f9f7",
			"refrendumFee()": "212d006a",
			"scoreBeneficiary(address,uint256,uint256)": "2e832901",
			"treasurerBalanceThreshold()": "02dbe43f",
			"treasurerName(address)": "4bdf3a53",
			"treasurers(uint256)": "a2e21e29",
			"treasurersNames(uint256)": "75fb5526",
			"unlockVoteTokens()": "8cfd0dd6",
			"updateActiveReferenda()": "6af1c2b8",
			"updatePreparedReferenda()": "d2117795",
			"updateQueueActiveRefBlocks()": "e4d728d4",
			"updateQueuePreparRefBlocks()": "560aa844",
			"voteReferendum(uint256,bool,uint256)": "ec8ae6c7",
			"voterClaimableAmount(address)": "f84a7700",
			"withdrawVoteTokens()": "e1c2da87"
		}
	},
	"abi": [
		{
			"inputs": [],
			"stateMutability": "nonpayable",
			"type": "constructor"
		},
		{
			"anonymous": false,
			"inputs": [
				{
					"indexed": false,
					"internalType": "uint256",
					"name": "index",
					"type": "uint256"
				},
				{
					"indexed": false,
					"internalType": "address",
					"name": "beneficiary",
					"type": "address"
				},
				{
					"indexed": false,
					"internalType": "uint256",
					"name": "amount",
					"type": "uint256"
				},
				{
					"indexed": false,
					"internalType": "uint256",
					"name": "startBlock",
					"type": "uint256"
				},
				{
					"indexed": false,
					"internalType": "address",
					"name": "treasuryAddress",
					"type": "address"
				}
			],
			"name": "newReferendumCreated",
			"type": "event"
		},
		{
			"anonymous": false,
			"inputs": [
				{
					"indexed": false,
					"internalType": "address",
					"name": "admin",
					"type": "address"
				},
				{
					"indexed": false,
					"internalType": "address",
					"name": "newTreasuryAddress",
					"type": "address"
				},
				{
					"indexed": false,
					"internalType": "uint256",
					"name": "initialFunds",
					"type": "uint256"
				}
			],
			"name": "newTreasuryLaunched",
			"type": "event"
		},
		{
			"anonymous": false,
			"inputs": [
				{
					"indexed": false,
					"internalType": "uint256",
					"name": "refIndex",
					"type": "uint256"
				},
				{
					"indexed": false,
					"internalType": "address",
					"name": "voter",
					"type": "address"
				},
				{
					"indexed": false,
					"internalType": "uint256",
					"name": "numTokens",
					"type": "uint256"
				},
				{
					"indexed": false,
					"internalType": "uint256",
					"name": "totalValue",
					"type": "uint256"
				},
				{
					"indexed": false,
					"internalType": "bool",
					"name": "aye",
					"type": "bool"
				},
				{
					"indexed": false,
					"internalType": "uint256",
					"name": "convction",
					"type": "uint256"
				}
			],
			"name": "newVoteEvent",
			"type": "event"
		},
		{
			"inputs": [
				{
					"internalType": "uint256",
					"name": "",
					"type": "uint256"
				}
			],
			"name": "activeReferenda",
			"outputs": [
				{
					"internalType": "uint256",
					"name": "",
					"type": "uint256"
				}
			],
			"stateMutability": "view",
			"type": "function"
		},
		{
			"inputs": [
				{
					"internalType": "uint256",
					"name": "",
					"type": "uint256"
				}
			],
			"name": "activeVoteTokens",
			"outputs": [
				{
					"internalType": "uint256",
					"name": "unlockBlockNum",
					"type": "uint256"
				},
				{
					"internalType": "uint256",
					"name": "amount",
					"type": "uint256"
				},
				{
					"internalType": "address",
					"name": "voteOwner",
					"type": "address"
				}
			],
			"stateMutability": "view",
			"type": "function"
		},
		{
			"inputs": [],
			"name": "admin",
			"outputs": [
				{
					"internalType": "address",
					"name": "",
					"type": "address"
				}
			],
			"stateMutability": "view",
			"type": "function"
		},
		{
			"inputs": [],
			"name": "band1",
			"outputs": [
				{
					"internalType": "uint256",
					"name": "",
					"type": "uint256"
				}
			],
			"stateMutability": "view",
			"type": "function"
		},
		{
			"inputs": [],
			"name": "band1_ScoreThreshold",
			"outputs": [
				{
					"internalType": "uint256",
					"name": "",
					"type": "uint256"
				}
			],
			"stateMutability": "view",
			"type": "function"
		},
		{
			"inputs": [],
			"name": "band2",
			"outputs": [
				{
					"internalType": "uint256",
					"name": "",
					"type": "uint256"
				}
			],
			"stateMutability": "view",
			"type": "function"
		},
		{
			"inputs": [],
			"name": "band2_ScoreThreshold",
			"outputs": [
				{
					"internalType": "uint256",
					"name": "",
					"type": "uint256"
				}
			],
			"stateMutability": "view",
			"type": "function"
		},
		{
			"inputs": [],
			"name": "band3",
			"outputs": [
				{
					"internalType": "uint256",
					"name": "",
					"type": "uint256"
				}
			],
			"stateMutability": "view",
			"type": "function"
		},
		{
			"inputs": [],
			"name": "band3_ScoreThreshold",
			"outputs": [
				{
					"internalType": "uint256",
					"name": "",
					"type": "uint256"
				}
			],
			"stateMutability": "view",
			"type": "function"
		},
		{
			"inputs": [
				{
					"internalType": "address",
					"name": "",
					"type": "address"
				}
			],
			"name": "beneficiaryScore",
			"outputs": [
				{
					"internalType": "uint256",
					"name": "",
					"type": "uint256"
				}
			],
			"stateMutability": "view",
			"type": "function"
		},
		{
			"inputs": [
				{
					"internalType": "uint256",
					"name": "",
					"type": "uint256"
				}
			],
			"name": "convictionLockedBlocks",
			"outputs": [
				{
					"internalType": "uint256",
					"name": "",
					"type": "uint256"
				}
			],
			"stateMutability": "view",
			"type": "function"
		},
		{
			"inputs": [
				{
					"internalType": "uint256",
					"name": "",
					"type": "uint256"
				}
			],
			"name": "convictionMultiplier",
			"outputs": [
				{
					"internalType": "uint256",
					"name": "",
					"type": "uint256"
				}
			],
			"stateMutability": "view",
			"type": "function"
		},
		{
			"inputs": [
				{
					"internalType": "address",
					"name": "_treasuryAddress",
					"type": "address"
				},
				{
					"internalType": "uint256",
					"name": "_amount",
					"type": "uint256"
				},
				{
					"internalType": "string",
					"name": "_referendumCID",
					"type": "string"
				},
				{
					"internalType": "uint256",
					"name": "startInNumBlocks",
					"type": "uint256"
				},
				{
					"internalType": "uint256",
					"name": "duration",
					"type": "uint256"
				},
				{
					"internalType": "uint256",
					"name": "scoreInNumBlocks",
					"type": "uint256"
				}
			],
			"name": "createNewReferendum",
			"outputs": [],
			"stateMutability": "payable",
			"type": "function"
		},
		{
			"inputs": [
				{
					"internalType": "uint256",
					"name": "",
					"type": "uint256"
				}
			],
			"name": "expiredReferenda",
			"outputs": [
				{
					"internalType": "uint256",
					"name": "",
					"type": "uint256"
				}
			],
			"stateMutability": "view",
			"type": "function"
		},
		{
			"inputs": [],
			"name": "getActiveReferenda",
			"outputs": [
				{
					"internalType": "uint256[]",
					"name": "",
					"type": "uint256[]"
				}
			],
			"stateMutability": "view",
			"type": "function"
		},
		{
			"inputs": [],
			"name": "getActiveVoteTokens",
			"outputs": [
				{
					"components": [
						{
							"internalType": "uint256",
							"name": "unlockBlockNum",
							"type": "uint256"
						},
						{
							"internalType": "uint256",
							"name": "amount",
							"type": "uint256"
						},
						{
							"internalType": "address",
							"name": "voteOwner",
							"type": "address"
						}
					],
					"internalType": "struct tronGovernance.voteToken[]",
					"name": "",
					"type": "tuple[]"
				}
			],
			"stateMutability": "view",
			"type": "function"
		},
		{
			"inputs": [],
			"name": "getExpiredReferenda",
			"outputs": [
				{
					"internalType": "uint256[]",
					"name": "",
					"type": "uint256[]"
				}
			],
			"stateMutability": "view",
			"type": "function"
		},
		{
			"inputs": [],
			"name": "getPreparedReferenda",
			"outputs": [
				{
					"internalType": "uint256[]",
					"name": "",
					"type": "uint256[]"
				}
			],
			"stateMutability": "view",
			"type": "function"
		},
		{
			"inputs": [],
			"name": "getQueueActiveRefBlocks",
			"outputs": [
				{
					"internalType": "uint256[]",
					"name": "",
					"type": "uint256[]"
				}
			],
			"stateMutability": "view",
			"type": "function"
		},
		{
			"inputs": [],
			"name": "getQueuePreparRefBlocks",
			"outputs": [
				{
					"internalType": "uint256[]",
					"name": "",
					"type": "uint256[]"
				}
			],
			"stateMutability": "view",
			"type": "function"
		},
		{
			"inputs": [],
			"name": "getTreasurers",
			"outputs": [
				{
					"internalType": "address[]",
					"name": "",
					"type": "address[]"
				}
			],
			"stateMutability": "view",
			"type": "function"
		},
		{
			"inputs": [],
			"name": "getTreasurersNames",
			"outputs": [
				{
					"internalType": "string[]",
					"name": "",
					"type": "string[]"
				}
			],
			"stateMutability": "view",
			"type": "function"
		},
		{
			"inputs": [
				{
					"internalType": "address",
					"name": "",
					"type": "address"
				}
			],
			"name": "isTreasurer",
			"outputs": [
				{
					"internalType": "bool",
					"name": "",
					"type": "bool"
				}
			],
			"stateMutability": "view",
			"type": "function"
		},
		{
			"inputs": [
				{
					"internalType": "uint256",
					"name": "",
					"type": "uint256"
				},
				{
					"internalType": "address",
					"name": "",
					"type": "address"
				}
			],
			"name": "isVoterOfReferendum",
			"outputs": [
				{
					"internalType": "bool",
					"name": "",
					"type": "bool"
				}
			],
			"stateMutability": "view",
			"type": "function"
		},
		{
			"inputs": [
				{
					"internalType": "string",
					"name": "name",
					"type": "string"
				}
			],
			"name": "launchNewTreasury",
			"outputs": [],
			"stateMutability": "payable",
			"type": "function"
		},
		{
			"inputs": [
				{
					"internalType": "uint256",
					"name": "",
					"type": "uint256"
				}
			],
			"name": "preparedReferenda",
			"outputs": [
				{
					"internalType": "uint256",
					"name": "",
					"type": "uint256"
				}
			],
			"stateMutability": "view",
			"type": "function"
		},
		{
			"inputs": [
				{
					"internalType": "uint256",
					"name": "",
					"type": "uint256"
				}
			],
			"name": "queueActiveRefBlocks",
			"outputs": [
				{
					"internalType": "uint256",
					"name": "",
					"type": "uint256"
				}
			],
			"stateMutability": "view",
			"type": "function"
		},
		{
			"inputs": [
				{
					"internalType": "uint256",
					"name": "",
					"type": "uint256"
				}
			],
			"name": "queuePreparRefBlocks",
			"outputs": [
				{
					"internalType": "uint256",
					"name": "",
					"type": "uint256"
				}
			],
			"stateMutability": "view",
			"type": "function"
		},
		{
			"inputs": [
				{
					"internalType": "address",
					"name": "",
					"type": "address"
				}
			],
			"name": "referendumBeneficiary",
			"outputs": [
				{
					"internalType": "bool",
					"name": "",
					"type": "bool"
				}
			],
			"stateMutability": "view",
			"type": "function"
		},
		{
			"inputs": [
				{
					"internalType": "address",
					"name": "benef",
					"type": "address"
				},
				{
					"internalType": "uint256",
					"name": "amount",
					"type": "uint256"
				}
			],
			"name": "referendumBeneficiaryIsEntitled",
			"outputs": [
				{
					"internalType": "bool",
					"name": "",
					"type": "bool"
				}
			],
			"stateMutability": "view",
			"type": "function"
		},
		{
			"inputs": [
				{
					"internalType": "uint256",
					"name": "",
					"type": "uint256"
				}
			],
			"name": "referendumDetails",
			"outputs": [
				{
					"internalType": "uint256",
					"name": "index",
					"type": "uint256"
				},
				{
					"internalType": "address",
					"name": "beneficier",
					"type": "address"
				},
				{
					"internalType": "address",
					"name": "treasuryAddress",
					"type": "address"
				},
				{
					"internalType": "uint256",
					"name": "amount",
					"type": "uint256"
				},
				{
					"internalType": "string",
					"name": "referendumCID",
					"type": "string"
				},
				{
					"internalType": "uint256",
					"name": "startBlock",
					"type": "uint256"
				},
				{
					"internalType": "uint256",
					"name": "endBlock",
					"type": "uint256"
				},
				{
					"internalType": "uint256",
					"name": "scoreBlocknum",
					"type": "uint256"
				},
				{
					"internalType": "uint256",
					"name": "votesAye",
					"type": "uint256"
				},
				{
					"internalType": "uint256",
					"name": "votesNay",
					"type": "uint256"
				},
				{
					"internalType": "uint256",
					"name": "turnount",
					"type": "uint256"
				},
				{
					"internalType": "bool",
					"name": "passed",
					"type": "bool"
				}
			],
			"stateMutability": "view",
			"type": "function"
		},
		{
			"inputs": [],
			"name": "referendumIndex",
			"outputs": [
				{
					"internalType": "uint256",
					"name": "",
					"type": "uint256"
				}
			],
			"stateMutability": "view",
			"type": "function"
		},
		{
			"inputs": [
				{
					"internalType": "uint256",
					"name": "",
					"type": "uint256"
				}
			],
			"name": "referendumIsActive",
			"outputs": [
				{
					"internalType": "enum tronGovernance.REFERENDUMSTATE",
					"name": "",
					"type": "uint8"
				}
			],
			"stateMutability": "view",
			"type": "function"
		},
		{
			"inputs": [],
			"name": "refrendumFee",
			"outputs": [
				{
					"internalType": "uint256",
					"name": "",
					"type": "uint256"
				}
			],
			"stateMutability": "view",
			"type": "function"
		},
		{
			"inputs": [
				{
					"internalType": "address",
					"name": "treasuryAddress",
					"type": "address"
				},
				{
					"internalType": "uint256",
					"name": "refIndex",
					"type": "uint256"
				},
				{
					"internalType": "uint256",
					"name": "score",
					"type": "uint256"
				}
			],
			"name": "scoreBeneficiary",
			"outputs": [],
			"stateMutability": "nonpayable",
			"type": "function"
		},
		{
			"inputs": [],
			"name": "treasurerBalanceThreshold",
			"outputs": [
				{
					"internalType": "uint256",
					"name": "",
					"type": "uint256"
				}
			],
			"stateMutability": "view",
			"type": "function"
		},
		{
			"inputs": [
				{
					"internalType": "address",
					"name": "",
					"type": "address"
				}
			],
			"name": "treasurerName",
			"outputs": [
				{
					"internalType": "string",
					"name": "",
					"type": "string"
				}
			],
			"stateMutability": "view",
			"type": "function"
		},
		{
			"inputs": [
				{
					"internalType": "uint256",
					"name": "",
					"type": "uint256"
				}
			],
			"name": "treasurers",
			"outputs": [
				{
					"internalType": "address",
					"name": "",
					"type": "address"
				}
			],
			"stateMutability": "view",
			"type": "function"
		},
		{
			"inputs": [
				{
					"internalType": "uint256",
					"name": "",
					"type": "uint256"
				}
			],
			"name": "treasurersNames",
			"outputs": [
				{
					"internalType": "string",
					"name": "",
					"type": "string"
				}
			],
			"stateMutability": "view",
			"type": "function"
		},
		{
			"inputs": [],
			"name": "unlockVoteTokens",
			"outputs": [],
			"stateMutability": "nonpayable",
			"type": "function"
		},
		{
			"inputs": [],
			"name": "updateActiveReferenda",
			"outputs": [],
			"stateMutability": "nonpayable",
			"type": "function"
		},
		{
			"inputs": [],
			"name": "updatePreparedReferenda",
			"outputs": [],
			"stateMutability": "nonpayable",
			"type": "function"
		},
		{
			"inputs": [],
			"name": "updateQueueActiveRefBlocks",
			"outputs": [],
			"stateMutability": "nonpayable",
			"type": "function"
		},
		{
			"inputs": [],
			"name": "updateQueuePreparRefBlocks",
			"outputs": [],
			"stateMutability": "nonpayable",
			"type": "function"
		},
		{
			"inputs": [
				{
					"internalType": "uint256",
					"name": "referendumID",
					"type": "uint256"
				},
				{
					"internalType": "bool",
					"name": "isAye",
					"type": "bool"
				},
				{
					"internalType": "uint256",
					"name": "conviction",
					"type": "uint256"
				}
			],
			"name": "voteReferendum",
			"outputs": [],
			"stateMutability": "payable",
			"type": "function"
		},
		{
			"inputs": [
				{
					"internalType": "address",
					"name": "",
					"type": "address"
				}
			],
			"name": "voterClaimableAmount",
			"outputs": [
				{
					"internalType": "uint256",
					"name": "",
					"type": "uint256"
				}
			],
			"stateMutability": "view",
			"type": "function"
		},
		{
			"inputs": [],
			"name": "withdrawVoteTokens",
			"outputs": [],
			"stateMutability": "nonpayable",
			"type": "function"
		}
	]
}