{
	"data": {
		"bytecode": {
			"linkReferences": {},
			"object": "60806040526305f5e100600055631dcd6500600155633b9aca006002556019600355603760045560416005556298968060065561044c60125534801561004457600080fd5b5033600760006101000a81548173ffffffffffffffffffffffffffffffffffffffff021916908373ffffffffffffffffffffffffffffffffffffffff160217905550600a6016600060018152602001908152602001600020819055506014601660006002815260200190815260200160002081905550601e60166000600381526020019081526020016000208190555060016017600080815260200190815260200160002081905550600260176000600181526020019081526020016000208190555060036017600060028152602001908152602001600020819055506004601760006003815260200190815260200160002081905550614df08061014a6000396000f3fe608060405260043610620002a25760003560e01c80638f32e1ac1162000163578063d5309ca311620000c7578063ec8ae6c71162000085578063ec8ae6c71462000a46578063ee37d5151462000a66578063ee588f3c1462000aaa578063f5eb49561462000ada578063f84a77001462000b0a578063f851a4401462000b4e57620002a2565b8063d5309ca3146200095a578063d7df24a0146200098a578063d855dd1314620009ce578063e1c2da871462000a12578063e4d728d41462000a2c57620002a2565b8063a65fee3d1162000121578063a65fee3d1462000809578063b6488637146200084d578063b856ca07146200089c578063cc0d50e614620008cc578063ccf22dff1462000910578063d2117795146200094057620002a2565b80638f32e1ac14620006c95780638f7a91b3146200070d578063a0581453146200073d578063a2e21e291462000781578063a58704cd14620007c557620002a2565b8063556f020a116200020b5780636af1c2b811620001c95780636af1c2b814620005d55780637cf773ee14620005ef57806382c6df45146200061f578063894ac2d9146200064f5780638cfd0dd6146200067f5780638e8e0cd7146200069957620002a2565b8063556f020a146200051f578063560aa844146200054f578063571ae01014620005695780635b7fdfad1462000575578063633b137014620005a557620002a2565b80632e83290111620002655780632e83290114620003d357806338ad5e4f14620004015780633f10e47614620004475780634b10f9f7146200048b578063534e4eb314620004cf578063547246e214620004ef57620002a2565b806302dbe43f14620002a75780630ec7335f14620002d75780631656e087146200031b5780631a54a0d2146200035f578063212d006a14620003a3575b600080fd5b348015620002b457600080fd5b50620002bf62000b7e565b604051620002ce919062002e50565b60405180910390f35b348015620002e457600080fd5b50620003036004803603810190620002fd919062002eb2565b62000b84565b60405162000312919062002e50565b60405180910390f35b3480156200032857600080fd5b5062000347600480360381019062000341919062002eb2565b62000ba9565b60405162000356919062002e50565b60405180910390f35b3480156200036c57600080fd5b506200038b600480360381019062000385919062002f49565b62000bce565b6040516200039a919062002e50565b60405180910390f35b348015620003b057600080fd5b50620003bb62000be6565b604051620003ca919062002e50565b60405180910390f35b348015620003e057600080fd5b50620003ff6004803603810190620003f9919062002f7b565b62000bec565b005b3480156200040e57600080fd5b506200042d600480360381019062000427919062002eb2565b62001069565b6040516200043e9392919062002fe8565b60405180910390f35b3480156200045457600080fd5b506200047360048036038101906200046d919062002f49565b620010c4565b60405162000482919062003042565b60405180910390f35b3480156200049857600080fd5b50620004b76004803603810190620004b1919062002eb2565b620010e4565b604051620004c69190620030df565b60405180910390f35b620004ed6004803603810190620004e791906200325e565b62001104565b005b348015620004fc57600080fd5b506200050762001722565b60405162000516919062002e50565b60405180910390f35b3480156200052c57600080fd5b506200053762001728565b604051620005469190620033e7565b60405180910390f35b3480156200055c57600080fd5b506200056762001782565b005b620005736200189b565b005b3480156200058257600080fd5b506200058d62001a77565b6040516200059c9190620033e7565b60405180910390f35b348015620005b257600080fd5b50620005bd62001ad1565b604051620005cc9190620033e7565b60405180910390f35b348015620005e257600080fd5b50620005ed62001b2b565b005b348015620005fc57600080fd5b506200060762001e26565b60405162000616919062002e50565b60405180910390f35b3480156200062c57600080fd5b506200063762001e2c565b60405162000646919062002e50565b60405180910390f35b3480156200065c57600080fd5b506200066762001e32565b604051620006769190620033e7565b60405180910390f35b3480156200068c57600080fd5b506200069762001e8c565b005b348015620006a657600080fd5b50620006b162002129565b604051620006c0919062002e50565b60405180910390f35b348015620006d657600080fd5b50620006f56004803603810190620006ef91906200340b565b6200212f565b60405162000704919062003042565b60405180910390f35b3480156200071a57600080fd5b5062000725620021f6565b60405162000734919062002e50565b60405180910390f35b3480156200074a57600080fd5b5062000769600480360381019062000763919062002eb2565b620021fc565b60405162000778919062002e50565b60405180910390f35b3480156200078e57600080fd5b50620007ad6004803603810190620007a7919062002eb2565b62002214565b604051620007bc919062003452565b60405180910390f35b348015620007d257600080fd5b50620007f16004803603810190620007eb919062002eb2565b62002254565b60405162000800919062002e50565b60405180910390f35b3480156200081657600080fd5b506200083560048036038101906200082f919062002eb2565b6200226c565b60405162000844919062002e50565b60405180910390f35b3480156200085a57600080fd5b5062000879600480360381019062000873919062002eb2565b62002291565b604051620008939c9b9a99989796959493929190620034f8565b60405180910390f35b348015620008a957600080fd5b50620008b4620023ce565b604051620008c39190620036e7565b60405180910390f35b348015620008d957600080fd5b50620008f86004803603810190620008f2919062002f49565b62002499565b60405162000907919062003042565b60405180910390f35b3480156200091d57600080fd5b5062000928620024b9565b604051620009379190620033e7565b60405180910390f35b3480156200094d57600080fd5b506200095862002513565b005b3480156200096757600080fd5b5062000972620026ef565b60405162000981919062002e50565b60405180910390f35b3480156200099757600080fd5b50620009b66004803603810190620009b0919062002eb2565b620026f5565b604051620009c5919062002e50565b60405180910390f35b348015620009db57600080fd5b50620009fa6004803603810190620009f4919062002eb2565b6200271a565b60405162000a09919062002e50565b60405180910390f35b34801562000a1f57600080fd5b5062000a2a6200273f565b005b34801562000a3957600080fd5b5062000a446200281e565b005b62000a64600480360381019062000a5e91906200373c565b62002937565b005b34801562000a7357600080fd5b5062000a92600480360381019062000a8c919062003798565b62002d24565b60405162000aa1919062003042565b60405180910390f35b34801562000ab757600080fd5b5062000ac262002d53565b60405162000ad1919062002e50565b60405180910390f35b34801562000ae757600080fd5b5062000af262002d59565b60405162000b0191906200389c565b60405180910390f35b34801562000b1757600080fd5b5062000b36600480360381019062000b30919062002f49565b62002de9565b60405162000b45919062002e50565b60405180910390f35b34801562000b5b57600080fd5b5062000b6662002e01565b60405162000b75919062003452565b60405180910390f35b60125481565b600d818154811062000b9557600080fd5b906000526020600020016000915090505481565b600a818154811062000bba57600080fd5b906000526020600020016000915090505481565b60116020528060005260406000206000915090505481565b60065481565b6000811015801562000bff575060648111155b62000c41576040517f08c379a000000000000000000000000000000000000000000000000000000000815260040162000c389062003910565b60405180910390fd5b60008390508073ffffffffffffffffffffffffffffffffffffffff1663f851a4406040518163ffffffff1660e01b8152600401602060405180830381865afa15801562000c92573d6000803e3d6000fd5b505050506040513d601f19601f8201168201806040525081019062000cb8919062003949565b73ffffffffffffffffffffffffffffffffffffffff163373ffffffffffffffffffffffffffffffffffffffff161462000d28576040517f08c379a000000000000000000000000000000000000000000000000000000000815260040162000d1f90620039f1565b60405180910390fd5b6000600f600085815260200190815260200160002060405180610180016040529081600082015481526020016001820160009054906101000a900473ffffffffffffffffffffffffffffffffffffffff1673ffffffffffffffffffffffffffffffffffffffff1673ffffffffffffffffffffffffffffffffffffffff1681526020016002820160009054906101000a900473ffffffffffffffffffffffffffffffffffffffff1673ffffffffffffffffffffffffffffffffffffffff1673ffffffffffffffffffffffffffffffffffffffff1681526020016003820154815260200160048201805462000e1b9062003a42565b80601f016020809104026020016040519081016040528092919081815260200182805462000e499062003a42565b801562000e9a5780601f1062000e6e5761010080835404028352916020019162000e9a565b820191906000526020600020905b81548152906001019060200180831162000e7c57829003601f168201915b505050505081526020016005820154815260200160068201548152602001600782015481526020016008820154815260200160098201548152602001600a8201548152602001600b820160009054906101000a900460ff16151515158152505090508473ffffffffffffffffffffffffffffffffffffffff16816040015173ffffffffffffffffffffffffffffffffffffffff161462000f71576040517f08c379a000000000000000000000000000000000000000000000000000000000815260040162000f689062003ac7565b60405180910390fd5b8060e00151431162000fba576040517f08c379a000000000000000000000000000000000000000000000000000000000815260040162000fb19062003b39565b60405180910390fd5b600081602001519050600284601160008473ffffffffffffffffffffffffffffffffffffffff1673ffffffffffffffffffffffffffffffffffffffff1681526020019081526020016000205462001012919062003b8a565b6200101e919062003bf4565b601160008373ffffffffffffffffffffffffffffffffffffffff1673ffffffffffffffffffffffffffffffffffffffff16815260200190815260200160002081905550505050505050565b601881815481106200107a57600080fd5b90600052602060002090600302016000915090508060000154908060010154908060020160009054906101000a900473ffffffffffffffffffffffffffffffffffffffff16905083565b60106020528060005260406000206000915054906101000a900460ff1681565b600e6020528060005260406000206000915054906101000a900460ff1681565b6006543410156200114c576040517f08c379a0000000000000000000000000000000000000000000000000000000008152600401620011439062003ca2565b60405180910390fd5b601060003373ffffffffffffffffffffffffffffffffffffffff1673ffffffffffffffffffffffffffffffffffffffff16815260200190815260200160002060009054906101000a900460ff166200123c576001601060003373ffffffffffffffffffffffffffffffffffffffff1673ffffffffffffffffffffffffffffffffffffffff16815260200190815260200160002060006101000a81548160ff0219169083151502179055506032601160003373ffffffffffffffffffffffffffffffffffffffff1673ffffffffffffffffffffffffffffffffffffffff168152602001908152602001600020819055505b6200124833866200212f565b6200128a576040517f08c379a0000000000000000000000000000000000000000000000000000000008152600401620012819062003d3a565b60405180910390fd5b601460008773ffffffffffffffffffffffffffffffffffffffff1673ffffffffffffffffffffffffffffffffffffffff16815260200190815260200160002060009054906101000a900460ff1662001319576040517f08c379a0000000000000000000000000000000000000000000000000000000008152600401620013109062003dd2565b60405180910390fd5b6012548562001329919062003b8a565b8673ffffffffffffffffffffffffffffffffffffffff1631101562001385576040517f08c379a00000000000000000000000000000000000000000000000000000000081526004016200137c9062003e6a565b60405180910390fd5b6014831115620013cc576040517f08c379a0000000000000000000000000000000000000000000000000000000008152600401620013c39062003f02565b60405180910390fd5b60148210158015620013e15750620313808211155b62001423576040517f08c379a00000000000000000000000000000000000000000000000000000000081526004016200141a9062003f74565b60405180910390fd5b6000834362001433919062003b8a565b9050600060405180610180016040528060085481526020013373ffffffffffffffffffffffffffffffffffffffff1681526020018973ffffffffffffffffffffffffffffffffffffffff1681526020018881526020018781526020018381526020018584620014a3919062003b8a565b8152602001848685620014b7919062003b8a565b620014c3919062003b8a565b81526020016000815260200160008152602001600081526020016000151581525090506009600854908060018154018082558091505060019003906000526020600020016000909190919091505580600f600060085481526020019081526020016000206000820151816000015560208201518160010160006101000a81548173ffffffffffffffffffffffffffffffffffffffff021916908373ffffffffffffffffffffffffffffffffffffffff16021790555060408201518160020160006101000a81548173ffffffffffffffffffffffffffffffffffffffff021916908373ffffffffffffffffffffffffffffffffffffffff160217905550606082015181600301556080820151816004019081620015e0919062004168565b5060a0820151816005015560c0820151816006015560e082015181600701556101008201518160080155610120820151816009015561014082015181600a015561016082015181600b0160006101000a81548160ff0219169083151502179055509050506000600e6000600854815260200190815260200160002060006101000a81548160ff0219169083600281111562001680576200167f6200305f565b5b0217905550600a8290806001815401808255809150506001900390600052602060002001600090919091909150557fedf728bb853655ade0c9bdb065c2e14d929b58e14a4a495c23bb9749c1c982c860085433898843620016e2919062003b8a565b8c604051620016f69594939291906200424f565b60405180910390a1600860008154809291906200171390620042ac565b91905055505050505050505050565b60055481565b606060098054806020026020016040519081016040528092919081815260200182805480156200177857602002820191906000526020600020905b81548152602001906001019080831162001763575b5050505050905090565b60005b600a8054905081101562001898576000600a8281548110620017ac57620017ab620042f9565b5b906000526020600020015490508043111562001880576001600a80549050620017d6919062004328565b8210156200183e57600a6001600a80549050620017f4919062004328565b81548110620018085762001807620042f9565b5b9060005260206000200154600a83815481106200182a5762001829620042f9565b5b90600052602060002001819055506200184f565b81806200184b90620042ac565b9250505b600a80548062001864576200186362004363565b5b6001900381819060005260206000200160009055905562001891565b81806200188d90620042ac565b9250505b5062001785565b50565b601254341015620018e3576040517f08c379a0000000000000000000000000000000000000000000000000000000008152600401620018da90620043e2565b60405180910390fd5b600033604051620018f49062002e27565b62001900919062003452565b604051809103906000f0801580156200191d573d6000803e3d6000fd5b50905060008190508073ffffffffffffffffffffffffffffffffffffffff166108fc6064346200194e919062004328565b9081150290604051600060405180830381858888f193505050501580156200197a573d6000803e3d6000fd5b506001601460008373ffffffffffffffffffffffffffffffffffffffff1673ffffffffffffffffffffffffffffffffffffffff16815260200190815260200160002060006101000a81548160ff0219169083151502179055506013819080600181540180825580915050600190039060005260206000200160009091909190916101000a81548173ffffffffffffffffffffffffffffffffffffffff021916908373ffffffffffffffffffffffffffffffffffffffff1602179055507fbbcc7c94f9d30976d4bbf1d2b4aab69df1668576635c1cafcdbed60de50b425233823460405162001a6b9392919062004404565b60405180910390a15050565b6060600c80548060200260200160405190810160405280929190818152602001828054801562001ac757602002820191906000526020600020905b81548152602001906001019080831162001ab2575b5050505050905090565b6060600b80548060200260200160405190810160405280929190818152602001828054801562001b2157602002820191906000526020600020905b81548152602001906001019080831162001b0c575b5050505050905090565b60005b600b8054905081101562001e23576000600b828154811062001b555762001b54620042f9565b5b90600052602060002001549050600f60008281526020019081526020016000206006015443111562001e0b576001600b8054905062001b95919062004328565b82101562001bfd57600b6001600b8054905062001bb3919062004328565b8154811062001bc75762001bc6620042f9565b5b9060005260206000200154600b838154811062001be95762001be8620042f9565b5b906000526020600020018190555062001c0e565b818062001c0a90620042ac565b9250505b600b80548062001c235762001c2262004363565b5b60019003818190600052602060002001600090559055600d8190806001815401808255809150506001900390600052602060002001600090919091909150556002600e600083815260200190815260200160002060006101000a81548160ff0219169083600281111562001c9c5762001c9b6200305f565b5b0217905550600f600082815260200190815260200160002060090154600f600083815260200190815260200160002060080154111562001e05576000600f600083815260200190815260200160002060020160009054906101000a900473ffffffffffffffffffffffffffffffffffffffff16905060008190508073ffffffffffffffffffffffffffffffffffffffff16639e0994a1600f600086815260200190815260200160002060010160009054906101000a900473ffffffffffffffffffffffffffffffffffffffff16600f6000878152602001908152602001600020600301546040518363ffffffff1660e01b815260040162001d9f92919062004441565b600060405180830381600087803b15801562001dba57600080fd5b505af115801562001dcf573d6000803e3d6000fd5b505050506001600f6000858152602001908152602001600020600b0160006101000a81548160ff02191690831515021790555050505b62001e1c565b818062001e1890620042ac565b9250505b5062001b2e565b50565b60025481565b60005481565b6060600a80548060200260200160405190810160405280929190818152602001828054801562001e8257602002820191906000526020600020905b81548152602001906001019080831162001e6d575b5050505050905090565b60005b60188054905081101562002126576018818154811062001eb45762001eb3620042f9565b5b9060005260206000209060030201600001544311156200210f576018818154811062001ee55762001ee4620042f9565b5b906000526020600020906003020160010154601960006018848154811062001f125762001f11620042f9565b5b906000526020600020906003020160020160009054906101000a900473ffffffffffffffffffffffffffffffffffffffff1673ffffffffffffffffffffffffffffffffffffffff1673ffffffffffffffffffffffffffffffffffffffff168152602001908152602001600020600082825462001f8f919062003b8a565b92505081905550600160188054905062001faa919062004328565b81101562002093576018600160188054905062001fc8919062004328565b8154811062001fdc5762001fdb620042f9565b5b906000526020600020906003020160188281548110620020015762002000620042f9565b5b906000526020600020906003020160008201548160000155600182015481600101556002820160009054906101000a900473ffffffffffffffffffffffffffffffffffffffff168160020160006101000a81548173ffffffffffffffffffffffffffffffffffffffff021916908373ffffffffffffffffffffffffffffffffffffffff160217905550905050620020a4565b8080620020a090620042ac565b9150505b6018805480620020b957620020b862004363565b5b600190038181906000526020600020906003020160008082016000905560018201600090556002820160006101000a81549073ffffffffffffffffffffffffffffffffffffffff02191690555050905562002120565b80806200211c90620042ac565b9150505b62001e8f565b50565b60045481565b6000806000601160008673ffffffffffffffffffffffffffffffffffffffff1673ffffffffffffffffffffffffffffffffffffffff16815260200190815260200160002054905060025484106200219e576005548110156200219357600062002196565b60015b9150620021eb565b6001548410620021c657600454811015620021bb576000620021be565b60015b9150620021ea565b6000548410620021e957600354811015620021e3576000620021e6565b60015b91505b5b5b819250505092915050565b60015481565b60176020528060005260406000206000915090505481565b601381815481106200222557600080fd5b906000526020600020016000915054906101000a900473ffffffffffffffffffffffffffffffffffffffff1681565b60166020528060005260406000206000915090505481565b600c81815481106200227d57600080fd5b906000526020600020016000915090505481565b600f6020528060005260406000206000915090508060000154908060010160009054906101000a900473ffffffffffffffffffffffffffffffffffffffff16908060020160009054906101000a900473ffffffffffffffffffffffffffffffffffffffff16908060030154908060040180546200230e9062003a42565b80601f01602080910402602001604051908101604052809291908181526020018280546200233c9062003a42565b80156200238d5780601f1062002361576101008083540402835291602001916200238d565b820191906000526020600020905b8154815290600101906020018083116200236f57829003601f168201915b50505050509080600501549080600601549080600701549080600801549080600901549080600a01549080600b0160009054906101000a900460ff1690508c565b60606018805480602002602001604051908101604052809291908181526020016000905b8282101562002490578382906000526020600020906003020160405180606001604052908160008201548152602001600182015481526020016002820160009054906101000a900473ffffffffffffffffffffffffffffffffffffffff1673ffffffffffffffffffffffffffffffffffffffff1673ffffffffffffffffffffffffffffffffffffffff168152505081526020019060010190620023f2565b50505050905090565b60146020528060005260406000206000915054906101000a900460ff1681565b6060600d8054806020026020016040519081016040528092919081815260200182805480156200250957602002820191906000526020600020905b815481526020019060010190808311620024f4575b5050505050905090565b60005b600980549050811015620026ec576000600982815481106200253d576200253c620042f9565b5b90600052602060002001549050600f600082815260200190815260200160002060050154431115620026d45760016009805490506200257d919062004328565b821015620025e557600960016009805490506200259b919062004328565b81548110620025af57620025ae620042f9565b5b906000526020600020015460098381548110620025d157620025d0620042f9565b5b9060005260206000200181905550620025f6565b8180620025f290620042ac565b9250505b60098054806200260b576200260a62004363565b5b60019003818190600052602060002001600090559055600b8190806001815401808255809150506001900390600052602060002001600090919091909150556001600e600083815260200190815260200160002060006101000a81548160ff021916908360028111156200268457620026836200305f565b5b02179055506000600f6000838152602001908152602001600020600601549050600c81908060018154018082558091505060019003906000526020600020016000909190919091505550620026e5565b8180620026e190620042ac565b9250505b5062002516565b50565b60085481565b600981815481106200270657600080fd5b906000526020600020016000915090505481565b600b81815481106200272b57600080fd5b906000526020600020016000915090505481565b6000601960003373ffffffffffffffffffffffffffffffffffffffff1673ffffffffffffffffffffffffffffffffffffffff16815260200190815260200160002054905060008111156200281b576000601960003373ffffffffffffffffffffffffffffffffffffffff1673ffffffffffffffffffffffffffffffffffffffff168152602001908152602001600020819055503373ffffffffffffffffffffffffffffffffffffffff166108fc829081150290604051600060405180830381858888f1935050505015801562002819573d6000803e3d6000fd5b505b50565b60005b600c8054905081101562002934576000600c8281548110620028485762002847620042f9565b5b90600052602060002001549050804311156200291c576001600c8054905062002872919062004328565b821015620028da57600c6001600c8054905062002890919062004328565b81548110620028a457620028a3620042f9565b5b9060005260206000200154600c8381548110620028c657620028c5620042f9565b5b9060005260206000200181905550620028eb565b8180620028e790620042ac565b9250505b600c8054806200290057620028ff62004363565b5b600190038181906000526020600020016000905590556200292d565b81806200292990620042ac565b9250505b5062002821565b50565b600160028111156200294e576200294d6200305f565b5b600e600085815260200190815260200160002060009054906101000a900460ff1660028111156200298457620029836200305f565b5b14620029c7576040517f08c379a0000000000000000000000000000000000000000000000000000000008152600401620029be90620044be565b60405180910390fd5b6015600084815260200190815260200160002060003373ffffffffffffffffffffffffffffffffffffffff1673ffffffffffffffffffffffffffffffffffffffff16815260200190815260200160002060009054906101000a900460ff161562002a68576040517f08c379a000000000000000000000000000000000000000000000000000000000815260040162002a5f9062004556565b60405180910390fd5b6000811015801562002a7a5750600481105b62002abc576040517f08c379a000000000000000000000000000000000000000000000000000000000815260040162002ab390620045c8565b60405180910390fd5b600060176000838152602001908152602001600020543462002adf9190620045ea565b9050821562002b1d5780600f6000868152602001908152602001600020600801600082825462002b10919062003b8a565b9250508190555062002b4d565b80600f6000868152602001908152602001600020600901600082825462002b45919062003b8a565b925050819055505b60016015600086815260200190815260200160002060003373ffffffffffffffffffffffffffffffffffffffff1673ffffffffffffffffffffffffffffffffffffffff16815260200190815260200160002060006101000a81548160ff0219169083151502179055506001600f6000868152602001908152602001600020600a01600082825462002bdf919062003b8a565b92505081905550600060405180606001604052806016600086815260200190815260200160002054600f60008981526020019081526020016000206006015462002c2a919062003b8a565b81526020013481526020013373ffffffffffffffffffffffffffffffffffffffff1681525090506018819080600181540180825580915050600190039060005260206000209060030201600090919091909150600082015181600001556020820151816001015560408201518160020160006101000a81548173ffffffffffffffffffffffffffffffffffffffff021916908373ffffffffffffffffffffffffffffffffffffffff16021790555050507f7471237a4e1cc8f43c5cbf54b29859c965be218917f4e37e236c6d970de4003a85333485888860405162002d159695949392919062004635565b60405180910390a15050505050565b60156020528160005260406000206020528060005260406000206000915091509054906101000a900460ff1681565b60035481565b6060601380548060200260200160405190810160405280929190818152602001828054801562002ddf57602002820191906000526020600020905b8160009054906101000a900473ffffffffffffffffffffffffffffffffffffffff1673ffffffffffffffffffffffffffffffffffffffff168152602001906001019080831162002d94575b5050505050905090565b60196020528060005260406000206000915090505481565b600760009054906101000a900473ffffffffffffffffffffffffffffffffffffffff1681565b61071880620046a383390190565b6000819050919050565b62002e4a8162002e35565b82525050565b600060208201905062002e67600083018462002e3f565b92915050565b6000604051905090565b600080fd5b600080fd5b62002e8c8162002e35565b811462002e9857600080fd5b50565b60008135905062002eac8162002e81565b92915050565b60006020828403121562002ecb5762002eca62002e77565b5b600062002edb8482850162002e9b565b91505092915050565b600073ffffffffffffffffffffffffffffffffffffffff82169050919050565b600062002f118262002ee4565b9050919050565b62002f238162002f04565b811462002f2f57600080fd5b50565b60008135905062002f438162002f18565b92915050565b60006020828403121562002f625762002f6162002e77565b5b600062002f728482850162002f32565b91505092915050565b60008060006060848603121562002f975762002f9662002e77565b5b600062002fa78682870162002f32565b935050602062002fba8682870162002e9b565b925050604062002fcd8682870162002e9b565b9150509250925092565b62002fe28162002f04565b82525050565b600060608201905062002fff600083018662002e3f565b6200300e602083018562002e3f565b6200301d604083018462002fd7565b949350505050565b60008115159050919050565b6200303c8162003025565b82525050565b600060208201905062003059600083018462003031565b92915050565b7f4e487b7100000000000000000000000000000000000000000000000000000000600052602160045260246000fd5b60038110620030a257620030a16200305f565b5b50565b6000819050620030b5826200308e565b919050565b6000620030c782620030a5565b9050919050565b620030d981620030ba565b82525050565b6000602082019050620030f66000830184620030ce565b92915050565b600080fd5b600080fd5b6000601f19601f8301169050919050565b7f4e487b7100000000000000000000000000000000000000000000000000000000600052604160045260246000fd5b620031518262003106565b810181811067ffffffffffffffff8211171562003173576200317262003117565b5b80604052505050565b60006200318862002e6d565b905062003196828262003146565b919050565b600067ffffffffffffffff821115620031b957620031b862003117565b5b620031c48262003106565b9050602081019050919050565b82818337600083830152505050565b6000620031f7620031f1846200319b565b6200317c565b90508281526020810184848401111562003216576200321562003101565b5b62003223848285620031d1565b509392505050565b600082601f830112620032435762003242620030fc565b5b813562003255848260208601620031e0565b91505092915050565b60008060008060008060c087890312156200327e576200327d62002e77565b5b60006200328e89828a0162002f32565b9650506020620032a189828a0162002e9b565b955050604087013567ffffffffffffffff811115620032c557620032c462002e7c565b5b620032d389828a016200322b565b9450506060620032e689828a0162002e9b565b9350506080620032f989828a0162002e9b565b92505060a06200330c89828a0162002e9b565b9150509295509295509295565b600081519050919050565b600082825260208201905092915050565b6000819050602082019050919050565b620033508162002e35565b82525050565b600062003364838362003345565b60208301905092915050565b6000602082019050919050565b60006200338a8262003319565b62003396818562003324565b9350620033a38362003335565b8060005b83811015620033da578151620033be888262003356565b9750620033cb8362003370565b925050600181019050620033a7565b5085935050505092915050565b600060208201905081810360008301526200340381846200337d565b905092915050565b6000806040838503121562003425576200342462002e77565b5b6000620034358582860162002f32565b9250506020620034488582860162002e9b565b9150509250929050565b600060208201905062003469600083018462002fd7565b92915050565b600081519050919050565b600082825260208201905092915050565b60005b83811015620034ab5780820151818401526020810190506200348e565b60008484015250505050565b6000620034c4826200346f565b620034d081856200347a565b9350620034e28185602086016200348b565b620034ed8162003106565b840191505092915050565b60006101808201905062003510600083018f62002e3f565b6200351f602083018e62002fd7565b6200352e604083018d62002fd7565b6200353d606083018c62002e3f565b818103608083015262003551818b620034b7565b90506200356260a083018a62002e3f565b6200357160c083018962002e3f565b6200358060e083018862002e3f565b6200359061010083018762002e3f565b620035a061012083018662002e3f565b620035b061014083018562002e3f565b620035c061016083018462003031565b9d9c50505050505050505050505050565b600081519050919050565b600082825260208201905092915050565b6000819050602082019050919050565b620036088162002f04565b82525050565b60608201600082015162003626600085018262003345565b5060208201516200363b602085018262003345565b506040820151620036506040850182620035fd565b50505050565b60006200366483836200360e565b60608301905092915050565b6000602082019050919050565b60006200368a82620035d1565b620036968185620035dc565b9350620036a383620035ed565b8060005b83811015620036da578151620036be888262003656565b9750620036cb8362003670565b925050600181019050620036a7565b5085935050505092915050565b600060208201905081810360008301526200370381846200367d565b905092915050565b620037168162003025565b81146200372257600080fd5b50565b60008135905062003736816200370b565b92915050565b60008060006060848603121562003758576200375762002e77565b5b6000620037688682870162002e9b565b93505060206200377b8682870162003725565b92505060406200378e8682870162002e9b565b9150509250925092565b60008060408385031215620037b257620037b162002e77565b5b6000620037c28582860162002e9b565b9250506020620037d58582860162002f32565b9150509250929050565b600081519050919050565b600082825260208201905092915050565b6000819050602082019050919050565b6000620038198383620035fd565b60208301905092915050565b6000602082019050919050565b60006200383f82620037df565b6200384b8185620037ea565b93506200385883620037fb565b8060005b838110156200388f5781516200387388826200380b565b9750620038808362003825565b9250506001810190506200385c565b5085935050505092915050565b60006020820190508181036000830152620038b8818462003832565b905092915050565b7f73636f72652072616e6765206973203020746f20313030000000000000000000600082015250565b6000620038f86017836200347a565b91506200390582620038c0565b602082019050919050565b600060208201905081810360008301526200392b81620038e9565b9050919050565b600081519050620039438162002f18565b92915050565b60006020828403121562003962576200396162002e77565b5b6000620039728482850162003932565b91505092915050565b7f6d7573742062652061646d696e206f662074686520747265617375727920746f60008201527f2073636f72650000000000000000000000000000000000000000000000000000602082015250565b6000620039d96026836200347a565b9150620039e6826200397b565b604082019050919050565b6000602082019050818103600083015262003a0c81620039ca565b9050919050565b7f4e487b7100000000000000000000000000000000000000000000000000000000600052602260045260246000fd5b6000600282049050600182168062003a5b57607f821691505b60208210810362003a715762003a7062003a13565b5b50919050565b7f6e6f7420747265617375726572206f66207265666572656e64756d496e646578600082015250565b600062003aaf6020836200347a565b915062003abc8262003a77565b602082019050919050565b6000602082019050818103600083015262003ae28162003aa0565b9050919050565b7f73636f72696e67206e6f7420616c6c6f77656420796574000000000000000000600082015250565b600062003b216017836200347a565b915062003b2e8262003ae9565b602082019050919050565b6000602082019050818103600083015262003b548162003b12565b9050919050565b7f4e487b7100000000000000000000000000000000000000000000000000000000600052601160045260246000fd5b600062003b978262002e35565b915062003ba48362002e35565b925082820190508082111562003bbf5762003bbe62003b5b565b5b92915050565b7f4e487b7100000000000000000000000000000000000000000000000000000000600052601260045260246000fd5b600062003c018262002e35565b915062003c0e8362002e35565b92508262003c215762003c2062003bc5565b5b828204905092915050565b7f6e65656420746f20706179206174206c656173742072656672656e64756d466560008201527f6520746f206372656174652061206e6577207265666572656e64756d00000000602082015250565b600062003c8a603c836200347a565b915062003c978262003c2c565b604082019050919050565b6000602082019050818103600083015262003cbd8162003c7b565b9050919050565b7f62656e65666963696172792073636f726520746f6f206c6f7720666f7220746860008201527f697320616d6f756e740000000000000000000000000000000000000000000000602082015250565b600062003d226029836200347a565b915062003d2f8262003cc4565b604082019050919050565b6000602082019050818103600083015262003d558162003d13565b9050919050565b7f7472656173757279206164647265737320706173736564206973206e6f74206160008201527f2074726561737572657200000000000000000000000000000000000000000000602082015250565b600062003dba602a836200347a565b915062003dc78262003d5c565b604082019050919050565b6000602082019050818103600083015262003ded8162003dab565b9050919050565b7f74726561737572657220646f6573206e6f74206861766520656e6f756768206660008201527f756e647300000000000000000000000000000000000000000000000000000000602082015250565b600062003e526024836200347a565b915062003e5f8262003df4565b604082019050919050565b6000602082019050818103600083015262003e858162003e43565b9050919050565b7f7374617274496e4e756d426c6f636b73206d757374206265206c65737320746860008201527f616e203230000000000000000000000000000000000000000000000000000000602082015250565b600062003eea6025836200347a565b915062003ef78262003e8c565b604082019050919050565b6000602082019050818103600083015262003f1d8162003edb565b9050919050565b7f6475726174696f6e206d757374206265203c3d323031363030206e203e3d3230600082015250565b600062003f5c6020836200347a565b915062003f698262003f24565b602082019050919050565b6000602082019050818103600083015262003f8f8162003f4d565b9050919050565b60008190508160005260206000209050919050565b60006020601f8301049050919050565b600082821b905092915050565b60006008830262003ffa7fffffffffffffffffffffffffffffffffffffffffffffffffffffffffffffffff8262003fbb565b62004006868362003fbb565b95508019841693508086168417925050509392505050565b6000819050919050565b600062004049620040436200403d8462002e35565b6200401e565b62002e35565b9050919050565b6000819050919050565b620040658362004028565b6200407d620040748262004050565b84845462003fc8565b825550505050565b600090565b6200409462004085565b620040a18184846200405a565b505050565b5b81811015620040c957620040bd6000826200408a565b600181019050620040a7565b5050565b601f8211156200411857620040e28162003f96565b620040ed8462003fab565b81016020851015620040fd578190505b620041156200410c8562003fab565b830182620040a6565b50505b505050565b600082821c905092915050565b60006200413d600019846008026200411d565b1980831691505092915050565b60006200415883836200412a565b9150826002028217905092915050565b62004173826200346f565b67ffffffffffffffff8111156200418f576200418e62003117565b5b6200419b825462003a42565b620041a8828285620040cd565b600060209050601f831160018114620041e05760008415620041cb578287015190505b620041d785826200414a565b86555062004247565b601f198416620041f08662003f96565b60005b828110156200421a57848901518255600182019150602085019450602081019050620041f3565b868310156200423a578489015162004236601f8916826200412a565b8355505b6001600288020188555050505b505050505050565b600060a08201905062004266600083018862002e3f565b62004275602083018762002fd7565b62004284604083018662002e3f565b62004293606083018562002e3f565b620042a2608083018462002fd7565b9695505050505050565b6000620042b98262002e35565b91507fffffffffffffffffffffffffffffffffffffffffffffffffffffffffffffffff8203620042ee57620042ed62003b5b565b5b600182019050919050565b7f4e487b7100000000000000000000000000000000000000000000000000000000600052603260045260246000fd5b6000620043358262002e35565b9150620043428362002e35565b92508282039050818111156200435d576200435c62003b5b565b5b92915050565b7f4e487b7100000000000000000000000000000000000000000000000000000000600052603160045260246000fd5b7f6c61756e6368696e672074726561737572792072657175697265732054525800600082015250565b6000620043ca601f836200347a565b9150620043d78262004392565b602082019050919050565b60006020820190508181036000830152620043fd81620043bb565b9050919050565b60006060820190506200441b600083018662002fd7565b6200442a602083018562002fd7565b62004439604083018462002e3f565b949350505050565b600060408201905062004458600083018562002fd7565b62004467602083018462002e3f565b9392505050565b7f726566657265646e756d206973206e6f74206163746976650000000000000000600082015250565b6000620044a66018836200347a565b9150620044b3826200446e565b602082019050919050565b60006020820190508181036000830152620044d98162004497565b9050919050565b7f6164647265737320616c726561647920766f74656420666f722074686973207260008201527f65666572656e64756d0000000000000000000000000000000000000000000000602082015250565b60006200453e6029836200347a565b91506200454b82620044e0565b604082019050919050565b6000602082019050818103600083015262004571816200452f565b9050919050565b7f636f6e76696374696f6e206f7574206f662072616e6765000000000000000000600082015250565b6000620045b06017836200347a565b9150620045bd8262004578565b602082019050919050565b60006020820190508181036000830152620045e381620045a1565b9050919050565b6000620045f78262002e35565b9150620046048362002e35565b9250828202620046148162002e35565b915082820484148315176200462e576200462d62003b5b565b5b5092915050565b600060c0820190506200464c600083018962002e3f565b6200465b602083018862002fd7565b6200466a604083018762002e3f565b62004679606083018662002e3f565b62004688608083018562003031565b6200469760a083018462002e3f565b97965050505050505056fe608060405234801561001057600080fd5b506040516107183803806107188339818101604052810190610032919061011c565b806000806101000a81548173ffffffffffffffffffffffffffffffffffffffff021916908373ffffffffffffffffffffffffffffffffffffffff16021790555033600160006101000a81548173ffffffffffffffffffffffffffffffffffffffff021916908373ffffffffffffffffffffffffffffffffffffffff16021790555050610149565b600080fd5b600073ffffffffffffffffffffffffffffffffffffffff82169050919050565b60006100e9826100be565b9050919050565b6100f9816100de565b811461010457600080fd5b50565b600081519050610116816100f0565b92915050565b600060208284031215610132576101316100b9565b5b600061014084828501610107565b91505092915050565b6105c0806101586000396000f3fe60806040526004361061004e5760003560e01c80639e0994a114610093578063a1b8693f146100af578063b32c9356146100da578063c1e1eb2714610105578063f851a4401461011c5761008e565b3661008e577f88a5966d370b9919b20f3e2c13ff65706f196a4e32cc2c12bf57088f8852587433346040516100849291906103a5565b60405180910390a1005b600080fd5b6100ad60048036038101906100a8919061042b565b610147565b005b3480156100bb57600080fd5b506100c4610222565b6040516100d1919061046b565b60405180910390f35b3480156100e657600080fd5b506100ef610248565b6040516100fc9190610486565b60405180910390f35b34801561011157600080fd5b5061011a610250565b005b34801561012857600080fd5b50610131610327565b60405161013e919061046b565b60405180910390f35b600160009054906101000a900473ffffffffffffffffffffffffffffffffffffffff1673ffffffffffffffffffffffffffffffffffffffff163373ffffffffffffffffffffffffffffffffffffffff16146101d7576040517f08c379a00000000000000000000000000000000000000000000000000000000081526004016101ce906104fe565b60405180910390fd5b8173ffffffffffffffffffffffffffffffffffffffff166108fc829081150290604051600060405180830381858888f1935050505015801561021d573d6000803e3d6000fd5b505050565b600160009054906101000a900473ffffffffffffffffffffffffffffffffffffffff1681565b600047905090565b60008054906101000a900473ffffffffffffffffffffffffffffffffffffffff1673ffffffffffffffffffffffffffffffffffffffff163373ffffffffffffffffffffffffffffffffffffffff16146102de576040517f08c379a00000000000000000000000000000000000000000000000000000000081526004016102d59061056a565b60405180910390fd5b3373ffffffffffffffffffffffffffffffffffffffff166108fc479081150290604051600060405180830381858888f19350505050158015610324573d6000803e3d6000fd5b50565b60008054906101000a900473ffffffffffffffffffffffffffffffffffffffff1681565b600073ffffffffffffffffffffffffffffffffffffffff82169050919050565b60006103768261034b565b9050919050565b6103868161036b565b82525050565b6000819050919050565b61039f8161038c565b82525050565b60006040820190506103ba600083018561037d565b6103c76020830184610396565b9392505050565b600080fd5b6103dc8161036b565b81146103e757600080fd5b50565b6000813590506103f9816103d3565b92915050565b6104088161038c565b811461041357600080fd5b50565b600081359050610425816103ff565b92915050565b60008060408385031215610442576104416103ce565b5b6000610450858286016103ea565b925050602061046185828601610416565b9150509250929050565b6000602082019050610480600083018461037d565b92915050565b600060208201905061049b6000830184610396565b92915050565b600082825260208201905092915050565b7f616374696f6e206f6e6c7920666f7220676f7641646d696e0000000000000000600082015250565b60006104e86018836104a1565b91506104f3826104b2565b602082019050919050565b60006020820190508181036000830152610517816104db565b9050919050565b7f616374696f6e206f6e6c7920666f722061646d696e0000000000000000000000600082015250565b60006105546015836104a1565b915061055f8261051e565b602082019050919050565b6000602082019050818103600083015261058381610547565b905091905056fea2646970667358221220d8212298126851daa5ef5f3ab70c9d3b26d2476a1bcc4f493ef0fbf108c4a05c64736f6c63430008110033a264697066735822122098dc64e61d7594643024bfde453ea6fec68b6c16b416326f01f0917bace78a8164736f6c63430008110033",
			"opcodes": "PUSH1 0x80 PUSH1 0x40 MSTORE PUSH4 0x5F5E100 PUSH1 0x0 SSTORE PUSH4 0x1DCD6500 PUSH1 0x1 SSTORE PUSH4 0x3B9ACA00 PUSH1 0x2 SSTORE PUSH1 0x19 PUSH1 0x3 SSTORE PUSH1 0x37 PUSH1 0x4 SSTORE PUSH1 0x41 PUSH1 0x5 SSTORE PUSH3 0x989680 PUSH1 0x6 SSTORE PUSH2 0x44C PUSH1 0x12 SSTORE CALLVALUE DUP1 ISZERO PUSH2 0x44 JUMPI PUSH1 0x0 DUP1 REVERT JUMPDEST POP CALLER PUSH1 0x7 PUSH1 0x0 PUSH2 0x100 EXP DUP2 SLOAD DUP2 PUSH20 0xFFFFFFFFFFFFFFFFFFFFFFFFFFFFFFFFFFFFFFFF MUL NOT AND SWAP1 DUP4 PUSH20 0xFFFFFFFFFFFFFFFFFFFFFFFFFFFFFFFFFFFFFFFF AND MUL OR SWAP1 SSTORE POP PUSH1 0xA PUSH1 0x16 PUSH1 0x0 PUSH1 0x1 DUP2 MSTORE PUSH1 0x20 ADD SWAP1 DUP2 MSTORE PUSH1 0x20 ADD PUSH1 0x0 KECCAK256 DUP2 SWAP1 SSTORE POP PUSH1 0x14 PUSH1 0x16 PUSH1 0x0 PUSH1 0x2 DUP2 MSTORE PUSH1 0x20 ADD SWAP1 DUP2 MSTORE PUSH1 0x20 ADD PUSH1 0x0 KECCAK256 DUP2 SWAP1 SSTORE POP PUSH1 0x1E PUSH1 0x16 PUSH1 0x0 PUSH1 0x3 DUP2 MSTORE PUSH1 0x20 ADD SWAP1 DUP2 MSTORE PUSH1 0x20 ADD PUSH1 0x0 KECCAK256 DUP2 SWAP1 SSTORE POP PUSH1 0x1 PUSH1 0x17 PUSH1 0x0 DUP1 DUP2 MSTORE PUSH1 0x20 ADD SWAP1 DUP2 MSTORE PUSH1 0x20 ADD PUSH1 0x0 KECCAK256 DUP2 SWAP1 SSTORE POP PUSH1 0x2 PUSH1 0x17 PUSH1 0x0 PUSH1 0x1 DUP2 MSTORE PUSH1 0x20 ADD SWAP1 DUP2 MSTORE PUSH1 0x20 ADD PUSH1 0x0 KECCAK256 DUP2 SWAP1 SSTORE POP PUSH1 0x3 PUSH1 0x17 PUSH1 0x0 PUSH1 0x2 DUP2 MSTORE PUSH1 0x20 ADD SWAP1 DUP2 MSTORE PUSH1 0x20 ADD PUSH1 0x0 KECCAK256 DUP2 SWAP1 SSTORE POP PUSH1 0x4 PUSH1 0x17 PUSH1 0x0 PUSH1 0x3 DUP2 MSTORE PUSH1 0x20 ADD SWAP1 DUP2 MSTORE PUSH1 0x20 ADD PUSH1 0x0 KECCAK256 DUP2 SWAP1 SSTORE POP PUSH2 0x4DF0 DUP1 PUSH2 0x14A PUSH1 0x0 CODECOPY PUSH1 0x0 RETURN INVALID PUSH1 0x80 PUSH1 0x40 MSTORE PUSH1 0x4 CALLDATASIZE LT PUSH3 0x2A2 JUMPI PUSH1 0x0 CALLDATALOAD PUSH1 0xE0 SHR DUP1 PUSH4 0x8F32E1AC GT PUSH3 0x163 JUMPI DUP1 PUSH4 0xD5309CA3 GT PUSH3 0xC7 JUMPI DUP1 PUSH4 0xEC8AE6C7 GT PUSH3 0x85 JUMPI DUP1 PUSH4 0xEC8AE6C7 EQ PUSH3 0xA46 JUMPI DUP1 PUSH4 0xEE37D515 EQ PUSH3 0xA66 JUMPI DUP1 PUSH4 0xEE588F3C EQ PUSH3 0xAAA JUMPI DUP1 PUSH4 0xF5EB4956 EQ PUSH3 0xADA JUMPI DUP1 PUSH4 0xF84A7700 EQ PUSH3 0xB0A JUMPI DUP1 PUSH4 0xF851A440 EQ PUSH3 0xB4E JUMPI PUSH3 0x2A2 JUMP JUMPDEST DUP1 PUSH4 0xD5309CA3 EQ PUSH3 0x95A JUMPI DUP1 PUSH4 0xD7DF24A0 EQ PUSH3 0x98A JUMPI DUP1 PUSH4 0xD855DD13 EQ PUSH3 0x9CE JUMPI DUP1 PUSH4 0xE1C2DA87 EQ PUSH3 0xA12 JUMPI DUP1 PUSH4 0xE4D728D4 EQ PUSH3 0xA2C JUMPI PUSH3 0x2A2 JUMP JUMPDEST DUP1 PUSH4 0xA65FEE3D GT PUSH3 0x121 JUMPI DUP1 PUSH4 0xA65FEE3D EQ PUSH3 0x809 JUMPI DUP1 PUSH4 0xB6488637 EQ PUSH3 0x84D JUMPI DUP1 PUSH4 0xB856CA07 EQ PUSH3 0x89C JUMPI DUP1 PUSH4 0xCC0D50E6 EQ PUSH3 0x8CC JUMPI DUP1 PUSH4 0xCCF22DFF EQ PUSH3 0x910 JUMPI DUP1 PUSH4 0xD2117795 EQ PUSH3 0x940 JUMPI PUSH3 0x2A2 JUMP JUMPDEST DUP1 PUSH4 0x8F32E1AC EQ PUSH3 0x6C9 JUMPI DUP1 PUSH4 0x8F7A91B3 EQ PUSH3 0x70D JUMPI DUP1 PUSH4 0xA0581453 EQ PUSH3 0x73D JUMPI DUP1 PUSH4 0xA2E21E29 EQ PUSH3 0x781 JUMPI DUP1 PUSH4 0xA58704CD EQ PUSH3 0x7C5 JUMPI PUSH3 0x2A2 JUMP JUMPDEST DUP1 PUSH4 0x556F020A GT PUSH3 0x20B JUMPI DUP1 PUSH4 0x6AF1C2B8 GT PUSH3 0x1C9 JUMPI DUP1 PUSH4 0x6AF1C2B8 EQ PUSH3 0x5D5 JUMPI DUP1 PUSH4 0x7CF773EE EQ PUSH3 0x5EF JUMPI DUP1 PUSH4 0x82C6DF45 EQ PUSH3 0x61F JUMPI DUP1 PUSH4 0x894AC2D9 EQ PUSH3 0x64F JUMPI DUP1 PUSH4 0x8CFD0DD6 EQ PUSH3 0x67F JUMPI DUP1 PUSH4 0x8E8E0CD7 EQ PUSH3 0x699 JUMPI PUSH3 0x2A2 JUMP JUMPDEST DUP1 PUSH4 0x556F020A EQ PUSH3 0x51F JUMPI DUP1 PUSH4 0x560AA844 EQ PUSH3 0x54F JUMPI DUP1 PUSH4 0x571AE010 EQ PUSH3 0x569 JUMPI DUP1 PUSH4 0x5B7FDFAD EQ PUSH3 0x575 JUMPI DUP1 PUSH4 0x633B1370 EQ PUSH3 0x5A5 JUMPI PUSH3 0x2A2 JUMP JUMPDEST DUP1 PUSH4 0x2E832901 GT PUSH3 0x265 JUMPI DUP1 PUSH4 0x2E832901 EQ PUSH3 0x3D3 JUMPI DUP1 PUSH4 0x38AD5E4F EQ PUSH3 0x401 JUMPI DUP1 PUSH4 0x3F10E476 EQ PUSH3 0x447 JUMPI DUP1 PUSH4 0x4B10F9F7 EQ PUSH3 0x48B JUMPI DUP1 PUSH4 0x534E4EB3 EQ PUSH3 0x4CF JUMPI DUP1 PUSH4 0x547246E2 EQ PUSH3 0x4EF JUMPI PUSH3 0x2A2 JUMP JUMPDEST DUP1 PUSH4 0x2DBE43F EQ PUSH3 0x2A7 JUMPI DUP1 PUSH4 0xEC7335F EQ PUSH3 0x2D7 JUMPI DUP1 PUSH4 0x1656E087 EQ PUSH3 0x31B JUMPI DUP1 PUSH4 0x1A54A0D2 EQ PUSH3 0x35F JUMPI DUP1 PUSH4 0x212D006A EQ PUSH3 0x3A3 JUMPI JUMPDEST PUSH1 0x0 DUP1 REVERT JUMPDEST CALLVALUE DUP1 ISZERO PUSH3 0x2B4 JUMPI PUSH1 0x0 DUP1 REVERT JUMPDEST POP PUSH3 0x2BF PUSH3 0xB7E JUMP JUMPDEST PUSH1 0x40 MLOAD PUSH3 0x2CE SWAP2 SWAP1 PUSH3 0x2E50 JUMP JUMPDEST PUSH1 0x40 MLOAD DUP1 SWAP2 SUB SWAP1 RETURN JUMPDEST CALLVALUE DUP1 ISZERO PUSH3 0x2E4 JUMPI PUSH1 0x0 DUP1 REVERT JUMPDEST POP PUSH3 0x303 PUSH1 0x4 DUP1 CALLDATASIZE SUB DUP2 ADD SWAP1 PUSH3 0x2FD SWAP2 SWAP1 PUSH3 0x2EB2 JUMP JUMPDEST PUSH3 0xB84 JUMP JUMPDEST PUSH1 0x40 MLOAD PUSH3 0x312 SWAP2 SWAP1 PUSH3 0x2E50 JUMP JUMPDEST PUSH1 0x40 MLOAD DUP1 SWAP2 SUB SWAP1 RETURN JUMPDEST CALLVALUE DUP1 ISZERO PUSH3 0x328 JUMPI PUSH1 0x0 DUP1 REVERT JUMPDEST POP PUSH3 0x347 PUSH1 0x4 DUP1 CALLDATASIZE SUB DUP2 ADD SWAP1 PUSH3 0x341 SWAP2 SWAP1 PUSH3 0x2EB2 JUMP JUMPDEST PUSH3 0xBA9 JUMP JUMPDEST PUSH1 0x40 MLOAD PUSH3 0x356 SWAP2 SWAP1 PUSH3 0x2E50 JUMP JUMPDEST PUSH1 0x40 MLOAD DUP1 SWAP2 SUB SWAP1 RETURN JUMPDEST CALLVALUE DUP1 ISZERO PUSH3 0x36C JUMPI PUSH1 0x0 DUP1 REVERT JUMPDEST POP PUSH3 0x38B PUSH1 0x4 DUP1 CALLDATASIZE SUB DUP2 ADD SWAP1 PUSH3 0x385 SWAP2 SWAP1 PUSH3 0x2F49 JUMP JUMPDEST PUSH3 0xBCE JUMP JUMPDEST PUSH1 0x40 MLOAD PUSH3 0x39A SWAP2 SWAP1 PUSH3 0x2E50 JUMP JUMPDEST PUSH1 0x40 MLOAD DUP1 SWAP2 SUB SWAP1 RETURN JUMPDEST CALLVALUE DUP1 ISZERO PUSH3 0x3B0 JUMPI PUSH1 0x0 DUP1 REVERT JUMPDEST POP PUSH3 0x3BB PUSH3 0xBE6 JUMP JUMPDEST PUSH1 0x40 MLOAD PUSH3 0x3CA SWAP2 SWAP1 PUSH3 0x2E50 JUMP JUMPDEST PUSH1 0x40 MLOAD DUP1 SWAP2 SUB SWAP1 RETURN JUMPDEST CALLVALUE DUP1 ISZERO PUSH3 0x3E0 JUMPI PUSH1 0x0 DUP1 REVERT JUMPDEST POP PUSH3 0x3FF PUSH1 0x4 DUP1 CALLDATASIZE SUB DUP2 ADD SWAP1 PUSH3 0x3F9 SWAP2 SWAP1 PUSH3 0x2F7B JUMP JUMPDEST PUSH3 0xBEC JUMP JUMPDEST STOP JUMPDEST CALLVALUE DUP1 ISZERO PUSH3 0x40E JUMPI PUSH1 0x0 DUP1 REVERT JUMPDEST POP PUSH3 0x42D PUSH1 0x4 DUP1 CALLDATASIZE SUB DUP2 ADD SWAP1 PUSH3 0x427 SWAP2 SWAP1 PUSH3 0x2EB2 JUMP JUMPDEST PUSH3 0x1069 JUMP JUMPDEST PUSH1 0x40 MLOAD PUSH3 0x43E SWAP4 SWAP3 SWAP2 SWAP1 PUSH3 0x2FE8 JUMP JUMPDEST PUSH1 0x40 MLOAD DUP1 SWAP2 SUB SWAP1 RETURN JUMPDEST CALLVALUE DUP1 ISZERO PUSH3 0x454 JUMPI PUSH1 0x0 DUP1 REVERT JUMPDEST POP PUSH3 0x473 PUSH1 0x4 DUP1 CALLDATASIZE SUB DUP2 ADD SWAP1 PUSH3 0x46D SWAP2 SWAP1 PUSH3 0x2F49 JUMP JUMPDEST PUSH3 0x10C4 JUMP JUMPDEST PUSH1 0x40 MLOAD PUSH3 0x482 SWAP2 SWAP1 PUSH3 0x3042 JUMP JUMPDEST PUSH1 0x40 MLOAD DUP1 SWAP2 SUB SWAP1 RETURN JUMPDEST CALLVALUE DUP1 ISZERO PUSH3 0x498 JUMPI PUSH1 0x0 DUP1 REVERT JUMPDEST POP PUSH3 0x4B7 PUSH1 0x4 DUP1 CALLDATASIZE SUB DUP2 ADD SWAP1 PUSH3 0x4B1 SWAP2 SWAP1 PUSH3 0x2EB2 JUMP JUMPDEST PUSH3 0x10E4 JUMP JUMPDEST PUSH1 0x40 MLOAD PUSH3 0x4C6 SWAP2 SWAP1 PUSH3 0x30DF JUMP JUMPDEST PUSH1 0x40 MLOAD DUP1 SWAP2 SUB SWAP1 RETURN JUMPDEST PUSH3 0x4ED PUSH1 0x4 DUP1 CALLDATASIZE SUB DUP2 ADD SWAP1 PUSH3 0x4E7 SWAP2 SWAP1 PUSH3 0x325E JUMP JUMPDEST PUSH3 0x1104 JUMP JUMPDEST STOP JUMPDEST CALLVALUE DUP1 ISZERO PUSH3 0x4FC JUMPI PUSH1 0x0 DUP1 REVERT JUMPDEST POP PUSH3 0x507 PUSH3 0x1722 JUMP JUMPDEST PUSH1 0x40 MLOAD PUSH3 0x516 SWAP2 SWAP1 PUSH3 0x2E50 JUMP JUMPDEST PUSH1 0x40 MLOAD DUP1 SWAP2 SUB SWAP1 RETURN JUMPDEST CALLVALUE DUP1 ISZERO PUSH3 0x52C JUMPI PUSH1 0x0 DUP1 REVERT JUMPDEST POP PUSH3 0x537 PUSH3 0x1728 JUMP JUMPDEST PUSH1 0x40 MLOAD PUSH3 0x546 SWAP2 SWAP1 PUSH3 0x33E7 JUMP JUMPDEST PUSH1 0x40 MLOAD DUP1 SWAP2 SUB SWAP1 RETURN JUMPDEST CALLVALUE DUP1 ISZERO PUSH3 0x55C JUMPI PUSH1 0x0 DUP1 REVERT JUMPDEST POP PUSH3 0x567 PUSH3 0x1782 JUMP JUMPDEST STOP JUMPDEST PUSH3 0x573 PUSH3 0x189B JUMP JUMPDEST STOP JUMPDEST CALLVALUE DUP1 ISZERO PUSH3 0x582 JUMPI PUSH1 0x0 DUP1 REVERT JUMPDEST POP PUSH3 0x58D PUSH3 0x1A77 JUMP JUMPDEST PUSH1 0x40 MLOAD PUSH3 0x59C SWAP2 SWAP1 PUSH3 0x33E7 JUMP JUMPDEST PUSH1 0x40 MLOAD DUP1 SWAP2 SUB SWAP1 RETURN JUMPDEST CALLVALUE DUP1 ISZERO PUSH3 0x5B2 JUMPI PUSH1 0x0 DUP1 REVERT JUMPDEST POP PUSH3 0x5BD PUSH3 0x1AD1 JUMP JUMPDEST PUSH1 0x40 MLOAD PUSH3 0x5CC SWAP2 SWAP1 PUSH3 0x33E7 JUMP JUMPDEST PUSH1 0x40 MLOAD DUP1 SWAP2 SUB SWAP1 RETURN JUMPDEST CALLVALUE DUP1 ISZERO PUSH3 0x5E2 JUMPI PUSH1 0x0 DUP1 REVERT JUMPDEST POP PUSH3 0x5ED PUSH3 0x1B2B JUMP JUMPDEST STOP JUMPDEST CALLVALUE DUP1 ISZERO PUSH3 0x5FC JUMPI PUSH1 0x0 DUP1 REVERT JUMPDEST POP PUSH3 0x607 PUSH3 0x1E26 JUMP JUMPDEST PUSH1 0x40 MLOAD PUSH3 0x616 SWAP2 SWAP1 PUSH3 0x2E50 JUMP JUMPDEST PUSH1 0x40 MLOAD DUP1 SWAP2 SUB SWAP1 RETURN JUMPDEST CALLVALUE DUP1 ISZERO PUSH3 0x62C JUMPI PUSH1 0x0 DUP1 REVERT JUMPDEST POP PUSH3 0x637 PUSH3 0x1E2C JUMP JUMPDEST PUSH1 0x40 MLOAD PUSH3 0x646 SWAP2 SWAP1 PUSH3 0x2E50 JUMP JUMPDEST PUSH1 0x40 MLOAD DUP1 SWAP2 SUB SWAP1 RETURN JUMPDEST CALLVALUE DUP1 ISZERO PUSH3 0x65C JUMPI PUSH1 0x0 DUP1 REVERT JUMPDEST POP PUSH3 0x667 PUSH3 0x1E32 JUMP JUMPDEST PUSH1 0x40 MLOAD PUSH3 0x676 SWAP2 SWAP1 PUSH3 0x33E7 JUMP JUMPDEST PUSH1 0x40 MLOAD DUP1 SWAP2 SUB SWAP1 RETURN JUMPDEST CALLVALUE DUP1 ISZERO PUSH3 0x68C JUMPI PUSH1 0x0 DUP1 REVERT JUMPDEST POP PUSH3 0x697 PUSH3 0x1E8C JUMP JUMPDEST STOP JUMPDEST CALLVALUE DUP1 ISZERO PUSH3 0x6A6 JUMPI PUSH1 0x0 DUP1 REVERT JUMPDEST POP PUSH3 0x6B1 PUSH3 0x2129 JUMP JUMPDEST PUSH1 0x40 MLOAD PUSH3 0x6C0 SWAP2 SWAP1 PUSH3 0x2E50 JUMP JUMPDEST PUSH1 0x40 MLOAD DUP1 SWAP2 SUB SWAP1 RETURN JUMPDEST CALLVALUE DUP1 ISZERO PUSH3 0x6D6 JUMPI PUSH1 0x0 DUP1 REVERT JUMPDEST POP PUSH3 0x6F5 PUSH1 0x4 DUP1 CALLDATASIZE SUB DUP2 ADD SWAP1 PUSH3 0x6EF SWAP2 SWAP1 PUSH3 0x340B JUMP JUMPDEST PUSH3 0x212F JUMP JUMPDEST PUSH1 0x40 MLOAD PUSH3 0x704 SWAP2 SWAP1 PUSH3 0x3042 JUMP JUMPDEST PUSH1 0x40 MLOAD DUP1 SWAP2 SUB SWAP1 RETURN JUMPDEST CALLVALUE DUP1 ISZERO PUSH3 0x71A JUMPI PUSH1 0x0 DUP1 REVERT JUMPDEST POP PUSH3 0x725 PUSH3 0x21F6 JUMP JUMPDEST PUSH1 0x40 MLOAD PUSH3 0x734 SWAP2 SWAP1 PUSH3 0x2E50 JUMP JUMPDEST PUSH1 0x40 MLOAD DUP1 SWAP2 SUB SWAP1 RETURN JUMPDEST CALLVALUE DUP1 ISZERO PUSH3 0x74A JUMPI PUSH1 0x0 DUP1 REVERT JUMPDEST POP PUSH3 0x769 PUSH1 0x4 DUP1 CALLDATASIZE SUB DUP2 ADD SWAP1 PUSH3 0x763 SWAP2 SWAP1 PUSH3 0x2EB2 JUMP JUMPDEST PUSH3 0x21FC JUMP JUMPDEST PUSH1 0x40 MLOAD PUSH3 0x778 SWAP2 SWAP1 PUSH3 0x2E50 JUMP JUMPDEST PUSH1 0x40 MLOAD DUP1 SWAP2 SUB SWAP1 RETURN JUMPDEST CALLVALUE DUP1 ISZERO PUSH3 0x78E JUMPI PUSH1 0x0 DUP1 REVERT JUMPDEST POP PUSH3 0x7AD PUSH1 0x4 DUP1 CALLDATASIZE SUB DUP2 ADD SWAP1 PUSH3 0x7A7 SWAP2 SWAP1 PUSH3 0x2EB2 JUMP JUMPDEST PUSH3 0x2214 JUMP JUMPDEST PUSH1 0x40 MLOAD PUSH3 0x7BC SWAP2 SWAP1 PUSH3 0x3452 JUMP JUMPDEST PUSH1 0x40 MLOAD DUP1 SWAP2 SUB SWAP1 RETURN JUMPDEST CALLVALUE DUP1 ISZERO PUSH3 0x7D2 JUMPI PUSH1 0x0 DUP1 REVERT JUMPDEST POP PUSH3 0x7F1 PUSH1 0x4 DUP1 CALLDATASIZE SUB DUP2 ADD SWAP1 PUSH3 0x7EB SWAP2 SWAP1 PUSH3 0x2EB2 JUMP JUMPDEST PUSH3 0x2254 JUMP JUMPDEST PUSH1 0x40 MLOAD PUSH3 0x800 SWAP2 SWAP1 PUSH3 0x2E50 JUMP JUMPDEST PUSH1 0x40 MLOAD DUP1 SWAP2 SUB SWAP1 RETURN JUMPDEST CALLVALUE DUP1 ISZERO PUSH3 0x816 JUMPI PUSH1 0x0 DUP1 REVERT JUMPDEST POP PUSH3 0x835 PUSH1 0x4 DUP1 CALLDATASIZE SUB DUP2 ADD SWAP1 PUSH3 0x82F SWAP2 SWAP1 PUSH3 0x2EB2 JUMP JUMPDEST PUSH3 0x226C JUMP JUMPDEST PUSH1 0x40 MLOAD PUSH3 0x844 SWAP2 SWAP1 PUSH3 0x2E50 JUMP JUMPDEST PUSH1 0x40 MLOAD DUP1 SWAP2 SUB SWAP1 RETURN JUMPDEST CALLVALUE DUP1 ISZERO PUSH3 0x85A JUMPI PUSH1 0x0 DUP1 REVERT JUMPDEST POP PUSH3 0x879 PUSH1 0x4 DUP1 CALLDATASIZE SUB DUP2 ADD SWAP1 PUSH3 0x873 SWAP2 SWAP1 PUSH3 0x2EB2 JUMP JUMPDEST PUSH3 0x2291 JUMP JUMPDEST PUSH1 0x40 MLOAD PUSH3 0x893 SWAP13 SWAP12 SWAP11 SWAP10 SWAP9 SWAP8 SWAP7 SWAP6 SWAP5 SWAP4 SWAP3 SWAP2 SWAP1 PUSH3 0x34F8 JUMP JUMPDEST PUSH1 0x40 MLOAD DUP1 SWAP2 SUB SWAP1 RETURN JUMPDEST CALLVALUE DUP1 ISZERO PUSH3 0x8A9 JUMPI PUSH1 0x0 DUP1 REVERT JUMPDEST POP PUSH3 0x8B4 PUSH3 0x23CE JUMP JUMPDEST PUSH1 0x40 MLOAD PUSH3 0x8C3 SWAP2 SWAP1 PUSH3 0x36E7 JUMP JUMPDEST PUSH1 0x40 MLOAD DUP1 SWAP2 SUB SWAP1 RETURN JUMPDEST CALLVALUE DUP1 ISZERO PUSH3 0x8D9 JUMPI PUSH1 0x0 DUP1 REVERT JUMPDEST POP PUSH3 0x8F8 PUSH1 0x4 DUP1 CALLDATASIZE SUB DUP2 ADD SWAP1 PUSH3 0x8F2 SWAP2 SWAP1 PUSH3 0x2F49 JUMP JUMPDEST PUSH3 0x2499 JUMP JUMPDEST PUSH1 0x40 MLOAD PUSH3 0x907 SWAP2 SWAP1 PUSH3 0x3042 JUMP JUMPDEST PUSH1 0x40 MLOAD DUP1 SWAP2 SUB SWAP1 RETURN JUMPDEST CALLVALUE DUP1 ISZERO PUSH3 0x91D JUMPI PUSH1 0x0 DUP1 REVERT JUMPDEST POP PUSH3 0x928 PUSH3 0x24B9 JUMP JUMPDEST PUSH1 0x40 MLOAD PUSH3 0x937 SWAP2 SWAP1 PUSH3 0x33E7 JUMP JUMPDEST PUSH1 0x40 MLOAD DUP1 SWAP2 SUB SWAP1 RETURN JUMPDEST CALLVALUE DUP1 ISZERO PUSH3 0x94D JUMPI PUSH1 0x0 DUP1 REVERT JUMPDEST POP PUSH3 0x958 PUSH3 0x2513 JUMP JUMPDEST STOP JUMPDEST CALLVALUE DUP1 ISZERO PUSH3 0x967 JUMPI PUSH1 0x0 DUP1 REVERT JUMPDEST POP PUSH3 0x972 PUSH3 0x26EF JUMP JUMPDEST PUSH1 0x40 MLOAD PUSH3 0x981 SWAP2 SWAP1 PUSH3 0x2E50 JUMP JUMPDEST PUSH1 0x40 MLOAD DUP1 SWAP2 SUB SWAP1 RETURN JUMPDEST CALLVALUE DUP1 ISZERO PUSH3 0x997 JUMPI PUSH1 0x0 DUP1 REVERT JUMPDEST POP PUSH3 0x9B6 PUSH1 0x4 DUP1 CALLDATASIZE SUB DUP2 ADD SWAP1 PUSH3 0x9B0 SWAP2 SWAP1 PUSH3 0x2EB2 JUMP JUMPDEST PUSH3 0x26F5 JUMP JUMPDEST PUSH1 0x40 MLOAD PUSH3 0x9C5 SWAP2 SWAP1 PUSH3 0x2E50 JUMP JUMPDEST PUSH1 0x40 MLOAD DUP1 SWAP2 SUB SWAP1 RETURN JUMPDEST CALLVALUE DUP1 ISZERO PUSH3 0x9DB JUMPI PUSH1 0x0 DUP1 REVERT JUMPDEST POP PUSH3 0x9FA PUSH1 0x4 DUP1 CALLDATASIZE SUB DUP2 ADD SWAP1 PUSH3 0x9F4 SWAP2 SWAP1 PUSH3 0x2EB2 JUMP JUMPDEST PUSH3 0x271A JUMP JUMPDEST PUSH1 0x40 MLOAD PUSH3 0xA09 SWAP2 SWAP1 PUSH3 0x2E50 JUMP JUMPDEST PUSH1 0x40 MLOAD DUP1 SWAP2 SUB SWAP1 RETURN JUMPDEST CALLVALUE DUP1 ISZERO PUSH3 0xA1F JUMPI PUSH1 0x0 DUP1 REVERT JUMPDEST POP PUSH3 0xA2A PUSH3 0x273F JUMP JUMPDEST STOP JUMPDEST CALLVALUE DUP1 ISZERO PUSH3 0xA39 JUMPI PUSH1 0x0 DUP1 REVERT JUMPDEST POP PUSH3 0xA44 PUSH3 0x281E JUMP JUMPDEST STOP JUMPDEST PUSH3 0xA64 PUSH1 0x4 DUP1 CALLDATASIZE SUB DUP2 ADD SWAP1 PUSH3 0xA5E SWAP2 SWAP1 PUSH3 0x373C JUMP JUMPDEST PUSH3 0x2937 JUMP JUMPDEST STOP JUMPDEST CALLVALUE DUP1 ISZERO PUSH3 0xA73 JUMPI PUSH1 0x0 DUP1 REVERT JUMPDEST POP PUSH3 0xA92 PUSH1 0x4 DUP1 CALLDATASIZE SUB DUP2 ADD SWAP1 PUSH3 0xA8C SWAP2 SWAP1 PUSH3 0x3798 JUMP JUMPDEST PUSH3 0x2D24 JUMP JUMPDEST PUSH1 0x40 MLOAD PUSH3 0xAA1 SWAP2 SWAP1 PUSH3 0x3042 JUMP JUMPDEST PUSH1 0x40 MLOAD DUP1 SWAP2 SUB SWAP1 RETURN JUMPDEST CALLVALUE DUP1 ISZERO PUSH3 0xAB7 JUMPI PUSH1 0x0 DUP1 REVERT JUMPDEST POP PUSH3 0xAC2 PUSH3 0x2D53 JUMP JUMPDEST PUSH1 0x40 MLOAD PUSH3 0xAD1 SWAP2 SWAP1 PUSH3 0x2E50 JUMP JUMPDEST PUSH1 0x40 MLOAD DUP1 SWAP2 SUB SWAP1 RETURN JUMPDEST CALLVALUE DUP1 ISZERO PUSH3 0xAE7 JUMPI PUSH1 0x0 DUP1 REVERT JUMPDEST POP PUSH3 0xAF2 PUSH3 0x2D59 JUMP JUMPDEST PUSH1 0x40 MLOAD PUSH3 0xB01 SWAP2 SWAP1 PUSH3 0x389C JUMP JUMPDEST PUSH1 0x40 MLOAD DUP1 SWAP2 SUB SWAP1 RETURN JUMPDEST CALLVALUE DUP1 ISZERO PUSH3 0xB17 JUMPI PUSH1 0x0 DUP1 REVERT JUMPDEST POP PUSH3 0xB36 PUSH1 0x4 DUP1 CALLDATASIZE SUB DUP2 ADD SWAP1 PUSH3 0xB30 SWAP2 SWAP1 PUSH3 0x2F49 JUMP JUMPDEST PUSH3 0x2DE9 JUMP JUMPDEST PUSH1 0x40 MLOAD PUSH3 0xB45 SWAP2 SWAP1 PUSH3 0x2E50 JUMP JUMPDEST PUSH1 0x40 MLOAD DUP1 SWAP2 SUB SWAP1 RETURN JUMPDEST CALLVALUE DUP1 ISZERO PUSH3 0xB5B JUMPI PUSH1 0x0 DUP1 REVERT JUMPDEST POP PUSH3 0xB66 PUSH3 0x2E01 JUMP JUMPDEST PUSH1 0x40 MLOAD PUSH3 0xB75 SWAP2 SWAP1 PUSH3 0x3452 JUMP JUMPDEST PUSH1 0x40 MLOAD DUP1 SWAP2 SUB SWAP1 RETURN JUMPDEST PUSH1 0x12 SLOAD DUP2 JUMP JUMPDEST PUSH1 0xD DUP2 DUP2 SLOAD DUP2 LT PUSH3 0xB95 JUMPI PUSH1 0x0 DUP1 REVERT JUMPDEST SWAP1 PUSH1 0x0 MSTORE PUSH1 0x20 PUSH1 0x0 KECCAK256 ADD PUSH1 0x0 SWAP2 POP SWAP1 POP SLOAD DUP2 JUMP JUMPDEST PUSH1 0xA DUP2 DUP2 SLOAD DUP2 LT PUSH3 0xBBA JUMPI PUSH1 0x0 DUP1 REVERT JUMPDEST SWAP1 PUSH1 0x0 MSTORE PUSH1 0x20 PUSH1 0x0 KECCAK256 ADD PUSH1 0x0 SWAP2 POP SWAP1 POP SLOAD DUP2 JUMP JUMPDEST PUSH1 0x11 PUSH1 0x20 MSTORE DUP1 PUSH1 0x0 MSTORE PUSH1 0x40 PUSH1 0x0 KECCAK256 PUSH1 0x0 SWAP2 POP SWAP1 POP SLOAD DUP2 JUMP JUMPDEST PUSH1 0x6 SLOAD DUP2 JUMP JUMPDEST PUSH1 0x0 DUP2 LT ISZERO DUP1 ISZERO PUSH3 0xBFF JUMPI POP PUSH1 0x64 DUP2 GT ISZERO JUMPDEST PUSH3 0xC41 JUMPI PUSH1 0x40 MLOAD PUSH32 0x8C379A000000000000000000000000000000000000000000000000000000000 DUP2 MSTORE PUSH1 0x4 ADD PUSH3 0xC38 SWAP1 PUSH3 0x3910 JUMP JUMPDEST PUSH1 0x40 MLOAD DUP1 SWAP2 SUB SWAP1 REVERT JUMPDEST PUSH1 0x0 DUP4 SWAP1 POP DUP1 PUSH20 0xFFFFFFFFFFFFFFFFFFFFFFFFFFFFFFFFFFFFFFFF AND PUSH4 0xF851A440 PUSH1 0x40 MLOAD DUP2 PUSH4 0xFFFFFFFF AND PUSH1 0xE0 SHL DUP2 MSTORE PUSH1 0x4 ADD PUSH1 0x20 PUSH1 0x40 MLOAD DUP1 DUP4 SUB DUP2 DUP7 GAS STATICCALL ISZERO DUP1 ISZERO PUSH3 0xC92 JUMPI RETURNDATASIZE PUSH1 0x0 DUP1 RETURNDATACOPY RETURNDATASIZE PUSH1 0x0 REVERT JUMPDEST POP POP POP POP PUSH1 0x40 MLOAD RETURNDATASIZE PUSH1 0x1F NOT PUSH1 0x1F DUP3 ADD AND DUP3 ADD DUP1 PUSH1 0x40 MSTORE POP DUP2 ADD SWAP1 PUSH3 0xCB8 SWAP2 SWAP1 PUSH3 0x3949 JUMP JUMPDEST PUSH20 0xFFFFFFFFFFFFFFFFFFFFFFFFFFFFFFFFFFFFFFFF AND CALLER PUSH20 0xFFFFFFFFFFFFFFFFFFFFFFFFFFFFFFFFFFFFFFFF AND EQ PUSH3 0xD28 JUMPI PUSH1 0x40 MLOAD PUSH32 0x8C379A000000000000000000000000000000000000000000000000000000000 DUP2 MSTORE PUSH1 0x4 ADD PUSH3 0xD1F SWAP1 PUSH3 0x39F1 JUMP JUMPDEST PUSH1 0x40 MLOAD DUP1 SWAP2 SUB SWAP1 REVERT JUMPDEST PUSH1 0x0 PUSH1 0xF PUSH1 0x0 DUP6 DUP2 MSTORE PUSH1 0x20 ADD SWAP1 DUP2 MSTORE PUSH1 0x20 ADD PUSH1 0x0 KECCAK256 PUSH1 0x40 MLOAD DUP1 PUSH2 0x180 ADD PUSH1 0x40 MSTORE SWAP1 DUP2 PUSH1 0x0 DUP3 ADD SLOAD DUP2 MSTORE PUSH1 0x20 ADD PUSH1 0x1 DUP3 ADD PUSH1 0x0 SWAP1 SLOAD SWAP1 PUSH2 0x100 EXP SWAP1 DIV PUSH20 0xFFFFFFFFFFFFFFFFFFFFFFFFFFFFFFFFFFFFFFFF AND PUSH20 0xFFFFFFFFFFFFFFFFFFFFFFFFFFFFFFFFFFFFFFFF AND PUSH20 0xFFFFFFFFFFFFFFFFFFFFFFFFFFFFFFFFFFFFFFFF AND DUP2 MSTORE PUSH1 0x20 ADD PUSH1 0x2 DUP3 ADD PUSH1 0x0 SWAP1 SLOAD SWAP1 PUSH2 0x100 EXP SWAP1 DIV PUSH20 0xFFFFFFFFFFFFFFFFFFFFFFFFFFFFFFFFFFFFFFFF AND PUSH20 0xFFFFFFFFFFFFFFFFFFFFFFFFFFFFFFFFFFFFFFFF AND PUSH20 0xFFFFFFFFFFFFFFFFFFFFFFFFFFFFFFFFFFFFFFFF AND DUP2 MSTORE PUSH1 0x20 ADD PUSH1 0x3 DUP3 ADD SLOAD DUP2 MSTORE PUSH1 0x20 ADD PUSH1 0x4 DUP3 ADD DUP1 SLOAD PUSH3 0xE1B SWAP1 PUSH3 0x3A42 JUMP JUMPDEST DUP1 PUSH1 0x1F ADD PUSH1 0x20 DUP1 SWAP2 DIV MUL PUSH1 0x20 ADD PUSH1 0x40 MLOAD SWAP1 DUP2 ADD PUSH1 0x40 MSTORE DUP1 SWAP3 SWAP2 SWAP1 DUP2 DUP2 MSTORE PUSH1 0x20 ADD DUP3 DUP1 SLOAD PUSH3 0xE49 SWAP1 PUSH3 0x3A42 JUMP JUMPDEST DUP1 ISZERO PUSH3 0xE9A JUMPI DUP1 PUSH1 0x1F LT PUSH3 0xE6E JUMPI PUSH2 0x100 DUP1 DUP4 SLOAD DIV MUL DUP4 MSTORE SWAP2 PUSH1 0x20 ADD SWAP2 PUSH3 0xE9A JUMP JUMPDEST DUP3 ADD SWAP2 SWAP1 PUSH1 0x0 MSTORE PUSH1 0x20 PUSH1 0x0 KECCAK256 SWAP1 JUMPDEST DUP2 SLOAD DUP2 MSTORE SWAP1 PUSH1 0x1 ADD SWAP1 PUSH1 0x20 ADD DUP1 DUP4 GT PUSH3 0xE7C JUMPI DUP3 SWAP1 SUB PUSH1 0x1F AND DUP3 ADD SWAP2 JUMPDEST POP POP POP POP POP DUP2 MSTORE PUSH1 0x20 ADD PUSH1 0x5 DUP3 ADD SLOAD DUP2 MSTORE PUSH1 0x20 ADD PUSH1 0x6 DUP3 ADD SLOAD DUP2 MSTORE PUSH1 0x20 ADD PUSH1 0x7 DUP3 ADD SLOAD DUP2 MSTORE PUSH1 0x20 ADD PUSH1 0x8 DUP3 ADD SLOAD DUP2 MSTORE PUSH1 0x20 ADD PUSH1 0x9 DUP3 ADD SLOAD DUP2 MSTORE PUSH1 0x20 ADD PUSH1 0xA DUP3 ADD SLOAD DUP2 MSTORE PUSH1 0x20 ADD PUSH1 0xB DUP3 ADD PUSH1 0x0 SWAP1 SLOAD SWAP1 PUSH2 0x100 EXP SWAP1 DIV PUSH1 0xFF AND ISZERO ISZERO ISZERO ISZERO DUP2 MSTORE POP POP SWAP1 POP DUP5 PUSH20 0xFFFFFFFFFFFFFFFFFFFFFFFFFFFFFFFFFFFFFFFF AND DUP2 PUSH1 0x40 ADD MLOAD PUSH20 0xFFFFFFFFFFFFFFFFFFFFFFFFFFFFFFFFFFFFFFFF AND EQ PUSH3 0xF71 JUMPI PUSH1 0x40 MLOAD PUSH32 0x8C379A000000000000000000000000000000000000000000000000000000000 DUP2 MSTORE PUSH1 0x4 ADD PUSH3 0xF68 SWAP1 PUSH3 0x3AC7 JUMP JUMPDEST PUSH1 0x40 MLOAD DUP1 SWAP2 SUB SWAP1 REVERT JUMPDEST DUP1 PUSH1 0xE0 ADD MLOAD NUMBER GT PUSH3 0xFBA JUMPI PUSH1 0x40 MLOAD PUSH32 0x8C379A000000000000000000000000000000000000000000000000000000000 DUP2 MSTORE PUSH1 0x4 ADD PUSH3 0xFB1 SWAP1 PUSH3 0x3B39 JUMP JUMPDEST PUSH1 0x40 MLOAD DUP1 SWAP2 SUB SWAP1 REVERT JUMPDEST PUSH1 0x0 DUP2 PUSH1 0x20 ADD MLOAD SWAP1 POP PUSH1 0x2 DUP5 PUSH1 0x11 PUSH1 0x0 DUP5 PUSH20 0xFFFFFFFFFFFFFFFFFFFFFFFFFFFFFFFFFFFFFFFF AND PUSH20 0xFFFFFFFFFFFFFFFFFFFFFFFFFFFFFFFFFFFFFFFF AND DUP2 MSTORE PUSH1 0x20 ADD SWAP1 DUP2 MSTORE PUSH1 0x20 ADD PUSH1 0x0 KECCAK256 SLOAD PUSH3 0x1012 SWAP2 SWAP1 PUSH3 0x3B8A JUMP JUMPDEST PUSH3 0x101E SWAP2 SWAP1 PUSH3 0x3BF4 JUMP JUMPDEST PUSH1 0x11 PUSH1 0x0 DUP4 PUSH20 0xFFFFFFFFFFFFFFFFFFFFFFFFFFFFFFFFFFFFFFFF AND PUSH20 0xFFFFFFFFFFFFFFFFFFFFFFFFFFFFFFFFFFFFFFFF AND DUP2 MSTORE PUSH1 0x20 ADD SWAP1 DUP2 MSTORE PUSH1 0x20 ADD PUSH1 0x0 KECCAK256 DUP2 SWAP1 SSTORE POP POP POP POP POP POP POP JUMP JUMPDEST PUSH1 0x18 DUP2 DUP2 SLOAD DUP2 LT PUSH3 0x107A JUMPI PUSH1 0x0 DUP1 REVERT JUMPDEST SWAP1 PUSH1 0x0 MSTORE PUSH1 0x20 PUSH1 0x0 KECCAK256 SWAP1 PUSH1 0x3 MUL ADD PUSH1 0x0 SWAP2 POP SWAP1 POP DUP1 PUSH1 0x0 ADD SLOAD SWAP1 DUP1 PUSH1 0x1 ADD SLOAD SWAP1 DUP1 PUSH1 0x2 ADD PUSH1 0x0 SWAP1 SLOAD SWAP1 PUSH2 0x100 EXP SWAP1 DIV PUSH20 0xFFFFFFFFFFFFFFFFFFFFFFFFFFFFFFFFFFFFFFFF AND SWAP1 POP DUP4 JUMP JUMPDEST PUSH1 0x10 PUSH1 0x20 MSTORE DUP1 PUSH1 0x0 MSTORE PUSH1 0x40 PUSH1 0x0 KECCAK256 PUSH1 0x0 SWAP2 POP SLOAD SWAP1 PUSH2 0x100 EXP SWAP1 DIV PUSH1 0xFF AND DUP2 JUMP JUMPDEST PUSH1 0xE PUSH1 0x20 MSTORE DUP1 PUSH1 0x0 MSTORE PUSH1 0x40 PUSH1 0x0 KECCAK256 PUSH1 0x0 SWAP2 POP SLOAD SWAP1 PUSH2 0x100 EXP SWAP1 DIV PUSH1 0xFF AND DUP2 JUMP JUMPDEST PUSH1 0x6 SLOAD CALLVALUE LT ISZERO PUSH3 0x114C JUMPI PUSH1 0x40 MLOAD PUSH32 0x8C379A000000000000000000000000000000000000000000000000000000000 DUP2 MSTORE PUSH1 0x4 ADD PUSH3 0x1143 SWAP1 PUSH3 0x3CA2 JUMP JUMPDEST PUSH1 0x40 MLOAD DUP1 SWAP2 SUB SWAP1 REVERT JUMPDEST PUSH1 0x10 PUSH1 0x0 CALLER PUSH20 0xFFFFFFFFFFFFFFFFFFFFFFFFFFFFFFFFFFFFFFFF AND PUSH20 0xFFFFFFFFFFFFFFFFFFFFFFFFFFFFFFFFFFFFFFFF AND DUP2 MSTORE PUSH1 0x20 ADD SWAP1 DUP2 MSTORE PUSH1 0x20 ADD PUSH1 0x0 KECCAK256 PUSH1 0x0 SWAP1 SLOAD SWAP1 PUSH2 0x100 EXP SWAP1 DIV PUSH1 0xFF AND PUSH3 0x123C JUMPI PUSH1 0x1 PUSH1 0x10 PUSH1 0x0 CALLER PUSH20 0xFFFFFFFFFFFFFFFFFFFFFFFFFFFFFFFFFFFFFFFF AND PUSH20 0xFFFFFFFFFFFFFFFFFFFFFFFFFFFFFFFFFFFFFFFF AND DUP2 MSTORE PUSH1 0x20 ADD SWAP1 DUP2 MSTORE PUSH1 0x20 ADD PUSH1 0x0 KECCAK256 PUSH1 0x0 PUSH2 0x100 EXP DUP2 SLOAD DUP2 PUSH1 0xFF MUL NOT AND SWAP1 DUP4 ISZERO ISZERO MUL OR SWAP1 SSTORE POP PUSH1 0x32 PUSH1 0x11 PUSH1 0x0 CALLER PUSH20 0xFFFFFFFFFFFFFFFFFFFFFFFFFFFFFFFFFFFFFFFF AND PUSH20 0xFFFFFFFFFFFFFFFFFFFFFFFFFFFFFFFFFFFFFFFF AND DUP2 MSTORE PUSH1 0x20 ADD SWAP1 DUP2 MSTORE PUSH1 0x20 ADD PUSH1 0x0 KECCAK256 DUP2 SWAP1 SSTORE POP JUMPDEST PUSH3 0x1248 CALLER DUP7 PUSH3 0x212F JUMP JUMPDEST PUSH3 0x128A JUMPI PUSH1 0x40 MLOAD PUSH32 0x8C379A000000000000000000000000000000000000000000000000000000000 DUP2 MSTORE PUSH1 0x4 ADD PUSH3 0x1281 SWAP1 PUSH3 0x3D3A JUMP JUMPDEST PUSH1 0x40 MLOAD DUP1 SWAP2 SUB SWAP1 REVERT JUMPDEST PUSH1 0x14 PUSH1 0x0 DUP8 PUSH20 0xFFFFFFFFFFFFFFFFFFFFFFFFFFFFFFFFFFFFFFFF AND PUSH20 0xFFFFFFFFFFFFFFFFFFFFFFFFFFFFFFFFFFFFFFFF AND DUP2 MSTORE PUSH1 0x20 ADD SWAP1 DUP2 MSTORE PUSH1 0x20 ADD PUSH1 0x0 KECCAK256 PUSH1 0x0 SWAP1 SLOAD SWAP1 PUSH2 0x100 EXP SWAP1 DIV PUSH1 0xFF AND PUSH3 0x1319 JUMPI PUSH1 0x40 MLOAD PUSH32 0x8C379A000000000000000000000000000000000000000000000000000000000 DUP2 MSTORE PUSH1 0x4 ADD PUSH3 0x1310 SWAP1 PUSH3 0x3DD2 JUMP JUMPDEST PUSH1 0x40 MLOAD DUP1 SWAP2 SUB SWAP1 REVERT JUMPDEST PUSH1 0x12 SLOAD DUP6 PUSH3 0x1329 SWAP2 SWAP1 PUSH3 0x3B8A JUMP JUMPDEST DUP7 PUSH20 0xFFFFFFFFFFFFFFFFFFFFFFFFFFFFFFFFFFFFFFFF AND BALANCE LT ISZERO PUSH3 0x1385 JUMPI PUSH1 0x40 MLOAD PUSH32 0x8C379A000000000000000000000000000000000000000000000000000000000 DUP2 MSTORE PUSH1 0x4 ADD PUSH3 0x137C SWAP1 PUSH3 0x3E6A JUMP JUMPDEST PUSH1 0x40 MLOAD DUP1 SWAP2 SUB SWAP1 REVERT JUMPDEST PUSH1 0x14 DUP4 GT ISZERO PUSH3 0x13CC JUMPI PUSH1 0x40 MLOAD PUSH32 0x8C379A000000000000000000000000000000000000000000000000000000000 DUP2 MSTORE PUSH1 0x4 ADD PUSH3 0x13C3 SWAP1 PUSH3 0x3F02 JUMP JUMPDEST PUSH1 0x40 MLOAD DUP1 SWAP2 SUB SWAP1 REVERT JUMPDEST PUSH1 0x14 DUP3 LT ISZERO DUP1 ISZERO PUSH3 0x13E1 JUMPI POP PUSH3 0x31380 DUP3 GT ISZERO JUMPDEST PUSH3 0x1423 JUMPI PUSH1 0x40 MLOAD PUSH32 0x8C379A000000000000000000000000000000000000000000000000000000000 DUP2 MSTORE PUSH1 0x4 ADD PUSH3 0x141A SWAP1 PUSH3 0x3F74 JUMP JUMPDEST PUSH1 0x40 MLOAD DUP1 SWAP2 SUB SWAP1 REVERT JUMPDEST PUSH1 0x0 DUP4 NUMBER PUSH3 0x1433 SWAP2 SWAP1 PUSH3 0x3B8A JUMP JUMPDEST SWAP1 POP PUSH1 0x0 PUSH1 0x40 MLOAD DUP1 PUSH2 0x180 ADD PUSH1 0x40 MSTORE DUP1 PUSH1 0x8 SLOAD DUP2 MSTORE PUSH1 0x20 ADD CALLER PUSH20 0xFFFFFFFFFFFFFFFFFFFFFFFFFFFFFFFFFFFFFFFF AND DUP2 MSTORE PUSH1 0x20 ADD DUP10 PUSH20 0xFFFFFFFFFFFFFFFFFFFFFFFFFFFFFFFFFFFFFFFF AND DUP2 MSTORE PUSH1 0x20 ADD DUP9 DUP2 MSTORE PUSH1 0x20 ADD DUP8 DUP2 MSTORE PUSH1 0x20 ADD DUP4 DUP2 MSTORE PUSH1 0x20 ADD DUP6 DUP5 PUSH3 0x14A3 SWAP2 SWAP1 PUSH3 0x3B8A JUMP JUMPDEST DUP2 MSTORE PUSH1 0x20 ADD DUP5 DUP7 DUP6 PUSH3 0x14B7 SWAP2 SWAP1 PUSH3 0x3B8A JUMP JUMPDEST PUSH3 0x14C3 SWAP2 SWAP1 PUSH3 0x3B8A JUMP JUMPDEST DUP2 MSTORE PUSH1 0x20 ADD PUSH1 0x0 DUP2 MSTORE PUSH1 0x20 ADD PUSH1 0x0 DUP2 MSTORE PUSH1 0x20 ADD PUSH1 0x0 DUP2 MSTORE PUSH1 0x20 ADD PUSH1 0x0 ISZERO ISZERO DUP2 MSTORE POP SWAP1 POP PUSH1 0x9 PUSH1 0x8 SLOAD SWAP1 DUP1 PUSH1 0x1 DUP2 SLOAD ADD DUP1 DUP3 SSTORE DUP1 SWAP2 POP POP PUSH1 0x1 SWAP1 SUB SWAP1 PUSH1 0x0 MSTORE PUSH1 0x20 PUSH1 0x0 KECCAK256 ADD PUSH1 0x0 SWAP1 SWAP2 SWAP1 SWAP2 SWAP1 SWAP2 POP SSTORE DUP1 PUSH1 0xF PUSH1 0x0 PUSH1 0x8 SLOAD DUP2 MSTORE PUSH1 0x20 ADD SWAP1 DUP2 MSTORE PUSH1 0x20 ADD PUSH1 0x0 KECCAK256 PUSH1 0x0 DUP3 ADD MLOAD DUP2 PUSH1 0x0 ADD SSTORE PUSH1 0x20 DUP3 ADD MLOAD DUP2 PUSH1 0x1 ADD PUSH1 0x0 PUSH2 0x100 EXP DUP2 SLOAD DUP2 PUSH20 0xFFFFFFFFFFFFFFFFFFFFFFFFFFFFFFFFFFFFFFFF MUL NOT AND SWAP1 DUP4 PUSH20 0xFFFFFFFFFFFFFFFFFFFFFFFFFFFFFFFFFFFFFFFF AND MUL OR SWAP1 SSTORE POP PUSH1 0x40 DUP3 ADD MLOAD DUP2 PUSH1 0x2 ADD PUSH1 0x0 PUSH2 0x100 EXP DUP2 SLOAD DUP2 PUSH20 0xFFFFFFFFFFFFFFFFFFFFFFFFFFFFFFFFFFFFFFFF MUL NOT AND SWAP1 DUP4 PUSH20 0xFFFFFFFFFFFFFFFFFFFFFFFFFFFFFFFFFFFFFFFF AND MUL OR SWAP1 SSTORE POP PUSH1 0x60 DUP3 ADD MLOAD DUP2 PUSH1 0x3 ADD SSTORE PUSH1 0x80 DUP3 ADD MLOAD DUP2 PUSH1 0x4 ADD SWAP1 DUP2 PUSH3 0x15E0 SWAP2 SWAP1 PUSH3 0x4168 JUMP JUMPDEST POP PUSH1 0xA0 DUP3 ADD MLOAD DUP2 PUSH1 0x5 ADD SSTORE PUSH1 0xC0 DUP3 ADD MLOAD DUP2 PUSH1 0x6 ADD SSTORE PUSH1 0xE0 DUP3 ADD MLOAD DUP2 PUSH1 0x7 ADD SSTORE PUSH2 0x100 DUP3 ADD MLOAD DUP2 PUSH1 0x8 ADD SSTORE PUSH2 0x120 DUP3 ADD MLOAD DUP2 PUSH1 0x9 ADD SSTORE PUSH2 0x140 DUP3 ADD MLOAD DUP2 PUSH1 0xA ADD SSTORE PUSH2 0x160 DUP3 ADD MLOAD DUP2 PUSH1 0xB ADD PUSH1 0x0 PUSH2 0x100 EXP DUP2 SLOAD DUP2 PUSH1 0xFF MUL NOT AND SWAP1 DUP4 ISZERO ISZERO MUL OR SWAP1 SSTORE POP SWAP1 POP POP PUSH1 0x0 PUSH1 0xE PUSH1 0x0 PUSH1 0x8 SLOAD DUP2 MSTORE PUSH1 0x20 ADD SWAP1 DUP2 MSTORE PUSH1 0x20 ADD PUSH1 0x0 KECCAK256 PUSH1 0x0 PUSH2 0x100 EXP DUP2 SLOAD DUP2 PUSH1 0xFF MUL NOT AND SWAP1 DUP4 PUSH1 0x2 DUP2 GT ISZERO PUSH3 0x1680 JUMPI PUSH3 0x167F PUSH3 0x305F JUMP JUMPDEST JUMPDEST MUL OR SWAP1 SSTORE POP PUSH1 0xA DUP3 SWAP1 DUP1 PUSH1 0x1 DUP2 SLOAD ADD DUP1 DUP3 SSTORE DUP1 SWAP2 POP POP PUSH1 0x1 SWAP1 SUB SWAP1 PUSH1 0x0 MSTORE PUSH1 0x20 PUSH1 0x0 KECCAK256 ADD PUSH1 0x0 SWAP1 SWAP2 SWAP1 SWAP2 SWAP1 SWAP2 POP SSTORE PUSH32 0xEDF728BB853655ADE0C9BDB065C2E14D929B58E14A4A495C23BB9749C1C982C8 PUSH1 0x8 SLOAD CALLER DUP10 DUP9 NUMBER PUSH3 0x16E2 SWAP2 SWAP1 PUSH3 0x3B8A JUMP JUMPDEST DUP13 PUSH1 0x40 MLOAD PUSH3 0x16F6 SWAP6 SWAP5 SWAP4 SWAP3 SWAP2 SWAP1 PUSH3 0x424F JUMP JUMPDEST PUSH1 0x40 MLOAD DUP1 SWAP2 SUB SWAP1 LOG1 PUSH1 0x8 PUSH1 0x0 DUP2 SLOAD DUP1 SWAP3 SWAP2 SWAP1 PUSH3 0x1713 SWAP1 PUSH3 0x42AC JUMP JUMPDEST SWAP2 SWAP1 POP SSTORE POP POP POP POP POP POP POP POP POP JUMP JUMPDEST PUSH1 0x5 SLOAD DUP2 JUMP JUMPDEST PUSH1 0x60 PUSH1 0x9 DUP1 SLOAD DUP1 PUSH1 0x20 MUL PUSH1 0x20 ADD PUSH1 0x40 MLOAD SWAP1 DUP2 ADD PUSH1 0x40 MSTORE DUP1 SWAP3 SWAP2 SWAP1 DUP2 DUP2 MSTORE PUSH1 0x20 ADD DUP3 DUP1 SLOAD DUP1 ISZERO PUSH3 0x1778 JUMPI PUSH1 0x20 MUL DUP3 ADD SWAP2 SWAP1 PUSH1 0x0 MSTORE PUSH1 0x20 PUSH1 0x0 KECCAK256 SWAP1 JUMPDEST DUP2 SLOAD DUP2 MSTORE PUSH1 0x20 ADD SWAP1 PUSH1 0x1 ADD SWAP1 DUP1 DUP4 GT PUSH3 0x1763 JUMPI JUMPDEST POP POP POP POP POP SWAP1 POP SWAP1 JUMP JUMPDEST PUSH1 0x0 JUMPDEST PUSH1 0xA DUP1 SLOAD SWAP1 POP DUP2 LT ISZERO PUSH3 0x1898 JUMPI PUSH1 0x0 PUSH1 0xA DUP3 DUP2 SLOAD DUP2 LT PUSH3 0x17AC JUMPI PUSH3 0x17AB PUSH3 0x42F9 JUMP JUMPDEST JUMPDEST SWAP1 PUSH1 0x0 MSTORE PUSH1 0x20 PUSH1 0x0 KECCAK256 ADD SLOAD SWAP1 POP DUP1 NUMBER GT ISZERO PUSH3 0x1880 JUMPI PUSH1 0x1 PUSH1 0xA DUP1 SLOAD SWAP1 POP PUSH3 0x17D6 SWAP2 SWAP1 PUSH3 0x4328 JUMP JUMPDEST DUP3 LT ISZERO PUSH3 0x183E JUMPI PUSH1 0xA PUSH1 0x1 PUSH1 0xA DUP1 SLOAD SWAP1 POP PUSH3 0x17F4 SWAP2 SWAP1 PUSH3 0x4328 JUMP JUMPDEST DUP2 SLOAD DUP2 LT PUSH3 0x1808 JUMPI PUSH3 0x1807 PUSH3 0x42F9 JUMP JUMPDEST JUMPDEST SWAP1 PUSH1 0x0 MSTORE PUSH1 0x20 PUSH1 0x0 KECCAK256 ADD SLOAD PUSH1 0xA DUP4 DUP2 SLOAD DUP2 LT PUSH3 0x182A JUMPI PUSH3 0x1829 PUSH3 0x42F9 JUMP JUMPDEST JUMPDEST SWAP1 PUSH1 0x0 MSTORE PUSH1 0x20 PUSH1 0x0 KECCAK256 ADD DUP2 SWAP1 SSTORE POP PUSH3 0x184F JUMP JUMPDEST DUP2 DUP1 PUSH3 0x184B SWAP1 PUSH3 0x42AC JUMP JUMPDEST SWAP3 POP POP JUMPDEST PUSH1 0xA DUP1 SLOAD DUP1 PUSH3 0x1864 JUMPI PUSH3 0x1863 PUSH3 0x4363 JUMP JUMPDEST JUMPDEST PUSH1 0x1 SWAP1 SUB DUP2 DUP2 SWAP1 PUSH1 0x0 MSTORE PUSH1 0x20 PUSH1 0x0 KECCAK256 ADD PUSH1 0x0 SWAP1 SSTORE SWAP1 SSTORE PUSH3 0x1891 JUMP JUMPDEST DUP2 DUP1 PUSH3 0x188D SWAP1 PUSH3 0x42AC JUMP JUMPDEST SWAP3 POP POP JUMPDEST POP PUSH3 0x1785 JUMP JUMPDEST POP JUMP JUMPDEST PUSH1 0x12 SLOAD CALLVALUE LT ISZERO PUSH3 0x18E3 JUMPI PUSH1 0x40 MLOAD PUSH32 0x8C379A000000000000000000000000000000000000000000000000000000000 DUP2 MSTORE PUSH1 0x4 ADD PUSH3 0x18DA SWAP1 PUSH3 0x43E2 JUMP JUMPDEST PUSH1 0x40 MLOAD DUP1 SWAP2 SUB SWAP1 REVERT JUMPDEST PUSH1 0x0 CALLER PUSH1 0x40 MLOAD PUSH3 0x18F4 SWAP1 PUSH3 0x2E27 JUMP JUMPDEST PUSH3 0x1900 SWAP2 SWAP1 PUSH3 0x3452 JUMP JUMPDEST PUSH1 0x40 MLOAD DUP1 SWAP2 SUB SWAP1 PUSH1 0x0 CREATE DUP1 ISZERO DUP1 ISZERO PUSH3 0x191D JUMPI RETURNDATASIZE PUSH1 0x0 DUP1 RETURNDATACOPY RETURNDATASIZE PUSH1 0x0 REVERT JUMPDEST POP SWAP1 POP PUSH1 0x0 DUP2 SWAP1 POP DUP1 PUSH20 0xFFFFFFFFFFFFFFFFFFFFFFFFFFFFFFFFFFFFFFFF AND PUSH2 0x8FC PUSH1 0x64 CALLVALUE PUSH3 0x194E SWAP2 SWAP1 PUSH3 0x4328 JUMP JUMPDEST SWAP1 DUP2 ISZERO MUL SWAP1 PUSH1 0x40 MLOAD PUSH1 0x0 PUSH1 0x40 MLOAD DUP1 DUP4 SUB DUP2 DUP6 DUP9 DUP9 CALL SWAP4 POP POP POP POP ISZERO DUP1 ISZERO PUSH3 0x197A JUMPI RETURNDATASIZE PUSH1 0x0 DUP1 RETURNDATACOPY RETURNDATASIZE PUSH1 0x0 REVERT JUMPDEST POP PUSH1 0x1 PUSH1 0x14 PUSH1 0x0 DUP4 PUSH20 0xFFFFFFFFFFFFFFFFFFFFFFFFFFFFFFFFFFFFFFFF AND PUSH20 0xFFFFFFFFFFFFFFFFFFFFFFFFFFFFFFFFFFFFFFFF AND DUP2 MSTORE PUSH1 0x20 ADD SWAP1 DUP2 MSTORE PUSH1 0x20 ADD PUSH1 0x0 KECCAK256 PUSH1 0x0 PUSH2 0x100 EXP DUP2 SLOAD DUP2 PUSH1 0xFF MUL NOT AND SWAP1 DUP4 ISZERO ISZERO MUL OR SWAP1 SSTORE POP PUSH1 0x13 DUP2 SWAP1 DUP1 PUSH1 0x1 DUP2 SLOAD ADD DUP1 DUP3 SSTORE DUP1 SWAP2 POP POP PUSH1 0x1 SWAP1 SUB SWAP1 PUSH1 0x0 MSTORE PUSH1 0x20 PUSH1 0x0 KECCAK256 ADD PUSH1 0x0 SWAP1 SWAP2 SWAP1 SWAP2 SWAP1 SWAP2 PUSH2 0x100 EXP DUP2 SLOAD DUP2 PUSH20 0xFFFFFFFFFFFFFFFFFFFFFFFFFFFFFFFFFFFFFFFF MUL NOT AND SWAP1 DUP4 PUSH20 0xFFFFFFFFFFFFFFFFFFFFFFFFFFFFFFFFFFFFFFFF AND MUL OR SWAP1 SSTORE POP PUSH32 0xBBCC7C94F9D30976D4BBF1D2B4AAB69DF1668576635C1CAFCDBED60DE50B4252 CALLER DUP3 CALLVALUE PUSH1 0x40 MLOAD PUSH3 0x1A6B SWAP4 SWAP3 SWAP2 SWAP1 PUSH3 0x4404 JUMP JUMPDEST PUSH1 0x40 MLOAD DUP1 SWAP2 SUB SWAP1 LOG1 POP POP JUMP JUMPDEST PUSH1 0x60 PUSH1 0xC DUP1 SLOAD DUP1 PUSH1 0x20 MUL PUSH1 0x20 ADD PUSH1 0x40 MLOAD SWAP1 DUP2 ADD PUSH1 0x40 MSTORE DUP1 SWAP3 SWAP2 SWAP1 DUP2 DUP2 MSTORE PUSH1 0x20 ADD DUP3 DUP1 SLOAD DUP1 ISZERO PUSH3 0x1AC7 JUMPI PUSH1 0x20 MUL DUP3 ADD SWAP2 SWAP1 PUSH1 0x0 MSTORE PUSH1 0x20 PUSH1 0x0 KECCAK256 SWAP1 JUMPDEST DUP2 SLOAD DUP2 MSTORE PUSH1 0x20 ADD SWAP1 PUSH1 0x1 ADD SWAP1 DUP1 DUP4 GT PUSH3 0x1AB2 JUMPI JUMPDEST POP POP POP POP POP SWAP1 POP SWAP1 JUMP JUMPDEST PUSH1 0x60 PUSH1 0xB DUP1 SLOAD DUP1 PUSH1 0x20 MUL PUSH1 0x20 ADD PUSH1 0x40 MLOAD SWAP1 DUP2 ADD PUSH1 0x40 MSTORE DUP1 SWAP3 SWAP2 SWAP1 DUP2 DUP2 MSTORE PUSH1 0x20 ADD DUP3 DUP1 SLOAD DUP1 ISZERO PUSH3 0x1B21 JUMPI PUSH1 0x20 MUL DUP3 ADD SWAP2 SWAP1 PUSH1 0x0 MSTORE PUSH1 0x20 PUSH1 0x0 KECCAK256 SWAP1 JUMPDEST DUP2 SLOAD DUP2 MSTORE PUSH1 0x20 ADD SWAP1 PUSH1 0x1 ADD SWAP1 DUP1 DUP4 GT PUSH3 0x1B0C JUMPI JUMPDEST POP POP POP POP POP SWAP1 POP SWAP1 JUMP JUMPDEST PUSH1 0x0 JUMPDEST PUSH1 0xB DUP1 SLOAD SWAP1 POP DUP2 LT ISZERO PUSH3 0x1E23 JUMPI PUSH1 0x0 PUSH1 0xB DUP3 DUP2 SLOAD DUP2 LT PUSH3 0x1B55 JUMPI PUSH3 0x1B54 PUSH3 0x42F9 JUMP JUMPDEST JUMPDEST SWAP1 PUSH1 0x0 MSTORE PUSH1 0x20 PUSH1 0x0 KECCAK256 ADD SLOAD SWAP1 POP PUSH1 0xF PUSH1 0x0 DUP3 DUP2 MSTORE PUSH1 0x20 ADD SWAP1 DUP2 MSTORE PUSH1 0x20 ADD PUSH1 0x0 KECCAK256 PUSH1 0x6 ADD SLOAD NUMBER GT ISZERO PUSH3 0x1E0B JUMPI PUSH1 0x1 PUSH1 0xB DUP1 SLOAD SWAP1 POP PUSH3 0x1B95 SWAP2 SWAP1 PUSH3 0x4328 JUMP JUMPDEST DUP3 LT ISZERO PUSH3 0x1BFD JUMPI PUSH1 0xB PUSH1 0x1 PUSH1 0xB DUP1 SLOAD SWAP1 POP PUSH3 0x1BB3 SWAP2 SWAP1 PUSH3 0x4328 JUMP JUMPDEST DUP2 SLOAD DUP2 LT PUSH3 0x1BC7 JUMPI PUSH3 0x1BC6 PUSH3 0x42F9 JUMP JUMPDEST JUMPDEST SWAP1 PUSH1 0x0 MSTORE PUSH1 0x20 PUSH1 0x0 KECCAK256 ADD SLOAD PUSH1 0xB DUP4 DUP2 SLOAD DUP2 LT PUSH3 0x1BE9 JUMPI PUSH3 0x1BE8 PUSH3 0x42F9 JUMP JUMPDEST JUMPDEST SWAP1 PUSH1 0x0 MSTORE PUSH1 0x20 PUSH1 0x0 KECCAK256 ADD DUP2 SWAP1 SSTORE POP PUSH3 0x1C0E JUMP JUMPDEST DUP2 DUP1 PUSH3 0x1C0A SWAP1 PUSH3 0x42AC JUMP JUMPDEST SWAP3 POP POP JUMPDEST PUSH1 0xB DUP1 SLOAD DUP1 PUSH3 0x1C23 JUMPI PUSH3 0x1C22 PUSH3 0x4363 JUMP JUMPDEST JUMPDEST PUSH1 0x1 SWAP1 SUB DUP2 DUP2 SWAP1 PUSH1 0x0 MSTORE PUSH1 0x20 PUSH1 0x0 KECCAK256 ADD PUSH1 0x0 SWAP1 SSTORE SWAP1 SSTORE PUSH1 0xD DUP2 SWAP1 DUP1 PUSH1 0x1 DUP2 SLOAD ADD DUP1 DUP3 SSTORE DUP1 SWAP2 POP POP PUSH1 0x1 SWAP1 SUB SWAP1 PUSH1 0x0 MSTORE PUSH1 0x20 PUSH1 0x0 KECCAK256 ADD PUSH1 0x0 SWAP1 SWAP2 SWAP1 SWAP2 SWAP1 SWAP2 POP SSTORE PUSH1 0x2 PUSH1 0xE PUSH1 0x0 DUP4 DUP2 MSTORE PUSH1 0x20 ADD SWAP1 DUP2 MSTORE PUSH1 0x20 ADD PUSH1 0x0 KECCAK256 PUSH1 0x0 PUSH2 0x100 EXP DUP2 SLOAD DUP2 PUSH1 0xFF MUL NOT AND SWAP1 DUP4 PUSH1 0x2 DUP2 GT ISZERO PUSH3 0x1C9C JUMPI PUSH3 0x1C9B PUSH3 0x305F JUMP JUMPDEST JUMPDEST MUL OR SWAP1 SSTORE POP PUSH1 0xF PUSH1 0x0 DUP3 DUP2 MSTORE PUSH1 0x20 ADD SWAP1 DUP2 MSTORE PUSH1 0x20 ADD PUSH1 0x0 KECCAK256 PUSH1 0x9 ADD SLOAD PUSH1 0xF PUSH1 0x0 DUP4 DUP2 MSTORE PUSH1 0x20 ADD SWAP1 DUP2 MSTORE PUSH1 0x20 ADD PUSH1 0x0 KECCAK256 PUSH1 0x8 ADD SLOAD GT ISZERO PUSH3 0x1E05 JUMPI PUSH1 0x0 PUSH1 0xF PUSH1 0x0 DUP4 DUP2 MSTORE PUSH1 0x20 ADD SWAP1 DUP2 MSTORE PUSH1 0x20 ADD PUSH1 0x0 KECCAK256 PUSH1 0x2 ADD PUSH1 0x0 SWAP1 SLOAD SWAP1 PUSH2 0x100 EXP SWAP1 DIV PUSH20 0xFFFFFFFFFFFFFFFFFFFFFFFFFFFFFFFFFFFFFFFF AND SWAP1 POP PUSH1 0x0 DUP2 SWAP1 POP DUP1 PUSH20 0xFFFFFFFFFFFFFFFFFFFFFFFFFFFFFFFFFFFFFFFF AND PUSH4 0x9E0994A1 PUSH1 0xF PUSH1 0x0 DUP7 DUP2 MSTORE PUSH1 0x20 ADD SWAP1 DUP2 MSTORE PUSH1 0x20 ADD PUSH1 0x0 KECCAK256 PUSH1 0x1 ADD PUSH1 0x0 SWAP1 SLOAD SWAP1 PUSH2 0x100 EXP SWAP1 DIV PUSH20 0xFFFFFFFFFFFFFFFFFFFFFFFFFFFFFFFFFFFFFFFF AND PUSH1 0xF PUSH1 0x0 DUP8 DUP2 MSTORE PUSH1 0x20 ADD SWAP1 DUP2 MSTORE PUSH1 0x20 ADD PUSH1 0x0 KECCAK256 PUSH1 0x3 ADD SLOAD PUSH1 0x40 MLOAD DUP4 PUSH4 0xFFFFFFFF AND PUSH1 0xE0 SHL DUP2 MSTORE PUSH1 0x4 ADD PUSH3 0x1D9F SWAP3 SWAP2 SWAP1 PUSH3 0x4441 JUMP JUMPDEST PUSH1 0x0 PUSH1 0x40 MLOAD DUP1 DUP4 SUB DUP2 PUSH1 0x0 DUP8 DUP1 EXTCODESIZE ISZERO DUP1 ISZERO PUSH3 0x1DBA JUMPI PUSH1 0x0 DUP1 REVERT JUMPDEST POP GAS CALL ISZERO DUP1 ISZERO PUSH3 0x1DCF JUMPI RETURNDATASIZE PUSH1 0x0 DUP1 RETURNDATACOPY RETURNDATASIZE PUSH1 0x0 REVERT JUMPDEST POP POP POP POP PUSH1 0x1 PUSH1 0xF PUSH1 0x0 DUP6 DUP2 MSTORE PUSH1 0x20 ADD SWAP1 DUP2 MSTORE PUSH1 0x20 ADD PUSH1 0x0 KECCAK256 PUSH1 0xB ADD PUSH1 0x0 PUSH2 0x100 EXP DUP2 SLOAD DUP2 PUSH1 0xFF MUL NOT AND SWAP1 DUP4 ISZERO ISZERO MUL OR SWAP1 SSTORE POP POP POP JUMPDEST PUSH3 0x1E1C JUMP JUMPDEST DUP2 DUP1 PUSH3 0x1E18 SWAP1 PUSH3 0x42AC JUMP JUMPDEST SWAP3 POP POP JUMPDEST POP PUSH3 0x1B2E JUMP JUMPDEST POP JUMP JUMPDEST PUSH1 0x2 SLOAD DUP2 JUMP JUMPDEST PUSH1 0x0 SLOAD DUP2 JUMP JUMPDEST PUSH1 0x60 PUSH1 0xA DUP1 SLOAD DUP1 PUSH1 0x20 MUL PUSH1 0x20 ADD PUSH1 0x40 MLOAD SWAP1 DUP2 ADD PUSH1 0x40 MSTORE DUP1 SWAP3 SWAP2 SWAP1 DUP2 DUP2 MSTORE PUSH1 0x20 ADD DUP3 DUP1 SLOAD DUP1 ISZERO PUSH3 0x1E82 JUMPI PUSH1 0x20 MUL DUP3 ADD SWAP2 SWAP1 PUSH1 0x0 MSTORE PUSH1 0x20 PUSH1 0x0 KECCAK256 SWAP1 JUMPDEST DUP2 SLOAD DUP2 MSTORE PUSH1 0x20 ADD SWAP1 PUSH1 0x1 ADD SWAP1 DUP1 DUP4 GT PUSH3 0x1E6D JUMPI JUMPDEST POP POP POP POP POP SWAP1 POP SWAP1 JUMP JUMPDEST PUSH1 0x0 JUMPDEST PUSH1 0x18 DUP1 SLOAD SWAP1 POP DUP2 LT ISZERO PUSH3 0x2126 JUMPI PUSH1 0x18 DUP2 DUP2 SLOAD DUP2 LT PUSH3 0x1EB4 JUMPI PUSH3 0x1EB3 PUSH3 0x42F9 JUMP JUMPDEST JUMPDEST SWAP1 PUSH1 0x0 MSTORE PUSH1 0x20 PUSH1 0x0 KECCAK256 SWAP1 PUSH1 0x3 MUL ADD PUSH1 0x0 ADD SLOAD NUMBER GT ISZERO PUSH3 0x210F JUMPI PUSH1 0x18 DUP2 DUP2 SLOAD DUP2 LT PUSH3 0x1EE5 JUMPI PUSH3 0x1EE4 PUSH3 0x42F9 JUMP JUMPDEST JUMPDEST SWAP1 PUSH1 0x0 MSTORE PUSH1 0x20 PUSH1 0x0 KECCAK256 SWAP1 PUSH1 0x3 MUL ADD PUSH1 0x1 ADD SLOAD PUSH1 0x19 PUSH1 0x0 PUSH1 0x18 DUP5 DUP2 SLOAD DUP2 LT PUSH3 0x1F12 JUMPI PUSH3 0x1F11 PUSH3 0x42F9 JUMP JUMPDEST JUMPDEST SWAP1 PUSH1 0x0 MSTORE PUSH1 0x20 PUSH1 0x0 KECCAK256 SWAP1 PUSH1 0x3 MUL ADD PUSH1 0x2 ADD PUSH1 0x0 SWAP1 SLOAD SWAP1 PUSH2 0x100 EXP SWAP1 DIV PUSH20 0xFFFFFFFFFFFFFFFFFFFFFFFFFFFFFFFFFFFFFFFF AND PUSH20 0xFFFFFFFFFFFFFFFFFFFFFFFFFFFFFFFFFFFFFFFF AND PUSH20 0xFFFFFFFFFFFFFFFFFFFFFFFFFFFFFFFFFFFFFFFF AND DUP2 MSTORE PUSH1 0x20 ADD SWAP1 DUP2 MSTORE PUSH1 0x20 ADD PUSH1 0x0 KECCAK256 PUSH1 0x0 DUP3 DUP3 SLOAD PUSH3 0x1F8F SWAP2 SWAP1 PUSH3 0x3B8A JUMP JUMPDEST SWAP3 POP POP DUP2 SWAP1 SSTORE POP PUSH1 0x1 PUSH1 0x18 DUP1 SLOAD SWAP1 POP PUSH3 0x1FAA SWAP2 SWAP1 PUSH3 0x4328 JUMP JUMPDEST DUP2 LT ISZERO PUSH3 0x2093 JUMPI PUSH1 0x18 PUSH1 0x1 PUSH1 0x18 DUP1 SLOAD SWAP1 POP PUSH3 0x1FC8 SWAP2 SWAP1 PUSH3 0x4328 JUMP JUMPDEST DUP2 SLOAD DUP2 LT PUSH3 0x1FDC JUMPI PUSH3 0x1FDB PUSH3 0x42F9 JUMP JUMPDEST JUMPDEST SWAP1 PUSH1 0x0 MSTORE PUSH1 0x20 PUSH1 0x0 KECCAK256 SWAP1 PUSH1 0x3 MUL ADD PUSH1 0x18 DUP3 DUP2 SLOAD DUP2 LT PUSH3 0x2001 JUMPI PUSH3 0x2000 PUSH3 0x42F9 JUMP JUMPDEST JUMPDEST SWAP1 PUSH1 0x0 MSTORE PUSH1 0x20 PUSH1 0x0 KECCAK256 SWAP1 PUSH1 0x3 MUL ADD PUSH1 0x0 DUP3 ADD SLOAD DUP2 PUSH1 0x0 ADD SSTORE PUSH1 0x1 DUP3 ADD SLOAD DUP2 PUSH1 0x1 ADD SSTORE PUSH1 0x2 DUP3 ADD PUSH1 0x0 SWAP1 SLOAD SWAP1 PUSH2 0x100 EXP SWAP1 DIV PUSH20 0xFFFFFFFFFFFFFFFFFFFFFFFFFFFFFFFFFFFFFFFF AND DUP2 PUSH1 0x2 ADD PUSH1 0x0 PUSH2 0x100 EXP DUP2 SLOAD DUP2 PUSH20 0xFFFFFFFFFFFFFFFFFFFFFFFFFFFFFFFFFFFFFFFF MUL NOT AND SWAP1 DUP4 PUSH20 0xFFFFFFFFFFFFFFFFFFFFFFFFFFFFFFFFFFFFFFFF AND MUL OR SWAP1 SSTORE POP SWAP1 POP POP PUSH3 0x20A4 JUMP JUMPDEST DUP1 DUP1 PUSH3 0x20A0 SWAP1 PUSH3 0x42AC JUMP JUMPDEST SWAP2 POP POP JUMPDEST PUSH1 0x18 DUP1 SLOAD DUP1 PUSH3 0x20B9 JUMPI PUSH3 0x20B8 PUSH3 0x4363 JUMP JUMPDEST JUMPDEST PUSH1 0x1 SWAP1 SUB DUP2 DUP2 SWAP1 PUSH1 0x0 MSTORE PUSH1 0x20 PUSH1 0x0 KECCAK256 SWAP1 PUSH1 0x3 MUL ADD PUSH1 0x0 DUP1 DUP3 ADD PUSH1 0x0 SWAP1 SSTORE PUSH1 0x1 DUP3 ADD PUSH1 0x0 SWAP1 SSTORE PUSH1 0x2 DUP3 ADD PUSH1 0x0 PUSH2 0x100 EXP DUP2 SLOAD SWAP1 PUSH20 0xFFFFFFFFFFFFFFFFFFFFFFFFFFFFFFFFFFFFFFFF MUL NOT AND SWAP1 SSTORE POP POP SWAP1 SSTORE PUSH3 0x2120 JUMP JUMPDEST DUP1 DUP1 PUSH3 0x211C SWAP1 PUSH3 0x42AC JUMP JUMPDEST SWAP2 POP POP JUMPDEST PUSH3 0x1E8F JUMP JUMPDEST POP JUMP JUMPDEST PUSH1 0x4 SLOAD DUP2 JUMP JUMPDEST PUSH1 0x0 DUP1 PUSH1 0x0 PUSH1 0x11 PUSH1 0x0 DUP7 PUSH20 0xFFFFFFFFFFFFFFFFFFFFFFFFFFFFFFFFFFFFFFFF AND PUSH20 0xFFFFFFFFFFFFFFFFFFFFFFFFFFFFFFFFFFFFFFFF AND DUP2 MSTORE PUSH1 0x20 ADD SWAP1 DUP2 MSTORE PUSH1 0x20 ADD PUSH1 0x0 KECCAK256 SLOAD SWAP1 POP PUSH1 0x2 SLOAD DUP5 LT PUSH3 0x219E JUMPI PUSH1 0x5 SLOAD DUP2 LT ISZERO PUSH3 0x2193 JUMPI PUSH1 0x0 PUSH3 0x2196 JUMP JUMPDEST PUSH1 0x1 JUMPDEST SWAP2 POP PUSH3 0x21EB JUMP JUMPDEST PUSH1 0x1 SLOAD DUP5 LT PUSH3 0x21C6 JUMPI PUSH1 0x4 SLOAD DUP2 LT ISZERO PUSH3 0x21BB JUMPI PUSH1 0x0 PUSH3 0x21BE JUMP JUMPDEST PUSH1 0x1 JUMPDEST SWAP2 POP PUSH3 0x21EA JUMP JUMPDEST PUSH1 0x0 SLOAD DUP5 LT PUSH3 0x21E9 JUMPI PUSH1 0x3 SLOAD DUP2 LT ISZERO PUSH3 0x21E3 JUMPI PUSH1 0x0 PUSH3 0x21E6 JUMP JUMPDEST PUSH1 0x1 JUMPDEST SWAP2 POP JUMPDEST JUMPDEST JUMPDEST DUP2 SWAP3 POP POP POP SWAP3 SWAP2 POP POP JUMP JUMPDEST PUSH1 0x1 SLOAD DUP2 JUMP JUMPDEST PUSH1 0x17 PUSH1 0x20 MSTORE DUP1 PUSH1 0x0 MSTORE PUSH1 0x40 PUSH1 0x0 KECCAK256 PUSH1 0x0 SWAP2 POP SWAP1 POP SLOAD DUP2 JUMP JUMPDEST PUSH1 0x13 DUP2 DUP2 SLOAD DUP2 LT PUSH3 0x2225 JUMPI PUSH1 0x0 DUP1 REVERT JUMPDEST SWAP1 PUSH1 0x0 MSTORE PUSH1 0x20 PUSH1 0x0 KECCAK256 ADD PUSH1 0x0 SWAP2 POP SLOAD SWAP1 PUSH2 0x100 EXP SWAP1 DIV PUSH20 0xFFFFFFFFFFFFFFFFFFFFFFFFFFFFFFFFFFFFFFFF AND DUP2 JUMP JUMPDEST PUSH1 0x16 PUSH1 0x20 MSTORE DUP1 PUSH1 0x0 MSTORE PUSH1 0x40 PUSH1 0x0 KECCAK256 PUSH1 0x0 SWAP2 POP SWAP1 POP SLOAD DUP2 JUMP JUMPDEST PUSH1 0xC DUP2 DUP2 SLOAD DUP2 LT PUSH3 0x227D JUMPI PUSH1 0x0 DUP1 REVERT JUMPDEST SWAP1 PUSH1 0x0 MSTORE PUSH1 0x20 PUSH1 0x0 KECCAK256 ADD PUSH1 0x0 SWAP2 POP SWAP1 POP SLOAD DUP2 JUMP JUMPDEST PUSH1 0xF PUSH1 0x20 MSTORE DUP1 PUSH1 0x0 MSTORE PUSH1 0x40 PUSH1 0x0 KECCAK256 PUSH1 0x0 SWAP2 POP SWAP1 POP DUP1 PUSH1 0x0 ADD SLOAD SWAP1 DUP1 PUSH1 0x1 ADD PUSH1 0x0 SWAP1 SLOAD SWAP1 PUSH2 0x100 EXP SWAP1 DIV PUSH20 0xFFFFFFFFFFFFFFFFFFFFFFFFFFFFFFFFFFFFFFFF AND SWAP1 DUP1 PUSH1 0x2 ADD PUSH1 0x0 SWAP1 SLOAD SWAP1 PUSH2 0x100 EXP SWAP1 DIV PUSH20 0xFFFFFFFFFFFFFFFFFFFFFFFFFFFFFFFFFFFFFFFF AND SWAP1 DUP1 PUSH1 0x3 ADD SLOAD SWAP1 DUP1 PUSH1 0x4 ADD DUP1 SLOAD PUSH3 0x230E SWAP1 PUSH3 0x3A42 JUMP JUMPDEST DUP1 PUSH1 0x1F ADD PUSH1 0x20 DUP1 SWAP2 DIV MUL PUSH1 0x20 ADD PUSH1 0x40 MLOAD SWAP1 DUP2 ADD PUSH1 0x40 MSTORE DUP1 SWAP3 SWAP2 SWAP1 DUP2 DUP2 MSTORE PUSH1 0x20 ADD DUP3 DUP1 SLOAD PUSH3 0x233C SWAP1 PUSH3 0x3A42 JUMP JUMPDEST DUP1 ISZERO PUSH3 0x238D JUMPI DUP1 PUSH1 0x1F LT PUSH3 0x2361 JUMPI PUSH2 0x100 DUP1 DUP4 SLOAD DIV MUL DUP4 MSTORE SWAP2 PUSH1 0x20 ADD SWAP2 PUSH3 0x238D JUMP JUMPDEST DUP3 ADD SWAP2 SWAP1 PUSH1 0x0 MSTORE PUSH1 0x20 PUSH1 0x0 KECCAK256 SWAP1 JUMPDEST DUP2 SLOAD DUP2 MSTORE SWAP1 PUSH1 0x1 ADD SWAP1 PUSH1 0x20 ADD DUP1 DUP4 GT PUSH3 0x236F JUMPI DUP3 SWAP1 SUB PUSH1 0x1F AND DUP3 ADD SWAP2 JUMPDEST POP POP POP POP POP SWAP1 DUP1 PUSH1 0x5 ADD SLOAD SWAP1 DUP1 PUSH1 0x6 ADD SLOAD SWAP1 DUP1 PUSH1 0x7 ADD SLOAD SWAP1 DUP1 PUSH1 0x8 ADD SLOAD SWAP1 DUP1 PUSH1 0x9 ADD SLOAD SWAP1 DUP1 PUSH1 0xA ADD SLOAD SWAP1 DUP1 PUSH1 0xB ADD PUSH1 0x0 SWAP1 SLOAD SWAP1 PUSH2 0x100 EXP SWAP1 DIV PUSH1 0xFF AND SWAP1 POP DUP13 JUMP JUMPDEST PUSH1 0x60 PUSH1 0x18 DUP1 SLOAD DUP1 PUSH1 0x20 MUL PUSH1 0x20 ADD PUSH1 0x40 MLOAD SWAP1 DUP2 ADD PUSH1 0x40 MSTORE DUP1 SWAP3 SWAP2 SWAP1 DUP2 DUP2 MSTORE PUSH1 0x20 ADD PUSH1 0x0 SWAP1 JUMPDEST DUP3 DUP3 LT ISZERO PUSH3 0x2490 JUMPI DUP4 DUP3 SWAP1 PUSH1 0x0 MSTORE PUSH1 0x20 PUSH1 0x0 KECCAK256 SWAP1 PUSH1 0x3 MUL ADD PUSH1 0x40 MLOAD DUP1 PUSH1 0x60 ADD PUSH1 0x40 MSTORE SWAP1 DUP2 PUSH1 0x0 DUP3 ADD SLOAD DUP2 MSTORE PUSH1 0x20 ADD PUSH1 0x1 DUP3 ADD SLOAD DUP2 MSTORE PUSH1 0x20 ADD PUSH1 0x2 DUP3 ADD PUSH1 0x0 SWAP1 SLOAD SWAP1 PUSH2 0x100 EXP SWAP1 DIV PUSH20 0xFFFFFFFFFFFFFFFFFFFFFFFFFFFFFFFFFFFFFFFF AND PUSH20 0xFFFFFFFFFFFFFFFFFFFFFFFFFFFFFFFFFFFFFFFF AND PUSH20 0xFFFFFFFFFFFFFFFFFFFFFFFFFFFFFFFFFFFFFFFF AND DUP2 MSTORE POP POP DUP2 MSTORE PUSH1 0x20 ADD SWAP1 PUSH1 0x1 ADD SWAP1 PUSH3 0x23F2 JUMP JUMPDEST POP POP POP POP SWAP1 POP SWAP1 JUMP JUMPDEST PUSH1 0x14 PUSH1 0x20 MSTORE DUP1 PUSH1 0x0 MSTORE PUSH1 0x40 PUSH1 0x0 KECCAK256 PUSH1 0x0 SWAP2 POP SLOAD SWAP1 PUSH2 0x100 EXP SWAP1 DIV PUSH1 0xFF AND DUP2 JUMP JUMPDEST PUSH1 0x60 PUSH1 0xD DUP1 SLOAD DUP1 PUSH1 0x20 MUL PUSH1 0x20 ADD PUSH1 0x40 MLOAD SWAP1 DUP2 ADD PUSH1 0x40 MSTORE DUP1 SWAP3 SWAP2 SWAP1 DUP2 DUP2 MSTORE PUSH1 0x20 ADD DUP3 DUP1 SLOAD DUP1 ISZERO PUSH3 0x2509 JUMPI PUSH1 0x20 MUL DUP3 ADD SWAP2 SWAP1 PUSH1 0x0 MSTORE PUSH1 0x20 PUSH1 0x0 KECCAK256 SWAP1 JUMPDEST DUP2 SLOAD DUP2 MSTORE PUSH1 0x20 ADD SWAP1 PUSH1 0x1 ADD SWAP1 DUP1 DUP4 GT PUSH3 0x24F4 JUMPI JUMPDEST POP POP POP POP POP SWAP1 POP SWAP1 JUMP JUMPDEST PUSH1 0x0 JUMPDEST PUSH1 0x9 DUP1 SLOAD SWAP1 POP DUP2 LT ISZERO PUSH3 0x26EC JUMPI PUSH1 0x0 PUSH1 0x9 DUP3 DUP2 SLOAD DUP2 LT PUSH3 0x253D JUMPI PUSH3 0x253C PUSH3 0x42F9 JUMP JUMPDEST JUMPDEST SWAP1 PUSH1 0x0 MSTORE PUSH1 0x20 PUSH1 0x0 KECCAK256 ADD SLOAD SWAP1 POP PUSH1 0xF PUSH1 0x0 DUP3 DUP2 MSTORE PUSH1 0x20 ADD SWAP1 DUP2 MSTORE PUSH1 0x20 ADD PUSH1 0x0 KECCAK256 PUSH1 0x5 ADD SLOAD NUMBER GT ISZERO PUSH3 0x26D4 JUMPI PUSH1 0x1 PUSH1 0x9 DUP1 SLOAD SWAP1 POP PUSH3 0x257D SWAP2 SWAP1 PUSH3 0x4328 JUMP JUMPDEST DUP3 LT ISZERO PUSH3 0x25E5 JUMPI PUSH1 0x9 PUSH1 0x1 PUSH1 0x9 DUP1 SLOAD SWAP1 POP PUSH3 0x259B SWAP2 SWAP1 PUSH3 0x4328 JUMP JUMPDEST DUP2 SLOAD DUP2 LT PUSH3 0x25AF JUMPI PUSH3 0x25AE PUSH3 0x42F9 JUMP JUMPDEST JUMPDEST SWAP1 PUSH1 0x0 MSTORE PUSH1 0x20 PUSH1 0x0 KECCAK256 ADD SLOAD PUSH1 0x9 DUP4 DUP2 SLOAD DUP2 LT PUSH3 0x25D1 JUMPI PUSH3 0x25D0 PUSH3 0x42F9 JUMP JUMPDEST JUMPDEST SWAP1 PUSH1 0x0 MSTORE PUSH1 0x20 PUSH1 0x0 KECCAK256 ADD DUP2 SWAP1 SSTORE POP PUSH3 0x25F6 JUMP JUMPDEST DUP2 DUP1 PUSH3 0x25F2 SWAP1 PUSH3 0x42AC JUMP JUMPDEST SWAP3 POP POP JUMPDEST PUSH1 0x9 DUP1 SLOAD DUP1 PUSH3 0x260B JUMPI PUSH3 0x260A PUSH3 0x4363 JUMP JUMPDEST JUMPDEST PUSH1 0x1 SWAP1 SUB DUP2 DUP2 SWAP1 PUSH1 0x0 MSTORE PUSH1 0x20 PUSH1 0x0 KECCAK256 ADD PUSH1 0x0 SWAP1 SSTORE SWAP1 SSTORE PUSH1 0xB DUP2 SWAP1 DUP1 PUSH1 0x1 DUP2 SLOAD ADD DUP1 DUP3 SSTORE DUP1 SWAP2 POP POP PUSH1 0x1 SWAP1 SUB SWAP1 PUSH1 0x0 MSTORE PUSH1 0x20 PUSH1 0x0 KECCAK256 ADD PUSH1 0x0 SWAP1 SWAP2 SWAP1 SWAP2 SWAP1 SWAP2 POP SSTORE PUSH1 0x1 PUSH1 0xE PUSH1 0x0 DUP4 DUP2 MSTORE PUSH1 0x20 ADD SWAP1 DUP2 MSTORE PUSH1 0x20 ADD PUSH1 0x0 KECCAK256 PUSH1 0x0 PUSH2 0x100 EXP DUP2 SLOAD DUP2 PUSH1 0xFF MUL NOT AND SWAP1 DUP4 PUSH1 0x2 DUP2 GT ISZERO PUSH3 0x2684 JUMPI PUSH3 0x2683 PUSH3 0x305F JUMP JUMPDEST JUMPDEST MUL OR SWAP1 SSTORE POP PUSH1 0x0 PUSH1 0xF PUSH1 0x0 DUP4 DUP2 MSTORE PUSH1 0x20 ADD SWAP1 DUP2 MSTORE PUSH1 0x20 ADD PUSH1 0x0 KECCAK256 PUSH1 0x6 ADD SLOAD SWAP1 POP PUSH1 0xC DUP2 SWAP1 DUP1 PUSH1 0x1 DUP2 SLOAD ADD DUP1 DUP3 SSTORE DUP1 SWAP2 POP POP PUSH1 0x1 SWAP1 SUB SWAP1 PUSH1 0x0 MSTORE PUSH1 0x20 PUSH1 0x0 KECCAK256 ADD PUSH1 0x0 SWAP1 SWAP2 SWAP1 SWAP2 SWAP1 SWAP2 POP SSTORE POP PUSH3 0x26E5 JUMP JUMPDEST DUP2 DUP1 PUSH3 0x26E1 SWAP1 PUSH3 0x42AC JUMP JUMPDEST SWAP3 POP POP JUMPDEST POP PUSH3 0x2516 JUMP JUMPDEST POP JUMP JUMPDEST PUSH1 0x8 SLOAD DUP2 JUMP JUMPDEST PUSH1 0x9 DUP2 DUP2 SLOAD DUP2 LT PUSH3 0x2706 JUMPI PUSH1 0x0 DUP1 REVERT JUMPDEST SWAP1 PUSH1 0x0 MSTORE PUSH1 0x20 PUSH1 0x0 KECCAK256 ADD PUSH1 0x0 SWAP2 POP SWAP1 POP SLOAD DUP2 JUMP JUMPDEST PUSH1 0xB DUP2 DUP2 SLOAD DUP2 LT PUSH3 0x272B JUMPI PUSH1 0x0 DUP1 REVERT JUMPDEST SWAP1 PUSH1 0x0 MSTORE PUSH1 0x20 PUSH1 0x0 KECCAK256 ADD PUSH1 0x0 SWAP2 POP SWAP1 POP SLOAD DUP2 JUMP JUMPDEST PUSH1 0x0 PUSH1 0x19 PUSH1 0x0 CALLER PUSH20 0xFFFFFFFFFFFFFFFFFFFFFFFFFFFFFFFFFFFFFFFF AND PUSH20 0xFFFFFFFFFFFFFFFFFFFFFFFFFFFFFFFFFFFFFFFF AND DUP2 MSTORE PUSH1 0x20 ADD SWAP1 DUP2 MSTORE PUSH1 0x20 ADD PUSH1 0x0 KECCAK256 SLOAD SWAP1 POP PUSH1 0x0 DUP2 GT ISZERO PUSH3 0x281B JUMPI PUSH1 0x0 PUSH1 0x19 PUSH1 0x0 CALLER PUSH20 0xFFFFFFFFFFFFFFFFFFFFFFFFFFFFFFFFFFFFFFFF AND PUSH20 0xFFFFFFFFFFFFFFFFFFFFFFFFFFFFFFFFFFFFFFFF AND DUP2 MSTORE PUSH1 0x20 ADD SWAP1 DUP2 MSTORE PUSH1 0x20 ADD PUSH1 0x0 KECCAK256 DUP2 SWAP1 SSTORE POP CALLER PUSH20 0xFFFFFFFFFFFFFFFFFFFFFFFFFFFFFFFFFFFFFFFF AND PUSH2 0x8FC DUP3 SWAP1 DUP2 ISZERO MUL SWAP1 PUSH1 0x40 MLOAD PUSH1 0x0 PUSH1 0x40 MLOAD DUP1 DUP4 SUB DUP2 DUP6 DUP9 DUP9 CALL SWAP4 POP POP POP POP ISZERO DUP1 ISZERO PUSH3 0x2819 JUMPI RETURNDATASIZE PUSH1 0x0 DUP1 RETURNDATACOPY RETURNDATASIZE PUSH1 0x0 REVERT JUMPDEST POP JUMPDEST POP JUMP JUMPDEST PUSH1 0x0 JUMPDEST PUSH1 0xC DUP1 SLOAD SWAP1 POP DUP2 LT ISZERO PUSH3 0x2934 JUMPI PUSH1 0x0 PUSH1 0xC DUP3 DUP2 SLOAD DUP2 LT PUSH3 0x2848 JUMPI PUSH3 0x2847 PUSH3 0x42F9 JUMP JUMPDEST JUMPDEST SWAP1 PUSH1 0x0 MSTORE PUSH1 0x20 PUSH1 0x0 KECCAK256 ADD SLOAD SWAP1 POP DUP1 NUMBER GT ISZERO PUSH3 0x291C JUMPI PUSH1 0x1 PUSH1 0xC DUP1 SLOAD SWAP1 POP PUSH3 0x2872 SWAP2 SWAP1 PUSH3 0x4328 JUMP JUMPDEST DUP3 LT ISZERO PUSH3 0x28DA JUMPI PUSH1 0xC PUSH1 0x1 PUSH1 0xC DUP1 SLOAD SWAP1 POP PUSH3 0x2890 SWAP2 SWAP1 PUSH3 0x4328 JUMP JUMPDEST DUP2 SLOAD DUP2 LT PUSH3 0x28A4 JUMPI PUSH3 0x28A3 PUSH3 0x42F9 JUMP JUMPDEST JUMPDEST SWAP1 PUSH1 0x0 MSTORE PUSH1 0x20 PUSH1 0x0 KECCAK256 ADD SLOAD PUSH1 0xC DUP4 DUP2 SLOAD DUP2 LT PUSH3 0x28C6 JUMPI PUSH3 0x28C5 PUSH3 0x42F9 JUMP JUMPDEST JUMPDEST SWAP1 PUSH1 0x0 MSTORE PUSH1 0x20 PUSH1 0x0 KECCAK256 ADD DUP2 SWAP1 SSTORE POP PUSH3 0x28EB JUMP JUMPDEST DUP2 DUP1 PUSH3 0x28E7 SWAP1 PUSH3 0x42AC JUMP JUMPDEST SWAP3 POP POP JUMPDEST PUSH1 0xC DUP1 SLOAD DUP1 PUSH3 0x2900 JUMPI PUSH3 0x28FF PUSH3 0x4363 JUMP JUMPDEST JUMPDEST PUSH1 0x1 SWAP1 SUB DUP2 DUP2 SWAP1 PUSH1 0x0 MSTORE PUSH1 0x20 PUSH1 0x0 KECCAK256 ADD PUSH1 0x0 SWAP1 SSTORE SWAP1 SSTORE PUSH3 0x292D JUMP JUMPDEST DUP2 DUP1 PUSH3 0x2929 SWAP1 PUSH3 0x42AC JUMP JUMPDEST SWAP3 POP POP JUMPDEST POP PUSH3 0x2821 JUMP JUMPDEST POP JUMP JUMPDEST PUSH1 0x1 PUSH1 0x2 DUP2 GT ISZERO PUSH3 0x294E JUMPI PUSH3 0x294D PUSH3 0x305F JUMP JUMPDEST JUMPDEST PUSH1 0xE PUSH1 0x0 DUP6 DUP2 MSTORE PUSH1 0x20 ADD SWAP1 DUP2 MSTORE PUSH1 0x20 ADD PUSH1 0x0 KECCAK256 PUSH1 0x0 SWAP1 SLOAD SWAP1 PUSH2 0x100 EXP SWAP1 DIV PUSH1 0xFF AND PUSH1 0x2 DUP2 GT ISZERO PUSH3 0x2984 JUMPI PUSH3 0x2983 PUSH3 0x305F JUMP JUMPDEST JUMPDEST EQ PUSH3 0x29C7 JUMPI PUSH1 0x40 MLOAD PUSH32 0x8C379A000000000000000000000000000000000000000000000000000000000 DUP2 MSTORE PUSH1 0x4 ADD PUSH3 0x29BE SWAP1 PUSH3 0x44BE JUMP JUMPDEST PUSH1 0x40 MLOAD DUP1 SWAP2 SUB SWAP1 REVERT JUMPDEST PUSH1 0x15 PUSH1 0x0 DUP5 DUP2 MSTORE PUSH1 0x20 ADD SWAP1 DUP2 MSTORE PUSH1 0x20 ADD PUSH1 0x0 KECCAK256 PUSH1 0x0 CALLER PUSH20 0xFFFFFFFFFFFFFFFFFFFFFFFFFFFFFFFFFFFFFFFF AND PUSH20 0xFFFFFFFFFFFFFFFFFFFFFFFFFFFFFFFFFFFFFFFF AND DUP2 MSTORE PUSH1 0x20 ADD SWAP1 DUP2 MSTORE PUSH1 0x20 ADD PUSH1 0x0 KECCAK256 PUSH1 0x0 SWAP1 SLOAD SWAP1 PUSH2 0x100 EXP SWAP1 DIV PUSH1 0xFF AND ISZERO PUSH3 0x2A68 JUMPI PUSH1 0x40 MLOAD PUSH32 0x8C379A000000000000000000000000000000000000000000000000000000000 DUP2 MSTORE PUSH1 0x4 ADD PUSH3 0x2A5F SWAP1 PUSH3 0x4556 JUMP JUMPDEST PUSH1 0x40 MLOAD DUP1 SWAP2 SUB SWAP1 REVERT JUMPDEST PUSH1 0x0 DUP2 LT ISZERO DUP1 ISZERO PUSH3 0x2A7A JUMPI POP PUSH1 0x4 DUP2 LT JUMPDEST PUSH3 0x2ABC JUMPI PUSH1 0x40 MLOAD PUSH32 0x8C379A000000000000000000000000000000000000000000000000000000000 DUP2 MSTORE PUSH1 0x4 ADD PUSH3 0x2AB3 SWAP1 PUSH3 0x45C8 JUMP JUMPDEST PUSH1 0x40 MLOAD DUP1 SWAP2 SUB SWAP1 REVERT JUMPDEST PUSH1 0x0 PUSH1 0x17 PUSH1 0x0 DUP4 DUP2 MSTORE PUSH1 0x20 ADD SWAP1 DUP2 MSTORE PUSH1 0x20 ADD PUSH1 0x0 KECCAK256 SLOAD CALLVALUE PUSH3 0x2ADF SWAP2 SWAP1 PUSH3 0x45EA JUMP JUMPDEST SWAP1 POP DUP3 ISZERO PUSH3 0x2B1D JUMPI DUP1 PUSH1 0xF PUSH1 0x0 DUP7 DUP2 MSTORE PUSH1 0x20 ADD SWAP1 DUP2 MSTORE PUSH1 0x20 ADD PUSH1 0x0 KECCAK256 PUSH1 0x8 ADD PUSH1 0x0 DUP3 DUP3 SLOAD PUSH3 0x2B10 SWAP2 SWAP1 PUSH3 0x3B8A JUMP JUMPDEST SWAP3 POP POP DUP2 SWAP1 SSTORE POP PUSH3 0x2B4D JUMP JUMPDEST DUP1 PUSH1 0xF PUSH1 0x0 DUP7 DUP2 MSTORE PUSH1 0x20 ADD SWAP1 DUP2 MSTORE PUSH1 0x20 ADD PUSH1 0x0 KECCAK256 PUSH1 0x9 ADD PUSH1 0x0 DUP3 DUP3 SLOAD PUSH3 0x2B45 SWAP2 SWAP1 PUSH3 0x3B8A JUMP JUMPDEST SWAP3 POP POP DUP2 SWAP1 SSTORE POP JUMPDEST PUSH1 0x1 PUSH1 0x15 PUSH1 0x0 DUP7 DUP2 MSTORE PUSH1 0x20 ADD SWAP1 DUP2 MSTORE PUSH1 0x20 ADD PUSH1 0x0 KECCAK256 PUSH1 0x0 CALLER PUSH20 0xFFFFFFFFFFFFFFFFFFFFFFFFFFFFFFFFFFFFFFFF AND PUSH20 0xFFFFFFFFFFFFFFFFFFFFFFFFFFFFFFFFFFFFFFFF AND DUP2 MSTORE PUSH1 0x20 ADD SWAP1 DUP2 MSTORE PUSH1 0x20 ADD PUSH1 0x0 KECCAK256 PUSH1 0x0 PUSH2 0x100 EXP DUP2 SLOAD DUP2 PUSH1 0xFF MUL NOT AND SWAP1 DUP4 ISZERO ISZERO MUL OR SWAP1 SSTORE POP PUSH1 0x1 PUSH1 0xF PUSH1 0x0 DUP7 DUP2 MSTORE PUSH1 0x20 ADD SWAP1 DUP2 MSTORE PUSH1 0x20 ADD PUSH1 0x0 KECCAK256 PUSH1 0xA ADD PUSH1 0x0 DUP3 DUP3 SLOAD PUSH3 0x2BDF SWAP2 SWAP1 PUSH3 0x3B8A JUMP JUMPDEST SWAP3 POP POP DUP2 SWAP1 SSTORE POP PUSH1 0x0 PUSH1 0x40 MLOAD DUP1 PUSH1 0x60 ADD PUSH1 0x40 MSTORE DUP1 PUSH1 0x16 PUSH1 0x0 DUP7 DUP2 MSTORE PUSH1 0x20 ADD SWAP1 DUP2 MSTORE PUSH1 0x20 ADD PUSH1 0x0 KECCAK256 SLOAD PUSH1 0xF PUSH1 0x0 DUP10 DUP2 MSTORE PUSH1 0x20 ADD SWAP1 DUP2 MSTORE PUSH1 0x20 ADD PUSH1 0x0 KECCAK256 PUSH1 0x6 ADD SLOAD PUSH3 0x2C2A SWAP2 SWAP1 PUSH3 0x3B8A JUMP JUMPDEST DUP2 MSTORE PUSH1 0x20 ADD CALLVALUE DUP2 MSTORE PUSH1 0x20 ADD CALLER PUSH20 0xFFFFFFFFFFFFFFFFFFFFFFFFFFFFFFFFFFFFFFFF AND DUP2 MSTORE POP SWAP1 POP PUSH1 0x18 DUP2 SWAP1 DUP1 PUSH1 0x1 DUP2 SLOAD ADD DUP1 DUP3 SSTORE DUP1 SWAP2 POP POP PUSH1 0x1 SWAP1 SUB SWAP1 PUSH1 0x0 MSTORE PUSH1 0x20 PUSH1 0x0 KECCAK256 SWAP1 PUSH1 0x3 MUL ADD PUSH1 0x0 SWAP1 SWAP2 SWAP1 SWAP2 SWAP1 SWAP2 POP PUSH1 0x0 DUP3 ADD MLOAD DUP2 PUSH1 0x0 ADD SSTORE PUSH1 0x20 DUP3 ADD MLOAD DUP2 PUSH1 0x1 ADD SSTORE PUSH1 0x40 DUP3 ADD MLOAD DUP2 PUSH1 0x2 ADD PUSH1 0x0 PUSH2 0x100 EXP DUP2 SLOAD DUP2 PUSH20 0xFFFFFFFFFFFFFFFFFFFFFFFFFFFFFFFFFFFFFFFF MUL NOT AND SWAP1 DUP4 PUSH20 0xFFFFFFFFFFFFFFFFFFFFFFFFFFFFFFFFFFFFFFFF AND MUL OR SWAP1 SSTORE POP POP POP PUSH32 0x7471237A4E1CC8F43C5CBF54B29859C965BE218917F4E37E236C6D970DE4003A DUP6 CALLER CALLVALUE DUP6 DUP9 DUP9 PUSH1 0x40 MLOAD PUSH3 0x2D15 SWAP7 SWAP6 SWAP5 SWAP4 SWAP3 SWAP2 SWAP1 PUSH3 0x4635 JUMP JUMPDEST PUSH1 0x40 MLOAD DUP1 SWAP2 SUB SWAP1 LOG1 POP POP POP POP POP JUMP JUMPDEST PUSH1 0x15 PUSH1 0x20 MSTORE DUP2 PUSH1 0x0 MSTORE PUSH1 0x40 PUSH1 0x0 KECCAK256 PUSH1 0x20 MSTORE DUP1 PUSH1 0x0 MSTORE PUSH1 0x40 PUSH1 0x0 KECCAK256 PUSH1 0x0 SWAP2 POP SWAP2 POP SWAP1 SLOAD SWAP1 PUSH2 0x100 EXP SWAP1 DIV PUSH1 0xFF AND DUP2 JUMP JUMPDEST PUSH1 0x3 SLOAD DUP2 JUMP JUMPDEST PUSH1 0x60 PUSH1 0x13 DUP1 SLOAD DUP1 PUSH1 0x20 MUL PUSH1 0x20 ADD PUSH1 0x40 MLOAD SWAP1 DUP2 ADD PUSH1 0x40 MSTORE DUP1 SWAP3 SWAP2 SWAP1 DUP2 DUP2 MSTORE PUSH1 0x20 ADD DUP3 DUP1 SLOAD DUP1 ISZERO PUSH3 0x2DDF JUMPI PUSH1 0x20 MUL DUP3 ADD SWAP2 SWAP1 PUSH1 0x0 MSTORE PUSH1 0x20 PUSH1 0x0 KECCAK256 SWAP1 JUMPDEST DUP2 PUSH1 0x0 SWAP1 SLOAD SWAP1 PUSH2 0x100 EXP SWAP1 DIV PUSH20 0xFFFFFFFFFFFFFFFFFFFFFFFFFFFFFFFFFFFFFFFF AND PUSH20 0xFFFFFFFFFFFFFFFFFFFFFFFFFFFFFFFFFFFFFFFF AND DUP2 MSTORE PUSH1 0x20 ADD SWAP1 PUSH1 0x1 ADD SWAP1 DUP1 DUP4 GT PUSH3 0x2D94 JUMPI JUMPDEST POP POP POP POP POP SWAP1 POP SWAP1 JUMP JUMPDEST PUSH1 0x19 PUSH1 0x20 MSTORE DUP1 PUSH1 0x0 MSTORE PUSH1 0x40 PUSH1 0x0 KECCAK256 PUSH1 0x0 SWAP2 POP SWAP1 POP SLOAD DUP2 JUMP JUMPDEST PUSH1 0x7 PUSH1 0x0 SWAP1 SLOAD SWAP1 PUSH2 0x100 EXP SWAP1 DIV PUSH20 0xFFFFFFFFFFFFFFFFFFFFFFFFFFFFFFFFFFFFFFFF AND DUP2 JUMP JUMPDEST PUSH2 0x718 DUP1 PUSH3 0x46A3 DUP4 CODECOPY ADD SWAP1 JUMP JUMPDEST PUSH1 0x0 DUP2 SWAP1 POP SWAP2 SWAP1 POP JUMP JUMPDEST PUSH3 0x2E4A DUP2 PUSH3 0x2E35 JUMP JUMPDEST DUP3 MSTORE POP POP JUMP JUMPDEST PUSH1 0x0 PUSH1 0x20 DUP3 ADD SWAP1 POP PUSH3 0x2E67 PUSH1 0x0 DUP4 ADD DUP5 PUSH3 0x2E3F JUMP JUMPDEST SWAP3 SWAP2 POP POP JUMP JUMPDEST PUSH1 0x0 PUSH1 0x40 MLOAD SWAP1 POP SWAP1 JUMP JUMPDEST PUSH1 0x0 DUP1 REVERT JUMPDEST PUSH1 0x0 DUP1 REVERT JUMPDEST PUSH3 0x2E8C DUP2 PUSH3 0x2E35 JUMP JUMPDEST DUP2 EQ PUSH3 0x2E98 JUMPI PUSH1 0x0 DUP1 REVERT JUMPDEST POP JUMP JUMPDEST PUSH1 0x0 DUP2 CALLDATALOAD SWAP1 POP PUSH3 0x2EAC DUP2 PUSH3 0x2E81 JUMP JUMPDEST SWAP3 SWAP2 POP POP JUMP JUMPDEST PUSH1 0x0 PUSH1 0x20 DUP3 DUP5 SUB SLT ISZERO PUSH3 0x2ECB JUMPI PUSH3 0x2ECA PUSH3 0x2E77 JUMP JUMPDEST JUMPDEST PUSH1 0x0 PUSH3 0x2EDB DUP5 DUP3 DUP6 ADD PUSH3 0x2E9B JUMP JUMPDEST SWAP2 POP POP SWAP3 SWAP2 POP POP JUMP JUMPDEST PUSH1 0x0 PUSH20 0xFFFFFFFFFFFFFFFFFFFFFFFFFFFFFFFFFFFFFFFF DUP3 AND SWAP1 POP SWAP2 SWAP1 POP JUMP JUMPDEST PUSH1 0x0 PUSH3 0x2F11 DUP3 PUSH3 0x2EE4 JUMP JUMPDEST SWAP1 POP SWAP2 SWAP1 POP JUMP JUMPDEST PUSH3 0x2F23 DUP2 PUSH3 0x2F04 JUMP JUMPDEST DUP2 EQ PUSH3 0x2F2F JUMPI PUSH1 0x0 DUP1 REVERT JUMPDEST POP JUMP JUMPDEST PUSH1 0x0 DUP2 CALLDATALOAD SWAP1 POP PUSH3 0x2F43 DUP2 PUSH3 0x2F18 JUMP JUMPDEST SWAP3 SWAP2 POP POP JUMP JUMPDEST PUSH1 0x0 PUSH1 0x20 DUP3 DUP5 SUB SLT ISZERO PUSH3 0x2F62 JUMPI PUSH3 0x2F61 PUSH3 0x2E77 JUMP JUMPDEST JUMPDEST PUSH1 0x0 PUSH3 0x2F72 DUP5 DUP3 DUP6 ADD PUSH3 0x2F32 JUMP JUMPDEST SWAP2 POP POP SWAP3 SWAP2 POP POP JUMP JUMPDEST PUSH1 0x0 DUP1 PUSH1 0x0 PUSH1 0x60 DUP5 DUP7 SUB SLT ISZERO PUSH3 0x2F97 JUMPI PUSH3 0x2F96 PUSH3 0x2E77 JUMP JUMPDEST JUMPDEST PUSH1 0x0 PUSH3 0x2FA7 DUP7 DUP3 DUP8 ADD PUSH3 0x2F32 JUMP JUMPDEST SWAP4 POP POP PUSH1 0x20 PUSH3 0x2FBA DUP7 DUP3 DUP8 ADD PUSH3 0x2E9B JUMP JUMPDEST SWAP3 POP POP PUSH1 0x40 PUSH3 0x2FCD DUP7 DUP3 DUP8 ADD PUSH3 0x2E9B JUMP JUMPDEST SWAP2 POP POP SWAP3 POP SWAP3 POP SWAP3 JUMP JUMPDEST PUSH3 0x2FE2 DUP2 PUSH3 0x2F04 JUMP JUMPDEST DUP3 MSTORE POP POP JUMP JUMPDEST PUSH1 0x0 PUSH1 0x60 DUP3 ADD SWAP1 POP PUSH3 0x2FFF PUSH1 0x0 DUP4 ADD DUP7 PUSH3 0x2E3F JUMP JUMPDEST PUSH3 0x300E PUSH1 0x20 DUP4 ADD DUP6 PUSH3 0x2E3F JUMP JUMPDEST PUSH3 0x301D PUSH1 0x40 DUP4 ADD DUP5 PUSH3 0x2FD7 JUMP JUMPDEST SWAP5 SWAP4 POP POP POP POP JUMP JUMPDEST PUSH1 0x0 DUP2 ISZERO ISZERO SWAP1 POP SWAP2 SWAP1 POP JUMP JUMPDEST PUSH3 0x303C DUP2 PUSH3 0x3025 JUMP JUMPDEST DUP3 MSTORE POP POP JUMP JUMPDEST PUSH1 0x0 PUSH1 0x20 DUP3 ADD SWAP1 POP PUSH3 0x3059 PUSH1 0x0 DUP4 ADD DUP5 PUSH3 0x3031 JUMP JUMPDEST SWAP3 SWAP2 POP POP JUMP JUMPDEST PUSH32 0x4E487B7100000000000000000000000000000000000000000000000000000000 PUSH1 0x0 MSTORE PUSH1 0x21 PUSH1 0x4 MSTORE PUSH1 0x24 PUSH1 0x0 REVERT JUMPDEST PUSH1 0x3 DUP2 LT PUSH3 0x30A2 JUMPI PUSH3 0x30A1 PUSH3 0x305F JUMP JUMPDEST JUMPDEST POP JUMP JUMPDEST PUSH1 0x0 DUP2 SWAP1 POP PUSH3 0x30B5 DUP3 PUSH3 0x308E JUMP JUMPDEST SWAP2 SWAP1 POP JUMP JUMPDEST PUSH1 0x0 PUSH3 0x30C7 DUP3 PUSH3 0x30A5 JUMP JUMPDEST SWAP1 POP SWAP2 SWAP1 POP JUMP JUMPDEST PUSH3 0x30D9 DUP2 PUSH3 0x30BA JUMP JUMPDEST DUP3 MSTORE POP POP JUMP JUMPDEST PUSH1 0x0 PUSH1 0x20 DUP3 ADD SWAP1 POP PUSH3 0x30F6 PUSH1 0x0 DUP4 ADD DUP5 PUSH3 0x30CE JUMP JUMPDEST SWAP3 SWAP2 POP POP JUMP JUMPDEST PUSH1 0x0 DUP1 REVERT JUMPDEST PUSH1 0x0 DUP1 REVERT JUMPDEST PUSH1 0x0 PUSH1 0x1F NOT PUSH1 0x1F DUP4 ADD AND SWAP1 POP SWAP2 SWAP1 POP JUMP JUMPDEST PUSH32 0x4E487B7100000000000000000000000000000000000000000000000000000000 PUSH1 0x0 MSTORE PUSH1 0x41 PUSH1 0x4 MSTORE PUSH1 0x24 PUSH1 0x0 REVERT JUMPDEST PUSH3 0x3151 DUP3 PUSH3 0x3106 JUMP JUMPDEST DUP2 ADD DUP2 DUP2 LT PUSH8 0xFFFFFFFFFFFFFFFF DUP3 GT OR ISZERO PUSH3 0x3173 JUMPI PUSH3 0x3172 PUSH3 0x3117 JUMP JUMPDEST JUMPDEST DUP1 PUSH1 0x40 MSTORE POP POP POP JUMP JUMPDEST PUSH1 0x0 PUSH3 0x3188 PUSH3 0x2E6D JUMP JUMPDEST SWAP1 POP PUSH3 0x3196 DUP3 DUP3 PUSH3 0x3146 JUMP JUMPDEST SWAP2 SWAP1 POP JUMP JUMPDEST PUSH1 0x0 PUSH8 0xFFFFFFFFFFFFFFFF DUP3 GT ISZERO PUSH3 0x31B9 JUMPI PUSH3 0x31B8 PUSH3 0x3117 JUMP JUMPDEST JUMPDEST PUSH3 0x31C4 DUP3 PUSH3 0x3106 JUMP JUMPDEST SWAP1 POP PUSH1 0x20 DUP2 ADD SWAP1 POP SWAP2 SWAP1 POP JUMP JUMPDEST DUP3 DUP2 DUP4 CALLDATACOPY PUSH1 0x0 DUP4 DUP4 ADD MSTORE POP POP POP JUMP JUMPDEST PUSH1 0x0 PUSH3 0x31F7 PUSH3 0x31F1 DUP5 PUSH3 0x319B JUMP JUMPDEST PUSH3 0x317C JUMP JUMPDEST SWAP1 POP DUP3 DUP2 MSTORE PUSH1 0x20 DUP2 ADD DUP5 DUP5 DUP5 ADD GT ISZERO PUSH3 0x3216 JUMPI PUSH3 0x3215 PUSH3 0x3101 JUMP JUMPDEST JUMPDEST PUSH3 0x3223 DUP5 DUP3 DUP6 PUSH3 0x31D1 JUMP JUMPDEST POP SWAP4 SWAP3 POP POP POP JUMP JUMPDEST PUSH1 0x0 DUP3 PUSH1 0x1F DUP4 ADD SLT PUSH3 0x3243 JUMPI PUSH3 0x3242 PUSH3 0x30FC JUMP JUMPDEST JUMPDEST DUP2 CALLDATALOAD PUSH3 0x3255 DUP5 DUP3 PUSH1 0x20 DUP7 ADD PUSH3 0x31E0 JUMP JUMPDEST SWAP2 POP POP SWAP3 SWAP2 POP POP JUMP JUMPDEST PUSH1 0x0 DUP1 PUSH1 0x0 DUP1 PUSH1 0x0 DUP1 PUSH1 0xC0 DUP8 DUP10 SUB SLT ISZERO PUSH3 0x327E JUMPI PUSH3 0x327D PUSH3 0x2E77 JUMP JUMPDEST JUMPDEST PUSH1 0x0 PUSH3 0x328E DUP10 DUP3 DUP11 ADD PUSH3 0x2F32 JUMP JUMPDEST SWAP7 POP POP PUSH1 0x20 PUSH3 0x32A1 DUP10 DUP3 DUP11 ADD PUSH3 0x2E9B JUMP JUMPDEST SWAP6 POP POP PUSH1 0x40 DUP8 ADD CALLDATALOAD PUSH8 0xFFFFFFFFFFFFFFFF DUP2 GT ISZERO PUSH3 0x32C5 JUMPI PUSH3 0x32C4 PUSH3 0x2E7C JUMP JUMPDEST JUMPDEST PUSH3 0x32D3 DUP10 DUP3 DUP11 ADD PUSH3 0x322B JUMP JUMPDEST SWAP5 POP POP PUSH1 0x60 PUSH3 0x32E6 DUP10 DUP3 DUP11 ADD PUSH3 0x2E9B JUMP JUMPDEST SWAP4 POP POP PUSH1 0x80 PUSH3 0x32F9 DUP10 DUP3 DUP11 ADD PUSH3 0x2E9B JUMP JUMPDEST SWAP3 POP POP PUSH1 0xA0 PUSH3 0x330C DUP10 DUP3 DUP11 ADD PUSH3 0x2E9B JUMP JUMPDEST SWAP2 POP POP SWAP3 SWAP6 POP SWAP3 SWAP6 POP SWAP3 SWAP6 JUMP JUMPDEST PUSH1 0x0 DUP2 MLOAD SWAP1 POP SWAP2 SWAP1 POP JUMP JUMPDEST PUSH1 0x0 DUP3 DUP3 MSTORE PUSH1 0x20 DUP3 ADD SWAP1 POP SWAP3 SWAP2 POP POP JUMP JUMPDEST PUSH1 0x0 DUP2 SWAP1 POP PUSH1 0x20 DUP3 ADD SWAP1 POP SWAP2 SWAP1 POP JUMP JUMPDEST PUSH3 0x3350 DUP2 PUSH3 0x2E35 JUMP JUMPDEST DUP3 MSTORE POP POP JUMP JUMPDEST PUSH1 0x0 PUSH3 0x3364 DUP4 DUP4 PUSH3 0x3345 JUMP JUMPDEST PUSH1 0x20 DUP4 ADD SWAP1 POP SWAP3 SWAP2 POP POP JUMP JUMPDEST PUSH1 0x0 PUSH1 0x20 DUP3 ADD SWAP1 POP SWAP2 SWAP1 POP JUMP JUMPDEST PUSH1 0x0 PUSH3 0x338A DUP3 PUSH3 0x3319 JUMP JUMPDEST PUSH3 0x3396 DUP2 DUP6 PUSH3 0x3324 JUMP JUMPDEST SWAP4 POP PUSH3 0x33A3 DUP4 PUSH3 0x3335 JUMP JUMPDEST DUP1 PUSH1 0x0 JUMPDEST DUP4 DUP2 LT ISZERO PUSH3 0x33DA JUMPI DUP2 MLOAD PUSH3 0x33BE DUP9 DUP3 PUSH3 0x3356 JUMP JUMPDEST SWAP8 POP PUSH3 0x33CB DUP4 PUSH3 0x3370 JUMP JUMPDEST SWAP3 POP POP PUSH1 0x1 DUP2 ADD SWAP1 POP PUSH3 0x33A7 JUMP JUMPDEST POP DUP6 SWAP4 POP POP POP POP SWAP3 SWAP2 POP POP JUMP JUMPDEST PUSH1 0x0 PUSH1 0x20 DUP3 ADD SWAP1 POP DUP2 DUP2 SUB PUSH1 0x0 DUP4 ADD MSTORE PUSH3 0x3403 DUP2 DUP5 PUSH3 0x337D JUMP JUMPDEST SWAP1 POP SWAP3 SWAP2 POP POP JUMP JUMPDEST PUSH1 0x0 DUP1 PUSH1 0x40 DUP4 DUP6 SUB SLT ISZERO PUSH3 0x3425 JUMPI PUSH3 0x3424 PUSH3 0x2E77 JUMP JUMPDEST JUMPDEST PUSH1 0x0 PUSH3 0x3435 DUP6 DUP3 DUP7 ADD PUSH3 0x2F32 JUMP JUMPDEST SWAP3 POP POP PUSH1 0x20 PUSH3 0x3448 DUP6 DUP3 DUP7 ADD PUSH3 0x2E9B JUMP JUMPDEST SWAP2 POP POP SWAP3 POP SWAP3 SWAP1 POP JUMP JUMPDEST PUSH1 0x0 PUSH1 0x20 DUP3 ADD SWAP1 POP PUSH3 0x3469 PUSH1 0x0 DUP4 ADD DUP5 PUSH3 0x2FD7 JUMP JUMPDEST SWAP3 SWAP2 POP POP JUMP JUMPDEST PUSH1 0x0 DUP2 MLOAD SWAP1 POP SWAP2 SWAP1 POP JUMP JUMPDEST PUSH1 0x0 DUP3 DUP3 MSTORE PUSH1 0x20 DUP3 ADD SWAP1 POP SWAP3 SWAP2 POP POP JUMP JUMPDEST PUSH1 0x0 JUMPDEST DUP4 DUP2 LT ISZERO PUSH3 0x34AB JUMPI DUP1 DUP3 ADD MLOAD DUP2 DUP5 ADD MSTORE PUSH1 0x20 DUP2 ADD SWAP1 POP PUSH3 0x348E JUMP JUMPDEST PUSH1 0x0 DUP5 DUP5 ADD MSTORE POP POP POP POP JUMP JUMPDEST PUSH1 0x0 PUSH3 0x34C4 DUP3 PUSH3 0x346F JUMP JUMPDEST PUSH3 0x34D0 DUP2 DUP6 PUSH3 0x347A JUMP JUMPDEST SWAP4 POP PUSH3 0x34E2 DUP2 DUP6 PUSH1 0x20 DUP7 ADD PUSH3 0x348B JUMP JUMPDEST PUSH3 0x34ED DUP2 PUSH3 0x3106 JUMP JUMPDEST DUP5 ADD SWAP2 POP POP SWAP3 SWAP2 POP POP JUMP JUMPDEST PUSH1 0x0 PUSH2 0x180 DUP3 ADD SWAP1 POP PUSH3 0x3510 PUSH1 0x0 DUP4 ADD DUP16 PUSH3 0x2E3F JUMP JUMPDEST PUSH3 0x351F PUSH1 0x20 DUP4 ADD DUP15 PUSH3 0x2FD7 JUMP JUMPDEST PUSH3 0x352E PUSH1 0x40 DUP4 ADD DUP14 PUSH3 0x2FD7 JUMP JUMPDEST PUSH3 0x353D PUSH1 0x60 DUP4 ADD DUP13 PUSH3 0x2E3F JUMP JUMPDEST DUP2 DUP2 SUB PUSH1 0x80 DUP4 ADD MSTORE PUSH3 0x3551 DUP2 DUP12 PUSH3 0x34B7 JUMP JUMPDEST SWAP1 POP PUSH3 0x3562 PUSH1 0xA0 DUP4 ADD DUP11 PUSH3 0x2E3F JUMP JUMPDEST PUSH3 0x3571 PUSH1 0xC0 DUP4 ADD DUP10 PUSH3 0x2E3F JUMP JUMPDEST PUSH3 0x3580 PUSH1 0xE0 DUP4 ADD DUP9 PUSH3 0x2E3F JUMP JUMPDEST PUSH3 0x3590 PUSH2 0x100 DUP4 ADD DUP8 PUSH3 0x2E3F JUMP JUMPDEST PUSH3 0x35A0 PUSH2 0x120 DUP4 ADD DUP7 PUSH3 0x2E3F JUMP JUMPDEST PUSH3 0x35B0 PUSH2 0x140 DUP4 ADD DUP6 PUSH3 0x2E3F JUMP JUMPDEST PUSH3 0x35C0 PUSH2 0x160 DUP4 ADD DUP5 PUSH3 0x3031 JUMP JUMPDEST SWAP14 SWAP13 POP POP POP POP POP POP POP POP POP POP POP POP POP JUMP JUMPDEST PUSH1 0x0 DUP2 MLOAD SWAP1 POP SWAP2 SWAP1 POP JUMP JUMPDEST PUSH1 0x0 DUP3 DUP3 MSTORE PUSH1 0x20 DUP3 ADD SWAP1 POP SWAP3 SWAP2 POP POP JUMP JUMPDEST PUSH1 0x0 DUP2 SWAP1 POP PUSH1 0x20 DUP3 ADD SWAP1 POP SWAP2 SWAP1 POP JUMP JUMPDEST PUSH3 0x3608 DUP2 PUSH3 0x2F04 JUMP JUMPDEST DUP3 MSTORE POP POP JUMP JUMPDEST PUSH1 0x60 DUP3 ADD PUSH1 0x0 DUP3 ADD MLOAD PUSH3 0x3626 PUSH1 0x0 DUP6 ADD DUP3 PUSH3 0x3345 JUMP JUMPDEST POP PUSH1 0x20 DUP3 ADD MLOAD PUSH3 0x363B PUSH1 0x20 DUP6 ADD DUP3 PUSH3 0x3345 JUMP JUMPDEST POP PUSH1 0x40 DUP3 ADD MLOAD PUSH3 0x3650 PUSH1 0x40 DUP6 ADD DUP3 PUSH3 0x35FD JUMP JUMPDEST POP POP POP POP JUMP JUMPDEST PUSH1 0x0 PUSH3 0x3664 DUP4 DUP4 PUSH3 0x360E JUMP JUMPDEST PUSH1 0x60 DUP4 ADD SWAP1 POP SWAP3 SWAP2 POP POP JUMP JUMPDEST PUSH1 0x0 PUSH1 0x20 DUP3 ADD SWAP1 POP SWAP2 SWAP1 POP JUMP JUMPDEST PUSH1 0x0 PUSH3 0x368A DUP3 PUSH3 0x35D1 JUMP JUMPDEST PUSH3 0x3696 DUP2 DUP6 PUSH3 0x35DC JUMP JUMPDEST SWAP4 POP PUSH3 0x36A3 DUP4 PUSH3 0x35ED JUMP JUMPDEST DUP1 PUSH1 0x0 JUMPDEST DUP4 DUP2 LT ISZERO PUSH3 0x36DA JUMPI DUP2 MLOAD PUSH3 0x36BE DUP9 DUP3 PUSH3 0x3656 JUMP JUMPDEST SWAP8 POP PUSH3 0x36CB DUP4 PUSH3 0x3670 JUMP JUMPDEST SWAP3 POP POP PUSH1 0x1 DUP2 ADD SWAP1 POP PUSH3 0x36A7 JUMP JUMPDEST POP DUP6 SWAP4 POP POP POP POP SWAP3 SWAP2 POP POP JUMP JUMPDEST PUSH1 0x0 PUSH1 0x20 DUP3 ADD SWAP1 POP DUP2 DUP2 SUB PUSH1 0x0 DUP4 ADD MSTORE PUSH3 0x3703 DUP2 DUP5 PUSH3 0x367D JUMP JUMPDEST SWAP1 POP SWAP3 SWAP2 POP POP JUMP JUMPDEST PUSH3 0x3716 DUP2 PUSH3 0x3025 JUMP JUMPDEST DUP2 EQ PUSH3 0x3722 JUMPI PUSH1 0x0 DUP1 REVERT JUMPDEST POP JUMP JUMPDEST PUSH1 0x0 DUP2 CALLDATALOAD SWAP1 POP PUSH3 0x3736 DUP2 PUSH3 0x370B JUMP JUMPDEST SWAP3 SWAP2 POP POP JUMP JUMPDEST PUSH1 0x0 DUP1 PUSH1 0x0 PUSH1 0x60 DUP5 DUP7 SUB SLT ISZERO PUSH3 0x3758 JUMPI PUSH3 0x3757 PUSH3 0x2E77 JUMP JUMPDEST JUMPDEST PUSH1 0x0 PUSH3 0x3768 DUP7 DUP3 DUP8 ADD PUSH3 0x2E9B JUMP JUMPDEST SWAP4 POP POP PUSH1 0x20 PUSH3 0x377B DUP7 DUP3 DUP8 ADD PUSH3 0x3725 JUMP JUMPDEST SWAP3 POP POP PUSH1 0x40 PUSH3 0x378E DUP7 DUP3 DUP8 ADD PUSH3 0x2E9B JUMP JUMPDEST SWAP2 POP POP SWAP3 POP SWAP3 POP SWAP3 JUMP JUMPDEST PUSH1 0x0 DUP1 PUSH1 0x40 DUP4 DUP6 SUB SLT ISZERO PUSH3 0x37B2 JUMPI PUSH3 0x37B1 PUSH3 0x2E77 JUMP JUMPDEST JUMPDEST PUSH1 0x0 PUSH3 0x37C2 DUP6 DUP3 DUP7 ADD PUSH3 0x2E9B JUMP JUMPDEST SWAP3 POP POP PUSH1 0x20 PUSH3 0x37D5 DUP6 DUP3 DUP7 ADD PUSH3 0x2F32 JUMP JUMPDEST SWAP2 POP POP SWAP3 POP SWAP3 SWAP1 POP JUMP JUMPDEST PUSH1 0x0 DUP2 MLOAD SWAP1 POP SWAP2 SWAP1 POP JUMP JUMPDEST PUSH1 0x0 DUP3 DUP3 MSTORE PUSH1 0x20 DUP3 ADD SWAP1 POP SWAP3 SWAP2 POP POP JUMP JUMPDEST PUSH1 0x0 DUP2 SWAP1 POP PUSH1 0x20 DUP3 ADD SWAP1 POP SWAP2 SWAP1 POP JUMP JUMPDEST PUSH1 0x0 PUSH3 0x3819 DUP4 DUP4 PUSH3 0x35FD JUMP JUMPDEST PUSH1 0x20 DUP4 ADD SWAP1 POP SWAP3 SWAP2 POP POP JUMP JUMPDEST PUSH1 0x0 PUSH1 0x20 DUP3 ADD SWAP1 POP SWAP2 SWAP1 POP JUMP JUMPDEST PUSH1 0x0 PUSH3 0x383F DUP3 PUSH3 0x37DF JUMP JUMPDEST PUSH3 0x384B DUP2 DUP6 PUSH3 0x37EA JUMP JUMPDEST SWAP4 POP PUSH3 0x3858 DUP4 PUSH3 0x37FB JUMP JUMPDEST DUP1 PUSH1 0x0 JUMPDEST DUP4 DUP2 LT ISZERO PUSH3 0x388F JUMPI DUP2 MLOAD PUSH3 0x3873 DUP9 DUP3 PUSH3 0x380B JUMP JUMPDEST SWAP8 POP PUSH3 0x3880 DUP4 PUSH3 0x3825 JUMP JUMPDEST SWAP3 POP POP PUSH1 0x1 DUP2 ADD SWAP1 POP PUSH3 0x385C JUMP JUMPDEST POP DUP6 SWAP4 POP POP POP POP SWAP3 SWAP2 POP POP JUMP JUMPDEST PUSH1 0x0 PUSH1 0x20 DUP3 ADD SWAP1 POP DUP2 DUP2 SUB PUSH1 0x0 DUP4 ADD MSTORE PUSH3 0x38B8 DUP2 DUP5 PUSH3 0x3832 JUMP JUMPDEST SWAP1 POP SWAP3 SWAP2 POP POP JUMP JUMPDEST PUSH32 0x73636F72652072616E6765206973203020746F20313030000000000000000000 PUSH1 0x0 DUP3 ADD MSTORE POP JUMP JUMPDEST PUSH1 0x0 PUSH3 0x38F8 PUSH1 0x17 DUP4 PUSH3 0x347A JUMP JUMPDEST SWAP2 POP PUSH3 0x3905 DUP3 PUSH3 0x38C0 JUMP JUMPDEST PUSH1 0x20 DUP3 ADD SWAP1 POP SWAP2 SWAP1 POP JUMP JUMPDEST PUSH1 0x0 PUSH1 0x20 DUP3 ADD SWAP1 POP DUP2 DUP2 SUB PUSH1 0x0 DUP4 ADD MSTORE PUSH3 0x392B DUP2 PUSH3 0x38E9 JUMP JUMPDEST SWAP1 POP SWAP2 SWAP1 POP JUMP JUMPDEST PUSH1 0x0 DUP2 MLOAD SWAP1 POP PUSH3 0x3943 DUP2 PUSH3 0x2F18 JUMP JUMPDEST SWAP3 SWAP2 POP POP JUMP JUMPDEST PUSH1 0x0 PUSH1 0x20 DUP3 DUP5 SUB SLT ISZERO PUSH3 0x3962 JUMPI PUSH3 0x3961 PUSH3 0x2E77 JUMP JUMPDEST JUMPDEST PUSH1 0x0 PUSH3 0x3972 DUP5 DUP3 DUP6 ADD PUSH3 0x3932 JUMP JUMPDEST SWAP2 POP POP SWAP3 SWAP2 POP POP JUMP JUMPDEST PUSH32 0x6D7573742062652061646D696E206F662074686520747265617375727920746F PUSH1 0x0 DUP3 ADD MSTORE PUSH32 0x2073636F72650000000000000000000000000000000000000000000000000000 PUSH1 0x20 DUP3 ADD MSTORE POP JUMP JUMPDEST PUSH1 0x0 PUSH3 0x39D9 PUSH1 0x26 DUP4 PUSH3 0x347A JUMP JUMPDEST SWAP2 POP PUSH3 0x39E6 DUP3 PUSH3 0x397B JUMP JUMPDEST PUSH1 0x40 DUP3 ADD SWAP1 POP SWAP2 SWAP1 POP JUMP JUMPDEST PUSH1 0x0 PUSH1 0x20 DUP3 ADD SWAP1 POP DUP2 DUP2 SUB PUSH1 0x0 DUP4 ADD MSTORE PUSH3 0x3A0C DUP2 PUSH3 0x39CA JUMP JUMPDEST SWAP1 POP SWAP2 SWAP1 POP JUMP JUMPDEST PUSH32 0x4E487B7100000000000000000000000000000000000000000000000000000000 PUSH1 0x0 MSTORE PUSH1 0x22 PUSH1 0x4 MSTORE PUSH1 0x24 PUSH1 0x0 REVERT JUMPDEST PUSH1 0x0 PUSH1 0x2 DUP3 DIV SWAP1 POP PUSH1 0x1 DUP3 AND DUP1 PUSH3 0x3A5B JUMPI PUSH1 0x7F DUP3 AND SWAP2 POP JUMPDEST PUSH1 0x20 DUP3 LT DUP2 SUB PUSH3 0x3A71 JUMPI PUSH3 0x3A70 PUSH3 0x3A13 JUMP JUMPDEST JUMPDEST POP SWAP2 SWAP1 POP JUMP JUMPDEST PUSH32 0x6E6F7420747265617375726572206F66207265666572656E64756D496E646578 PUSH1 0x0 DUP3 ADD MSTORE POP JUMP JUMPDEST PUSH1 0x0 PUSH3 0x3AAF PUSH1 0x20 DUP4 PUSH3 0x347A JUMP JUMPDEST SWAP2 POP PUSH3 0x3ABC DUP3 PUSH3 0x3A77 JUMP JUMPDEST PUSH1 0x20 DUP3 ADD SWAP1 POP SWAP2 SWAP1 POP JUMP JUMPDEST PUSH1 0x0 PUSH1 0x20 DUP3 ADD SWAP1 POP DUP2 DUP2 SUB PUSH1 0x0 DUP4 ADD MSTORE PUSH3 0x3AE2 DUP2 PUSH3 0x3AA0 JUMP JUMPDEST SWAP1 POP SWAP2 SWAP1 POP JUMP JUMPDEST PUSH32 0x73636F72696E67206E6F7420616C6C6F77656420796574000000000000000000 PUSH1 0x0 DUP3 ADD MSTORE POP JUMP JUMPDEST PUSH1 0x0 PUSH3 0x3B21 PUSH1 0x17 DUP4 PUSH3 0x347A JUMP JUMPDEST SWAP2 POP PUSH3 0x3B2E DUP3 PUSH3 0x3AE9 JUMP JUMPDEST PUSH1 0x20 DUP3 ADD SWAP1 POP SWAP2 SWAP1 POP JUMP JUMPDEST PUSH1 0x0 PUSH1 0x20 DUP3 ADD SWAP1 POP DUP2 DUP2 SUB PUSH1 0x0 DUP4 ADD MSTORE PUSH3 0x3B54 DUP2 PUSH3 0x3B12 JUMP JUMPDEST SWAP1 POP SWAP2 SWAP1 POP JUMP JUMPDEST PUSH32 0x4E487B7100000000000000000000000000000000000000000000000000000000 PUSH1 0x0 MSTORE PUSH1 0x11 PUSH1 0x4 MSTORE PUSH1 0x24 PUSH1 0x0 REVERT JUMPDEST PUSH1 0x0 PUSH3 0x3B97 DUP3 PUSH3 0x2E35 JUMP JUMPDEST SWAP2 POP PUSH3 0x3BA4 DUP4 PUSH3 0x2E35 JUMP JUMPDEST SWAP3 POP DUP3 DUP3 ADD SWAP1 POP DUP1 DUP3 GT ISZERO PUSH3 0x3BBF JUMPI PUSH3 0x3BBE PUSH3 0x3B5B JUMP JUMPDEST JUMPDEST SWAP3 SWAP2 POP POP JUMP JUMPDEST PUSH32 0x4E487B7100000000000000000000000000000000000000000000000000000000 PUSH1 0x0 MSTORE PUSH1 0x12 PUSH1 0x4 MSTORE PUSH1 0x24 PUSH1 0x0 REVERT JUMPDEST PUSH1 0x0 PUSH3 0x3C01 DUP3 PUSH3 0x2E35 JUMP JUMPDEST SWAP2 POP PUSH3 0x3C0E DUP4 PUSH3 0x2E35 JUMP JUMPDEST SWAP3 POP DUP3 PUSH3 0x3C21 JUMPI PUSH3 0x3C20 PUSH3 0x3BC5 JUMP JUMPDEST JUMPDEST DUP3 DUP3 DIV SWAP1 POP SWAP3 SWAP2 POP POP JUMP JUMPDEST PUSH32 0x6E65656420746F20706179206174206C656173742072656672656E64756D4665 PUSH1 0x0 DUP3 ADD MSTORE PUSH32 0x6520746F206372656174652061206E6577207265666572656E64756D00000000 PUSH1 0x20 DUP3 ADD MSTORE POP JUMP JUMPDEST PUSH1 0x0 PUSH3 0x3C8A PUSH1 0x3C DUP4 PUSH3 0x347A JUMP JUMPDEST SWAP2 POP PUSH3 0x3C97 DUP3 PUSH3 0x3C2C JUMP JUMPDEST PUSH1 0x40 DUP3 ADD SWAP1 POP SWAP2 SWAP1 POP JUMP JUMPDEST PUSH1 0x0 PUSH1 0x20 DUP3 ADD SWAP1 POP DUP2 DUP2 SUB PUSH1 0x0 DUP4 ADD MSTORE PUSH3 0x3CBD DUP2 PUSH3 0x3C7B JUMP JUMPDEST SWAP1 POP SWAP2 SWAP1 POP JUMP JUMPDEST PUSH32 0x62656E65666963696172792073636F726520746F6F206C6F7720666F72207468 PUSH1 0x0 DUP3 ADD MSTORE PUSH32 0x697320616D6F756E740000000000000000000000000000000000000000000000 PUSH1 0x20 DUP3 ADD MSTORE POP JUMP JUMPDEST PUSH1 0x0 PUSH3 0x3D22 PUSH1 0x29 DUP4 PUSH3 0x347A JUMP JUMPDEST SWAP2 POP PUSH3 0x3D2F DUP3 PUSH3 0x3CC4 JUMP JUMPDEST PUSH1 0x40 DUP3 ADD SWAP1 POP SWAP2 SWAP1 POP JUMP JUMPDEST PUSH1 0x0 PUSH1 0x20 DUP3 ADD SWAP1 POP DUP2 DUP2 SUB PUSH1 0x0 DUP4 ADD MSTORE PUSH3 0x3D55 DUP2 PUSH3 0x3D13 JUMP JUMPDEST SWAP1 POP SWAP2 SWAP1 POP JUMP JUMPDEST PUSH32 0x7472656173757279206164647265737320706173736564206973206E6F742061 PUSH1 0x0 DUP3 ADD MSTORE PUSH32 0x2074726561737572657200000000000000000000000000000000000000000000 PUSH1 0x20 DUP3 ADD MSTORE POP JUMP JUMPDEST PUSH1 0x0 PUSH3 0x3DBA PUSH1 0x2A DUP4 PUSH3 0x347A JUMP JUMPDEST SWAP2 POP PUSH3 0x3DC7 DUP3 PUSH3 0x3D5C JUMP JUMPDEST PUSH1 0x40 DUP3 ADD SWAP1 POP SWAP2 SWAP1 POP JUMP JUMPDEST PUSH1 0x0 PUSH1 0x20 DUP3 ADD SWAP1 POP DUP2 DUP2 SUB PUSH1 0x0 DUP4 ADD MSTORE PUSH3 0x3DED DUP2 PUSH3 0x3DAB JUMP JUMPDEST SWAP1 POP SWAP2 SWAP1 POP JUMP JUMPDEST PUSH32 0x74726561737572657220646F6573206E6F74206861766520656E6F7567682066 PUSH1 0x0 DUP3 ADD MSTORE PUSH32 0x756E647300000000000000000000000000000000000000000000000000000000 PUSH1 0x20 DUP3 ADD MSTORE POP JUMP JUMPDEST PUSH1 0x0 PUSH3 0x3E52 PUSH1 0x24 DUP4 PUSH3 0x347A JUMP JUMPDEST SWAP2 POP PUSH3 0x3E5F DUP3 PUSH3 0x3DF4 JUMP JUMPDEST PUSH1 0x40 DUP3 ADD SWAP1 POP SWAP2 SWAP1 POP JUMP JUMPDEST PUSH1 0x0 PUSH1 0x20 DUP3 ADD SWAP1 POP DUP2 DUP2 SUB PUSH1 0x0 DUP4 ADD MSTORE PUSH3 0x3E85 DUP2 PUSH3 0x3E43 JUMP JUMPDEST SWAP1 POP SWAP2 SWAP1 POP JUMP JUMPDEST PUSH32 0x7374617274496E4E756D426C6F636B73206D757374206265206C657373207468 PUSH1 0x0 DUP3 ADD MSTORE PUSH32 0x616E203230000000000000000000000000000000000000000000000000000000 PUSH1 0x20 DUP3 ADD MSTORE POP JUMP JUMPDEST PUSH1 0x0 PUSH3 0x3EEA PUSH1 0x25 DUP4 PUSH3 0x347A JUMP JUMPDEST SWAP2 POP PUSH3 0x3EF7 DUP3 PUSH3 0x3E8C JUMP JUMPDEST PUSH1 0x40 DUP3 ADD SWAP1 POP SWAP2 SWAP1 POP JUMP JUMPDEST PUSH1 0x0 PUSH1 0x20 DUP3 ADD SWAP1 POP DUP2 DUP2 SUB PUSH1 0x0 DUP4 ADD MSTORE PUSH3 0x3F1D DUP2 PUSH3 0x3EDB JUMP JUMPDEST SWAP1 POP SWAP2 SWAP1 POP JUMP JUMPDEST PUSH32 0x6475726174696F6E206D757374206265203C3D323031363030206E203E3D3230 PUSH1 0x0 DUP3 ADD MSTORE POP JUMP JUMPDEST PUSH1 0x0 PUSH3 0x3F5C PUSH1 0x20 DUP4 PUSH3 0x347A JUMP JUMPDEST SWAP2 POP PUSH3 0x3F69 DUP3 PUSH3 0x3F24 JUMP JUMPDEST PUSH1 0x20 DUP3 ADD SWAP1 POP SWAP2 SWAP1 POP JUMP JUMPDEST PUSH1 0x0 PUSH1 0x20 DUP3 ADD SWAP1 POP DUP2 DUP2 SUB PUSH1 0x0 DUP4 ADD MSTORE PUSH3 0x3F8F DUP2 PUSH3 0x3F4D JUMP JUMPDEST SWAP1 POP SWAP2 SWAP1 POP JUMP JUMPDEST PUSH1 0x0 DUP2 SWAP1 POP DUP2 PUSH1 0x0 MSTORE PUSH1 0x20 PUSH1 0x0 KECCAK256 SWAP1 POP SWAP2 SWAP1 POP JUMP JUMPDEST PUSH1 0x0 PUSH1 0x20 PUSH1 0x1F DUP4 ADD DIV SWAP1 POP SWAP2 SWAP1 POP JUMP JUMPDEST PUSH1 0x0 DUP3 DUP3 SHL SWAP1 POP SWAP3 SWAP2 POP POP JUMP JUMPDEST PUSH1 0x0 PUSH1 0x8 DUP4 MUL PUSH3 0x3FFA PUSH32 0xFFFFFFFFFFFFFFFFFFFFFFFFFFFFFFFFFFFFFFFFFFFFFFFFFFFFFFFFFFFFFFFF DUP3 PUSH3 0x3FBB JUMP JUMPDEST PUSH3 0x4006 DUP7 DUP4 PUSH3 0x3FBB JUMP JUMPDEST SWAP6 POP DUP1 NOT DUP5 AND SWAP4 POP DUP1 DUP7 AND DUP5 OR SWAP3 POP POP POP SWAP4 SWAP3 POP POP POP JUMP JUMPDEST PUSH1 0x0 DUP2 SWAP1 POP SWAP2 SWAP1 POP JUMP JUMPDEST PUSH1 0x0 PUSH3 0x4049 PUSH3 0x4043 PUSH3 0x403D DUP5 PUSH3 0x2E35 JUMP JUMPDEST PUSH3 0x401E JUMP JUMPDEST PUSH3 0x2E35 JUMP JUMPDEST SWAP1 POP SWAP2 SWAP1 POP JUMP JUMPDEST PUSH1 0x0 DUP2 SWAP1 POP SWAP2 SWAP1 POP JUMP JUMPDEST PUSH3 0x4065 DUP4 PUSH3 0x4028 JUMP JUMPDEST PUSH3 0x407D PUSH3 0x4074 DUP3 PUSH3 0x4050 JUMP JUMPDEST DUP5 DUP5 SLOAD PUSH3 0x3FC8 JUMP JUMPDEST DUP3 SSTORE POP POP POP POP JUMP JUMPDEST PUSH1 0x0 SWAP1 JUMP JUMPDEST PUSH3 0x4094 PUSH3 0x4085 JUMP JUMPDEST PUSH3 0x40A1 DUP2 DUP5 DUP5 PUSH3 0x405A JUMP JUMPDEST POP POP POP JUMP JUMPDEST JUMPDEST DUP2 DUP2 LT ISZERO PUSH3 0x40C9 JUMPI PUSH3 0x40BD PUSH1 0x0 DUP3 PUSH3 0x408A JUMP JUMPDEST PUSH1 0x1 DUP2 ADD SWAP1 POP PUSH3 0x40A7 JUMP JUMPDEST POP POP JUMP JUMPDEST PUSH1 0x1F DUP3 GT ISZERO PUSH3 0x4118 JUMPI PUSH3 0x40E2 DUP2 PUSH3 0x3F96 JUMP JUMPDEST PUSH3 0x40ED DUP5 PUSH3 0x3FAB JUMP JUMPDEST DUP2 ADD PUSH1 0x20 DUP6 LT ISZERO PUSH3 0x40FD JUMPI DUP2 SWAP1 POP JUMPDEST PUSH3 0x4115 PUSH3 0x410C DUP6 PUSH3 0x3FAB JUMP JUMPDEST DUP4 ADD DUP3 PUSH3 0x40A6 JUMP JUMPDEST POP POP JUMPDEST POP POP POP JUMP JUMPDEST PUSH1 0x0 DUP3 DUP3 SHR SWAP1 POP SWAP3 SWAP2 POP POP JUMP JUMPDEST PUSH1 0x0 PUSH3 0x413D PUSH1 0x0 NOT DUP5 PUSH1 0x8 MUL PUSH3 0x411D JUMP JUMPDEST NOT DUP1 DUP4 AND SWAP2 POP POP SWAP3 SWAP2 POP POP JUMP JUMPDEST PUSH1 0x0 PUSH3 0x4158 DUP4 DUP4 PUSH3 0x412A JUMP JUMPDEST SWAP2 POP DUP3 PUSH1 0x2 MUL DUP3 OR SWAP1 POP SWAP3 SWAP2 POP POP JUMP JUMPDEST PUSH3 0x4173 DUP3 PUSH3 0x346F JUMP JUMPDEST PUSH8 0xFFFFFFFFFFFFFFFF DUP2 GT ISZERO PUSH3 0x418F JUMPI PUSH3 0x418E PUSH3 0x3117 JUMP JUMPDEST JUMPDEST PUSH3 0x419B DUP3 SLOAD PUSH3 0x3A42 JUMP JUMPDEST PUSH3 0x41A8 DUP3 DUP3 DUP6 PUSH3 0x40CD JUMP JUMPDEST PUSH1 0x0 PUSH1 0x20 SWAP1 POP PUSH1 0x1F DUP4 GT PUSH1 0x1 DUP2 EQ PUSH3 0x41E0 JUMPI PUSH1 0x0 DUP5 ISZERO PUSH3 0x41CB JUMPI DUP3 DUP8 ADD MLOAD SWAP1 POP JUMPDEST PUSH3 0x41D7 DUP6 DUP3 PUSH3 0x414A JUMP JUMPDEST DUP7 SSTORE POP PUSH3 0x4247 JUMP JUMPDEST PUSH1 0x1F NOT DUP5 AND PUSH3 0x41F0 DUP7 PUSH3 0x3F96 JUMP JUMPDEST PUSH1 0x0 JUMPDEST DUP3 DUP2 LT ISZERO PUSH3 0x421A JUMPI DUP5 DUP10 ADD MLOAD DUP3 SSTORE PUSH1 0x1 DUP3 ADD SWAP2 POP PUSH1 0x20 DUP6 ADD SWAP5 POP PUSH1 0x20 DUP2 ADD SWAP1 POP PUSH3 0x41F3 JUMP JUMPDEST DUP7 DUP4 LT ISZERO PUSH3 0x423A JUMPI DUP5 DUP10 ADD MLOAD PUSH3 0x4236 PUSH1 0x1F DUP10 AND DUP3 PUSH3 0x412A JUMP JUMPDEST DUP4 SSTORE POP JUMPDEST PUSH1 0x1 PUSH1 0x2 DUP9 MUL ADD DUP9 SSTORE POP POP POP JUMPDEST POP POP POP POP POP POP JUMP JUMPDEST PUSH1 0x0 PUSH1 0xA0 DUP3 ADD SWAP1 POP PUSH3 0x4266 PUSH1 0x0 DUP4 ADD DUP9 PUSH3 0x2E3F JUMP JUMPDEST PUSH3 0x4275 PUSH1 0x20 DUP4 ADD DUP8 PUSH3 0x2FD7 JUMP JUMPDEST PUSH3 0x4284 PUSH1 0x40 DUP4 ADD DUP7 PUSH3 0x2E3F JUMP JUMPDEST PUSH3 0x4293 PUSH1 0x60 DUP4 ADD DUP6 PUSH3 0x2E3F JUMP JUMPDEST PUSH3 0x42A2 PUSH1 0x80 DUP4 ADD DUP5 PUSH3 0x2FD7 JUMP JUMPDEST SWAP7 SWAP6 POP POP POP POP POP POP JUMP JUMPDEST PUSH1 0x0 PUSH3 0x42B9 DUP3 PUSH3 0x2E35 JUMP JUMPDEST SWAP2 POP PUSH32 0xFFFFFFFFFFFFFFFFFFFFFFFFFFFFFFFFFFFFFFFFFFFFFFFFFFFFFFFFFFFFFFFF DUP3 SUB PUSH3 0x42EE JUMPI PUSH3 0x42ED PUSH3 0x3B5B JUMP JUMPDEST JUMPDEST PUSH1 0x1 DUP3 ADD SWAP1 POP SWAP2 SWAP1 POP JUMP JUMPDEST PUSH32 0x4E487B7100000000000000000000000000000000000000000000000000000000 PUSH1 0x0 MSTORE PUSH1 0x32 PUSH1 0x4 MSTORE PUSH1 0x24 PUSH1 0x0 REVERT JUMPDEST PUSH1 0x0 PUSH3 0x4335 DUP3 PUSH3 0x2E35 JUMP JUMPDEST SWAP2 POP PUSH3 0x4342 DUP4 PUSH3 0x2E35 JUMP JUMPDEST SWAP3 POP DUP3 DUP3 SUB SWAP1 POP DUP2 DUP2 GT ISZERO PUSH3 0x435D JUMPI PUSH3 0x435C PUSH3 0x3B5B JUMP JUMPDEST JUMPDEST SWAP3 SWAP2 POP POP JUMP JUMPDEST PUSH32 0x4E487B7100000000000000000000000000000000000000000000000000000000 PUSH1 0x0 MSTORE PUSH1 0x31 PUSH1 0x4 MSTORE PUSH1 0x24 PUSH1 0x0 REVERT JUMPDEST PUSH32 0x6C61756E6368696E672074726561737572792072657175697265732054525800 PUSH1 0x0 DUP3 ADD MSTORE POP JUMP JUMPDEST PUSH1 0x0 PUSH3 0x43CA PUSH1 0x1F DUP4 PUSH3 0x347A JUMP JUMPDEST SWAP2 POP PUSH3 0x43D7 DUP3 PUSH3 0x4392 JUMP JUMPDEST PUSH1 0x20 DUP3 ADD SWAP1 POP SWAP2 SWAP1 POP JUMP JUMPDEST PUSH1 0x0 PUSH1 0x20 DUP3 ADD SWAP1 POP DUP2 DUP2 SUB PUSH1 0x0 DUP4 ADD MSTORE PUSH3 0x43FD DUP2 PUSH3 0x43BB JUMP JUMPDEST SWAP1 POP SWAP2 SWAP1 POP JUMP JUMPDEST PUSH1 0x0 PUSH1 0x60 DUP3 ADD SWAP1 POP PUSH3 0x441B PUSH1 0x0 DUP4 ADD DUP7 PUSH3 0x2FD7 JUMP JUMPDEST PUSH3 0x442A PUSH1 0x20 DUP4 ADD DUP6 PUSH3 0x2FD7 JUMP JUMPDEST PUSH3 0x4439 PUSH1 0x40 DUP4 ADD DUP5 PUSH3 0x2E3F JUMP JUMPDEST SWAP5 SWAP4 POP POP POP POP JUMP JUMPDEST PUSH1 0x0 PUSH1 0x40 DUP3 ADD SWAP1 POP PUSH3 0x4458 PUSH1 0x0 DUP4 ADD DUP6 PUSH3 0x2FD7 JUMP JUMPDEST PUSH3 0x4467 PUSH1 0x20 DUP4 ADD DUP5 PUSH3 0x2E3F JUMP JUMPDEST SWAP4 SWAP3 POP POP POP JUMP JUMPDEST PUSH32 0x726566657265646E756D206973206E6F74206163746976650000000000000000 PUSH1 0x0 DUP3 ADD MSTORE POP JUMP JUMPDEST PUSH1 0x0 PUSH3 0x44A6 PUSH1 0x18 DUP4 PUSH3 0x347A JUMP JUMPDEST SWAP2 POP PUSH3 0x44B3 DUP3 PUSH3 0x446E JUMP JUMPDEST PUSH1 0x20 DUP3 ADD SWAP1 POP SWAP2 SWAP1 POP JUMP JUMPDEST PUSH1 0x0 PUSH1 0x20 DUP3 ADD SWAP1 POP DUP2 DUP2 SUB PUSH1 0x0 DUP4 ADD MSTORE PUSH3 0x44D9 DUP2 PUSH3 0x4497 JUMP JUMPDEST SWAP1 POP SWAP2 SWAP1 POP JUMP JUMPDEST PUSH32 0x6164647265737320616C726561647920766F74656420666F7220746869732072 PUSH1 0x0 DUP3 ADD MSTORE PUSH32 0x65666572656E64756D0000000000000000000000000000000000000000000000 PUSH1 0x20 DUP3 ADD MSTORE POP JUMP JUMPDEST PUSH1 0x0 PUSH3 0x453E PUSH1 0x29 DUP4 PUSH3 0x347A JUMP JUMPDEST SWAP2 POP PUSH3 0x454B DUP3 PUSH3 0x44E0 JUMP JUMPDEST PUSH1 0x40 DUP3 ADD SWAP1 POP SWAP2 SWAP1 POP JUMP JUMPDEST PUSH1 0x0 PUSH1 0x20 DUP3 ADD SWAP1 POP DUP2 DUP2 SUB PUSH1 0x0 DUP4 ADD MSTORE PUSH3 0x4571 DUP2 PUSH3 0x452F JUMP JUMPDEST SWAP1 POP SWAP2 SWAP1 POP JUMP JUMPDEST PUSH32 0x636F6E76696374696F6E206F7574206F662072616E6765000000000000000000 PUSH1 0x0 DUP3 ADD MSTORE POP JUMP JUMPDEST PUSH1 0x0 PUSH3 0x45B0 PUSH1 0x17 DUP4 PUSH3 0x347A JUMP JUMPDEST SWAP2 POP PUSH3 0x45BD DUP3 PUSH3 0x4578 JUMP JUMPDEST PUSH1 0x20 DUP3 ADD SWAP1 POP SWAP2 SWAP1 POP JUMP JUMPDEST PUSH1 0x0 PUSH1 0x20 DUP3 ADD SWAP1 POP DUP2 DUP2 SUB PUSH1 0x0 DUP4 ADD MSTORE PUSH3 0x45E3 DUP2 PUSH3 0x45A1 JUMP JUMPDEST SWAP1 POP SWAP2 SWAP1 POP JUMP JUMPDEST PUSH1 0x0 PUSH3 0x45F7 DUP3 PUSH3 0x2E35 JUMP JUMPDEST SWAP2 POP PUSH3 0x4604 DUP4 PUSH3 0x2E35 JUMP JUMPDEST SWAP3 POP DUP3 DUP3 MUL PUSH3 0x4614 DUP2 PUSH3 0x2E35 JUMP JUMPDEST SWAP2 POP DUP3 DUP3 DIV DUP5 EQ DUP4 ISZERO OR PUSH3 0x462E JUMPI PUSH3 0x462D PUSH3 0x3B5B JUMP JUMPDEST JUMPDEST POP SWAP3 SWAP2 POP POP JUMP JUMPDEST PUSH1 0x0 PUSH1 0xC0 DUP3 ADD SWAP1 POP PUSH3 0x464C PUSH1 0x0 DUP4 ADD DUP10 PUSH3 0x2E3F JUMP JUMPDEST PUSH3 0x465B PUSH1 0x20 DUP4 ADD DUP9 PUSH3 0x2FD7 JUMP JUMPDEST PUSH3 0x466A PUSH1 0x40 DUP4 ADD DUP8 PUSH3 0x2E3F JUMP JUMPDEST PUSH3 0x4679 PUSH1 0x60 DUP4 ADD DUP7 PUSH3 0x2E3F JUMP JUMPDEST PUSH3 0x4688 PUSH1 0x80 DUP4 ADD DUP6 PUSH3 0x3031 JUMP JUMPDEST PUSH3 0x4697 PUSH1 0xA0 DUP4 ADD DUP5 PUSH3 0x2E3F JUMP JUMPDEST SWAP8 SWAP7 POP POP POP POP POP POP POP JUMP INVALID PUSH1 0x80 PUSH1 0x40 MSTORE CALLVALUE DUP1 ISZERO PUSH2 0x10 JUMPI PUSH1 0x0 DUP1 REVERT JUMPDEST POP PUSH1 0x40 MLOAD PUSH2 0x718 CODESIZE SUB DUP1 PUSH2 0x718 DUP4 CODECOPY DUP2 DUP2 ADD PUSH1 0x40 MSTORE DUP2 ADD SWAP1 PUSH2 0x32 SWAP2 SWAP1 PUSH2 0x11C JUMP JUMPDEST DUP1 PUSH1 0x0 DUP1 PUSH2 0x100 EXP DUP2 SLOAD DUP2 PUSH20 0xFFFFFFFFFFFFFFFFFFFFFFFFFFFFFFFFFFFFFFFF MUL NOT AND SWAP1 DUP4 PUSH20 0xFFFFFFFFFFFFFFFFFFFFFFFFFFFFFFFFFFFFFFFF AND MUL OR SWAP1 SSTORE POP CALLER PUSH1 0x1 PUSH1 0x0 PUSH2 0x100 EXP DUP2 SLOAD DUP2 PUSH20 0xFFFFFFFFFFFFFFFFFFFFFFFFFFFFFFFFFFFFFFFF MUL NOT AND SWAP1 DUP4 PUSH20 0xFFFFFFFFFFFFFFFFFFFFFFFFFFFFFFFFFFFFFFFF AND MUL OR SWAP1 SSTORE POP POP PUSH2 0x149 JUMP JUMPDEST PUSH1 0x0 DUP1 REVERT JUMPDEST PUSH1 0x0 PUSH20 0xFFFFFFFFFFFFFFFFFFFFFFFFFFFFFFFFFFFFFFFF DUP3 AND SWAP1 POP SWAP2 SWAP1 POP JUMP JUMPDEST PUSH1 0x0 PUSH2 0xE9 DUP3 PUSH2 0xBE JUMP JUMPDEST SWAP1 POP SWAP2 SWAP1 POP JUMP JUMPDEST PUSH2 0xF9 DUP2 PUSH2 0xDE JUMP JUMPDEST DUP2 EQ PUSH2 0x104 JUMPI PUSH1 0x0 DUP1 REVERT JUMPDEST POP JUMP JUMPDEST PUSH1 0x0 DUP2 MLOAD SWAP1 POP PUSH2 0x116 DUP2 PUSH2 0xF0 JUMP JUMPDEST SWAP3 SWAP2 POP POP JUMP JUMPDEST PUSH1 0x0 PUSH1 0x20 DUP3 DUP5 SUB SLT ISZERO PUSH2 0x132 JUMPI PUSH2 0x131 PUSH2 0xB9 JUMP JUMPDEST JUMPDEST PUSH1 0x0 PUSH2 0x140 DUP5 DUP3 DUP6 ADD PUSH2 0x107 JUMP JUMPDEST SWAP2 POP POP SWAP3 SWAP2 POP POP JUMP JUMPDEST PUSH2 0x5C0 DUP1 PUSH2 0x158 PUSH1 0x0 CODECOPY PUSH1 0x0 RETURN INVALID PUSH1 0x80 PUSH1 0x40 MSTORE PUSH1 0x4 CALLDATASIZE LT PUSH2 0x4E JUMPI PUSH1 0x0 CALLDATALOAD PUSH1 0xE0 SHR DUP1 PUSH4 0x9E0994A1 EQ PUSH2 0x93 JUMPI DUP1 PUSH4 0xA1B8693F EQ PUSH2 0xAF JUMPI DUP1 PUSH4 0xB32C9356 EQ PUSH2 0xDA JUMPI DUP1 PUSH4 0xC1E1EB27 EQ PUSH2 0x105 JUMPI DUP1 PUSH4 0xF851A440 EQ PUSH2 0x11C JUMPI PUSH2 0x8E JUMP JUMPDEST CALLDATASIZE PUSH2 0x8E JUMPI PUSH32 0x88A5966D370B9919B20F3E2C13FF65706F196A4E32CC2C12BF57088F88525874 CALLER CALLVALUE PUSH1 0x40 MLOAD PUSH2 0x84 SWAP3 SWAP2 SWAP1 PUSH2 0x3A5 JUMP JUMPDEST PUSH1 0x40 MLOAD DUP1 SWAP2 SUB SWAP1 LOG1 STOP JUMPDEST PUSH1 0x0 DUP1 REVERT JUMPDEST PUSH2 0xAD PUSH1 0x4 DUP1 CALLDATASIZE SUB DUP2 ADD SWAP1 PUSH2 0xA8 SWAP2 SWAP1 PUSH2 0x42B JUMP JUMPDEST PUSH2 0x147 JUMP JUMPDEST STOP JUMPDEST CALLVALUE DUP1 ISZERO PUSH2 0xBB JUMPI PUSH1 0x0 DUP1 REVERT JUMPDEST POP PUSH2 0xC4 PUSH2 0x222 JUMP JUMPDEST PUSH1 0x40 MLOAD PUSH2 0xD1 SWAP2 SWAP1 PUSH2 0x46B JUMP JUMPDEST PUSH1 0x40 MLOAD DUP1 SWAP2 SUB SWAP1 RETURN JUMPDEST CALLVALUE DUP1 ISZERO PUSH2 0xE6 JUMPI PUSH1 0x0 DUP1 REVERT JUMPDEST POP PUSH2 0xEF PUSH2 0x248 JUMP JUMPDEST PUSH1 0x40 MLOAD PUSH2 0xFC SWAP2 SWAP1 PUSH2 0x486 JUMP JUMPDEST PUSH1 0x40 MLOAD DUP1 SWAP2 SUB SWAP1 RETURN JUMPDEST CALLVALUE DUP1 ISZERO PUSH2 0x111 JUMPI PUSH1 0x0 DUP1 REVERT JUMPDEST POP PUSH2 0x11A PUSH2 0x250 JUMP JUMPDEST STOP JUMPDEST CALLVALUE DUP1 ISZERO PUSH2 0x128 JUMPI PUSH1 0x0 DUP1 REVERT JUMPDEST POP PUSH2 0x131 PUSH2 0x327 JUMP JUMPDEST PUSH1 0x40 MLOAD PUSH2 0x13E SWAP2 SWAP1 PUSH2 0x46B JUMP JUMPDEST PUSH1 0x40 MLOAD DUP1 SWAP2 SUB SWAP1 RETURN JUMPDEST PUSH1 0x1 PUSH1 0x0 SWAP1 SLOAD SWAP1 PUSH2 0x100 EXP SWAP1 DIV PUSH20 0xFFFFFFFFFFFFFFFFFFFFFFFFFFFFFFFFFFFFFFFF AND PUSH20 0xFFFFFFFFFFFFFFFFFFFFFFFFFFFFFFFFFFFFFFFF AND CALLER PUSH20 0xFFFFFFFFFFFFFFFFFFFFFFFFFFFFFFFFFFFFFFFF AND EQ PUSH2 0x1D7 JUMPI PUSH1 0x40 MLOAD PUSH32 0x8C379A000000000000000000000000000000000000000000000000000000000 DUP2 MSTORE PUSH1 0x4 ADD PUSH2 0x1CE SWAP1 PUSH2 0x4FE JUMP JUMPDEST PUSH1 0x40 MLOAD DUP1 SWAP2 SUB SWAP1 REVERT JUMPDEST DUP2 PUSH20 0xFFFFFFFFFFFFFFFFFFFFFFFFFFFFFFFFFFFFFFFF AND PUSH2 0x8FC DUP3 SWAP1 DUP2 ISZERO MUL SWAP1 PUSH1 0x40 MLOAD PUSH1 0x0 PUSH1 0x40 MLOAD DUP1 DUP4 SUB DUP2 DUP6 DUP9 DUP9 CALL SWAP4 POP POP POP POP ISZERO DUP1 ISZERO PUSH2 0x21D JUMPI RETURNDATASIZE PUSH1 0x0 DUP1 RETURNDATACOPY RETURNDATASIZE PUSH1 0x0 REVERT JUMPDEST POP POP POP JUMP JUMPDEST PUSH1 0x1 PUSH1 0x0 SWAP1 SLOAD SWAP1 PUSH2 0x100 EXP SWAP1 DIV PUSH20 0xFFFFFFFFFFFFFFFFFFFFFFFFFFFFFFFFFFFFFFFF AND DUP2 JUMP JUMPDEST PUSH1 0x0 SELFBALANCE SWAP1 POP SWAP1 JUMP JUMPDEST PUSH1 0x0 DUP1 SLOAD SWAP1 PUSH2 0x100 EXP SWAP1 DIV PUSH20 0xFFFFFFFFFFFFFFFFFFFFFFFFFFFFFFFFFFFFFFFF AND PUSH20 0xFFFFFFFFFFFFFFFFFFFFFFFFFFFFFFFFFFFFFFFF AND CALLER PUSH20 0xFFFFFFFFFFFFFFFFFFFFFFFFFFFFFFFFFFFFFFFF AND EQ PUSH2 0x2DE JUMPI PUSH1 0x40 MLOAD PUSH32 0x8C379A000000000000000000000000000000000000000000000000000000000 DUP2 MSTORE PUSH1 0x4 ADD PUSH2 0x2D5 SWAP1 PUSH2 0x56A JUMP JUMPDEST PUSH1 0x40 MLOAD DUP1 SWAP2 SUB SWAP1 REVERT JUMPDEST CALLER PUSH20 0xFFFFFFFFFFFFFFFFFFFFFFFFFFFFFFFFFFFFFFFF AND PUSH2 0x8FC SELFBALANCE SWAP1 DUP2 ISZERO MUL SWAP1 PUSH1 0x40 MLOAD PUSH1 0x0 PUSH1 0x40 MLOAD DUP1 DUP4 SUB DUP2 DUP6 DUP9 DUP9 CALL SWAP4 POP POP POP POP ISZERO DUP1 ISZERO PUSH2 0x324 JUMPI RETURNDATASIZE PUSH1 0x0 DUP1 RETURNDATACOPY RETURNDATASIZE PUSH1 0x0 REVERT JUMPDEST POP JUMP JUMPDEST PUSH1 0x0 DUP1 SLOAD SWAP1 PUSH2 0x100 EXP SWAP1 DIV PUSH20 0xFFFFFFFFFFFFFFFFFFFFFFFFFFFFFFFFFFFFFFFF AND DUP2 JUMP JUMPDEST PUSH1 0x0 PUSH20 0xFFFFFFFFFFFFFFFFFFFFFFFFFFFFFFFFFFFFFFFF DUP3 AND SWAP1 POP SWAP2 SWAP1 POP JUMP JUMPDEST PUSH1 0x0 PUSH2 0x376 DUP3 PUSH2 0x34B JUMP JUMPDEST SWAP1 POP SWAP2 SWAP1 POP JUMP JUMPDEST PUSH2 0x386 DUP2 PUSH2 0x36B JUMP JUMPDEST DUP3 MSTORE POP POP JUMP JUMPDEST PUSH1 0x0 DUP2 SWAP1 POP SWAP2 SWAP1 POP JUMP JUMPDEST PUSH2 0x39F DUP2 PUSH2 0x38C JUMP JUMPDEST DUP3 MSTORE POP POP JUMP JUMPDEST PUSH1 0x0 PUSH1 0x40 DUP3 ADD SWAP1 POP PUSH2 0x3BA PUSH1 0x0 DUP4 ADD DUP6 PUSH2 0x37D JUMP JUMPDEST PUSH2 0x3C7 PUSH1 0x20 DUP4 ADD DUP5 PUSH2 0x396 JUMP JUMPDEST SWAP4 SWAP3 POP POP POP JUMP JUMPDEST PUSH1 0x0 DUP1 REVERT JUMPDEST PUSH2 0x3DC DUP2 PUSH2 0x36B JUMP JUMPDEST DUP2 EQ PUSH2 0x3E7 JUMPI PUSH1 0x0 DUP1 REVERT JUMPDEST POP JUMP JUMPDEST PUSH1 0x0 DUP2 CALLDATALOAD SWAP1 POP PUSH2 0x3F9 DUP2 PUSH2 0x3D3 JUMP JUMPDEST SWAP3 SWAP2 POP POP JUMP JUMPDEST PUSH2 0x408 DUP2 PUSH2 0x38C JUMP JUMPDEST DUP2 EQ PUSH2 0x413 JUMPI PUSH1 0x0 DUP1 REVERT JUMPDEST POP JUMP JUMPDEST PUSH1 0x0 DUP2 CALLDATALOAD SWAP1 POP PUSH2 0x425 DUP2 PUSH2 0x3FF JUMP JUMPDEST SWAP3 SWAP2 POP POP JUMP JUMPDEST PUSH1 0x0 DUP1 PUSH1 0x40 DUP4 DUP6 SUB SLT ISZERO PUSH2 0x442 JUMPI PUSH2 0x441 PUSH2 0x3CE JUMP JUMPDEST JUMPDEST PUSH1 0x0 PUSH2 0x450 DUP6 DUP3 DUP7 ADD PUSH2 0x3EA JUMP JUMPDEST SWAP3 POP POP PUSH1 0x20 PUSH2 0x461 DUP6 DUP3 DUP7 ADD PUSH2 0x416 JUMP JUMPDEST SWAP2 POP POP SWAP3 POP SWAP3 SWAP1 POP JUMP JUMPDEST PUSH1 0x0 PUSH1 0x20 DUP3 ADD SWAP1 POP PUSH2 0x480 PUSH1 0x0 DUP4 ADD DUP5 PUSH2 0x37D JUMP JUMPDEST SWAP3 SWAP2 POP POP JUMP JUMPDEST PUSH1 0x0 PUSH1 0x20 DUP3 ADD SWAP1 POP PUSH2 0x49B PUSH1 0x0 DUP4 ADD DUP5 PUSH2 0x396 JUMP JUMPDEST SWAP3 SWAP2 POP POP JUMP JUMPDEST PUSH1 0x0 DUP3 DUP3 MSTORE PUSH1 0x20 DUP3 ADD SWAP1 POP SWAP3 SWAP2 POP POP JUMP JUMPDEST PUSH32 0x616374696F6E206F6E6C7920666F7220676F7641646D696E0000000000000000 PUSH1 0x0 DUP3 ADD MSTORE POP JUMP JUMPDEST PUSH1 0x0 PUSH2 0x4E8 PUSH1 0x18 DUP4 PUSH2 0x4A1 JUMP JUMPDEST SWAP2 POP PUSH2 0x4F3 DUP3 PUSH2 0x4B2 JUMP JUMPDEST PUSH1 0x20 DUP3 ADD SWAP1 POP SWAP2 SWAP1 POP JUMP JUMPDEST PUSH1 0x0 PUSH1 0x20 DUP3 ADD SWAP1 POP DUP2 DUP2 SUB PUSH1 0x0 DUP4 ADD MSTORE PUSH2 0x517 DUP2 PUSH2 0x4DB JUMP JUMPDEST SWAP1 POP SWAP2 SWAP1 POP JUMP JUMPDEST PUSH32 0x616374696F6E206F6E6C7920666F722061646D696E0000000000000000000000 PUSH1 0x0 DUP3 ADD MSTORE POP JUMP JUMPDEST PUSH1 0x0 PUSH2 0x554 PUSH1 0x15 DUP4 PUSH2 0x4A1 JUMP JUMPDEST SWAP2 POP PUSH2 0x55F DUP3 PUSH2 0x51E JUMP JUMPDEST PUSH1 0x20 DUP3 ADD SWAP1 POP SWAP2 SWAP1 POP JUMP JUMPDEST PUSH1 0x0 PUSH1 0x20 DUP3 ADD SWAP1 POP DUP2 DUP2 SUB PUSH1 0x0 DUP4 ADD MSTORE PUSH2 0x583 DUP2 PUSH2 0x547 JUMP JUMPDEST SWAP1 POP SWAP2 SWAP1 POP JUMP INVALID LOG2 PUSH5 0x6970667358 0x22 SLT KECCAK256 0xD8 0x21 0x22 SWAP9 SLT PUSH9 0x51DAA5EF5F3AB70C9D EXTCODESIZE 0x26 0xD2 SELFBALANCE PUSH11 0x1BCC4F493EF0FBF108C4A0 0x5C PUSH5 0x736F6C6343 STOP ADDMOD GT STOP CALLER LOG2 PUSH5 0x6970667358 0x22 SLT KECCAK256 SWAP9 0xDC PUSH5 0xE61D759464 ADDRESS 0x24 0xBF 0xDE GASLIMIT RETURNDATACOPY 0xA6 INVALID 0xC6 DUP12 PUSH13 0x16B416326F01F0917BACE78A81 PUSH5 0x736F6C6343 STOP ADDMOD GT STOP CALLER "
		},
		"gasEstimates": {
			"creation": {
				"codeDepositCost": "3990400",
				"executionCost": "361013",
				"totalCost": "4351413"
			},
			"external": {
				"activeReferenda(uint256)": "infinite",
				"activeVoteTokens(uint256)": "infinite",
				"admin()": "2668",
				"band1()": "2518",
				"band1_ScoreThreshold()": "2517",
				"band2()": "2497",
				"band2_ScoreThreshold()": "2584",
				"band3()": "2496",
				"band3_ScoreThreshold()": "2585",
				"beneficiaryScore(address)": "2927",
				"convictionLockedBlocks(uint256)": "infinite",
				"convictionMultiplier(uint256)": "infinite",
				"createNewReferendum(address,uint256,string,uint256,uint256,uint256)": "infinite",
				"expiredReferenda(uint256)": "infinite",
				"getActiveReferenda()": "infinite",
				"getActiveVoteTokens()": "infinite",
				"getExpiredReferenda()": "infinite",
				"getPreparedReferenda()": "infinite",
				"getQueueActiveRefBlocks()": "infinite",
				"getQueuePreparRefBlocks()": "infinite",
				"getTreasurers()": "infinite",
				"isTreasurer(address)": "2956",
				"isVoterOfReferendum(uint256,address)": "3153",
				"launchNewTreasury()": "infinite",
				"preparedReferenda(uint256)": "infinite",
				"queueActiveRefBlocks(uint256)": "infinite",
				"queuePreparRefBlocks(uint256)": "infinite",
				"referendumBeneficiary(address)": "2935",
				"referendumBeneficiaryIsEntitled(address,uint256)": "11600",
				"referendumDetails(uint256)": "infinite",
				"referendumIndex()": "2474",
				"referendumIsActive(uint256)": "2997",
				"refrendumFee()": "2564",
				"scoreBeneficiary(address,uint256,uint256)": "infinite",
				"treasurerBalanceThreshold()": "2476",
				"treasurers(uint256)": "5068",
				"unlockVoteTokens()": "infinite",
				"updateActiveReferenda()": "infinite",
				"updatePreparedReferenda()": "infinite",
				"updateQueueActiveRefBlocks()": "infinite",
				"updateQueuePreparRefBlocks()": "infinite",
				"voteReferendum(uint256,bool,uint256)": "infinite",
				"voterClaimableAmount(address)": "2946",
				"withdrawVoteTokens()": "infinite"
			}
		},
		"methodIdentifiers": {
			"activeReferenda(uint256)": "d855dd13",
			"activeVoteTokens(uint256)": "38ad5e4f",
			"admin()": "f851a440",
			"band1()": "82c6df45",
			"band1_ScoreThreshold()": "ee588f3c",
			"band2()": "8f7a91b3",
			"band2_ScoreThreshold()": "8e8e0cd7",
			"band3()": "7cf773ee",
			"band3_ScoreThreshold()": "547246e2",
			"beneficiaryScore(address)": "1a54a0d2",
			"convictionLockedBlocks(uint256)": "a58704cd",
			"convictionMultiplier(uint256)": "a0581453",
			"createNewReferendum(address,uint256,string,uint256,uint256,uint256)": "534e4eb3",
			"expiredReferenda(uint256)": "0ec7335f",
			"getActiveReferenda()": "633b1370",
			"getActiveVoteTokens()": "b856ca07",
			"getExpiredReferenda()": "ccf22dff",
			"getPreparedReferenda()": "556f020a",
			"getQueueActiveRefBlocks()": "5b7fdfad",
			"getQueuePreparRefBlocks()": "894ac2d9",
			"getTreasurers()": "f5eb4956",
			"isTreasurer(address)": "cc0d50e6",
			"isVoterOfReferendum(uint256,address)": "ee37d515",
			"launchNewTreasury()": "571ae010",
			"preparedReferenda(uint256)": "d7df24a0",
			"queueActiveRefBlocks(uint256)": "a65fee3d",
			"queuePreparRefBlocks(uint256)": "1656e087",
			"referendumBeneficiary(address)": "3f10e476",
			"referendumBeneficiaryIsEntitled(address,uint256)": "8f32e1ac",
			"referendumDetails(uint256)": "b6488637",
			"referendumIndex()": "d5309ca3",
			"referendumIsActive(uint256)": "4b10f9f7",
			"refrendumFee()": "212d006a",
			"scoreBeneficiary(address,uint256,uint256)": "2e832901",
			"treasurerBalanceThreshold()": "02dbe43f",
			"treasurers(uint256)": "a2e21e29",
			"unlockVoteTokens()": "8cfd0dd6",
			"updateActiveReferenda()": "6af1c2b8",
			"updatePreparedReferenda()": "d2117795",
			"updateQueueActiveRefBlocks()": "e4d728d4",
			"updateQueuePreparRefBlocks()": "560aa844",
			"voteReferendum(uint256,bool,uint256)": "ec8ae6c7",
			"voterClaimableAmount(address)": "f84a7700",
			"withdrawVoteTokens()": "e1c2da87"
		}
	},
	"abi": [
		{
			"inputs": [],
			"stateMutability": "nonpayable",
			"type": "constructor"
		},
		{
			"anonymous": false,
			"inputs": [
				{
					"indexed": false,
					"internalType": "uint256",
					"name": "index",
					"type": "uint256"
				},
				{
					"indexed": false,
					"internalType": "address",
					"name": "beneficiary",
					"type": "address"
				},
				{
					"indexed": false,
					"internalType": "uint256",
					"name": "amount",
					"type": "uint256"
				},
				{
					"indexed": false,
					"internalType": "uint256",
					"name": "startBlock",
					"type": "uint256"
				},
				{
					"indexed": false,
					"internalType": "address",
					"name": "treasuryAddress",
					"type": "address"
				}
			],
			"name": "newReferendumCreated",
			"type": "event"
		},
		{
			"anonymous": false,
			"inputs": [
				{
					"indexed": false,
					"internalType": "address",
					"name": "admin",
					"type": "address"
				},
				{
					"indexed": false,
					"internalType": "address",
					"name": "newTreasuryAddress",
					"type": "address"
				},
				{
					"indexed": false,
					"internalType": "uint256",
					"name": "initialFunds",
					"type": "uint256"
				}
			],
			"name": "newTreasuryLaunched",
			"type": "event"
		},
		{
			"anonymous": false,
			"inputs": [
				{
					"indexed": false,
					"internalType": "uint256",
					"name": "refIndex",
					"type": "uint256"
				},
				{
					"indexed": false,
					"internalType": "address",
					"name": "voter",
					"type": "address"
				},
				{
					"indexed": false,
					"internalType": "uint256",
					"name": "numTokens",
					"type": "uint256"
				},
				{
					"indexed": false,
					"internalType": "uint256",
					"name": "totalValue",
					"type": "uint256"
				},
				{
					"indexed": false,
					"internalType": "bool",
					"name": "aye",
					"type": "bool"
				},
				{
					"indexed": false,
					"internalType": "uint256",
					"name": "convction",
					"type": "uint256"
				}
			],
			"name": "newVoteEvent",
			"type": "event"
		},
		{
			"inputs": [
				{
					"internalType": "uint256",
					"name": "",
					"type": "uint256"
				}
			],
			"name": "activeReferenda",
			"outputs": [
				{
					"internalType": "uint256",
					"name": "",
					"type": "uint256"
				}
			],
			"stateMutability": "view",
			"type": "function"
		},
		{
			"inputs": [
				{
					"internalType": "uint256",
					"name": "",
					"type": "uint256"
				}
			],
			"name": "activeVoteTokens",
			"outputs": [
				{
					"internalType": "uint256",
					"name": "unlockBlockNum",
					"type": "uint256"
				},
				{
					"internalType": "uint256",
					"name": "amount",
					"type": "uint256"
				},
				{
					"internalType": "address",
					"name": "voteOwner",
					"type": "address"
				}
			],
			"stateMutability": "view",
			"type": "function"
		},
		{
			"inputs": [],
			"name": "admin",
			"outputs": [
				{
					"internalType": "address",
					"name": "",
					"type": "address"
				}
			],
			"stateMutability": "view",
			"type": "function"
		},
		{
			"inputs": [],
			"name": "band1",
			"outputs": [
				{
					"internalType": "uint256",
					"name": "",
					"type": "uint256"
				}
			],
			"stateMutability": "view",
			"type": "function"
		},
		{
			"inputs": [],
			"name": "band1_ScoreThreshold",
			"outputs": [
				{
					"internalType": "uint256",
					"name": "",
					"type": "uint256"
				}
			],
			"stateMutability": "view",
			"type": "function"
		},
		{
			"inputs": [],
			"name": "band2",
			"outputs": [
				{
					"internalType": "uint256",
					"name": "",
					"type": "uint256"
				}
			],
			"stateMutability": "view",
			"type": "function"
		},
		{
			"inputs": [],
			"name": "band2_ScoreThreshold",
			"outputs": [
				{
					"internalType": "uint256",
					"name": "",
					"type": "uint256"
				}
			],
			"stateMutability": "view",
			"type": "function"
		},
		{
			"inputs": [],
			"name": "band3",
			"outputs": [
				{
					"internalType": "uint256",
					"name": "",
					"type": "uint256"
				}
			],
			"stateMutability": "view",
			"type": "function"
		},
		{
			"inputs": [],
			"name": "band3_ScoreThreshold",
			"outputs": [
				{
					"internalType": "uint256",
					"name": "",
					"type": "uint256"
				}
			],
			"stateMutability": "view",
			"type": "function"
		},
		{
			"inputs": [
				{
					"internalType": "address",
					"name": "",
					"type": "address"
				}
			],
			"name": "beneficiaryScore",
			"outputs": [
				{
					"internalType": "uint256",
					"name": "",
					"type": "uint256"
				}
			],
			"stateMutability": "view",
			"type": "function"
		},
		{
			"inputs": [
				{
					"internalType": "uint256",
					"name": "",
					"type": "uint256"
				}
			],
			"name": "convictionLockedBlocks",
			"outputs": [
				{
					"internalType": "uint256",
					"name": "",
					"type": "uint256"
				}
			],
			"stateMutability": "view",
			"type": "function"
		},
		{
			"inputs": [
				{
					"internalType": "uint256",
					"name": "",
					"type": "uint256"
				}
			],
			"name": "convictionMultiplier",
			"outputs": [
				{
					"internalType": "uint256",
					"name": "",
					"type": "uint256"
				}
			],
			"stateMutability": "view",
			"type": "function"
		},
		{
			"inputs": [
				{
					"internalType": "address",
					"name": "_treasuryAddress",
					"type": "address"
				},
				{
					"internalType": "uint256",
					"name": "_amount",
					"type": "uint256"
				},
				{
					"internalType": "string",
					"name": "_referendumCID",
					"type": "string"
				},
				{
					"internalType": "uint256",
					"name": "startInNumBlocks",
					"type": "uint256"
				},
				{
					"internalType": "uint256",
					"name": "duration",
					"type": "uint256"
				},
				{
					"internalType": "uint256",
					"name": "scoreInNumBlocks",
					"type": "uint256"
				}
			],
			"name": "createNewReferendum",
			"outputs": [],
			"stateMutability": "payable",
			"type": "function"
		},
		{
			"inputs": [
				{
					"internalType": "uint256",
					"name": "",
					"type": "uint256"
				}
			],
			"name": "expiredReferenda",
			"outputs": [
				{
					"internalType": "uint256",
					"name": "",
					"type": "uint256"
				}
			],
			"stateMutability": "view",
			"type": "function"
		},
		{
			"inputs": [],
			"name": "getActiveReferenda",
			"outputs": [
				{
					"internalType": "uint256[]",
					"name": "",
					"type": "uint256[]"
				}
			],
			"stateMutability": "view",
			"type": "function"
		},
		{
			"inputs": [],
			"name": "getActiveVoteTokens",
			"outputs": [
				{
					"components": [
						{
							"internalType": "uint256",
							"name": "unlockBlockNum",
							"type": "uint256"
						},
						{
							"internalType": "uint256",
							"name": "amount",
							"type": "uint256"
						},
						{
							"internalType": "address",
							"name": "voteOwner",
							"type": "address"
						}
					],
					"internalType": "struct tronGovernance.voteToken[]",
					"name": "",
					"type": "tuple[]"
				}
			],
			"stateMutability": "view",
			"type": "function"
		},
		{
			"inputs": [],
			"name": "getExpiredReferenda",
			"outputs": [
				{
					"internalType": "uint256[]",
					"name": "",
					"type": "uint256[]"
				}
			],
			"stateMutability": "view",
			"type": "function"
		},
		{
			"inputs": [],
			"name": "getPreparedReferenda",
			"outputs": [
				{
					"internalType": "uint256[]",
					"name": "",
					"type": "uint256[]"
				}
			],
			"stateMutability": "view",
			"type": "function"
		},
		{
			"inputs": [],
			"name": "getQueueActiveRefBlocks",
			"outputs": [
				{
					"internalType": "uint256[]",
					"name": "",
					"type": "uint256[]"
				}
			],
			"stateMutability": "view",
			"type": "function"
		},
		{
			"inputs": [],
			"name": "getQueuePreparRefBlocks",
			"outputs": [
				{
					"internalType": "uint256[]",
					"name": "",
					"type": "uint256[]"
				}
			],
			"stateMutability": "view",
			"type": "function"
		},
		{
			"inputs": [],
			"name": "getTreasurers",
			"outputs": [
				{
					"internalType": "address[]",
					"name": "",
					"type": "address[]"
				}
			],
			"stateMutability": "view",
			"type": "function"
		},
		{
			"inputs": [
				{
					"internalType": "address",
					"name": "",
					"type": "address"
				}
			],
			"name": "isTreasurer",
			"outputs": [
				{
					"internalType": "bool",
					"name": "",
					"type": "bool"
				}
			],
			"stateMutability": "view",
			"type": "function"
		},
		{
			"inputs": [
				{
					"internalType": "uint256",
					"name": "",
					"type": "uint256"
				},
				{
					"internalType": "address",
					"name": "",
					"type": "address"
				}
			],
			"name": "isVoterOfReferendum",
			"outputs": [
				{
					"internalType": "bool",
					"name": "",
					"type": "bool"
				}
			],
			"stateMutability": "view",
			"type": "function"
		},
		{
			"inputs": [],
			"name": "launchNewTreasury",
			"outputs": [],
			"stateMutability": "payable",
			"type": "function"
		},
		{
			"inputs": [
				{
					"internalType": "uint256",
					"name": "",
					"type": "uint256"
				}
			],
			"name": "preparedReferenda",
			"outputs": [
				{
					"internalType": "uint256",
					"name": "",
					"type": "uint256"
				}
			],
			"stateMutability": "view",
			"type": "function"
		},
		{
			"inputs": [
				{
					"internalType": "uint256",
					"name": "",
					"type": "uint256"
				}
			],
			"name": "queueActiveRefBlocks",
			"outputs": [
				{
					"internalType": "uint256",
					"name": "",
					"type": "uint256"
				}
			],
			"stateMutability": "view",
			"type": "function"
		},
		{
			"inputs": [
				{
					"internalType": "uint256",
					"name": "",
					"type": "uint256"
				}
			],
			"name": "queuePreparRefBlocks",
			"outputs": [
				{
					"internalType": "uint256",
					"name": "",
					"type": "uint256"
				}
			],
			"stateMutability": "view",
			"type": "function"
		},
		{
			"inputs": [
				{
					"internalType": "address",
					"name": "",
					"type": "address"
				}
			],
			"name": "referendumBeneficiary",
			"outputs": [
				{
					"internalType": "bool",
					"name": "",
					"type": "bool"
				}
			],
			"stateMutability": "view",
			"type": "function"
		},
		{
			"inputs": [
				{
					"internalType": "address",
					"name": "benef",
					"type": "address"
				},
				{
					"internalType": "uint256",
					"name": "amount",
					"type": "uint256"
				}
			],
			"name": "referendumBeneficiaryIsEntitled",
			"outputs": [
				{
					"internalType": "bool",
					"name": "",
					"type": "bool"
				}
			],
			"stateMutability": "view",
			"type": "function"
		},
		{
			"inputs": [
				{
					"internalType": "uint256",
					"name": "",
					"type": "uint256"
				}
			],
			"name": "referendumDetails",
			"outputs": [
				{
					"internalType": "uint256",
					"name": "index",
					"type": "uint256"
				},
				{
					"internalType": "address",
					"name": "beneficier",
					"type": "address"
				},
				{
					"internalType": "address",
					"name": "treasuryAddress",
					"type": "address"
				},
				{
					"internalType": "uint256",
					"name": "amount",
					"type": "uint256"
				},
				{
					"internalType": "string",
					"name": "referendumCID",
					"type": "string"
				},
				{
					"internalType": "uint256",
					"name": "startBlock",
					"type": "uint256"
				},
				{
					"internalType": "uint256",
					"name": "endBlock",
					"type": "uint256"
				},
				{
					"internalType": "uint256",
					"name": "scoreBlocknum",
					"type": "uint256"
				},
				{
					"internalType": "uint256",
					"name": "votesAye",
					"type": "uint256"
				},
				{
					"internalType": "uint256",
					"name": "votesNay",
					"type": "uint256"
				},
				{
					"internalType": "uint256",
					"name": "turnount",
					"type": "uint256"
				},
				{
					"internalType": "bool",
					"name": "passed",
					"type": "bool"
				}
			],
			"stateMutability": "view",
			"type": "function"
		},
		{
			"inputs": [],
			"name": "referendumIndex",
			"outputs": [
				{
					"internalType": "uint256",
					"name": "",
					"type": "uint256"
				}
			],
			"stateMutability": "view",
			"type": "function"
		},
		{
			"inputs": [
				{
					"internalType": "uint256",
					"name": "",
					"type": "uint256"
				}
			],
			"name": "referendumIsActive",
			"outputs": [
				{
					"internalType": "enum tronGovernance.REFERENDUMSTATE",
					"name": "",
					"type": "uint8"
				}
			],
			"stateMutability": "view",
			"type": "function"
		},
		{
			"inputs": [],
			"name": "refrendumFee",
			"outputs": [
				{
					"internalType": "uint256",
					"name": "",
					"type": "uint256"
				}
			],
			"stateMutability": "view",
			"type": "function"
		},
		{
			"inputs": [
				{
					"internalType": "address",
					"name": "treasuryAddress",
					"type": "address"
				},
				{
					"internalType": "uint256",
					"name": "refIndex",
					"type": "uint256"
				},
				{
					"internalType": "uint256",
					"name": "score",
					"type": "uint256"
				}
			],
			"name": "scoreBeneficiary",
			"outputs": [],
			"stateMutability": "nonpayable",
			"type": "function"
		},
		{
			"inputs": [],
			"name": "treasurerBalanceThreshold",
			"outputs": [
				{
					"internalType": "uint256",
					"name": "",
					"type": "uint256"
				}
			],
			"stateMutability": "view",
			"type": "function"
		},
		{
			"inputs": [
				{
					"internalType": "uint256",
					"name": "",
					"type": "uint256"
				}
			],
			"name": "treasurers",
			"outputs": [
				{
					"internalType": "address",
					"name": "",
					"type": "address"
				}
			],
			"stateMutability": "view",
			"type": "function"
		},
		{
			"inputs": [],
			"name": "unlockVoteTokens",
			"outputs": [],
			"stateMutability": "nonpayable",
			"type": "function"
		},
		{
			"inputs": [],
			"name": "updateActiveReferenda",
			"outputs": [],
			"stateMutability": "nonpayable",
			"type": "function"
		},
		{
			"inputs": [],
			"name": "updatePreparedReferenda",
			"outputs": [],
			"stateMutability": "nonpayable",
			"type": "function"
		},
		{
			"inputs": [],
			"name": "updateQueueActiveRefBlocks",
			"outputs": [],
			"stateMutability": "nonpayable",
			"type": "function"
		},
		{
			"inputs": [],
			"name": "updateQueuePreparRefBlocks",
			"outputs": [],
			"stateMutability": "nonpayable",
			"type": "function"
		},
		{
			"inputs": [
				{
					"internalType": "uint256",
					"name": "referendumID",
					"type": "uint256"
				},
				{
					"internalType": "bool",
					"name": "isAye",
					"type": "bool"
				},
				{
					"internalType": "uint256",
					"name": "conviction",
					"type": "uint256"
				}
			],
			"name": "voteReferendum",
			"outputs": [],
			"stateMutability": "payable",
			"type": "function"
		},
		{
			"inputs": [
				{
					"internalType": "address",
					"name": "",
					"type": "address"
				}
			],
			"name": "voterClaimableAmount",
			"outputs": [
				{
					"internalType": "uint256",
					"name": "",
					"type": "uint256"
				}
			],
			"stateMutability": "view",
			"type": "function"
		},
		{
			"inputs": [],
			"name": "withdrawVoteTokens",
			"outputs": [],
			"stateMutability": "nonpayable",
			"type": "function"
		}
	]
}